:1000000000800010D1000000CD000000CD000000F5
:10001000CD000000CD000000CD0000002E7BFFEFE2
:10002000000000000000000000000000CD00000003
:10003000CD00000000000000CD000000CD00000059
:10004000CD000000CD000000CD000000CD0000007C
:10005000CD000000CD00000069250000CD000000AB
:10006000C5250000CD000000CD000000CD0000003F
:10007000CD000000CD000000CD000000CD0000004C
:10008000CD000000CD000000CD000000CD0000003C
:10009000CD000000CD000000CD000000CD0000002C
:1000A000C91D0000CD00000049190000CD0000006E
:1000B000CD000000CD000000CD000000CD0000000C
:1000C000CD000000CD000000CD000000FEE70000E4
:1000D000684620F007018D4601B500230B4A0C4904
:1000E0009818884204D20B49585898500433F5E7C1
:1000F000094B0A4A934203D2002043F8040BF8E765
:1001000002F030FF00F00EF8FEE700BF0000001024
:100110001000001070330000100100108017001054
:1001200070470000F8B5002001F06CFB002001F0E2
:1001300037FD012001F0E9FCBF4BC04C1A6822F4E6
:100140004000186019681960256825F0006626606F
:100150001F6C27F440021A64186C18640023B84915
:100160005E5CCF18740104F100557C7805F51C2005
:100170000125F20005FA04F502F1804104F00F07B1
:1001800001F5303221097C00032707FA04F4856168
:1001900052F82160023326EA040642F8216052F840
:1001A0002170062B42F82170026845EA02050560BD
:1001B000D5D10023A34DEC1867785E5D0125700151
:1001C00005FA07F500F1005107F00F0401F51C20B6
:1001D00064003909032707FA04F4F20002F18046AB
:1001E000856106F5303252F82160023326EA0406B2
:1001F00042F8216052F821700C2B42F821700268FD
:1002000045EA02050560D5D100238F4DEC186778CB
:100210005E5D0125700105FA07F500F1005107F058
:100220000F0401F51C2064003909032707FA04F4C0
:10023000F20002F18046C56106F5303252F82160C5
:10024000023326EA040642F8216052F82170062B98
:1002500042F82170026845EA02050560D5D1802484
:1002600000257748295C43194E015978012006F191
:10027000005700FA01F6023507F51C22062DD6615B
:10028000EFD101F097FC00226D4D505DAE187578EE
:100290004701012007F1005300FA05F7023203F588
:1002A0001C21062A8F61EFD101F084FC013CD7D1DB
:1002B00023466448C218195C547801204E0100FAA4
:1002C00004F106F10055023305F51C270C2BF961EA
:1002D000EFD101F06FFC00235A48C2181E5C517820
:1002E0000120750100FA01F605F10057023307F508
:1002F0001C240C2BA661EFD101F05CFC0023504DB7
:10030000585DE9184D784701012007F1005400FAC3
:1003100005F704F51C221668023326EA0704062BAB
:100320001460ECD10023474E9A5DF41866785101B1
:10033000012201F1005502FA06F105F51C27386883
:10034000023320EA01050C2B3D60ECD100233E4F27
:10035000D85DF9184F784401012004F1005600FAE5
:1003600007F406F51C221568023325EA0406062B5D
:100370001660ECD1314D642001F0ECFB6A6902F0AB
:10038000006701F023FDC4B214B96969090102D400
:10039000002001F0D5FC002000F02CFB002000F034
:1003A000F1F84CBB25484669320125D543F6D27396
:1003B0001D78422D20D143F6D3721178E1B100218E
:1003C000012044F2040701F0B1FBF97869BB1F4E2C
:1003D0004FF4804206F5804303F5082404F5804578
:1003E0007160596061606960106880F3088844F248
:1003F00004073968884718E0202000F0C7FA3CB3AA
:10040000102000F0C3FA23E001F0BEFB40F2F31627
:10041000B0423446F8D901F0B1FB0120002101F0CF
:1004200085FB01F0B1FBA042FBD901F0A7FB012045
:10043000014601F07BFBE7E70CC0024020C0092029
:10044000DA2F0000E02F0000D42F000000C0004091
:1004500001F094FB01F098FB3226B0FBF6F3642523
:100460000446B3FBF5F005FB103242F21071B4FB09
:10047000F1F5530801FB1542B4FBF6F106FB1141FF
:1004800041F28830824288BFC3EB060301209942C3
:1004900094BF002101210A2601F048FBB4FBF6F3CA
:1004A00006FB13440CB900F0AFFC002000F0F0FE96
:1004B00001F06AFB44F61F65A842CBD900F06CF846
:1004C0000028C7D1002F7FF47AAF024A5069030198
:1004D000C0D574E720C00920124B10B51A78032A42
:1004E0000BD8114900F07F000C684FEAC41444EAAD
:1004F000001008600FD104220EE0072A0FD80B4924
:1005000000F07F000C684FEAC41444EA0010086051
:1005100001D1082200E001321A70002010BD4FF016
:10052000FF3010BDD4050010140100101C01001094
:1005300070B5134B16461A7888B004460D468DF8F0
:1005400000209978DA7858781B798DF802108DF8A8
:1005500003208DF801008DF8043000F025FF8DF8A0
:100560000500F7208DF808006946204609228DF81D
:1005700006508DF8076000F0D1FA08B070BD00BFDA
:10058000C832000010B9034B187070474FF0FF30AD
:10059000704700BFD5050010014B1878704700BFA9
:1005A000D50500102DE9F04798468AB00C4615464F
:1005B000064600F071FC01F0E1FAB8F1010F04D039
:1005C000B8F1020F40F0C78182E0AF4B14B1012CAB
:1005D0000AD104E01C70AD4BAD4A1C608BE0197869
:1005E000072900F2B68190E01978082940F0D980F7
:1005F000A848A94C0278437881782270C2780079A3
:10060000A24FA34D6370A170E27020713F682D6806
:1006100000F0CAFE4FEA556E6071780E0223E07159
:10062000C7F386417044A3712172C7F3C6234118F2
:100630006372C7F30612CB18C5F38640A2729A18EC
:100640001118C5F3C623CA182073C5F30610111874
:1006500063730023A07384F80BE001F0FF011A46D6
:100660000F341846A84221D010F807E04FF0080CCC
:1006700001335200DBB242EADE12062B4FEA4E0E85
:10068000D2B25FFA8EFE0AD9C3F1070302FA03F26F
:10069000D2B25118002304F8012BC9B21A460CF14A
:1006A000FF3C1CF0FF0CE3D10130DBE71BB18B18E2
:1006B00004F8012BD9B24A42774902F07F00F723B0
:1006C000A21C207063703046521A00F027FA40E1F5
:1006D00014B1012C53D110E06B4B6C496C486F4A3C
:1006E0001C700C6004606E4B6E496F4814706F4A4A
:1006F0001C700C60046014602BE1634801780729CA
:1007000007D8664908782A180A702846FFF7E4FED9
:100710001FE108292BD161480378EA18027061486B
:100720000368B3F5806F80F01481594E5F4F5E4CC3
:1007300036683868226807240132C5F380176D00D7
:10074000072A47EA4000EDB206D9534AD054013394
:10075000B34228BF09210022013CEDD1534C206057
:10076000514802604F4A1360474B1970F1E0092964
:1007700002D14B4A1570ECE00C230370E9E0494BC1
:1007800043481A680768BA4207D23946484800F019
:10079000EBFA30460E21012213E03B490A780C2A7D
:1007A00003D130460E2142460BE03C493C4B0A78CF
:1007B0001878534203F07F01884205D030460E215D
:1007C0000322FFF7B5FEC4E03A48304A0124047022
:1007D000146844EA07039B0740F0B180B4F5804FEA
:1007E00002D26FF00701ACE000F0AEFF411E8C4278
:1007F00000F2938001F0C0F804252F4B53F8251028
:100800008C423CD22D4850F82520944226D1DFF866
:10081000B0A032238DE82800DFF8A890684605A92B
:100820000295CDF80CA0C847059B6846C3F10008A7
:10083000342305A98DE828000295CDF80CA0C847FF
:100840000599B8F1000FB4BF4FF0FF384FF0000822
:1008500048420028B8BF6FF0010801E04FF00008DF
:10086000174A32238DE82800684605A902950392AD
:10087000144B984705994842002825DA28E00135AD
:100880001E2DBAD12CE000BFD405001014010010B9
:100890001C010010C83200002401001018010010D3
:1008A00020010010D0050010CC0500101001001030
:1008B000EC2F0000D505001064300000DC30000093
:1008C000C0D40100F11FFF1FB8F1000F08D001E0F4
:1008D0006FF0020801F064F826482146424614E011
:1008E000254D264A33238DE81800029505A9039764
:1008F00004926846224B984705994D42002D09DA2B
:1009000001F04EF81F4821462A4600F02DFA6FF0FC
:10091000030116E001F044F820E0B4F1805FFFF439
:1009200060AF00F014FF00F18050421E94423FF689
:1009300058AF204610493A4602F03AFB0EE06FF0FD
:1009400008014A4230460E21D2B2FFF7F1FD00F015
:100950005BFA00200AE04FF0FF3007E00A480F2161
:1009600002783046534203F07F02EEE70AB0BDE85A
:10097000F08700BF1B30000024010010C0D401002C
:10098000F11FFF1F3D3000001801001010B5114B82
:1009900088B01A78997804468DF800205878DA786B
:1009A0001B798DF802108DF803208DF801008DF869
:1009B000043000F0F9FCF7218DF8050001208DF8D6
:1009C00006008DF8071020466946082200F0A6F8B8
:1009D00008B010BDC832000008B52020FFF7D6FFD0
:1009E0001020FFF7D3FF024B0020187008BD00BF96
:1009F000D505001038B50446002839D11E4A1F49D4
:100A0000102313700B701E4D1E4B1F4A1F49286088
:100A100018601F4D1F4B106008601860286001F0BF
:100A2000B3FAC50F204600F0E5FC1B4A00281B4B1B
:100A3000B8BF45F00205002010701978184A60F31D
:100A400007011970107043F6D0700378422B05D15E
:100A500043F6D1710878010658BF1070114B00227F
:100A600011491A8000220023C1E90023684238BDE1
:100A70004FF0FF3038BD00BF000000100100001033
:100A8000E0050010D8050010000600100406001054
:100A9000F4050010E4050010E8050010EC05001056
:100AA000E9050010EA050010F805001010F0F00F3D
:100AB00070B504460D4604D101280CBF144B154BEC
:100AC0001C78154B04F00F061A6872B904F0F00098
:100AD000102812D0202817D166F3071504F00F0054
:100AE0002946BDE8704000F035BD66F30715204685
:100AF000294690470028E9D070BD66F307152846BF
:100B0000BDE8704001F0AABA4FF0FF3070BD00BFE1
:100B10000100001000000010D80500102DE9F04180
:100B200080460E4617460024BC4235D23B1B022BA2
:100B30000DD0032B19D0012B19D1325D052161F3A2
:100B4000030562F30F2501346FF317450AE0305DAA
:100B50003119062363F303054A7860F30F2562F326
:100B6000174502346FF31F650FE0072000E00420F3
:100B700060F30305335D3019417863F30F25827804
:100B800061F3174562F31F65033440462946FFF7BA
:100B90008DFF0028C8DA00E00020BDE8F0810000E9
:100BA00030B5F023A1B08DF80030134B7E223225F2
:100BB0008DF803201A7800248DF804500F258DF845
:100BC00001408DF802408DF805208DF8065002ABEB
:100BD0000D5D5A1E35B101341A4603F8015C01332C
:100BE000642CF5D1F72102F8011B6946521AFFF770
:100BF00095FF21B030BD00BFE905001000B5F0231E
:100C000089B08DF8003000238DF801308DF8023066
:100C10007E238DF8033032238DF80430084B8DF895
:100C200006101B78F7218DF807208DF8081009228F
:100C300069468DF80530FFF771FF09B000BD00BFB0
:100C4000E90500102DE9F041042300240E4663F36A
:100C500003046FF00F0161F30F246FF317446FF378
:100C60001F64214605469046FFF720FF0E4B0746BE
:100C70007E201978322260F30F2462F3174461F367
:100C80001F6421462846FFF711FF07430D2060F33C
:100C90000F2466F3174468F31F6428462146FFF7C4
:100CA00005FF3843BDE8F081E90500102DE9F84360
:100CB00081468846174652B30D460026C8EB050309
:100CC000BB4225D22978042060F3030431B16B784C
:100CD00001F07F0262F30F241BB90DE061F30F24D2
:100CE0000AE0A97803F07F0060F3174431B101F006
:100CF0007F0262F31F6403E06FF317446FF31F6416
:100D000048462146FFF7D2FE03350643D6E716468E
:100D10003046BDE8F88308B50021052363F30301DD
:100D20006FF0080262F30F2189B2FFF7BFFE08BD22
:100D3000F8B5054602F045F90A4F064640213878D5
:100D40002A78FFF77FFF012E044605D93878691C01
:100D5000721EFFF7ABFF0443024B1878FFF7DBFF6F
:100D60002043F8BD010000100FB430B5A3B0269D9C
:100D7000284602F026F9642801D90E4813E002AC97
:100D800027AA29462046019201F07DFD204602F067
:100D900018F90023834205D0E25C02F07F01E154A0
:100DA0000133F7E72046FFF7C3FF23B0BDE830402B
:100DB00004B070477C31000010B50E4B04461A7821
:100DC00002F00801C8B248B10B490878A04205D129
:100DD0006FF307021A70094B00221A7008490A685B
:100DE0000AB12046904721460648FFF7BDFF002084
:100DF00010BD00BFEC050010E8050010DD05001077
:100E000004060010CF31000010B501F06BF9044664
:100E100000F016FB044300F081FC054B4FF6FF7118
:100E20001A8820438A4201D001321A8010BD00BFC7
:100E3000EA05001008B5034B1A680AB1904708BDCF
:100E4000104608BDE0050010114BF7B51C680746B9
:100E5000E4B1C1F307640F4DC1F30720C1F30742AA
:100E60008DF8064001F00F0100246E5C8DF804003F
:100E70008DF805202546B54208DA054B01AA515DDB
:100E80001B683846984701350443F4E72046FEBD09
:100E9000E00500106C310000012803D0034B1870EE
:100EA000002070474FF0FF30704700BF0100001076
:100EB000F0B5614E8BB0337804460D461746FFF708
:100EC00071FB002880F2B58031780D295CD001D803
:100ED00039B1A1E00E2900F0AC800F2940F09C80D0
:100EE0008EE0564B1DB1012D03D11F70A1E01D7086
:100EF0009FE0187805282BD011D8022820D004D8DC
:100F000001283DD120464E491CE003281DD004286D
:100F100036D100F005FC4B490246684625E008281A
:100F200028D006D806281BD0072829D100F00FFCAE
:100F300018E0092821D07F2822D1FFF74DFD78E065
:100F400041492046FFF72CFE73E020463F49F9E770
:100F5000684600F0FFFB0028204609DA3C49F1E72B
:100F600000F0F2FB3B490246684601F07DFC20465A
:100F70006946E7E720463849E4E720463749E1E794
:100F800020460E210D2244E0354E15B1012D16D11B
:100F900002E0FF2131704CE03078FF2801D137703A
:100FA00047E018B1012844D12E4B00E02E4B1B68BE
:100FB000002B3ED02D4A39461078984739E03278D8
:100FC000AAB920460F21FFF719FE3378002B30D144
:100FD000254A116869BB264D20462D78FFF75CFF36
:100FE0002448FFF7A5FE2846FFF756FF21E0012A17
:100FF00002D11C490868E0B920460E21102208E001
:101000001D4A0DB1012D01D1556012E0526882B91F
:101010002046FFF7F3FD0CE00E210A462046FFF7BD
:10102000EDFD1549044B0A7800206FF307020A70A2
:10103000187000200BB0F0BDDD050010DC050010BD
:1010400015320000343200001C3200002C32000047
:10105000393200003B3200003E32000050320000C6
:1010600002000010E4050010F4050010E80500106F
:101070000100001062320000EC050010F72910B5E5
:101080000A465AD82E4B197801F0080303F0FF04E2
:101090001BB12C4B1B7883424CD1A0F11103062BC2
:1010A00048D9284B187004BB2548037803F0070380
:1010B000042B03D82448C05C904221D101F00701E1
:1010C000052903D121480178914219D15A1C1C4BA2
:1010D00002F007001978052860F3020119702CD975
:1010E000CAB242F00800187027E0130611D5F72A9B
:1010F00006D101F01001CBB213B10221FFF7D8FEE7
:101100000F4B134A197800206FF307011970107004
:1011100010BD01F01004E4B244B9094B197841F054
:10112000100119700A4B21461A7000E00121FFF7E7
:10113000BFFE02E04FF0FF3010BD002010BD00BF29
:10114000EC050010E8050010C8320000E9050010A9
:10115000DD05001001F00F032DE9F0470F46C1F344
:101160000728C1F307494FEA116A03F1080101F0AA
:101170000F010629064602D8002A5ED180E0B8F1A8
:10118000F00F08D003F10C0000F00F0103292CD858
:10119000B8F1F60F29D03C49D1E9004554EA0500E1
:1011A00023D106F0F004302C4FF000000CD0502C6E
:1011B00013D0102C19D1354C208006F00F000124DB
:1011C00004FA00F0088010E0304C208006F00F0098
:1011D000012404FA00F0488007E02C4C208006F03F
:1011E0000F00012404FA00F088800F2B48D8DFE8B4
:1011F00003F022222222081C282847474747474756
:101200004708B8F1F70F16D83046414607F00F07E8
:10121000FFF734FF0F2F33D049463046FFF72EFF3C
:1012200030465146FFF72AFF2AE0B8F1F70F02D8FF
:10123000B8F1F60F05D11AB3304627F0F001904708
:101240001EE01A1F12F0FF041AD030464146FFF785
:1012500015FF012C0CD030464946FFF70FFF022C3A
:1012600005D030465146FFF709FFD04600E0C8469A
:10127000B8F1F70F04D1044900220023C1E900238B
:101280000020BDE8F08700BFF8050010EA05001057
:101290002DE9F041804688B0684600F0F7FE00284E
:1012A00007DB00994246C1F303101030FFF752FFED
:1012B000F2E73A4D02AC0FCD0FC495E803009DF85C
:1012C000083084E803004BB300242546264608A8CE
:1012D00000EBC40111F8182C12B9FDB114461546E3
:1012E00008AF07EBC40313F8187C53F8142C07F06D
:1012F0000F0001A9904710F10A0F03D13846FFF7FC
:101300005BFD08E0002806DB3846019942460136BD
:101310000135FFF71FFF0134092ED8DD2049D1E93F
:10132000002352EA030035D01E480388B3F57A7FC4
:1013300030D90A8862B1002142FA01F313F00100AA
:1013400003D101311029F7D101461031C8B21AE09A
:101350004B885BB143FA02F010F0010103D1013276
:10136000102AF7D10A463032D0B20CE0888850B14A
:1013700040FA03F111F0010203D10133102BF7D130
:1013800013465033D8B2FFF717FD0548002200235B
:10139000C0E90023002008B0BDE8F081543100000E
:1013A000F8050010EA050010014B1878704700BFDF
:1013B000E905001008B500F0B7FE0028D4BF0020F2
:1013C000012008BD012838B504460CD800F0D4FA35
:1013D000064B0748FF2200251A5520F8145000F04C
:1013E000DFFA284638BD4FF0FF3038BD0806001040
:1013F0002606001010B5044610B14FF0FF3010BDA6
:101400000D4B0E49FF221860187158719871D871F0
:101410001881D860187458749874D87498820A70B7
:10142000FFF7D0FF0120FFF7CDFF204600F074FF4B
:101430000028E2DB204610BD0C0600102406001038
:1014400008B500F099FA104A4FF6FF711388084664
:101450008B4201D0013313800C4B1989814201D09A
:10146000481C188152884FF6FF718A4202D0064804
:10147000013242809B8A8B4202D0044A591C9182DD
:1014800000F08EFA002008BD260600100C060010A1
:101490002DE9F347C1F30726054601F00F075FFA70
:1014A00086F8C1F3074AC1F30769FFF783FF0028F5
:1014B00040D0234BDC5D002C3FD022488DF80460E7
:1014C00030F815208DF805A0B2F57A7F8DF80690DA
:1014D00003D92846FFF776FF1BE01B490B7843FA38
:1014E00005F3DA0715D5072F13DD0F2F11D0012CC7
:1014F0000ED9164A515D414506D1013C8DF804A034
:101500008DF80590E4B204E0002320F8153000E0E7
:101510000124B8F1F70F98BF0C4801A998BF4655B0
:101520002246284601F014F80230022802D8084A60
:10153000105603E04FF0FF3000E02046BDE8FC8786
:101540006C3100002606001024060010080600106A
:10155000CD32000038B505460C4621462846FFF737
:1015600097FF811CF9D038BD2DE9F04180460F4628
:10157000FFF720FF002800F0C5800C2606FB08F6C8
:10158000634DAC19404600F00FFF0028C0F2A18067
:101590000206C3B252D5F72B08D9396841F00F02C1
:1015A0003A607B700023BB70FB70AFE05949C3F316
:1015B0000212895C2371617109B1002137E0564A3A
:1015C00000F00F00125CF02B627103D101226370F6
:1015D000E271F2E7F72B1DD1E279207842B1012ABE
:1015E0000ED1062262F303002070A370E1700CE0BC
:1015F000052161F3030020706370A270E27004E0C3
:10160000072161F303002070E370236800203B6032
:10161000E0710BE0002AD0D12178052060F30301AE
:1016200021706370A270E27023683B6001216379CE
:101630000020A37120810029A4D067E02279F02A3C
:1016400017D1E279511CC8B20128E07103D00228F9
:1016500003D1A37096E7637094E7E370AB5D042257
:1016600062F30303AB55A95900203960E071208172
:101670004CE0A07920B962792081511EA17101E06E
:10168000411EA1716079012802D1A370002303E0FB
:10169000A2790AB1A37000E0E370A379002B7FF474
:1016A00071AF2079AA5D00F0F001F02901D00109A5
:1016B00008E063791BB1012B03D1022102E005216F
:1016C00000E0032161F30302AA556070A859386055
:1016D0001CE00020A17971B12289B2F57A7F0AD984
:1016E0000023AB5123716371A371E37123816FF008
:1016F0000900BDE8F08100280CBF4FF0FF3000204A
:10170000BDE8F0814FF0FF30BDE8F0810120E1E756
:101710000C060010C0320000B032000000207047FC
:1017200000B58BB000F028F936230AA840F8283D10
:1017300005A96846034A904700F032F906980BB0B5
:1017400000BD00BFF11FFF1F4FF4002070474FF492
:101750008030704770B58AB0044600F00DF93A2227
:101760000AA840F8282D114B684605A9984700F0B3
:1017700017F900230AA9CD1855F8101C002204EB14
:10178000430501F00F00092894BF30263726301892
:10179000A85401320909082AF3D10433102BE9D1E6
:1017A000002084F820000AB070BD00BFF11FFF1FA9
:1017B00037B502AB03E90300114B009A02211972FD
:1017C0003C21B2FBF1F401FB14250020ECB21872AD
:1017D00083F820404FF46164B2FBF4F504FB15225A
:1017E000B2FBF1F1CCB2182183F82440B2FBF1F442
:1017F00001FB1422D1B2012283F828101A723EBDD7
:101800000040024013B5002840F08880454B20225C
:10181000C3F8A0211946D1F8A001424C4006FAD5E0
:101820000323414A4149C4F80431414BC4F8A8217B
:101830000120C4F8AC115522AA21C4F80C01C4F847
:101840008430C4F88C10C4F88C20C4F88000C4F82C
:101850008C10C4F88C20334CD4F888004101FAD5A0
:101860000323AA215522C4F88030C4F88C10C4F890
:101870008C20D4F888002B4B10F0407FF9D0AA219F
:10188000552223240120C3F8A440C3F8AC10C3F8A8
:10189000AC20C3F8A000C3F8AC10C3F8AC20214CB6
:1018A000D4F8A8305B05FAD50321AA225520C4F844
:1018B000A010C4F8AC20C4F8AC00D4F8A810194BA0
:1018C00011F4407FF9D04FF0FF34C3F8C440002436
:1018D000C3F8C8411A6822F4704040F4804119608E
:1018E000144A154B15489A6002A9D86000940194D7
:1018F00011E90300FFF75CFF114B124801221C6045
:101900005C609C60DC601C615C619C61DC61052149
:1019100002631A2000F058F8204601E04FF0FF3033
:101920001CBD00BF00C00F40000011540004400067
:10193000770005000000000000ED00E00003FA055C
:101940002C06001000400050094B70B51E680025A1
:101950000124344206D00748295801B18847044A77
:101960009460146104356400202DF2D170BD00BF75
:10197000004000502C060010074B1A681AB9EFF30C
:101980001081064801604FF0010080F310881A684A
:101990000020511C19607047500600104C060010C2
:1019A000074A13683BB1581E106038B905490A68E8
:1019B00082F3108802E04FF0FF307047002070473C
:1019C000500600104C0600100F291CD80F4BDA6887
:1019D000D343C3F30222C2F1040301FA03F100F17D
:1019E00060430901CAB203F5614181F80023012374
:1019F00042B200F01F00510903FA00F2044840F817
:101A00002120002070474FF0FF30704700ED00E0CC
:101A100000E100E0013A2DE9F0478446052A70D83C
:101A2000DFE802F00318080C0F1300231C46022203
:101A3000012513E000231C4603220EE000231C4670
:101A400001E0002301241A4607E0012300221C467E
:101A5000154603E000231C4602221D4601F00F0834
:101A60004FEA48084FF0030909FA08F905FA08F5A2
:101A700002FA08F24FEACC0606F1804000F5303653
:101A80000F0956F827A06FEA090909EA0A0A46F879
:101A900027A056F827A006EB870045EA0A0546F876
:101AA0002750056C09EA05050564056C2A430264A4
:101AB0004FEA4C1000F1005202F51C22012024B123
:101AC00000FA01F01468204304E000FA01F0146801
:101AD00024EA000010604FEA8C0202F1804000F519
:101AE000303001223BB102FA01F2836E1A43826662
:101AF0000020BDE8F08702FA01F2846E24EA0202B7
:101B0000F5E74FF0FF30BDE8F087C30710B5044696
:101B100004D5002016210522FFF77CFF34F00103D5
:101B200014BF6FF00100002010BD0000C20707D5F0
:101B3000074B11F0010F4FF4800214BF9A61DA6174
:101B400030F0010314BF6FF001000020704700BFA8
:101B500000C009201E214843074B002201381A67A4
:101B60004FF0FF31D860032099615861196001215D
:101B700059601046704700BF00400940014B0020EB
:101B80009860704700400940044B9868196811F04C
:101B9000010F18BF4FF0FF30704700BF00400940F1
:101BA00018B9034B08221A7270474FF0FF30704784
:101BB00000000B401E235843034BD968DA68521AC1
:101BC0008242FBD90020704700000B4000F010005B
:101BD000C1B211B1002000F0DDB97047F0B5164672
:101BE000474A93B05168074610686B4603C3906834
:101BF00003AC1860434B03F110021868596825467E
:101C000003C5083393422C46F7D119882980787888
:101C1000092803D1012000F0BDF96EE006286CD13F
:101C20007B881A0A032A68D1D9B2032965D8DFE86C
:101C300001F006021D470DF1FF3000230DE0324890
:101C4000092383700423C37050E0642A13460BD029
:101C50002D4AD154D2180021517010F8011F9A1C3E
:101C600093B20029F1D141E064233FE0002303F562
:101C70007F5292F8200099B258B120385F288CBF6B
:101C8000002001200133202B06D00028EFD103AB28
:101C900006E00029FBD001E00028F8D043F6E0730D
:101CA000591E002311F8010F9A1C93B2F0B1642A57
:101CB0001346D9D0144AD054D21800205070F1E7FE
:101CC00008A8FFF747FD002817DB0DF11F010023CF
:101CD00011F8010F9A1C93B240B1642A134605D043
:101CE000094AD054D21800205070F1E7064A032167
:101CF000137051700120326000E0002013B0F0BD7D
:101D0000D03200003E320000540600104378212BF0
:101D10000ED0222B10D0202B01D00020704712684B
:101D2000064B106818609088927998809A7101E04B
:101D3000024B136007200860012070470400001068
:101D4000022808B52FD8012806D1002000F023FE74
:101D500042F21070FFF72EFF01F0DEF8134801F099
:101D60000DF8134A0120134900F0FCFF124801F05E
:101D7000CBF88120114900F0DBFD1149022000F071
:101D8000D7FD202000F00DFE0E4800F0F1FD0120EF
:101D900000F000F908211820FFF716FE012000F0DE
:101DA000FAFD002008BD4FF0FF3008BDDC32000016
:101DB000B80600100D1D0000DD1B00000121000011
:101DC00011210000CD1B000000F07CBE024BD3F8B7
:101DD000F40FC0F34000704700C00050084B0004EF
:101DE000302240F4A061C3F80822C3F81012D3F8DF
:101DF000002212F01000FAD0014BC3F8080270471D
:101E000000C000502DE9F041064606F00F07FFF72D
:101E1000B3FDBA00284B42F00100C3F828021A466D
:101E2000D2F820020105FBD542053CD5C0F3870856
:101E30001FFA88F1002936D0204B1A8890B2C0F5DD
:101E4000007399422FDA0024C4EB08010AB2002A79
:101E500019481DDDD0F81852C5F30310103029467B
:101E6000FEF7F2FF90B9164B164A198889B242F86C
:101E7000215019884A1C91B2B1F5007F198028BF02
:101E800018800E4803885A1C91B201800134DBE7A8
:101E90000023F109C0F8283241EA4700FFF79EFF0E
:101EA000F220FFF79BFF04480022C0F82822BDE87B
:101EB000F041FFF775BD00BF00C00050C006001024
:101EC000C8160010C80E001070B50446FFF754FD88
:101ED000274B1878002846D1264B1A8891B2002942
:101EE00041D025480278002A3DD0198888B21028B0
:101EF00098BF1B8804F00F0194BF9BB210238A0087
:101F000042F002001D4AC2F8280218B28000C2F84E
:101F10002402C3B100231948D0F82822920712D511
:101F2000174A184D16880133B6B255F82650C0F836
:101F30001C521088013080B2B0F5007F1080EAD3C7
:101F400000201080E7E70A4A01201070094A108833
:101F5000C31A98B21080E20942EA4100FFF73EFF3F
:101F6000FA20FFF73BFFBDE87040FFF719BD00BF47
:101F7000C40E0010CA160010CE16001000C000508B
:101F8000CC160010C4060010002814BF4FF0FF301C
:101F9000002070470C4A0D49002310B513800B80B8
:101FA0000B4A0C4913800B800B4A0C4913801C46CA
:101FB0000B8001220A490B4B10B10A701C7001E022
:101FC0000C701A70002010BDC0060010C81600105A
:101FD000C2060010CA160010D2160010CC1600104F
:101FE000CE160010C40E001038B5184C05462378E4
:101FF00013B94FF0FF3038BD154801888AB2B2F5E9
:10200000FF7F08D98120FFF75FFF2378002BF0D0F6
:102010006FF0010038BDFFF7AFFC0E4B0E4918887A
:1020200082B2501C41F8225082B21A80198888B2BC
:10203000B0F5007F01D300221A80054B1988481C97
:1020400082B21A80FFF7ACFC002038BDCE1600101B
:10205000CA160010D2160010C406001010B50446AF
:102060002046FFF7C1FF811C08D1074B42F20F71D8
:102070001A888A4207D8501C1880F1E7002802DB32
:10208000014B00221A8010BDD0160010124B10B563
:102090000446188881B2D9B1FFF76EFC0F4B104986
:1020A0001A8890B251F8202022601C88601C81B2EE
:1020B000B1F5007F198001D300221A80064C2388D5
:1020C000581E81B22180FFF76BFC228890B210BDB0
:1020D0004FF0FF3010BD00BFC0060010C206001058
:1020E000C80E001008B5054B187828B10220FFF77C
:1020F00089FE8120FFF7E8FE002008BDCE16001003
:10210000024B00221A70FFF7DFBE00BFC40E0010A2
:10211000030604D5034B00221A70FFF7D5BEFFF764
:1021200071BE00BFC40E0010034B197841FA00F0D5
:1021300000F00100704700BFE81600102DE9F04FD5
:10214000012885B0009059D82F4B304C53F82060AF
:102150000122002348082E4D029001949C46984687
:102160009346002707EB0209B5FBF9F9B9FBF1F437
:1021700001FB1490DDF808A0504588BF0134E01E33
:102180004FF6FC7A50450FD8B9FBF4F38B42019817
:1021900094BFC3EB0103C1EB0303834204D283B1B9
:1021A0000193A446B84693460137102FDAD15BB1AC
:1021B00005F5E415013205F5E1551835102AD0D1A1
:1021C00002E0A446B846934683233373CCF307203A
:1021D0005FFA8CF2032308F00F0C30714CEA0B18F5
:1021E00032703373009A0B4B07205FFA88F886F839
:1021F000288043F822103072002001E04FF0FF30B9
:1022000005B0BDE8F08F00BF54330000A086010088
:10221000389C1C00E0160010012810B55AD8012483
:102220002E4A04FA00F413B113781C4302E0137829
:1022300023EA04040128147025D0294B186820F0E3
:1022400003021A60186840F002021A60186C20F04D
:1022500003021A64186C40F002021A64214A906E5C
:1022600040F0010090661A6822F00C0018601A68AD
:1022700042F0080018601A6C22F00C0018641A6C06
:1022800000201A6422E0184B1A6822F003021A6038
:102290001A6842F002021A601A6C22F003021A64F1
:1022A0001A6C42F002021A649A6E42F001029A66B7
:1022B0001A6822F00C021A601A6842F008021A60CA
:1022C0001A6C22F00C021A641A6C1A64FFF736FFBB
:1022D000002010BD4FF0FF3010BD00BFE816001009
:1022E00010C0024008C0024000C0024010B50446C1
:1022F00030B101280CD147F612210622034603E033
:1023000047F6122106220123FFF786FF002010BDA9
:102310004FF0FF3010BD00002DE9F047044678BBB8
:10232000DFF878A0DFF87890DFF87880164F174E46
:10233000174D8AF8000089F8000088F8000038700E
:1023400030702870FFF7D2FF01208AF8014089F829
:10235000014088F801407C7074706C70FFF7C6FF14
:102360000C4B03255D6004210620FFF72DFB0A4876
:10237000042145600820FFF727FB2046BDE8F087D1
:102380004FF0FF30BDE8F087DE160010D6160010C3
:10239000D41600100000014000C00940D8160010FB
:1023A000DC160010DA160010012838B504461BD8D8
:1023B000104B185CD8B1FFF7DFFA0F4B0F491A5DCD
:1023C000185D02EB8415421C4D5DD1B23F291955B1
:1023D00001D900201855074B1A5D511EC8B2185577
:1023E000FFF7DEFA284638BD4FF0FF3038BD6FF0FA
:1023F000010038BDD8160010DA16001010000010C9
:10240000012838B504460D461CD8114B185C3F28EE
:102410001BD8FFF7B1FA0F4B0F491A5D02EB84107E
:102420001A5D0D54501CC1B23F29195501D9002223
:102430001A55074B185D411CCAB21A55FFF7B0FA7E
:10244000002038BD4FF0FF3038BD6FF0010038BDBF
:10245000D8160010DC16001010000010012838B546
:1024600004461DD8114B185CE8B1FFF785FA104BF4
:10247000104A195D02EB84156818195D90F88050B8
:102480004A1CD0B23F28185501D900211955074BD5
:102490001A5D501EC1B21955FFF782FA284638BDA1
:1024A0004FF0FF3038BD6FF0010038BDDE16001070
:1024B000D4160010100000100128F8B504460E468E
:1024C000174636D81E4D2B5C98183F2834DCFFF792
:1024D00053FA1C492A5D51F824304AB9187D00F09E
:1024E0002001C8B228B116F8012B01201A7000E0B3
:1024F00000200346BB4218DA134D144A295D02EB53
:1025000084125218311AC95C82F880100C4A115D8D
:102510000131C9B211552A5D511CCAB23F2A2A5550
:1025200001D9002129550133E4E7FFF739FA0020EA
:10253000F8BD4FF0FF30F8BD6FF00100F8BD00BFEF
:10254000DE16001054330000D616001010000010E4
:1025500070B506460D461446304629462246FFF71A
:10256000ABFF831CF8D070BD10B5144CA36803F00A
:102570000E00042813D1207DC1071ED50020247829
:10258000FFF7D2FD28B900202146BDE81040FFF733
:1025900037BF20202146FEF74DFC70B9F3E7022833
:1025A0000BD107490A7842B10020FFF757FF30EA04
:1025B000200028BFFF20C3B2237010BD00000140DF
:1025C000DE16001010B5144CA36803F00E000428AA
:1025D00013D1207DC0071ED501202478FFF7A4FD6C
:1025E00028B901202146BDE81040FFF709BF20208F
:1025F0002146FEF71FFC70B9F3E702280BD107490B
:102600004A7842B10120FFF729FF30EA200028BFB5
:10261000FF20C3B2237010BD00C00940DE160010B9
:1026200020B10368197001684A1C026070472DE9E7
:10263000F843141E8046894601DC20270FE0002263
:1026400019F8021009B10132FAE7A242B4BFC2EB95
:1026500004040C4613F0020F0CBF20273027DB07C1
:102660000CD42546002D05DD40463946FFF7D8FF3E
:10267000013DF7E724EAE476A41B00E00026354696
:10268000C6EB0903595D21B14046FFF7C9FF01358B
:10269000F6E72646002E05DD40463946FFF7C0FF27
:1026A000013EF7E7002CACBF2819281CBDE8F883D1
:1026B0002DE9FF470C9E8146DDF834800C4651B968
:1026C00030228DF804208DF80510324601A94346CA
:1026D000FFF7ADFF35E033B10A2A04D1002902DA51
:1026E0004C42012700E0002704AD002305F8013D1E
:1026F000AA466CB1B4FBF2F302FB1344092C02DDD1
:102700000E993A396418303405F8014D1C46EFE74C
:1027100087B14EB118F0020F06D048462D21FFF7C1
:102720007FFF013E012705E02D2005F1FF3A05F866
:10273000010C00274846514632464346FFF777FFD3
:10274000381804B0BDE8F087F0B589B006460D46EC
:10275000059200242B7823B1252B79D168786A1C47
:1027600028B9002E7BD030680022027077E025283F
:102770006DD02D2802D1AA1C012300E000231746AA
:1027800039780132302902D143F00203F7E7002201
:1027900039783D46A1F130005FFA80FC0137BCF189
:1027A000090F03D80A2505FB0202F1E7732909D1B5
:1027B000059F3046391D059139682A4F002908BF09
:1027C000394641E064290ED18DE80C00059961235A
:1027D0000293081D096805900A2230460123FFF77D
:1027E00067FF241839E0782906D105998DE80C0097
:1027F000081D0590612207E058290AD105998DE846
:102800000C00081D059041220292304609681022F2
:102810000BE075290BD18DE80C000599612302931B
:10282000081D096805900A2230460023D7E763296E
:1028300013D10599081D0968059000208DF81C101A
:102840008DF81D0007A93046FFF7F1FEC9E71546D0
:1028500030462978FFF7E4FE013401357AE7204657
:1028600009B0F0BD643300000EB40FB505AA52F8EC
:10287000041B019001A80392FFF766FF04B05DF806
:1028800004EB03B0704707B502AB43F8040D1846DC
:10289000FFF75AFF0EBD0000044BD3F800220240A0
:1028A0008242F9D1C3F80802704700BF00C000504F
:1028B000054B000440F4A06130221020C3F8082228
:1028C000C3F81012FFF7E8BF00C0005010B50C4667
:1028D000FFF7EEFF2004054B40F480741020C3F88E
:1028E0001042BDE81040FFF7D7BF00BF00C0005046
:1028F00010B500F00F04C00940EA4404012202FAB6
:1029000004F20A4BD3F844020243C3F844224FF4C2
:102910008070C3F84842C3F84C12FFF7BDFF44F083
:1029200040000021BDE81040FFF7D0BF00C00050BC
:1029300000F00F03C00940EA430002220A4B90FB5B
:10294000F2F243F82210012101FA00F0074BD3F80C
:1029500034221043C3F83402D3F8042242F00401B5
:10296000C3F80412704700BFF416001000C00050F6
:10297000044B18600448D0F8042242F00801C0F863
:1029800004127047F016001000C0005040F08001A3
:10299000D020FFF79BBF011C18BF0121FE20FFF7CD
:1029A00095BF0146F320FFF791BF000010B500F07E
:1029B0000F04C00940EA44042046FFF779FF2104D0
:1029C000054C41F400732020C4F81032FFF764FF77
:1029D000D4F81422D0B210BD00C00050C30943F097
:1029E0004002003100F00F0042EA400018BF012110
:1029F000FFF76CBF38B500F00F03C009144640EA7A
:102A000043009A00104B42F00202C3F82822C3F898
:102A100024420D4BD3F8282292070DD58A78CD7821
:102A2000120442EA05620D782A434D78043142EAE5
:102A30000522C3F81C22ECE7FFF73AFFFA20FFF764
:102A400037FF204638BD00BF00C0005038B500F049
:102A50000F03C0099C0040EA4300164B44F00104F8
:102A6000C3F82842D3F8205215F4006FFAD06B0552
:102A70001CD5AC05A50D00242346AB420CD013F0A9
:102A8000030F04BF0B4CD4F8184211B19342B8BFE6
:102A9000CC54240A0133F0E706490022C1F8282269
:102AA000FFF706FFF220FFF703FF01E04FF0FF35CD
:102AB000284638BD00C00050011C18BF0121D82095
:102AC000FFF704BF70B52B4CD4F80052E90712D5BC
:102AD000294801230668C4F8083266B1F520FFF7DB
:102AE000E7FE26492020C4F81012FFF7D5FED4F8DF
:102AF0001422D0B2B0472A0717D51E4C0823FE2057
:102B0000C4F80832FFF7D4FE1D48C4F81002202094
:102B1000FFF7C2FED4F8141211F01A0F05D0194AAB
:102B2000136813B101F0150098476B0721D5114DBB
:102B30000424C5F808420024012000FA04F00D4DD9
:102B4000D5F83012084211D0C5F838022020FFF71E
:102B5000A3FE0D4B601053F82030D5F814222BB192
:102B600040EAC411C8B202F01F0198470134202C7A
:102B7000E2D170BD00C00050EC1600100002F5005C
:102B80000002FE00F0160010F416001008B5002335
:102B90001E4A002199500433402BF9D11C48016989
:102BA00021F440220261036943F4802101614268FB
:102BB00022F070534360416841F0A052426000F53A
:102BC0005020D0F8C4301A2243F00041C0F8C4109D
:102BD0001048C0F8F42F0146D1F8F80F0D4B00F063
:102BE0001A021A2AF8D100204FF0FF31C3F804026C
:102BF000C3F80812C3F82C02C3F83402C3F8381221
:102C0000C3F84002FFF7CDFE012008BDF416001006
:102C100000C0024000C0005070B5094C094E256844
:102C20003168402DA8BF40252A468020FFF7E2FEEC
:102C30003368216858194D1B3060256070BD00BF96
:102C40005C1700106017001000B5104BA1B05A7847
:102C50001846552A0AD1598841B90D4B1A68802A5D
:102C600004D10C4800AA026001200CE000780A4B55
:102C7000C0F3411153F8213023B10549054A0348F7
:102C8000984700E0184621B000BD00BF541700105F
:102C900064170010601700103417001038B50028B2
:102CA00053D101F00401C9B2002927D0284C0822D1
:102CB0002146FFF7CBFE2078264BC0F3411153F895
:102CC00021202549E3880A60244A254913600B60C6
:102CD0000BB1C2093BD0FFF7B7FF28B98020012113
:102CE000BDE83840FFF77ABE19481D4BC1881A6805
:102CF0001A489142D4BF016002601DE0174D2A6856
:102D0000002A1DDD144C2168FFF7A0FE0028E5DB3A
:102D1000226829681318081A23602860002816D131
:102D20000B4A0C481378C3F3411150F8212022605C
:102D3000FFF78AFF0028D1D0BDE83840FFF76CBF0D
:102D40000A46BDE83840FFF781BE8028F4D038BD80
:102D50005417001044170010601700105C17001083
:102D600064170010034B43F82010034941F820205A
:102D7000704700BF3417001044170010014B186053
:102D8000704700BF6C1700100D49F0B50968050ABF
:102D9000C6B20024087890B14F78AF420DD1B4424A
:102DA0000AD11960022D05BFC8788B780B7843EAE9
:102DB000002313600120F0BD01340918EAE7F0BDDB
:102DC0006C1700104D4B2DE9F0411B6804460D4671
:102DD00017464BB9267806F01F06012E54D007D3AC
:102DE000022E40F0848062E098470028F2D081E013
:102DF00060783B6809287AD8DFE800F005797979AE
:102E000079090D79151C00201870587046E0A078DB
:102E1000FFF7BCFD6EE06088A1882A463B46BDE80E
:102E2000F041FFF7B1BF364A0120117819702860D0
:102E3000BDE8F081A6780EB930461FE0314DFF277E
:102E40002D68B8462978C1B16A78042A06D0052AC7
:102E500006D0022A0ED195F805800BE0EF7809E044
:102E6000B04507D137B969792B79A87843EA0121B0
:102E7000FFF73EFD28782D18E4E70120FFF71CFE40
:102E800062881F490A7035E06378386823B10A2BDD
:102E900006D00B2B2BD106E003704370022204E016
:102EA0000021017016E062880ABB2A6022E0D7F890
:102EB00000806778012F0FD002D3032F17D10FE0C6
:102EC0002079FFF773FD0022C0F3400188F800105D
:102ED00088F801202E600DE0618841B9207903E077
:102EE000608820B920790121FFF778FD02E00020F9
:102EF000BDE8F0810120BDE8F08100BF6817001037
:102F0000701700106C170010014B1860704700BF5D
:102F1000681700107047000010B50E4CFFF736FE22
:102F20000D48FFF725FD00202146FFF701FD802019
:102F30002146FFF7FDFC00204021FFF7D9FC80204F
:102F40004021FFF7D5FC00200449054AFFF70AFF9E
:102F5000012010BD9D2C0000152F0000C52D000084
:102F60007117001038B50E4D0E4B0024E81A85106D
:102F7000AC4205D00B4951F8242090470134F7E7C3
:102F8000FDF7CEF80849094A541AA5100024AC42AE
:102F900005D0054B53F8240080470134F7E738BDCE
:102FA0006C3300006C3300006C3300006C330000A5
:102FB00010B50023934203D0CC5CC4540133F9E72D
:102FC00010BD034613F8012B002AFBD1181A013853
:102FD0007047000001180009001201140007000FDB
:102FE0000116011500060005001000155B42534C48
:102FF0005F53595345585D20657870656374656407
:103000002025642C20676F74202564206279746504
:103010007320287265747279290A0065726173657C
:10302000206661696C656420666F72203078253097
:1030300038783A20636F64652025640A00777269E6
:1030400074655F64617461206661696C65642066A3
:103050006F72203078253038783A20636F646520AD
:1030600025640A00FF0F0000FF1F0000FF2F000073
:10307000FF3F0000FF4F0000FF5F0000FF6F0000F8
:10308000FF7F0000FF8F0000FF9F0000FFAF0000E8
:10309000FFBF0000FFCF0000FFDF0000FFEF0000D8
:1030A000FFFF0000FF7F0100FFFF0100FF7F020024
:1030B000FFFF0200FF7F0300FFFF0300FF7F04000C
:1030C000FFFF0400FF7F0500FFFF0500FF7F0600F4
:1030D000FFFF0600FF7F0700FFFF07000000000062
:1030E0000010000000200000003000000040000040
:1030F0000050000000600000007000000080000030
:103100000090000000A0000000B0000000C000001F
:1031100000D0000000E0000000F00000000001000E
:103120000080010000000200008002000000030097
:10313000008003000000040000800400000005007F
:103140000080050000000600008006000000070067
:103150000080070020000000691500002100000029
:1031600069150000000000000000000000000203DC
:103170000301020303030303020203012845525221
:103180004F523A20737472696E6720706173736571
:103190006420746F204D494F5333325F4D49444989
:1031A0005F53656E6444656275674D6573736167EF
:1031B000652829206973206C6F6E676572207468BA
:1031C000616E20313030206368617273210A005BC8
:1031D0004D494F5333325F4D4944495F52656365F2
:1031E0006976655F48616E646C65725D2054696DD7
:1031F000656F7574206F6E20706F72742030782543
:103200003032780A00202530325800202020002556
:1032100030385820004D494F533332004D4248500A
:103220005F434F52455F4C50433137004C50433160
:103230003778780025303878003F002564004D4904
:103240004F53333220426F6F746C6F61646572004C
:10325000286329203230313420542E204B6C6F7378
:1032600065005B4D494F5333325F4D4944495F53CD
:10327000595345585F436D645F44656275675D20CF
:10328000636F6D6D616E642068616E646C65722041
:103290006E6F7420696D706C656D656E7465642009
:1032A0006279206170706C69636174696F6E0A0085
:1032B0000101020100000000000000000000000009
:1032C0000202020201010200F000007E32FEFF0055
:1032D0006D696469626F782E6F7267001201000277
:1032E00000000040C016FE03101001020301090295
:1032F00065000201008032090400000001010002A3
:10330000092401000109000101090401000201036F
:103310000002072401000141000624020101000609
:10332000240202020009240301030102010009240E
:10333000030204010101000905020240000000002F
:103340000525010101090581024000000000052555
:10335000010103000000014000C0094000C000401E
:1033600000800940286E756C6C2900000000000088
:103370001010FF0000C20100000008000000000063
:10338000000000000000000000000000000000003D
:10339000000000000000000000000000000000002D
:1033A000000000000000000000000000000000001D
:1033B000000000000000000000000000000000000D
:1040000000800010D95D0000D55D0000195300004C
:10401000D55D0000D55D0000D55D0000000000000A
:10402000000000000000000000000000115B000024
:10403000D55D000000000000815B0000D15B000046
:10404000D55D00004D890000658900008189000070
:10405000D55D0000D55D000051930000D55D0000E6
:10406000AD930000D55D000025950000319500005E
:10407000D55D0000D55D0000D55D0000D55D000078
:10408000D55D0000D55D0000D55D0000D55D000068
:10409000D55D0000D55D0000D55D0000D55D000058
:1040A000D18B0000D55D0000297A0000D55D0000AD
:1040B000D55D0000D55D0000D55D0000D55D000038
:0C40C000D55D0000D55D0000D55D00005E
:1040D00070B5002002F05EFA214B00245A789D78DA
:1040E0005543AC4219DA661C31461E4802F0CCFC3E
:1040F000E0B202F0FDF9002002F04CFA00280ADAE2
:1041000017484178184894FBF1F301FB13445A1CFB
:10411000611C02F0B9FC3446E3E70024AC421ADA31
:10412000E0B202F0E5F90020014602F0E7F90C48A0
:1041300041780E4894FBF1F301FB1342511C5A1CC9
:1041400002F0AEFA0121002002F0D8F9084802F08E
:10415000A7FA0134E2E7002002F0CAF9002070BD9E
:104160001A09001084B0000098B00000BEB0000032
:10417000C9B0000038B5544B0022022001211024A0
:104180001A70587099709C80D8804FF47F552A78A7
:10419000422A13D143F6C170017843F6C2741970F4
:1041A000257843F6C3725D70107843F6C471987039
:1041B0000C7843F6C5759C802A78DA80434B002042
:1041C000187043F6D2710C78422C05D143F6D375A2
:1041D0002A78110658BF1A703D4B0020187043F61C
:1041E000D4710C78422C05D143F6D5752A78150682
:1041F00058BF1A70374B0020187043F6D6710C78F0
:10420000422C05D143F6D7752A78140658BF1A7088
:10421000314B0020187043F6D8710C78422C05D130
:1042200043F6D9752A78100658BF1A702B4B002018
:10423000187043F6D0710C78422C05D143F6D17535
:104240002A78110658BF1A701D7802F0C5FF854202
:10425000224C1BD0202002F0B1FC217820480A46D5
:1042600002F012FC102002F0A9FC21781C480A463A
:1042700002F00AFC202002F0A1FC1A4802F004FC23
:10428000102002F09BFC174802F0FEFB134B18783D
:1042900002F09AFF144A43F6E07050F8041BB0F5A0
:1042A000804F42F8041BF8D100230F4A985C114656
:1042B00020385F2801D90020D0540133202BF4D1BD
:1042C0000020C87738BD00BF00000010600000105B
:1042D000810000100C0000100A0000100B000010FC
:1042E000D0B00000F9B000006100001013B5044622
:1042F00010B94FF0FF3006E0002201A901F09AF852
:10430000019B9C42F5D01CBD08B5FFF733FF4FF071
:10431000FF3004F029F800214FF0FF3004F034F8AA
:10432000044802F05FFF044A04480023137003802E
:1043300008BD00BF514600000D0000105E000010D7
:1043400038B50546322435B904F032F8C1434FF090
:10435000FF3004F019F844F6206004F029FB013C1A
:10436000F1D1204638BD0000002070B5014602F0B2
:10437000C5F82D4802F06AF90121002002F0BEF8CC
:104380002A4802F063F9202002F018FC284802F0C5
:104390007BFB102002F012FC254802F075FB002484
:1043A000254604F005F8C1434FF0FF3003F0ECFF61
:1043B000200707D10121092002F0A0F81D4821465D
:1043C00002F06EF91C4B2278185D661C824225D0E3
:1043D000A4F57C51FF2921D90135092D0FDC2020BE
:1043E00002F0ECFB2146154802F04EFB102002F0D3
:1043F000E5FB1248214602F047FB3446D1E70A2D7F
:10440000FBD1202002F0DAFB0D4802F03DFB10202A
:1044100002F0D4FB0A4802F037FBEEE7B6F5804F16
:10442000EBD1284670BD00BF37B1000048B1000095
:1044300059B1000071B1000050C3000078B1000014
:1044400094B100002DE9F041CAB003F005FB00244F
:10445000B4F5804F00F0D88003F0AAFFC1434FF0BD
:10446000FF3003F091FF00226B490AAB0819855C0D
:10447000D5540132B2F5807FF6D1A4F57C51FF29E5
:1044800001D900253EE0654A42251078517883F82D
:10449000C100907883F8C21083F8C3009188604807
:1044A000D28883F8C41083F8C52001785D4A83F868
:1044B000D11010785C4983F8C0500A7883F8D05046
:1044C00083F8D25083F8D30083F8D45083F8D650C1
:1044D00083F8D8505548564D83F8D52001782A786E
:1044E00083F8D71083F8D920002352494AA8C51869
:1044F0005A5C0133202B05F8202CF6D1C1E7013599
:104500001E2D53D04C4850F825108C42F7D24B4EFC
:1045100056F82520944221D1494E32238DE82800B7
:104520000396484F684605A90295B847059B039630
:10453000584234230028B4BF4FF0FF384FF0000832
:1045400005A98DE8280002956846B84705994A42B2
:10455000002AACBF46466FF0010600E00026322379
:104560008DE82800364B684605A902950393354A25
:10457000904705984142002901DBBEB101E06FF090
:10458000020603F07DFA202002F018FB2146324695
:104590002D4802F079FA102002F010FB2A4821463B
:1045A000324602F071FA4FF0FF3032E03323244AF2
:1045B0008DE818000AAD4FF4807302956846214DCE
:1045C0000393049205A9A84705984542002D14DAE3
:1045D00003F056FA202002F0F1FA21462A461B4841
:1045E00002F052FA102002F0E9FA184821462A4651
:1045F00002F04AFA6FF001000BE003F041FA04F513
:10460000807403F029FA23E703F03AFAFFF7B2FDCA
:1046100000204AB0BDE8F08150C300000000001047
:104620000B00001060000010810000100C00001052
:104630000A0000106100001060C20000D8C2000033
:10464000C0D40100F11FFF1FD2B10000F4B100007F
:10465000F7B50C46054602F0B1FD0646284602F0C5
:10466000ADFA0D2C00F0BB820A2C40F0AA829648CD
:10467000964906F07FFA002800F39D8292489449FB
:1046800001AA06F0FBFC0446002800F09482914940
:1046900006F0B2FC002855D18F48904C02F0F4F996
:1046A0008F4D904802F0F0F921788F4802F0ECF934
:1046B00029788E4802F0E8F98D498E48097802F091
:1046C000E3F98D4A8D48117802F0DEF98C488D4D62
:1046D00001788D480A4602F0D7F98C488C4902F0DF
:1046E000D3F92C78204601F0C3FE20B1287801F0E0
:1046F000BFFE024600E0874A2146824C864802F00F
:10470000C3F98648617802F0BFF98548A17802F0C4
:10471000BBF98448A18802F0B7F9E188824802F029
:10472000B3F9824802F0B0F9684806F01BFA8048F5
:1047300002F0AAF97F4802F0A7F97F4802F0A4F935
:104740007E4836E220467E4906F056FC0546C0B952
:104750007C4802F099F92C46E5B2284601F088FE23
:1047600038B1284601F084FE21460246764802F020
:104770008BF90134FF2CEFD1744802F085F97448AD
:1047800017E22046734906F037FC10B902F09CFF8F
:1047900011E22046704906F02FFC70B90124FFF7A2
:1047A00051FE002880F2198221466C48013402F043
:1047B0006BF9062CF3D16A4807E02046694906F0F8
:1047C0001BFC38B9FFF7D6FC674802F05DF9FFF72C
:1047D0007FFCF0E12046654906F00EFC002840F021
:1047E000E7813B4901AA06F049FC0446002800F095
:1047F000DD815F4906F000FC90B9354901AA06F059
:104800003DFC18B1FFF772FD012801D95948D0E1EC
:10481000324BC2B21A700AB15748CAE15748C8E1D0
:104820002046574906F0E8FB90B9294901AA06F04D
:1048300025FC18B1FFF75AFD012801D95148B8E10C
:10484000C1B22748017009B14F48B2E14F48B0E109
:1048500020464F4906F0D0FBD8B91D4901AA06F001
:104860000DFC18B1FFF742FD012801D94948A0E12C
:10487000214BC2B21A7022B1474802F005F94748ED
:1048800097E1474802F000F9464802F0FDF8464833
:104890008FE12046454906F0AFFB002840F08E80AE
:1048A0000B4901AA06F0EAFB18B1FFF71FFD01282A
:1048B00001D93F487DE1C1B20D48017009B13D48C1
:1048C00077E13D4875E100BF0D000010896A0000E6
:1048D00023B2000026B200002BB2000060000010DE
:1048E0008100001048B200006AB20000CCB20000A3
:1048F0000A0000102BB300000C0000107EB3000073
:104900000B00001000000010D7B3000033B400000B
:10491000610000101BB2000074B40000B8B40000C5
:104920000AB500005CB50000A1B50000E7B50000C5
:104930001DB6000075B60000B7B60000EAB600006C
:104940000FB7000019B7000033B700003FB70000F1
:1049500076B70000D8B7000009B80000DEB7000045
:1049600079BF000007B800000FB80000DAB70000F8
:104970002BB8000034B800004FB800006FB800003A
:1049800090B800009BB80000B8B80000ECB8000078
:1049900021B9000034B9000059B9000089B90000FC
:1049A000D2B9000003BA000060BA0000B4BA000037
:1049B000BDBA0000D8BA00001FBB000020468A49DB
:1049C00006F01AFB20B12046884906F015FBB8B95D
:1049D0000020874901AA06F051FB20B1FFF786FCB1
:1049E0007F28014601D98348E3E0834B0A461870CB
:1049F000824802F049F8824802F046F88148D8E03F
:104A00002046814906F0F8FA002833D1784901AAF6
:104A100006F034FB074620B1FFF768FC041E11DAEC
:104A200001E04FF0FF340025284601F021FD01464A
:104A3000384606F0C3FA08B92C4603E00135EDB25A
:104A4000FF2DF1D1FF2C04D9704802F01DF87048F9
:104A5000AFE0704DE0B2287001F00AFD20B1287877
:104A600001F006FD024600E06B4A6C48214602F068
:104A70000BF8A0E020466A4906F0BEFA98B95C49F6
:104A800001AA06F0FBFA18B1FFF730FC014601E07D
:104A90004FF0FF31481EFE2801D9624889E05D4A87
:104AA000614851707FE02046604906F0A5FA98B948
:104AB0004F4901AA06F0E2FA18B1FFF717FC0146C8
:104AC00001E04FF0FF314A1EFE2A01D9584870E03C
:104AD000504B5848997066E02046574906F08CFACA
:104AE000A8B9434901AA06F0C9FA18B1FFF7FEFBBD
:104AF000014601E04FF0FF314A1E4FF6FE739A4225
:104B000001D94E4855E0434881804D484BE020464E
:104B10004C4906F071FAA8B9354901AA06F0AEFA77
:104B200018B1FFF7E3FB014601E04FF0FF314A1EE9
:104B30004FF6FE739A4201D943483AE03548C180A6
:104B4000424830E02046424906F056FA48B1204635
:104B5000404906F051FA20B120463F4906F04CFA90
:104B6000F8B9019C204606F052FA1F2802D93B48AA
:104B70001F2118E03A4B204604F120011A4650F854
:104B8000044B884243F8044BF9D1107820B13548E2
:104B9000334901F079FF02E0334801F075FF18480E
:104BA00007E03248214601F06FFF04E0304800E0A2
:104BB000304801F069FF3049304800230B80037012
:104BC0000DE02D490B884E2B09D82C4A581CD45483
:104BD00083B20B800021D15401E02948F5E530462D
:104BE00001F0ECFF0020FEBD6EBB000067BB0000C3
:104BF00023B2000071BB00000B000010A8BB000036
:104C0000E0BB000019BC00005FBC000068BC0000F5
:104C1000A9BC0000000000101BB20000D7BC0000BF
:104C200002BD00000CBD00002FBD000052BD000001
:104C30005CBD00007FBD0000A2BD0000ACBD000057
:104C4000D5BD0000F8BD000003BE00002DBE000071
:104C500055BE000051BE00005ABE000067BE0000F5
:104C60006100001095BE0000D0BE000003BF000030
:104C700020BF00003FBF00005E0000100D000010CC
:104C800097BF000038B5FFF723FA002001F030FC91
:104C9000202001F093FFAA4801F0F6FE102001F059
:104CA0008DFFA74801F0F0FE202001F087FFA54806
:104CB00001F0EAFE102001F081FFA24801F0E4FEBD
:104CC000202001F07BFFA049A04801F0DDFE10206C
:104CD00001F074FF9C499D4801F0D6FE202001F0B0
:104CE0006DFF984801F0D0FE102001F067FF954855
:104CF00001F0CAFE202001F061FF914801F0C4FEDE
:104D0000102001F05BFF8E4801F0BEFEFFF72CFB88
:104D10000446002842D1014601F0F0FB8C4801F026
:104D200095FC0121204601F0E9FB8A4801F08EFC48
:104D300001214FF0FF3003F027FB202001F03EFF60
:104D4000854801F0A1FE102001F038FF824801F0F3
:104D50009BFE202001F032FF804801F095FE1020DC
:104D600001F02CFF7D4801F08FFE202001F026FF8E
:104D70007B4801F089FE102001F020FF784801F007
:104D800083FE202001F01AFF764801F07DFE1020FE
:104D900001F014FF734801F077FEFEE700200146A2
:104DA00001F0ACFB704801F051FC202001F006FF3F
:104DB0006E4801F069FE102001F000FF6B4801F021
:104DC00063FE0020014601F099FB694801F03EFCBA
:104DD0000121002001F092FB664801F037FC202001
:104DE00001F0ECFE644801F04FFE102001F0E6FEF9
:104DF000614801F049FE0024FFF724FB002818DA7F
:104E000001304FF0200009D101F0D8FE5B4801F0DD
:104E10003BFE102001F0D2FE584808E001F0CEFE23
:104E2000574801F031FE102001F0C8FE544801F04F
:104E30002BFEFFF799FA054688B10134052C0ED0F8
:104E4000202001F0BBFE21464E4801F01DFE10203F
:104E500001F0B4FE21464B4801F016FECCE74FF0BE
:104E6000FF30012103F090FA95BB2946284601F056
:104E700045FB454801F0EAFB0121284601F03EFBD5
:104E8000424801F0E3FB202001F098FE404801F089
:104E9000FBFD102001F092FE3D4801F0F5FD2020C1
:104EA00001F08CFE2E4801F0EFFD102001F086FE8F
:104EB0002B4801F0E9FD202001F080FE294801F097
:104EC000E3FD102001F07AFE264801F0DDFD35E01B
:104ED0000020014601F012FB2E4801F0B7FB002034
:104EE000012101F00BFB2C4801F0B0FB202001F068
:104EF00065FE2A4801F0C8FD102001F05FFE27483A
:104F000001F0C2FD202001F059FE254801F0BCFD52
:104F1000102001F053FE224801F0B6FD202001F0E0
:104F20004DFE204801F0B0FD102001F047FE1D4865
:104F300001F0AAFD0120FFF703FAD7E7FEE700BF63
:104F4000D9030100ACBF0000C2BF0000420D010048
:104F5000D3BF0000E4BF0000F5BF00000BC000009D
:104F60002AC0000053C000008CC000009EC000009A
:104F7000C0C00000D2C00000E4C000000AC10000B0
:104F800020C100003CC1000057C1000069C1000001
:104F90007BC10000AAC10000BDC10000D0C100005B
:104FA000EBC100003BC2000008B503F001FAC143A9
:104FB0000120BDE8084003F0E7B97047704770472B
:104FC000704770477047704708B501F0C5F8BDE8F5
:104FD0000840FFF7F5BF000007B500F0A5FB019002
:104FE000012101A800F0CCFC00F09EFB019B421FB8
:104FF000934238BF0190074801F038F8064801F0A5
:10500000E1F9064803F0E3FC02F02AF9FFF7CCFFD0
:10501000E6E700BFC34F0000C54F0000C74F0000C8
:1050200007B500F081FB0190012101A800F0A8FC68
:1050300000F07AFB019B421F934238BF019001F0C0
:1050400073FD034802F020F8FFF7B7FFECE700BF5D
:10505000BD4F000037B5002002F034FC002003F003
:105060009DFC002002F01EFB002003F06BF90020E5
:1050700002F0D2FF002000F039FF002000F0CAFF4C
:10508000002001F025F8002001F030F8002002F0A7
:1050900005FB002003F098FC002002F0FCFA002041
:1050A00001F014FB002003F04DFD002002F0A0F8F9
:1050B000002002F0A3F8002001F06CFA012001F0BA
:1050C00017FA002005F026FA002001F011FA05F089
:1050D00047FFFFF719F901F0C5FA4FF4FA644FF4EE
:1050E0007A7003F065FC013CF9D103252346009555
:1050F000019409494FF48072084800F005FA084904
:105100004FF48072234600950194064800F0FCF9A4
:1051100000F0D0FA20463EBD55030100D94F0000F3
:10512000500301002150000008B502F0C5FAFFF756
:1051300046FF0248BDE8084000F030BFC94F0000FC
:10514000FFF7A0BD10B5002401346423B4FBF3F2D3
:1051500003FB124008B901F0E7FC094801F094FF95
:1051600042F21071B4FBF1F301FB1342002AEBD1C0
:1051700003F01EF9C143012003F006F9E4E700BF84
:10518000BD4F000008B56FF07F4001F09BFA002092
:1051900001F09AFA002001F0ABF901F0F9F90020D2
:1051A000014601F0ABF9074801F050FA0121002057
:1051B00001F0A4F9044801F049FA044801F064FC44
:1051C000FFF7C0FF5B0301006C0301007D030100DA
:1051D00010B503684168826888B00093C4680369A9
:1051E0000191029241698269C06903940493334C2E
:1051F0000591069207900699314801F045FC20463A
:1052000001F042FC2F4801F03FFC204601F03CFC3D
:1052100000992D4801F038FC01992C4801F034FC2C
:1052200002992B4801F030FC03992A4801F02CFC2C
:105230000499294801F028FC0599284801F024FC2C
:105240000699274801F020FC0799264801F01CFC2C
:10525000254B2648196801F017FC2549254809689F
:1052600001F012FC244A2548116801F00DFC244885
:10527000244C0168244801F007FC2168234801F010
:1052800003FC6FF07F4001F01DFA002001F01CFAD2
:10529000002001F02DF901F07BF90020014601F01A
:1052A0002DF91B4801F0D2F90121002001F026F967
:1052B0000699184801F0F4F9FFF744FFAEBF00006B
:1052C000B1030100C7030100DB030100E603010095
:1052D000F1030100FC0301000704010013040100B5
:1052E000BC0301001E04010038ED00E02A040100A7
:1052F00028ED00E0370401002CED00E0440401003B
:1053000030ED00E03CED00E0510401005E040100DE
:105310006B0401007C0401001EF0040F0CBFEFF3CE
:105320000880EFF30980FFF753BF704740482DE92D
:10533000F04FD0F800800846044614F8015B08EBF3
:1053400005067778204607F00806F7B2002FF3D15C
:105350002D2D03D114F8015B012704E02B2D04BF90
:10536000244614F8015B002B5BD0102B07D1302DA5
:1053700005D12578782D4DD1657810230234002F82
:105380000CBF6FF000404FF00040B0FBF3F9002677
:1053900003FB190A304608EB050C9CF801C00CF021
:1053A000040B5FFA8BFBBBF1000F01D0303D0BE02B
:1053B0001CF0030C1BD0BCF1010F14BF4FF0570CB5
:1053C0004FF0370CCCEB05059D4210DAB6F1FF3FEC
:1053D0000AD0484506D801D1554503DC03FB0050EF
:1053E000012601E04FF0FF3614F8015BD3E7731C90
:1053F00008D1002F14BF4FF000406FF000402AB9D1
:10540000BDE8F08F07B140427AB106B1611E11606C
:10541000BDE8F08F582DAFD03025002BAFD1082339
:10542000ADE7302DA5D00A23A9E7BDE8F08F00BF76
:1054300018C0072030B505460C4613460020294603
:105440002246BDE83040FFF771BF0000F8B51E4DA1
:105450001E4B04461E680F4628682968002280F803
:105460004C20081D00F016FB48B9194B1968286834
:10547000C26A012000FA02F221EA02011960631CEB
:10548000114807D137B102681248111DBDE8F84034
:1054900000F0DCBAA4190268B4420B4B546007D286
:1054A0000D4908681B68191DBDE8F84000F0DABA1C
:1054B0000A4908681B68191D00F0D4FA08480268F8
:1054C000944238BF0460F8BD28010010300100107C
:1054D000800100106C0100103401001088000010E1
:1054E0002C010010064A07481368196811B94FF0DB
:1054F000FF3203E01268D368D9684A6802607047D7
:10550000880000102C0100102DE9F84F4FEA820BA3
:10551000814658460E46924698460B9F00F0B6FBD1
:105520000546002800F0A580502000F0AFFB04469F
:1055300070B105635A462846A52105F037FD236B57
:105540000AF1FF3A03EB8A0020F0070B002506E082
:10555000284600F019FC8CE00135102D06D0725D54
:10556000611981F83420735D002BF5D10A9E002566
:10557000042E34BFB2464FF0040A261D304684F88C
:105580004350C4F82CA0C4F844A0A56400F05BFA12
:1055900004F1180000F057FACAF10500A061246177
:1055A000646284F84C5058464946424600F09CFAE2
:1055B000206007B13C6000F0C3FA304A30481168FF
:1055C0004B1C1360056815BB04601068012827D1C7
:1055D0002C4A142707FB0520013500F029FA052D78
:1055E000F6D1294F294D384600F022FA284600F01E
:1055F0001FFA274800F01CFA264800F019FA26483E
:1056000000F016FA2549264B0F601D6008E0254D75
:105610002A682AB90168E56ACB6AAB4298BF046080
:105620002148E36A0268551C0560012505FA03F06C
:105630001E4A116801431160124A142000FB032026
:10564000314600F003FA00F08BFA164B196869B185
:105650000B48E36A0268D16A994207D2144A4FF0B4
:1056600080501060BFF34F8FBFF36F8F2846BDE8A7
:10567000F88F4FF0FF30BDE8F88F00BF50010010E9
:1056800028010010AC00001094000010540100101C
:1056900038010010100100106C010010880000108B
:1056A000340100108C0000104C010010800100102B
:1056B00004ED00E013B5124B00240193009411484F
:1056C00011494FF480722346FFF71EFF012814D1C1
:1056D0004FF0BF0383F31188BFF36F8FBFF34F8F7A
:1056E0000A490B4B4FF0FF320A601860094804600A
:1056F00002B0BDE8104000F08DBA02B010BD00BF8E
:105700006801001009590000890401002C010010F3
:105710008C00001030010010024B1A68501C1860F9
:10572000704700BF90000010014B1868704700BF21
:1057300030010010F8B5354B1868002836D1344BCD
:105740001E6801361E605EB9324A334D1168286802
:10575000324B106029601A68511C1960FFF7C2FEB5
:105760002F4D28680025864210D32A4B1A681168ED
:1057700021B92B4B4FF0FF30186007E01C68E06840
:10578000C46863689E421FD225490B60254A1423D2
:105790001168254AC86A584311582448012988BF0E
:1057A000012503684BB9FFF7BFFC06E01F490A68F3
:1057B000551C0D60FFF7B8FC00251D4A1168002933
:1057C0000CBF28460120F8BD271D384600F062F9BD
:1057D000A26A1AB104F1180000F05CF9E36A012131
:1057E00001FA03F1134A1068014311600E4A1420B4
:1057F00000FB0320394600F029F90A4BE06A1968DA
:10580000CA6A904228BF0125AFE700BF9000001090
:1058100030010010880000103401001084000010D6
:105820002C01001028010010AC000010A80000108E
:10583000840100108001001070B500F081F9294B3F
:105840001A68501E18601C680CB1002445E02649F7
:105850000B68002BF9D0254D2A680AB3EE680125A4
:10586000F468261D04F1180000F014F9304600F029
:1058700011F9E36A1E4A05FA03F011680143116049
:105880001C4A142000FB0320314600F0DFF81A4BBD
:10589000E06A1968CA6A904224BF18480560DAE7CE
:1058A0000CB1FFF71FFE16480468054644B1FFF728
:1058B00041FF10B1114B01211960013CF7D12C605F
:1058C0000E4A10680028C0D00E4B4FF0805119606E
:1058D000BFF34F8FBFF36F8F012400F041F92046D3
:1058E00070BD00BF90000010500100103801001082
:1058F00080010010AC00001028010010840100108D
:10590000A800001004ED00E070B5184C2368F3B156
:10591000174DFFF701FF2E68FFF78EFF002EF4D022
:1059200000F00EF9EB68DD68281D00F0B3F81148AF
:1059300001684A1E02602668731E236000F010F999
:10594000286B00F021FA284600F01EFADDE70A482D
:105950000168012907D9094D4FF080522A60BFF331
:105960004F8FBFF36F8FFFF7EBFBCEE724010010E3
:105970001001001050010010AC00001004ED00E018
:1059800038B504460D46FFF7C7FE124B226818686B
:10599000A918904202D2914207D201E0914206D367
:1059A000814294BF0022012202E0002200E0012295
:1059B00021601AB1081A0021FFF748FDFFF73CFFEC
:1059C00038B9054B4FF080501860BFF34F8FBFF3CD
:1059D0006F8F38BD3001001004ED00E00F4B1A68E6
:1059E0000F4B0AB1012217E00E481A600168B1FAA4
:1059F00081F3DAB20C4B1421C2F11F0001FB00301D
:105A0000426800F1080153688B42436004BF5B6841
:105A100043604068054BC2681A60704790000010F0
:105A20008401001080010010AC000010280100105B
:105A300000F108034FF0FF32002143608260C36031
:105A40000361016070470023036170474368086188
:105A50009A684B608A609A689960516001684B1C33
:105A6000036070470A6830B5531C01D1036907E031
:105A700000F108035C682568954201D82346F9E7E0
:105A80005A6808614A60916059608B6001684B1CDC
:105A9000036030BD4168826803698A608268516032
:105AA0005968814208BF5A600022026118680138B3
:105AB000186070474FF0BF0383F31188BFF36F8FF7
:105AC000BFF34F8FFEE7000006480068006880F3D0
:105AD000088862B661B6BFF34F8FBFF36F8F00DFE8
:105AE00000BF000008ED00E04FF0807340F8043C78
:105AF000054B21F0010140F8081C40F80C3C40F82F
:105B0000202C4038704700BFB55A0000000000004C
:105B1000074B19680868B0E8F00F80F30988BFF3F5
:105B20006F8F4FF0000080F311884EF00D0E70471C
:105B300028010010AFF30080AFF30080AFF30080C6
:105B40004FF0BF0383F31188BFF36F8FBFF34F8F05
:105B5000024B1A68501C1860704700BF00C0072035
:105B6000034A1368581E106008B980F31188704703
:105B700000C007200000000000000000000000003E
:105B8000EFF30980BFF36F8F0D4B1A6820E9F00F18
:105B900010602DE908404FF0BF0080F31188FFF737
:105BA0001DFF4FF0000080F31188BDE80840196820
:105BB0000868B0E8F00F80F30988BFF36F8F704773
:105BC00028010010AFF30080AFF30080AFF3008036
:105BD00008B54FF0BF0383F31188BFF36F8FBFF396
:105BE0004F8FFFF7A7FD18B1034B4FF080521A609B
:105BF000002080F3118808BD04ED00E0034B044A47
:105C000007201A6043F8040C704700BF14E000E05E
:105C1000BFD4010008B5094B1A6842F47F00186030
:105C2000196841F07F421A60FFF7E8FF044B00203B
:105C30001860FFF749FFFFF73DFF00BF20ED00E0D0
:105C400000C0072010B50F4B1A68824201D21346DC
:105C5000FAE759685C18844203D1406841185960DA
:105C6000184641684418944207D1074C2468A24260
:105C700003D054681268611841608342026018BF03
:105C8000186010BD900100108C010010F8B5054699
:105C9000FFF742FD364B186818BB364A510707D04C
:105CA000D61D26F0070302F52050C11A1A4601E05E
:105CB0004FF420515118304E083921F007010023CC
:105CC000326073600B604B608B1A82E80A002B4EC7
:105CD0002B4A2748136033602A4B01604FF0004184
:105CE00019602848066835423AD1002D39D005F1AF
:105CF00008035A071CBF23F007030833002B2DD0DD
:105D00001E4D2F68BB422BD81B4A1468616899420C
:105D100004D3174D2868844206D121E0206800286A
:105D2000F7D022460446F1E7206815681060CA1AC9
:105D30000835102A04D9E01842606360FFF782FF3B
:105D400062680E49BB1A0B600D491643086866600D
:105D5000834238BF0B600022226002E01D4600E053
:105D60000025FFF769FD0DB9FFF70CFA2846F8BDCD
:105D70008C01001020C00720900100108801001045
:105D8000980100109C01001010B50446E0B10F4AC4
:105D900050F8043C1068184216D054F8081C99B901
:105DA00023EA000344F8043CFFF7B6FC084B54F820
:105DB000040C1A688118A4F108001960FFF742FF6B
:105DC000BDE81040FFF738BD10BD00BF9C010010BA
:105DD00088010010FEE70000684620F007018D46AC
:105DE00001B500230E4A0F499818884204D20E4983
:105DF000585898500433F5E70C480D4A904203D2A6
:105E0000002240F8042BF8E70A4B0B48834203D2E8
:105E1000002143F8041BF8E7FFF71CF9FEE700BF79
:105E200000C0072020C007208811010000000010DA
:105E30003809001020C0072020E907207047000023
:105E4000F8B500210124214B0A4620461C7001F0C0
:105E5000ABFF21462046002201F0A6FF2246204645
:105E6000002101F0A1FF20462146224601F09CFFBF
:105E7000174800230478A3420CDA164A164917483B
:105E8000D55CCF5CC65C7D403543C554C95CD154FC
:105E90000133F0E712490A6802B19047114B1888A4
:105EA00098B111490A8882B10948531E00780B80C5
:105EB0000023834209DA0749084ACC5CD55C6C4070
:105EC000CC540021D1540133F3E7F8BDA7010010F1
:105ED000A601001001060010F1050010D105001008
:105EE000A0010010A4010010A801001010B50028A6
:105EF0002ED1194B1949102218600A700346184810
:105F00000024C45417491848FF22CA54C254174ADF
:105F1000D4540133102BF2D11548164904800120C6
:105F20000C800246214601F03FFF01200246014657
:105F300001F03AFF0221012001F0DCFD06220120E0
:105F4000032101F095FF0C4B01221A70204610BD71
:105F50004FF0FF3010BD00BFA0010010A6010010DF
:105F6000E105001001060010F1050010D105001038
:105F7000A8010010A4010010A7010010014B18781F
:105F8000704700BFA6010010024B03481A88028028
:105F900000207047A4010010A801001037B5174D6C
:105FA0002B7823B316490A7822B3164B00241860C5
:105FB0000C7022462146012001F0F6FE0120014628
:105FC000224601F0F1FE01202146024601F0ECFEDE
:105FD00001200146024601F0E7FE0B482B780090B5
:105FE0000A4901200A4A02F059F8204604E04FF01D
:105FF000FF3001E06FF001003EBD00BFA6010010C0
:10600000A7010010A0010010415E0000E105001092
:10601000F105001050B90346064AFF21D154064944
:106020000020C8540133102BF6D170474FF0FF30D9
:10603000704700BF01060010D105001070B504467E
:106040000D46FFF79BFF84420BD201F005FD064B86
:106050001E5D1A5D2E4022EA05051D5501F010FD5A
:1060600000E00026304670BDD10500102DE9F84350
:106070000746FFF783FF064620B31FB30024B44250
:106080001DDA2046FF21FFF7D9FF804608B9013409
:10609000F5E74FEAC409002548FA05F3DB070AD5FE
:1060A0000A48015D05EB090041FA05F101F0010123
:1060B000B847FFF769FF0135082DEDD1E7E700206C
:1060C000BDE8F8834FF0FF30BDE8F883010600100B
:1060D00038B90346044A0020D0540133102BF9D1BB
:1060E00070474FF0FF307047E105001060BB184B60
:1060F000184913F820206FF3070203F8202011F845
:10610000303043F00F026FF3041201F8302001EB3E
:10611000C0014B788A786FF307034B70CB786FF32D
:1061200007028A7003F0F0026FF307120B79CA704E
:106130004A7901306FF307036FF3030240280B71B4
:106140004A71D4D1002070474FF0FF30704700BF34
:1061500018060010180700102DE9F74F0027DFF888
:1061600060924FEA870B19F827300BEB0908002BD8
:1061700000F018818F4DFE007419A07808B1411EFF
:10618000A17098F8022092B398F8013002F1FF3A1A
:106190005A09032002F0060300FA03F016F805C0BE
:1061A000C1B260466CF38300705583485FFA8AFA87
:1061B00010F80A0001421AD0504601920093FFF7EE
:1061C0003DFF019A009B90B17C49D20711F80A006B
:1061D00040FA03F303F00301CBB204D54A0002F006
:1061E000020040EA5303A95D63F301017155705D3C
:1061F000C0F3810200F003039A4200F0D38000F064
:106200000F0101291BF8093002D113F0100F0DE026
:10621000072902D113F0200F08E00E2902D113F054
:10622000400F03E0082958D113F0800F00F0BA8026
:1062300000F01000C2B21AB9A178E02900F2B280D1
:10624000FF2B08D1705DE37800F00F0203F00F011F
:106250008A4200F0A780705D40F0100373552179E9
:10626000A278501A142801DD1431A17098F8013079
:1062700013F0030115D0022923D1A178C3F38203BF
:10628000C3F1070001F0C00232FA00F194F90120D5
:1062900008BF0121501A6FF045039842B8BF184655
:1062A00011E06079C3F3820200F00F01D343C818F4
:1062B00002D561784A1E6270637960F303036371EB
:1062C00002E06278501E6070A078FF212071A170FA
:1062D000725DE37862F3030363E0022902D113F0F5
:1062E000010F0DE00B2902D113F0020F08E00D2978
:1062F00002D113F0040F03E0042953D113F0080F67
:1063000050D000F01000C2B212B1A178E02949D8F3
:10631000FF2B06D1735DE07803F00F02B2EB101F84
:1063200040D0A95D6FF3041171552379A078C21A8A
:10633000142A01DD1433A37098F8011011F003033F
:1063400013D0022B22D1A378C1F3820103F0C00045
:10635000C1F1070230FA02F394F9010008BF0123EA
:10636000C218462AA8BF462212E06279C1F3820110
:106370004B1C02F00F00C0180F2802DD6278511C80
:106380006170637960F30303637102E06078421C1B
:106390006270A078FF222071A270715DE37861F3D2
:1063A0000713E3700137402F7FF4D9AE0020BDE81A
:1063B000FE8F00BF18070010D10500100106001065
:1063C0001806001070B50646C0B1002401F044FB69
:1063D0000C4B03EBC40045784DB12A466FF307021E
:1063E000427001F04DFB204669B2B04701E001F078
:1063F00047FB0134402CE9D1002070BD4FF0FF3045
:1064000070BD00BF18070010134A144B1168506884
:106410001289196058601A814FF47F510878422818
:1064200018D143F6C172117843F6C2701970027820
:1064300043F6C3715A70087843F6C47298701178A5
:10644000064AFF2908BF4FF48071998043F6C5734F
:106450001878D08000207047920401001A090010BB
:10646000024B93F90000C00F704700BF1A090010DB
:1064700081281CD008D8012823D014D3022814D096
:1064800080281CD110487047842814D005D8822851
:106490000FD0832813D10D48704785280DD086284A
:1064A0000DD10B4870470B4870470B4870470B489D
:1064B00070470B4870470B4870470B4870470020E7
:1064C00070470A48704700BFB2040100DC040100B5
:1064D000070501009C040100AA040100BE0401009C
:1064E000CA040100E5040100F2040100A104010056
:1064F000014B187000207047B801001010B50B4B0D
:106500000B4C18800B4AA388118013B1DAB2A3791F
:1065100001E0082306224243074C4B432280074AEE
:106520001380BDE8104004F09BBA00BF240900109E
:10653000AC0100102A0900102C09001018090010E5
:10654000024B034A1880118004F020BA2C09001075
:10655000180900100023C15C034A99540133042B2D
:10656000F9D10020704700BF260900108278074B40
:10657000111D421801781A604278C0789980012173
:106580001881DA8099720020704700BFAC010010BA
:1065900004F058B913B50446F0B9FFF735FF1048B9
:1065A000104B016801A89C800191FFF7D3FF4CF2CA
:1065B000503002F0FDF9204603F0ACFF00280DDB5F
:1065C000FFF7E6FF21462046FFF798FF20462146C9
:1065D000FFF7B6FF204601E04FF0FF301CBD00BFC3
:1065E0008E040100AC01001030B5154B85B093F955
:1065F00000100546002919DA124B4FF0FF309A8837
:10660000E2B101AC93E8070084E80700DA881B894F
:10661000D108594305FB0100ADF80A200190ADF8FF
:106620000C3094E8070004F047FA01E003F078FE2C
:10663000002803DB044B1A88511C198005B030BDBB
:106640001A090010AC0100102409001038B5451ECD
:10665000002415F8010F18B1FFF7C6FF0443F8E74F
:10666000204638BD38B50B4B0024214620461C700F
:10667000FFF744FF05460848FFF7E8FF01210543FF
:106680002046FFF73BFF05430448FFF7DFFF2843A1
:1066900038BD00BFB8010010C2BF000014050100E2
:1066A0000FB400B593B014AA52F8041B02A80192CB
:1066B00003F07BF802A8FFF7C9FF13B05DF804EB05
:1066C00004B0704704F0F2B904F0F3B938B50546E8
:1066D000002847D1254A2649102313700B70254CFA
:1066E000254B264A264920601860264C264B106010
:1066F00008601860206002F03FFBC40F284600F0DD
:1067000023FE0028B8BF44F00204002000F0BBFFC5
:106710000028B8BF44F00404002000F0A9FF1B4A81
