:020000040800F2
:1000000000500020E9010008E501000800000000A0
:10001000E5010008E5010008E50100080000000016
:10002000000000000000000000000000E5010008E2
:10003000E501000800000000E5010008E5010008F6
:10004000E5010008E5010008E5010008E5010008F8
:10005000E5010008E5010008E5010008E5010008E8
:10006000E5010008E5010008E5010008E5010008D8
:10007000E5010008E5010008E5010008E5010008C8
:10008000E5010008E5010008E5010008E5010008B8
:10009000551A0008E5010008E5010008E50100081F
:1000A000E5010008E5010008E5010008E501000898
:1000B000E5010008E5010008E5010008E501000888
:1000C000E5010008E5010008E5010008E501000878
:1000D000E5010008B9220008992300082923000837
:1000E000E5010008E5010008E5010008E501000858
:1000F000E5010008E5010008E5010008E501000848
:10010000E5010008E5010008E5010008E501000837
:10011000E5010008E5010008E5010008E501000827
:10012000E5010008E5010008E5010008E501000817
:10013000E5010008000000000000000000000000D1
:1001400000000000000000000000000000000000AF
:10015000000000000000000000000000000000009F
:10016000000000000000000000000000000000008F
:10017000000000000000000000000000000000007F
:10018000000000000000000000000000000000006F
:10019000000000000000000000000000000000005F
:1001A000000000000000000000000000000000004F
:1001B000000000000000000000000000000000003F
:1001C000000000000000000000000000000000002F
:1001D000000000000000000000000000000000001F
:1001E0005FF8E0F1FEE70000684620F007018D4669
:1001F00001B500230A4A0B499818884204D20A49DB
:10020000585898500433F5E7084B094A934203D2F3
:10021000002043F8040BF8E700F00CF8FEE700BFFD
:100220000000002050000020083C00085000002082
:10023000D81600202DE9F743002001F035F9002001
:1002400001F0AAFA012001F033FA01A802F047FAFE
:10025000022314208DF806308DF807000024A649EB
:100260000A196058958802A9056121F8045D0834CF
:1002700002F0E5F9182CF2D10026A04F02A9BB1913
:10028000F0599C880836046121F8044D02F0D7F932
:10029000282EF2D100259A494A196858968802A951
:1002A000466121F8046D083502F0C9F9182DF2D124
:1002B0008024944DDFF8648240264FF020094FF4EB
:1002C0000057C8F8149001206F616E6101F088FA40
:1002D000C8F8109001202F612E6101F081FA013CD5
:1002E000E7D12046854B1A18C15895880830282830
:1002F0004D61F7D1012001F073FA00277F4EF0190C
:10030000BC5983880837282F2361F7D1012001F0D9
:1003100067FA48218DF807100025774F02A97A194E
:100320009688E85921F8046D083502F088F9182DEF
:10033000F3D10024714802A903199D88205821F89F
:10034000045D083402F07BF9282CF3D100276C4EB1
:10035000F1198A8802A9B85921F8042D083702F04A
:100360006EF9182FF3D1674F642001F0D3F9BC6800
:1003700084F00400C0F3800501F08AFBC6B216B910
:10038000BB6859070DD44DB14FF40000012102F0B4
:100390005DFC4FF40000002102F058FC002001F049
:1003A0007FFB002000F00EFB002000F00FF9AEB93B
:1003B00054498A68520711D5534F3C78422C0DD1CD
:1003C0005248037853B1524F02F0E6F90120002160
:1003D00001F08CF9FB78082B33D108E0202000F0E5
:1003E0009DFA002E45D0102000F098FA41E06FF001
:1003F0000700012102F01EFC6FF40000012102F051
:1004000025FC4FF0FF30002102F014FC4FF0FF30CC
:10041000002102F01BFC55B101214FF4000002F055
:1004200015FC4FF40000002102F010FC02E0394AF4
:1004300015605560384D2E6886F3088834490C687D
:10044000A04701F08FF90120014601F04FF901F0BA
:1004500093F940F2F317B8423D46F8D901F082F91A
:100460000120002101F042F901F086F9A842FBD9F0
:10047000E7E701F077F901F07FF93222B0FBF2F7FC
:100480006421B7FBF1F4064601FB147042F21077C9
:10049000B6FBF7F107FB1164B6FBF2F702FB17613D
:1004A000430841F28830844288BFC3EB0203012035
:1004B000994294BF0021012101F018F90A23B6FBEB
:1004C000F3F203FB12660EB900F0DEFD002000F02F
:1004D0004FFD01F051F944F61F618842CBD900F07D
:1004E0007FF80028C7D1002D3FF46DAF054CA06800
:1004F0004307C0D567E700BFA8390008C039000826
:1005000090390008000C0140D23F0008D33F00089A
:1005100004400008405C0040004000080008014022
:10052000124B10B51A78032A0BD8114900F07F003E
:100530000C684FEAC41444EA001008600FD104228A
:100540000EE0072A0FD80B4900F07F000C684FEA35
:10055000C41444EA0010086001D1082200E001320E
:100560001A70002010BD4FF0FF3010BD14050020A0
:10057000500000205800002070B5134B16461A7822
:1005800088B004460D468DF800209978DA785878BE
:100590001B798DF802108DF803208DF801008DF87D
:1005A000043000F0C5FD8DF80500F7208DF8080037
:1005B0006946204609228DF806508DF8076000F044
:1005C00097FA08B070BD00BF873A000810B9034B16
:1005D000187070474FF0FF30704700BF15050020BE
:1005E000014B1878704700BF150500202DE9F04138
:1005F00098460C461546064600F08EFD01F0B2F80E
:10060000B8F1010F04D0B8F1020F40F07B8185E012
:10061000B04B14B1012C0AD104E01C70AE4BAF4AB0
:100620001C608EE01978072900F2508193E0197858
:10063000082903D030460E210122E1E0A848A94C48
:100640000278437881782270C2780079A24FA34D56
:100650006370A170E27020713F682D6800F068FD42
:100660004FEA556E6071780E0223E071C7F3864140
:100670007044A3712172C7F3C62341186372C7F394
:100680000612CB18C5F38640A2729A181118C5F34A
:10069000C623CA182073C5F306101118637300230C
:1006A000A07384F80BE001F0FF011A460F341846DE
:1006B000A84221D010F807E04FF0080C0133520097
:1006C000DBB242EADE12062B4FEA4E0ED2B25FFADE
:1006D0008EFE0AD9C3F1070302FA03F2D2B251180F
:1006E000002304F8012BC9B21A460CF1FF3C1CF0A0
:1006F000FF0CE3D10130DBE71BB18B1804F8012BB1
:10070000D9B24A42774902F07F00F723A21C207039
:1007100063703046521A00F0EBF9D7E014B1012CA7
:1007200053D110E06B4B6C496C486F4A1C700C60E5
:1007300004606E4B6E496F4814706F4A1C700C60F9
:1007400004601460C2E0634B1978072907D8664932
:1007500008782A180A702846FFF7E2FEB6E0082952
:100760002BD1614B18782A181A70614B1B68B3F5AE
:10077000806F80F0AB80594E5F4F5E4C36683868B2
:10078000226807240132C5F380176D00072A47EA63
:100790004000EDB206D9534AD0540133B34228BFCA
:1007A00009210022013CEDD1534C206051480260E8
:1007B0004F4A1360474B197088E0092902D14B4A10
:1007C000157083E00C20187080E0444B48481F6887
:1007D0000168B942FFF42EAF3E4A13780C2B03D1C7
:1007E00030460E2142460BE03F4A404813780178DC
:1007F000584200F07F02914205D030460E2103227C
:10080000FFF7BAFE62E0344B3C4901240C701C68CF
:1008100044EA0700830779D1394A944202D86FF03D
:10082000070075E000F0CCFE00F100614B1E9C4219
:1008300032D801F0A5FF2546291BB9423BD200F072
:10084000E9FE00F0BDFEB0F5802F34BF4FF48061AB
:100850004FF40061B5FBF1F301FB135060B928467A
:1008600001F0ECFF042807D0142001F09DFF00F0F8
:10087000E5FE6FF003004BE01A4A2846131B591996
:100880004A785B5D43EA022101F0BAFF0428EBD10C
:1008900000F0D4FE0235CFE7B4F1005FBFD300F023
:1008A00097FE00F10050421E9442B8D820460D49F0
:1008B0003A4603F064F80C4B0F211878424202F0DC
:1008C0007F023046FFF758FE00F0DEFB0020BDE857
:1008D000F08100BF140500205000002058000020C7
:1008E000873A000860000020540000205C000020CF
:1008F00010050020080500200C050020150500202B
:10090000FF3F00084FF0FF30BDE8F0816FF00800B6
:1009100042420E213046D2B2D4E700BF10B5114B8F
:1009200088B01A78997804468DF800205878DA78DB
:100930001B798DF802108DF803208DF801008DF8D9
:10094000043000F0F5FBF7218DF8050001208DF84B
:1009500006008DF8071020466946082200F0C8F806
:1009600008B010BD873A000808B52020FFF7D6FF71
:100970001020FFF7D3FF024B0020187008BD00BF06
:100980001505002008B50B4B1A7802F00801C9B212
:1009900049B109490978814205D16FF307021A70FC
:1009A000064B00221A7006490A6802B190470020DF
:1009B00008BD00BF44050020280500201C050020BC
:1009C0003005002038B50446002837D11D4A1E499D
:1009D000102313700B701D4D1D4B1E4A1E492860BD
:1009E00018601E4D1E4B106008601860286001F0F2
:1009F000A1F9C50F204600F0C1FB1A4A00281A4B86
:100A0000B8BF45F00205002010701978174A60F34E
:100A100007011970107016480378422B04D115494C
:100A20000878010658BF1070134B002213491A8032
:100A300000220023C1E90023684238BD4FF0FF3097
:100A400038BD00BF0000002001000020200500206C
:100A50001805002040050020300500203405002046
:100A60002405002028050020440500202A05002038
:100A7000D03F0008D13F00082C0500203805002099
:100A800010F0F00F70B504460D4604D101280CBFDC
:100A9000144B154B1C78154B04F00F061A6872B9ED
:100AA00004F0F000102812D0202817D166F30715A3
:100AB00004F00F002946BDE8704000F00FBC66F35B
:100AC00007152046294690470028E9D070BD66F3F7
:100AD00007152846BDE8704001F09AB94FF0FF3085
:100AE00070BD00BF0100002000000020180500209C
:100AF0002DE9F04180460E4617460024BC4235D20F
:100B00003B1B022B0DD0032B19D0012B19D1325DC9
:100B1000052161F3030562F30F2501346FF31745D7
:100B20000AE0305D3119062363F303054A7860F368
:100B30000F2562F3174502346FF31F650FE007209E
:100B400000E0042060F30305335D3019417863F35E
:100B50000F25827861F3174562F31F650334404621
:100B60002946FFF78DFF0028C8DA00E00020BDE825
:100B7000F081000030B5F023A1B08DF80030134BA8
:100B80007E2232258DF803201A7800248DF8045037
:100B90000F258DF801408DF802408DF805208DF865
:100BA000065002AB0D5D5A1E35B101341A4603F8EA
:100BB000015C0133642CF5D1F72102F8011B694671
:100BC000521AFFF795FF21B030BD00BF2A05002063
:100BD00000B5F02389B08DF8003000238DF8013086
:100BE0008DF802307E238DF8033032238DF80430E7
:100BF000084B8DF806101B78F7218DF807208DF82B
:100C00000810092269468DF80530FFF771FF09B019
:100C100000BD00BF2A050020F0B5454E8BB03378EB
:100C200004460D461746FFF7E1FC00287CDA3178D0
:100C30000D295AD001D829B169E00E2974D00F29A5
:100C400065D15AE03B4B1DB1012D03D11F706BE004
:100C50001D7069E01878052829D011D8022820D005
:100C600004D801283DD12046334937E003281BD062
:100C7000042836D100F09EFC30490246684623E045
:100C8000082826D006D8062819D0072829D100F030
:100C90009FFC16E009281FD07F2822D1FFF764FEB1
:100CA00042E02046264919E02046264916E06846DB
:100CB00000F096FC0028204609DA23490EE000F0F7
:100CC0007FFC22490246684601F0AAFC204669469C
:100CD00004E020461E4901E01E492046FFF74AFF76
:100CE00022E020460E210D2204E0022D1CD12046D8
:100CF0000E211022FFF76CFF16E0174A0DB1012DEF
:100D000001D1556010E0526872B92046F2E70E2119
:100D10000A462046FFF75CFF0F49054B0A78002082
:100D20006FF307020A70187000200BB0F0BD00BF0F
:100D30001C05002029050020203A0008413A00083F
:100D4000273A0008373A0008463A0008483A0008AF
:100D50004B3A00085D3A000844050020F72910B519
:100D60000A465AD82E4B197801F0080303F0FF0405
:100D70001BB12C4B1B7883424CD1A0F11103062BE5
:100D800048D9284B187004BB2548037803F00703A3
:100D9000042B03D82448C05C904221D101F0070104
:100DA000052903D121480178914219D15A1C1C4BC5
:100DB00002F007001978052860F3020119702CD998
:100DC000CAB242F00800187027E0130611D5F72ABE
:100DD00006D101F01001CBB213B10221FFF71CFFC5
:100DE0000F4B134A197800206FF307011970107028
:100DF00010BD01F01004E4B244B9094B197841F078
:100E0000100119700A4B21461A7000E00121FFF70A
:100E100003FF02E04FF0FF3010BD002010BD00BF07
:100E20004405002028050020873A00082A050020F4
:100E30001C05002001F00F032DE9F0470F46C1F318
:100E40000728C1F307494FEA116A03F1080101F0CD
:100E50000F010629064602D8002A5ED180E0B8F1CB
:100E6000F00F08D003F10C0000F00F0103292CD87B
:100E7000B8F1F60F29D03C49D1E9004554EA050004
:100E800023D106F0F004302C4FF000000CD0502C91
:100E900013D0102C19D1354C208006F00F000124FE
:100EA00004FA00F0088010E0304C208006F00F00BB
:100EB000012404FA00F0488007E02C4C208006F062
:100EC0000F00012404FA00F088800F2B48D8DFE8D7
:100ED00003F022222222081C282847474747474779
:100EE0004708B8F1F70F16D83046414607F00F070C
:100EF000FFF734FF0F2F33D049463046FFF72EFF60
:100F000030465146FFF72AFF2AE0B8F1F70F02D822
:100F1000B8F1F60F05D11AB3304627F0F00190472B
:100F20001EE01A1F12F0FF041AD030464146FFF7A8
:100F300015FF012C0CD030464946FFF70FFF022C5D
:100F400005D030465146FFF709FFD04600E0C846BD
:100F5000B8F1F70F04D1044900220023C1E90023AE
:100F60000020BDE8F08700BF380500202C050020D8
:100F70002DE9F041804688B0684600F061FF002806
:100F800007DB00994246C1F303101030FFF752FF10
:100F9000F2E73A4D02AC0FCD0FC495E803009DF87F
:100FA000083084E803004BB300242546264608A8F1
:100FB00000EBC40111F8182C12B9FDB11446154606
:100FC00008AF07EBC40313F8187C53F8142C07F090
:100FD0000F0001A9904710F10A0F03D13846FFF71F
:100FE000D1FC08E0002806DB38460199424601366C
:100FF0000135FFF71FFF0134092ED8DD2049D1E963
:10100000002352EA030035D01E480388B3F57A7FE7
:1010100030D90A8862B1002142FA01F313F00100CD
:1010200003D101311029F7D101461031C8B21AE0BD
:101030004B885BB143FA02F010F0010103D1013299
:10104000102AF7D10A463032D0B20CE0888850B16D
:1010500040FA03F111F0010203D10133102BF7D153
:1010600013465033D8B2FFF78DFC05480022002309
:10107000C0E90023002008B0BDE8F081E83900088D
:10108000380500202C05002010B500F005FF0446AF
:1010900000F09AF8044300F005FA054B4FF6FF7193
:1010A0001A8820438A4201D001321A8010BD00BF45
:1010B0002C05002008B5034B1A680AB1904708BDFB
:1010C000104608BD20050020114BF7B51C680746E7
:1010D000E4B1C1F307640F4DC1F30720C1F3074228
:1010E0008DF8064001F00F0100246E5C8DF80400BD
:1010F0008DF805202546B54208DA054B01AA515D59
:101100001B683846984701350443F4E72046FEBD86
:1011100020050020103A0008012803D0034B187066
:10112000002070474FF0FF30704700BF01000020E3
:10113000014B1878704700BF2A05002008B500F061
:10114000C3FE0028D4BF0020012008BD012838B507
:1011500004460CD800F05EFA064B0748FF22002533
:101160001A5520F8145000F069FA284638BD4FF09F
:10117000FF3038BD4C0500206A05002010B504463C
:1011800010B14FF0FF3010BD0D4B0E49FF2218601B
:10119000187158719871D8711881D8601874587482
:1011A0009874D87498820A70FFF7D0FF0120FFF777
:1011B000CDFF204600F04EFF0028E2DB204610BDA8
:1011C000500500206805002008B500F023FA104AF9
:1011D0004FF6FF71138808468B4201D0013313800C
:1011E0000C4B1989814201D0481C188152884FF656
:1011F000FF718A4202D00648013242809B8A8B42AC
:1012000002D0044A591C918200F018FA002008BD4F
:101210006A050020500500202DE9F347C1F3072699
:10122000054601F00F075FFA86F8C1F3074AC1F3DC
:101230000769FFF783FF002840D0234BDC5D002CBB
:101240003FD022488DF8046030F815208DF805A0B5
:10125000B2F57A7F8DF8069003D92846FFF776FF1E
:101260001BE01B490B7843FA05F3DA0715D5072F66
:1012700013DD0F2F11D0012C0ED9164A515D4145B7
:1012800006D1013C8DF804A08DF80590E4B204E08D
:10129000002320F8153000E00124B8F1F70F98BFC3
:1012A0000C4801A998BF46552246284600F0F8FF91
:1012B0000230022802D8084A105603E04FF0FF30EF
:1012C00000E02046BDE8FC87103A00086A050020CF
:1012D000680500204C0500208C3A000838B505460A
:1012E0000C4621462846FFF797FF811CF9D038BDF0
:1012F0002DE9F04180460F46FFF720FF002800F05F
:10130000C5800C2606FB08F6634DAC19404600F07C
:10131000F9FE0028C0F2A1800206C3B252D5F72B15
:1013200008D9396841F00F023A607B700023BB7026
:10133000FB70AFE05949C3F30212895C23716171FC
:1013400009B1002137E0564A00F00F00125CF02B83
:10135000627103D101226370E271F2E7F72B1DD1B4
:10136000E279207842B1012A0ED1062262F303000D
:101370002070A370E1700CE0052161F30300207080
:101380006370A270E27004E0072161F30300207033
:10139000E370236800203B60E0710BE0002AD0D1AD
:1013A0002178052060F3030121706370A270E27060
:1013B00023683B60012163790020A371208100290B
:1013C000A4D067E02279F02A17D1E279511CC8B283
:1013D0000128E07103D0022803D1A37096E763705F
:1013E00094E7E370AB5D042262F30303AB55A959A4
:1013F00000203960E07120814CE0A07920B9627949
:101400002081511EA17101E0411EA1716079012866
:1014100002D1A370002303E0A2790AB1A37000E017
:10142000E370A379002B7FF471AF2079AA5D00F0FF
:10143000F001F02901D0010908E063791BB1012B0B
:1014400003D1022102E0052100E0032161F3030240
:10145000AA556070A85938601CE00020A17971B1CC
:101460002289B2F57A7F0AD90023AB5123716371C7
:10147000A371E37123816FF00900BDE8F0810028BA
:101480000CBF4FF0FF300020BDE8F0814FF0FF307F
:10149000BDE8F0810120E1E7500500207F3A000817
:1014A000003A00080020704737B5054600286FD184
:1014B00001217D2001F0A6FB01A801F010F94EF2F8
:1014C000FF704823ADF8040001A933488DF80730B8
:1014D00001F0B5F84FF6FF71ADF804102F4801A9DF
:1014E00001F0ADF82E4801A901F0A9F82D4801A995
:1014F00001F0A5F801F002FB082834D001F0AAFAA7
:101500004FF4803001F0C6FA01F0C0FB0128044618
:101510002AD1102001F028F9022001F01BF92846F9
:1015200001F0F4FA284601F005FB4FF4806001F069
:10153000F7FA4FF4004001F00DFB4FF480304FF408
:10154000801101F0C1FA204601F0C8FA392001F0FB
:1015500089FB0028FAD0022001F0C6FA01F0CEFA89
:101560000828FBD100E02C4600210F4801F0AEFB1B
:101570004FF4407001F0A0FB042001F0B1FB0B4AD6
:101580000B4B012C14BF4FF0FF3000201A6001E01C
:101590004FF0FF303EBD00BF000801400010014089
:1015A00000140140000C01400000000800FF1F0073
:1015B000042004E0014B1868704700BF002004E0DD
:1015C000024B188881B28802704700BFE0F7FF1F06
:1015D000024B188881B28802704700BFE2F7FF1FF4
:1015E00000235A1002F10051A1F618021278D9070F
:1015F00058BF120902F00F02092A94BF3021372187
:101600008A18C2540133182BEBD100210176084609
:1016100070470000074B1A681AB9EFF310810648AB
:1016200001604FF0010080F310881A680020511CFF
:10163000196070477405002070050020074A136880
:101640003BB1581E106038B905490A6882F310880A
:1016500002E04FF0FF307047002070477405002013
:10166000700500200F291CD80F4BDA68D343C3F351
:101670000222C2F1040301FA03F100F160430901FF
:10168000CAB203F5614181F80023012342B200F0A0
:101690001F00510903FA00F2044840F821200020FD
:1016A00070474FF0FF30704700ED00E000E100E0D0
:1016B00013B5044601A801F012F8102303208DF899
:1016C0000730E3078DF8060006D50421ADF80410B5
:1016D0000548694400F0B3FF34F0010314BF6FF014
:1016E000010000201CBD00BF00140140C20707D547
:1016F000074B11F0010F4FF0040214BF1A615A6139
:1017000030F0010314BF6FF001000020704700BFEC
:101710000014014030B5012185B00446102001F0CD
:101720007DFA48204443611E0D4C4FF6FF7300259F
:10173000ADF80410204601A9ADF80830ADF80A5004
:10174000ADF8065001F018F901210A46204601F0D3
:1017500069F92046012101F059F9284605B030BD4C
:10176000001000400348012108B5818401F06EF9A2
:10177000002008BD00100040064810B50121848CEF
:1017800001F059F9A4B200280CBF20464FF0FF30F9
:1017900010BD00BF001000401FB50446C8B94FF48B
:1017A0000060012101F02EFA47204FF6FF73ADF8DB
:1017B000040001A90948ADF80830ADF80A40ADF8B9
:1017C000064001F0D9F80548012101F01FF9204633
:1017D00001E04FF0FF3004B010BD00BF002C01400D
:1017E000044B998C89B29A8C521A92B28242FAD9DD
:1017F00000207047002C0140014B04221A60704702
:10180000780500207047704702207047022070471B
:1018100009B1022070470128FBD808467047000034
:1018200070B5454AC4B05168054610686B4603C39D
:10183000906803A91860414B03F110060C46186824
:101840005968083303C4B3422146F7D11A883C488B
:1018500022800368D97803296BD8DFE801F00602FB
:101860001E460DF1FF3000230EE009238DF84A30AB
:1018700004238DF84B304EE0C82A13460BD012AA31
:10188000D154D2180021517010F8011F9A1C93B244
:101890000029F1D13FE0C8233DE00023294A99B255
:1018A000981802785AB1203A5F2A8CBF0022012290
:1018B0000133202B06D0002AF0D103AB05E000292C
:1018C000FBD001E0002AF8D01E4B591E002311F86E
:1018D000010F9A1C93B2F0B1C82A1346DBD012AAAA
:1018E000D054D21800205070F1E708A8FFF778FE16
:1018F00000281EDB0DF11F01002311F8010F9A1CB7
:1019000093B240B1C82A134605D012AAD054D218B7
:1019100000205070F1E703208DF8490012AA2846F4
:1019200008A98DF848300892ADF8243001F0B0FBDA
:1019300000E0002044B070BD0C3B00084B3A0008AA
:10194000CC160020E03F000813B5054A044692E893
:1019500003008DE803002046694601F099FB1CBD99
:10196000903A000813B5054A044692E803008DE852
:1019700003002046694601F08BFB1CBD983A000825
:1019800038B5294B00241868802584724572C472CA
:10199000204601F0E7FE20464FF4007101F0EAFE18
:1019A0001021204601F0FBFE4021204601F07AFF85
:1019B0002946204601F066FF204601F02FFF1B4913
:1019C00020460A6892F82C1001F0A6FF204601F08C
:1019D00014FF0120214601F0CDFE0220214601F036
:1019E000C9FE0120C02101F04DFF0120402101F07E
:1019F00085FF0120202101F0D2FE02204FF48071EA
:101A000001F050FF4021022001F086FF022001F08A
:101A1000F4FE204601F07AFD204600F091F9044BD7
:101A20000120186038BD00BFCC160020C41600206D
:101A30007805002008B5054B1868817A29B1012086
:101A400000F07EF9024B05221A6008BDCC1600207A
:101A5000780500200C4B10B51C68610506D50B48B5
:101A60004FF6FF3201681A604B689847A20503D50C
:101A700005484FF6FF520260230403D5BDE810402D
:101A800001F096BD10BD00BF445C0040C4160020AC
:101A900008B5002001F07AFE003018BF012008BD13
:101AA00073B5044601A800F01AFE022C74D8FFF7A3
:101AB000B1FD3B4B00221A60FFF7C0FD022C12D093
:101AC00038483949394D08602E88394A39483A4BE7
:101AD0001680186039493A4D3A4E3B4A3B483C4BD8
:101AE000296016605860304E002000F029F93168F6
:101AF000022500220D728A729CB9FFF7C9FF80B1DE
:101B00002021012001F04BFE284601F076FE2C4AF0
:101B100034688020012311686072A3724C68A0476A
:101B20002AE01F4D0320102128604FF480538DF8C8
:101B300007108DF8060001A92648ADF8043000F022
:101B40007EFD254B234A4FF48050013B5061F9D173
:101B5000022129600A201F4A002301385361FAD16B
:101B60000F490860486000F0EFFF01214FF40000CA
:101B700001F054F8022C06D0184B00204FF4044218
:101B8000186043F8042C164900240C601420082126
:101B9000FFF768FD204601E04FF0FF307CBD00BF3D
:101BA000405C00407C050020CC160020A03A0008D4
:101BB000D0160020DC3A0008C4160020A43A000821
:101BC000C8160020A91E000804000020B91E000845
:101BD0002000002000080140400D0300445C00404C
:101BE0007805002070B5FFF715FD224B1878002806
:101BF0003BD0022001F0AEFEC0F38F04002C34D0A5
:101C00001D4920B20A8893B2C3F5007188422CDACC
:101C10001A4D35F8046C35F8082C42EA0646C6F32E
:101C2000031010303146FFF74FFA90B9144B154AA4
:101C3000198889B242F8216019884A1C91B2B1F51D
:101C4000007F198028BF18800B4803885A1C91B266
:101C50000180013CA4B220B208350028D9DC054B34
:101C6000002202201A7001F0C8FDBDE87040FFF7A5
:101C7000E5BC00BFA01500209805002008620040C8
:101C8000A2150020A00D002038B5FFF7C3FC234BA0
:101C9000187800283ED122490A8893B2002B39D007
:101CA00020480278002A35D00D88ABB2102B98BF9F
:101CB0000C881A4994BFA4B21024A5B2AA0001202E
:101CC000087091B201F01AFE1548174A0388591B93
:101CD0008DB20580154B1649188880B231F8200066
:101CE00042F8080C188880B251F82010080C1988A6
:101CF00042F8040C481C81B2B1F5007F198001D371
:101D000000201880013CA4B20832002CE2D101204E
:101D100001F062FDBDE83840FFF790BC9C0D00204B
:101D2000A6150020AA15002088610040A8150020F3
:101D30009C050020002814BF4FF0FF3000207047A2
:101D40000D49002310B50B800C4C0D4923800B80EE
:101D50000C4C0D4923700B800C4C0D4923801A4606
:101D60000B800C4C01210C4B10B121701A7001E05A
:101D700022701970002010BD98050020A2150020C7
:101D80009A050020A0150020A6150020AC15002003
:101D9000A8150020AA1500209C0D002038B5184C6D
:101DA0000546237813B94FF0FF3038BD1548018838
:101DB0008AB2B2F5FF7F07D9FFF766FF2378002BC1
:101DC000F1D06FF0010038BDFFF724FC0E4B0F4936
:101DD000188882B2501C41F8225082B21A801988A9
:101DE00088B2B0F5007F01D300221A80054B198814
:101DF000481C82B21A80FFF721FC002038BD00BFCA
:101E0000AA150020A6150020AC1500209C05002076
:101E100010B504462046FFF7C1FF831C08D1074BCD
:101E200042F20F711A888A4207D8501C1880F1E7D5
:101E3000002802DB014B00221A8010BDA4150020EF
:101E4000124B10B50446188881B2D9B1FFF7E2FBF6
:101E50000F4B10491A8890B251F8202022601C883C
:101E6000601C81B2B1F5007F198001D300221A8075
:101E7000064C2388581E81B22180FFF7DFFB2288A1
:101E800090B210BD4FF0FF3010BD00BF980500208C
:101E90009A050020A00D002008B5FFF7A3FEFFF76C
:101EA000F3FE002008BD0000024B00221A70FFF76D
:101EB000EBBE00BF9C0D0020024B01221A70FFF701
:101EC00091BE00BFA0150020034B197841FA00F025
:101ED00000F00100704700BFC016002030B5012897
:101EE00085B004460D461BD84FF00C014FF000039F
:101EF00014BF0D480D48ADF80A1004AA6946ADF8A4
:101F00000430ADF80630ADF80830ADF80C3042F8CA
:101F1000105D00F0B3FC064840F82450002001E0BA
:101F20004FF0FF3005B030BD0038014000480040A0
:101F3000B8160020F7B5044601A81F460D46164600
:101F400000F0CDFB02239C428DF806305ED831486C
:101F5000012202FA04F201780FB10A4301E021EAFA
:101F60000202012C02701CD0022C31D04FF40073FD
:101F7000294801A9052E14BF1C261826ADF80430E7
:101F80008DF8076000F05BFB48204FF480618DF80E
:101F90000700ADF80410204801A900F050FB002014
:101FA0002FE04FF48061ADF804101C48052E14BFDB
:101FB0001C26182601A98DF8076000F040FB482276
:101FC0004FF400638DF80720ADF80430134814E097
:101FD00004221148052E14BF1C2618260DEB020101
:101FE000ADF804208DF8076000F029FB0820482395
:101FF000ADF8040008488DF8073001A900F01FFB78
:1020000020462946FFF76AFF002001E04FF0FF302D
:10201000FEBD00BFC01600200008014000100140B6
:10202000012808B5034605D002D302280ED108E0E6
:10203000002006E047F612210622FFF77BFF002072
:1020400008BD47F6122106220123F6E74FF0FF30C4
:1020500008BD000038B5044600283ED120480121C3
:1020600000F046FB4FF48040012100F0CBFD4FF41F
:10207000C020012100F0D2FD1A4B1B4800251D5540
:102080001A4905551A4A1B4B1B480D5515551D5528
:102090000555E0B20134FFF7C3FF032CECD1042156
:1020A0002520FFF7DFFA0122144840F2255100F005
:1020B00049FC04212720FFF7D5FA0122104840F2FD
:1020C000255100F03FFC01210C4800F02FFC0C488A
:1020D000012100F02BFC284638BD4FF0FF3038BD01
:1020E00010001400B0150020B4160020B215002016
:1020F000B6160020C1160020AE15002000380140A1
:1021000000480040012838B504461BD8104B185C25
:10211000D8B1FFF77FFA0F4B0F491A5D185D02EB3C
:102120008415421C4D5DD1B23F29195501D90020BB
:102130001855074B1A5D511EC8B21855FFF77EFAA5
:10214000284638BD4FF0FF3038BD6FF0010038BD74
:10215000B0150020B215002034160020012838B533
:1021600004460D461CD8114B185C3F281BD8FFF7BE
:1021700051FA0F4B0F491A5D02EB84101A5D0D5492
:10218000501CC1B23F29195501D900221A55074BDD
:10219000185D411CCAB21A55FFF750FA002038BD2D
:1021A0004FF0FF3038BD6FF0010038BDB015002092
:1021B000B416002034160020012838B504461BD878
:1021C000104B185CD8B1FFF725FA0F4B0F491A5D79
:1021D000185D02EB8415421C4D5DD1B23F291955A3
:1021E00001D900201855074B1A5D511EC8B2185569
:1021F000FFF724FA284638BD4FF0FF3038BD6FF0A6
:10220000010038BDB6160020AE150020B415002020
:102210000128F8B504460D46164630D81B4B185C0D
:1022200081183F292EDCFFF7F5F92846421B93B2AF
:10223000B34220D2164B17491F5D07EB841210F8EA
:10224000017B8F541A5D511CCAB23F2A1A5501D91D
:10225000002119550D4A135D591CCBB2012B1355A2
:10226000E4D1012C14BF0C4B0C4B9A8991B241F074
:1022700080029A81DAE7FFF7E1F90020F8BD4FF01C
:10228000FF30F8BD6FF00100F8BD00BFB6160020AA
:10229000C1160020B415002000380140004800405D
:1022A00070B506460D461446304629462246FFF7CD
:1022B000AFFF831CF8D070BD194B10B51A8802F01F
:1022C000200081B281B19C880020E4B2FFF7FCFDC0
:1022D00020B900202146FFF741FF05E020202146DC
:1022E000FEF7E8FE0028F4D00D4C238803F08002AE
:1022F00090B298B10B490B7853B10020FFF75CFF07
:10230000002802DAFF20A08010BD82B2A28010BD9A
:10231000A28922F0800001040B0CA38110BD00BF34
:1023200000380140B6160020194B10B51A8802F08B
:10233000200081B281B19C880120E4B2FFF7C4FD86
:1023400020B901202146FFF709FF05E021202146A1
:10235000FEF7B0FE0028F4D00D4C238803F0800275
:1023600090B298B10B494B7853B10120FFF724FF8D
:10237000002802DAFF20A08010BD82B2A28010BD2A
:10238000A28922F0800001040B0CA38110BD00BFC4
:1023900000480040B616002038B50E4C238803F0E4
:1023A000200081B249B1A5880220ADB2FFF78CFDB3
:1023B00018B12220E9B2FEF77DFE2388054A03F01A
:1023C000800081B229B1938923F0800001040B0CB5
:1023D000938138BD0044004020B103681970016842
:1023E0004A1C026070472DE9F843141E8046894656
:1023F00001DC20270FE0002219F8021009B1013298
:10240000FAE7A242B4BFC2EB04040C4613F0020F79
:102410000CBF20273027DB070CD42546002D05DD17
:1024200040463946FFF7D8FF013DF7E724EAE47656
:10243000A41B00E000263546C6EB0903595D21B117
:102440004046FFF7C9FF0135F6E72646002E05DDB9
:1024500040463946FFF7C0FF013EF7E7002CACBF0E
:102460002819281CBDE8F8832DE9FF470C9E8146FA
:10247000DDF834800C4651B930228DF804208DF8F7
:102480000510324601A94346FFF7ADFF35E033B1F1
:102490000A2A04D1002902DA4C42012700E0002771
:1024A00004AD002305F8013DAA466CB1B4FBF2F37C
:1024B00002FB1344092C02DD0E993A3964183034BA
:1024C00005F8014D1C46EFE787B14EB118F0020F39
:1024D00006D048462D21FFF77FFF013E012705E08A
:1024E0002D2005F1FF3A05F8010C0027484651461A
:1024F00032464346FFF777FF381804B0BDE8F0874F
:10250000F0B589B006460D46059200242B7823B11C
:10251000252B79D168786A1C28B9002E7BD03068C9
:102520000022027077E025286DD02D2802D1AA1C48
:10253000012300E00023174639780132302902D107
:1025400043F00203F7E7002239783D46A1F130005D
:102550005FFA80FC0137BCF1090F03D80A2505FB9F
:102560000202F1E7732909D1059F3046391D059113
:1025700039682A4F002908BF394641E064290ED145
:102580008DE80C00059961230293081D09680590E8
:102590000A2230460123FFF767FF241839E0782923
:1025A00006D105998DE80C00081D0590612207E011
:1025B00058290AD105998DE80C00081D0590412283
:1025C00002923046096810220BE075290BD18DE884
:1025D0000C00059961230293081D096805900A22E1
:1025E00030460023D7E7632913D10599081D0968F0
:1025F000059000208DF81C108DF81D0007A93046AD
:10260000FFF7F1FEC9E7154630462978FFF7E4FEEB
:10261000013401357AE7204609B0F0BD7D3B000862
:102620000EB40FB505AA52F8041B019001A803923D
:10263000FFF766FF04B05DF804EB03B07047CB789A
:10264000F0B5DA0648BF8A78098803F00F0548BF5D
:10265000154311F0FF0F1ED004680022012707FA6E
:1026600002F707EA0106BE4211D197004FF00F0CA6
:102670000CFA07FC05FA07F724EA0C04282B44EAB5
:10268000070401D1466102E0482B08BF0661013210
:10269000082AE3D10460FF2920D94468002202F10E
:1026A0000806012707FA06F707EA0106BE4211D11C
:1026B00097004FF00F0C0CFA07FC05FA07F724EA15
:1026C0000C04282B44EA070401D1466102E0482BA0
:1026D00008BF06610132082AE1D14460F0BD4FF61F
:1026E000FF730221042203808170C27070470000D2
:1026F0000028174B30B500F44014B4BFDB695B68A9
:10270000B4F5401F82B207D1114C23F070636568A5
:1027100025F0706565600FE0C40205D5C0F3034481
:10272000032505FA04F403E0440D240102FA04F43D
:1027300023EA040343F0706321B1410D090102FA59
:1027400001F2134300280248B4BFC361436030BDA7
:1027500000000140034B1A6802F03801084318607A
:10276000704700BF00200240044B1A6822F010019D
:1027700019601A6810431860704700BF00200240BB
:10278000034A044B02F188305A605860704700BF1A
:102790002301674500200240024B1A6942F0800085
:1027A0001861704700200240014BD860704700BF9D
:1027B00000200240084BDA68D20709D4D8684007E5
:1027C00008D4D96811F0100F0CBF04200320704703
:1027D00001207047022070470020024010B50446D7
:1027E000FFF7E8FF012806D11CB1FFF7E3FF013C2A
:1027F000F8E7052010BD002C08BF052010BD000023
:1028000070B505464FF400500E46FFF7E7FF042869
:1028100010D1094C236943F0010020612E804FF450
:102820000050FFF7DBFF052804D0226941F6FE7156
:102830001140216170BD00BF0020024038B505463F
:102840004FF43020FFF7CAFF042814D10A4C236943
:1028500043F002002061656121694FF4302041F0AE
:1028600040022261FFF7BAFF052804D0216941F632
:10287000FD730B40236138BD00200240038A30B550
:102880000D460446EA8898B220F440511143218253
:10289000A3892889A98823F4B05340EA01026889F2
:1028A00023F00C0102430804030C1A4391B2A181E6
:1028B000A08AAA8983B223F4407187B01143A18210
:1028C00001A800F051F91848A38984420CBF04986C
:1028D000039819B200294FF019032A6803FB00F08E
:1028E00001DA510000E09100B0FBF1F16423B1FB8B
:1028F000F3F21201100903FB1011A08900B20028A5
:1029000006DAC9003231B1FBF3F303F0070005E04A
:1029100009013231B1FBF3F303F00F00024390B22F
:10292000208107B030BD00BF00380140838919B154
:1029300099B241F4005303E023F400510A04130C4C
:1029400083817047C1F3421310B5012401F01F01C8
:10295000A34204FA01F101D10C3004E0022B01D1B1
:10296000103000E01430036812B143EA010201E0C4
:1029700023EA0102026010BD224A038890429BB202
:1029800012D002F5006290420ED0B0F1804F0BD011
:10299000A2F59832904207D002F58062904203D0AF
:1029A00002F58062904203D14A8823F070031343FA
:1029B000154A904208D002F58062904204D023F478
:1029C0004073CA889BB2134303808B880A8883852F
:1029D0000C4B028598420FD003F5006290420BD059
:1029E00002F54063984207D003F58062904203D01D
:1029F00002F58063984201D1097A01860122828220
:102A0000704700BF002C014000100040038819B13E
:102A100099B241F0010303E023F001010A04130C11
:102A20000380704783899BB20AB1194301E023EA0E
:102A3000010181817047038A828911EA030092B201
:102A400003D011420CBF002001207047C9438AB255
:102A5000028270470D4B1A6842F0010018605968F5
:102A60000B4A0A405A60186820F0847121F48032C1
:102A70001A60186820F4802119605A684FF41F0109
:102A800022F4FE0058609960704700BF00100240B9
:102A90000000FFF80B4BB0F5803F1A6822F480313C
:102AA00019601A6822F48021196006D0B0F5802FD1
:102AB00007D1186840F4A02202E0196841F480327E
:102AC0001A60704700100240034B5A6822F47C12CF
:102AD000104301435960704700100240014B1860D9
:102AE000704700BF60004242034B5A6822F0030166
:102AF00008435860704700BF00100240024B5868FE
:102B000000F00C00704700BF00100240034B5A68F1
:102B100022F0F00108435860704700BF00100240E7
:102B2000034B5A6822F4E06108435860704700BFC5
:102B300000100240034B5A6822F4605141EAC00081
:102B40005860704700100240014B1860704700BF8A
:102B5000D8004242034B5A6822F44041084358606F
:102B6000704700BF001002401F4B10B55A6802F0BA
:102B70000C01042903D0082904D01C4A00E01C4A97
:102B800002600FE05C685968C4F38342941CC90377
:102B900001D4184904E05B6899034CBF16491449F5
:102BA0004C430460104B15495C68C4F303128C5C01
:102BB000026822FA04F242605C68C4F302240C5DED
:102BC00022FA04F484605C68C4F3C224095D22FA2A
:102BD00001F2C2605B680A49C3F38133CB5CB2FB8C
:102BE000F3F2026110BD00BF0010024000127A0033
:102BF000001BB70000093D00808D5B0040000020F5
:102C00003C000020044B9A6909B1104301E022EA1C
:102C100000009861704700BF00100240044BDA6961
:102C200009B1104301E022EA0000D861704700BFFB
:102C300000100240044BDA6809B1104301E022EAB7
:102C40000000D860704700BF00100240044B1A69B2
:102C500009B1104301E022EA00001861704700BF8B
:102C6000001002404309012B074A01D1136803E019
:102C7000022B0CBF136A536A00F01F0023FA00F105
:102C800001F00100704700BF0010024007B50023AB
:102C900001933120FFF7E6FF01994A1C0192019B45
:102CA000B3F5A06F01D00028F3D03120FFF7DAFF91
:102CB000003018BF01200EBD40F0BF60024B40F451
:102CC0000031D960704700BF00ED00E021F06041A5
:102CD00021F07F02014B10439860704700ED00E047
:102CE000044B04281A680CBF42F0040222F00402CC
:102CF0001A60704710E000E010B5064C18B9236860
:102D000001221A8210BD044B1868016888472068A8
:102D10000A3010BDCC160020C816002010B5064C95
:102D200018B9236801221A8210BD044B1868816803
:102D3000884720680C3010BDCC160020C816002033
:102D400008B5234A18B9136802221A8208BD214B1C
:102D5000002012681880117811F07F0113D1507A89
:102D600000F02002D1B209B102221A7000F0400333
:102D7000D8B2184B18B11A7842F001011EE0197848
:102D800021F001011AE001291FD002291ED150793A
:102D900000F00F024FEA820110F0800F01F1804035
:102DA00000F5B842116803D001F03002102A03E0A8
:102DB00001F44050B0F5805F01D101211970064B3C
:102DC000186801698847034808BD184608BD00BF58
:102DD000CC160020D2160020C8160020F8B5224BD1
:102DE0001C68238A267AABB9042E13D11F480178B8
:102DF00001291F490AD11F4C226894B21E4AA21809
:102E00005200136030220A80037028E010260E80E2
:102E1000072624E0A58AA169AB428CBF02260426BE
:102E20009D4228BF1D46284688470746002000F0DF
:102E300049FD2A460146384600F06AFC2946002032
:102E400000F05CFD208A638A421BED1808480B4B9A
:102E5000228230214FF44052018065821A80024B59
:102E600018680672F8BD00BFCC160020C3160020FB
:102E7000D6160020505C004002300020D4160020FE
:102E800010B50A4B0A4918684B78C27893420AD3A6
:102E9000817841B9848834B98272064802685368DF
:102EA0009847204610BD022010BD00BFCC16002060
:102EB000D0160020C816002038B50E4A0E4C1068F7
:102EC00023688269D9785879904721688B7A7BB1D9
:102ED00070B9087960B98D7855B9084A1168CB681E
:102EE000984720684279C178C2720173284638BD7C
:102EF000022038BDC4160020CC160020C8160020C1
:102F000010B5334B1B68187810F07F0004D1597A44
:102F100021F020025A7210BD022856D15A88002A88
:102F200054D11979002951D15A7922F080004FEA01
:102F3000800404F1804101F5B8442168254C12F069
:102F4000800F247814BF01F0300101F44051A042F9
:102F50003BD2002939D09B7A002B36D0840002F076
:102F6000800204F18043D1B203F5B844226861B114
:102F700002F03001102922D1C4B2204600F06FFCCB
:102F80002046302100F00BFC19E002F44051B1F56D
:102F9000805F14D130B9104B1A6892F82C1000F0F1
:102FA000BBFC01E000F049FC20684BF68F7101404A
:102FB00081F4405343F4004242F080002060074B0C
:102FC0001A6850698047002010BD022010BD00BF64
:102FD000CC160020D0160020C4160020C8160020F1
:102FE00010B51F4B19684A7922F080034FEA83001D
:102FF00000F1804404F5B8401A4C0068247812F0BF
:10300000800F14BF00F0300000F44050A34224D2DF
:103010004C8814BB08B3897AF9B19B0003F1804155
:1030200002F0800201F5B843D0B2196828B148F621
:10303000BF720A4082F0100004E04BF68F720A4023
:1030400082F4805040F4004141F080001860064B4B
:103050001A6891698847002010BD022010BD00BF8A
:10306000CC160020D0160020C816002008B5064B4C
:103070001868064B427A42F0200141721868C26912
:103080009047002008BD00BFCC160020C8160020C5
:10309000054B1A68538A18B98988CB1A138270476E
:1030A0000868C018704700BFCC16002070B5A2B0E9
:1030B00002AD8024064607492846224600F05FFC00
:1030C000304669460095ADF80440FFF7E1FF22B0B5
:1030D00070BD00BF843B000808B50C4B0020196888
:1030E00091F82C1000F018FC09480268117A0829A0
:1030F00006D1084B4FF480501880074810220280F8
:1031000009394B4253EB010008BD00BFC416002033
:10311000CC160020D4160020D616002070B52E4BF9
:103120001C68207A02284FD004284DD0032801D0F3
:10313000052843D1A169208AA9B1A0B1A58A8542F9
:1031400028BF054628468847228A0646608A531BC0
:10315000291861822382002000F0C2FB2A46014622
:10316000304600F0ECFA228A52B11C4B4FF440502A
:1031700018800020014600F0C1FB194A302111805F
:10318000208AA38A1449834202D80B68032202E0F2
:1031900018B10B6805221A720CE00A68062311495F
:1031A00013720A68104993B25A1853000C491860F8
:1031B00030200880084801680B7A06E0072803D110
:1031C0000A490A68D36898470823034A10680372BB
:1031D000BDE87040FFF780BFCC160020D416002059
:1031E000D6160020505C004002300020C41600209B
:1031F000944B73B51A68944990B24418934E650085
:103200002A6835682B7A092B15D090B2410001F15C
:10321000804404F5C04422782A7063786B70A088DB
:1032200000F0A8FB68802089356800F0A3FBA88027
:10323000A0893168C880854D01242B68DA881C720A
:103240005C78002A6AD1187810F07F023ED1092CF0
:1032500002D1FFF715FE4BE0052C0FD193F90320A7
:10326000002A01DA082155E099780029FAD19888D6
:103270000028F7D19B7A002B3ED0F3E7032C16D120
:10328000D878012807D0724A204611684B699847C0
:1032900003282FD13DE09A88002AF4D15B7A03F00D
:1032A0002001C8B20028EED0FFF7E0FE20E0012C9C
:1032B000E9D1D9780129E6D198880028E3D15B7A51
:1032C00003F02002D1B20029DDD00AE0012A04D1A6
:1032D0000B2CD8D1FFF7F0FD0AE0022AD3D1012C44
:1032E00002D1FFF70DFE03E0032CCCD1FFF778FEEF
:1032F00010B1C8E70028B5D15248564B026891B2C8
:10330000C818554B4100002230200A601880062161
:1033100000E009214D4A10680172DCE0062C14D14E
:103320001A78510640F083809C78494B012C02D1D9
:103330001A68D16971E0022C02D11868016A6CE048
:10334000032C74D11968496A67E0002C3ED1598872
:1033500000296CD1586820F47F44B4F5003F66D151
:103360001A7812F07F0004D19888002800F0B68007
:103370005DE001280CD1364C587922689469A04749
:10338000002854D12B68997A002940F0A7804EE09C
:1033900002284CD15B7903F00F014FEA810404F15C
:1033A000804202F5B8402D4A0468107813F0800F6F
:1033B00014BF04F0300404F44054814237D213F0B7
:1033C000700F34D1002C40F0898030E0082C04D1FB
:1033D0001B785A0600F0848029E00A2C16D11C784C
:1033E00004F07F02012A22D1987A00B35988F1B9FA
:1033F0005C6824F47F42B2F5803F18D11448046819
:103400005879A269904700286CD010E0552C0ED155
:10341000588860B9802A0AD166E041B10B4800247F
:10342000036820465C8299618847204618E0084C72
:103430002168064C0A6923685878904703280FD101
:10344000236814E0505C004004300020CC160020BB
:10345000C416002002300020D6160020D01600200E
:1034600022490B684FF6FF711A8A8A4201D109215D
:1034700003E0022800D012B9082119722BE093F959
:103480000000002821DAD98801910198824202D9EE
:10349000019A1A8211E08A420FD21549086890F801
:1034A0002C108A4201D2002105E092FBF1F001FBD1
:1034B000102212B901210F4801700D49086890F8D7
:1034C0002C209A82FFF78AFC05E003221A720A4B2D
:1034D0004FF440511980FFF7FFFD7CBD07499DE780
:1034E00007499BE7074999E7074997E7CC1600206A
:1034F000C4160020C3160020D4160020412D000859
:10350000F92C00081D2D0008AD30000870B50D4BDA
:103510001C780023A34210D203F1805202F5B85563
:10352000A90043F400420E6842F0800540F60F7295
:1035300032402A430A600133ECE7034940F080003F
:10354000086070BDD01600204C5C004010B51449D6
:103550000B680C461A7A022A01D0042A04D1FFF71C
:103560003DFC2168087A13E0062A10D15878052816
:1035700009D11978480606D1D878FFF7C7FF094B5B
:103580001A68106A804708490B689A6890470820B3
:10359000034B1A681072BDE81040FFF79DBD00BFD5
:1035A000CC160020C8160020C4160020704700006A
:1035B00037B50023ADF806304F4803681A0440F1D0
:1035C0009A8013F00F056BD14C4C2568AAB24C4D74
:1035D0002A8028884B4A00F03001118028884BF659
:1035E000BF7200F4405129802068024082F40051EB
:1035F00081F0200040F4004242F080012160D906B1
:1036000007D4216848F60F730B402360FFF79EFF35
:103610001DE0236898B2ADF80600BDF8062002F45C
:1036200000618BB23BB1206840F68F72024022608D
:10363000FFF7DEFD0BE0BDF8060002B2002ABBDAA0
:10364000216840F68F730B402360FFF767FD206809
:103650002A884BF6BF7302F48051034088B208B148
:1036600083F48053264A118801F4005082B20AB1D3
:1036700083F400532348018801F0100291B209B18C
:1036800083F01003008800F0200291B209B183F0AA
:10369000200343F40040194A40F0800111602AE001
:1036A000AC0004F1804101F5B844226890B2ADF855
:1036B0000600BDF8063019B2002909DA226840F682
:1036C0008F70114B1040691E206053F821209047E5
:1036D000BDF8060000F080018BB2002B3FF46CAF08
:1036E00022680A4948F60F701040013D206051F8E9
:1036F0002530984760E73EBD445C0040005C0040D8
:10370000D4160020D616002020000020040000203F
:1037100030B501F1005101F540530132590052100A
:1037200000230230934209D010F8015C10F8024CDB
:1037300044EA052421F823400133F2E730BD01F1CA
:10374000005110B5013201F54054521064000023BD
:10375000934205D054F8231020F813100133F7E7F3
:1037600010BD00004FF6F873014A03401360704724
:10377000505C0040800000F1804202F5B8421068C1
:1037800048F68F130340194311607047800000F121
:10379000804303F5B8410A6802F4C06070478000B6
:1037A00000F1804202F5B842106848F6BF7303404A
:1037B00001F0100080B208B99BB201E083F0100361
:1037C00001F0200188B208B183F0200343F40041E6
:1037D00041F0800010607047800000F1804202F5E7
:1037E000B840016848F6BF730B4083F0300242F4E2
:1037F000004141F0800303607047800000F1804287
:1038000002F5B84001684BF68F730B4083F44052C9
:1038100042F4004141F0800303607047800000F1F2
:10382000804202F5B840016840F60F630B4043F454
:10383000004242F0800101607047800000F1804347
:1038400003F5B8400268510408D5016840F60F73CB
:103850000B4043F4404242F0800101607047800019
:1038600000F1804303F5B8431A68500608D519687B
:1038700040F60F70084040F4004242F0C001196069
:1038800070470000064B49081A6893B203EBC0006A
:1038900000F1005202F5405358004A0002607047A0
:1038A000505C0040054B49081A6893B2044A03EB88
:1038B000C000831858004A0002607047505C004006
:1038C00004300020054B19688AB202EBC00000F1F9
:1038D000005303F540514A0010887047505C004087
:1038E000044B1968044B8AB202EBC000C1184A00AD
:1038F00010887047505C004004300020044B1A6868
:1039000093B2044A03EBC00083185800016070476B
:10391000505C0040023000200C4B1A6893B20C4AF5
:1039200003EBC00083185A003E2908D94B09C90689
:1039300001D1581E83B2990241F4004104E04B08C2
:10394000C80748BF0133990211607047505C0040BE
:1039500006300020054B1968054B8AB202EBC00007
:10396000C1184A0010688305980D7047505C0040EC
:1039700006300020C3B2000A40EA0320704710B5A9
:103980000023934203D0CC5CC4540133F9E710BD4B
:103990000008014080000000000C01400080000091
:1039A000000C014020000000000801402000000041
:1039B000000C014000200000000C0140400000000D
:1039C00000080140100000000010014000800000CD
:1039D000000C014000100000001001400020000019
:1039E000001001400040000020000000F11200081B
:1039F00021000000F112000800000000000000009B
:103A000001010201000000000000000000000000B1
:103A10000000020303010203030303030202030184
:103A20004D494F533332004D4248505F434F52454A
:103A30005F53544D33320053544D33324631307856
:103A40000025303878003F002564004D494F53333E
:103A50003220426F6F746C6F616465720028632955
:103A6000203230313420542E204B6C6F736500208F
:103A70002530325800202020002530385820000200
:103A800002020201010200F000007E32FEFF00008F
:103A9000183B000865000000C83A0008120000004A
:103AA00005010000AD350008351A0008AD350008E5
:103AB000AD350008AD350008AD350008AD3500085E
:103AC000AD350008F917000812010002000000409F
:103AD000C016FE03101001020301000000000000E8
:103AE00081190008051800080718000809180008BF
:103AF0000D18000811180008651900084919000878
:103B00002118000800000000400000006D69646991
:103B1000626F782E6F7267000902650002010080F3
:103B2000320904000000010100020924010001091A
:103B30000001010904010002010300020724010041
:103B400001410006240201010006240202020009CC
:103B500024030103010201000924030204010101FD
:103B600000090502024000000000052501010109CD
:103B700005810240000000000525010103286E7543
:103B80006C6C2900D10FED54CFC5FBB8975238911A
:103B900038910E7D0FED389301910E9100C11F02F7
:103BA0000E91F7041040006E106EE76A00000000EE
:103BB0000000000000000000000000000000000005
:103BC00000000400000000000000000000000000F1
:103BD0002F55461F00D84840376AF76A003000006A
:103BE000C7062E734A2C137BE97F32002A280D9BCF
:103BF000FE0B21EF422A2F73B5B8DA76E679BF0FB4
:103C0000EB793E0B0000000010100000AD350008FD
:103C1000AD350008AD350008AD350008AD350008FC
:103C2000AD350008AD350008AD350008AD350008EC
:103C3000AD350008AD350008AD350008AD350008DC
:103C4000AD3500080204060800000000010203046C
:103C50000102030406070809FFFFFFFFFFFFFFFF44
:103C6000FFFFFFFFFFFFFFFFFFFFFFFFFFFFFFFF64
:103C7000FFFFFFFFFFFFFFFFFFFFFFFFFFFFFFFF54
:103C8000FFFFFFFFFFFFFFFFFFFFFFFFFFFFFFFF44
:103C9000FFFFFFFFFFFFFFFFFFFFFFFFFFFFFFFF34
:1040000000000120A55D0008A15D0008055400081E
:10401000A15D0008A15D0008A15D0008000000008E
:10402000000000000000000000000000015B00082C
:10403000A15D000800000000615B0008A55B0008AE
:10404000A15D0008A15D0008A15D0008A15D000858
:10405000A15D0008A15D0008A15D0008A15D000848
:10406000A15D0008A15D0008A15D0008A15D000838
:10407000D9840008A15D0008F5840008A15D00084E
:10408000A15D0008A15D0008A15D0008A15D000818
:10409000B18C0008A15D0008A15D0008A15D0008C9
:1040A000A15D0008A15D0008A15D0008A15D0008F8
:1040B00091890008B9890008A15D0008A15D000888
:1040C000A15D00080D96000891970008A15D000809
:1040D000A15D000801950008D195000869950008C8
:1040E000A15D0008A15D0008A15D0008A15D0008B8
:1040F000A15D0008A15D0008A15D0008A15D0008A8
:10410000A15D0008A15D0008E1890008A15D00082B
:10411000A15D0008A15D0008A15D0008A15D000887
:10412000A15D0008A15D0008A15D0008A15D000877
:10413000A15D000800000000000000000000000079
:10414000000000000000000000000000000000006F
:10415000000000000000000000000000000000005F
:10416000000000000000000000000000000000004F
:10417000000000000000000000000000000000003F
:10418000000000000000000000000000000000002F
:10419000000000000000000000000000000000001F
:1041A000000000000000000000000000000000000F
:1041B00000000000000000000000000000000000FF
:1041C00000000000000000000000000000000000EF
:1041D00000000000000000000000000000000000DF
:0441E0005FF8E0F1B3
:1041F0002DE9F8430024264E002002F097F972784A
:10420000B578DFF894805543DFF89090AC420BD13D
:104210000024204FDFF88880AC421ED1002002F03D
:1042200033F90020BDE8F883671C3946404602F0A8
:10423000D9FBE0B202F028F9002002F077F900285B
:1042400009DA71784846B4FBF1F201FB1241013200
:10425000013102F0C7FB3C46D8E7E0B202F014F9A6
:104260000021084602F016F971783846B4FBF1F2E5
:1042700001FB12410132013102F0BEF9012100209F
:1042800002F008F9404602F0B7F90134C4E700BF74
:10429000CA310020A9C500086FC5000883C5000801
:1042A000B4C5000813B5044630B1002201A907F0D7
:1042B000ADFF019BA34201D14FF0FF3002B010BD12
:1042C0004FF400724B4B70B51A8001229A70102285
:1042D0009A800222DA80484A1278422A0ED1474A4E
:1042E00012781A70464A12785A70464A12789A70B2
:1042F000454A12789A80454A1278DA800022444B67
:104300001A70444A1278422A04D1434A1278150698
:1043100058BF1A700022414B1A70414A1278422A43
:1043200004D1404A1278140658BF1A7000223E4B3E
:104330001A703E4A1278422A04D13D4A1278100679
:1043400058BF1A7000223B4B1A703B4A1278422A1F
:1043500004D13A4A1278110658BF1A700023384C1B
:104360002370384B1B78422B04D1374B1B781A062D
:1043700058BF237002F0EAFE237883421BD020202E
:1043800002F0CAFB22783148114602F02BFB1020C4
:1043900002F0C2FB22782D48114602F023FB2020B8
:1043A00002F0BAFB2A4802F01DFB102002F0B4FB19
:1043B000274802F017FB207802F0C0FE254A264C61
:1043C0001546264E234603CBB342106051601C466F
:1043D00002F10802F6D1202000211E4B13F8012B18
:1043E000203A5F2A88BF03F8011C0138F6D1E8772C
:1043F00070BD00BFC4000020C03F0008C13F0008DE
:10440000C23F0008C33F0008C43F0008C53F000882
:10441000C2000020D23F0008D33F0008CE00002099
:10442000D43F0008D53F0008C1000020D63F000857
:10443000D73F0008CF000020D83F0008D93F000830
:10444000C0000020D03F0008D13F0008BBC50008D5
:10445000E4C50008D0000020E03F0008004000084C
:1044600008B5FFF72DFF4FF0FF3004F05BF8002197
:104470004FF0FF3004F074F8044802F06DFE0023A2
:10448000034A1370034A138008BD00BF3147000878
:10449000F00000204001002038B50546322435B92F
:1044A00004F070F8C1434FF0FF3004F059F844F6BF
:1044B000206004F0C7FA013CF1D1204638BD00006D
:1044C00000212DE9F8430025084601F0E3FF3048BC
:1044D00002F086F80121002001F0DCFF2D4802F0F7
:1044E0007FF8202002F018FB2B4802F07BFA102006
:1044F00002F012FB284802F075FA2C46274EDFF82E
:10450000A490274FDFF8A08004F03CF8C1434FF09F
:10451000FF3004F025F8230707D10121092001F01D
:10452000B9FF2146484602F067F804F1006216F828
:10453000013B12789A4214D0A4F57C53FF2B10D97A
:104540000135092D14DC202002F0E6FA2146404610
:1045500002F048FA102002F0DFFA2146404602F04D
:1045600041FA0134B4F5804FCED12846BDE8F88336
:104570000A2DF6D1202002F0CFFA384602F032FAA6
:10458000102002F0C9FA384602F02CFAE9E700BF21
:10459000D4C40008E5C40008F6C40008B3D300087A
:1045A00031C500080EC5000815C500082DE9F04109
:1045B00003F0A0F94FF0006405F0FEFA4B4D4C4EAD
:1045C0004C4FDFF8688103F0DDFFC1434FF0FF304F
:1045D00003F0C6FF03F0A6F8B0F5802F2CBF4FF410
:1045E00000624FF48062B4FBF2F302FB134373B931
:1045F000204605F021FB042809D04FF0FF3005F0DC
:10460000EFFA03F08BF94FF0FF30BDE8F0816B78E3
:10461000297841EA032104F17843A3F57C52FF2A6B
:1046200011D8A3F57F53012B05D8334B1978090214
:1046300041F0420107E0A319012B12D82E4B9A78C2
:10464000597841EA0221204605F018FB04283ED0A3
:104650004FF0FF3005F0C4FA03F060F96FF001008D
:10466000D3E7E319012B06D8234BDA88998841EA6E
:10467000022189B2E7E704EB0803012B01D81F4BA5
:10468000D4E71F4B2344012B01D81E4BCEE71E4B12
:104690002344012B01D81D4BC8E71D4B2344012B9C
:1046A00001D81C4BC2E71C4B2344012B01D81B4BE8
:1046B000BCE71B4B23441F2BC5D81A4A04F1200327
:1046C000DBB2D1184878D15C41EA0021BBE7164B38
:1046D00002349C4205F102057FF475AF05F078FACB
:1046E00003F01CF9FFF7ECFD00208EE7B3D30008C0
:1046F0003EC0FFF73CC0FFF7C4000020C000002010
:104700002EC0FFF7C20000202CC0FFF7CE00002013
:104710002AC0FFF7C100002028C0FFF7CF0000200B
:1047200020C0FFF7D00000200040000830C0FFF795
:104730002DE9F3410C46054602F0FAFC06462846F0
:1047400002F0EAF90D2C00F09B800A2C40F0A482C4
:104750009B499C4807F072FA00289A4D00F38C8020
:1047600001AA9949284607F0D6FC0746002800F020
:104770008380964907F094FC002856D1944802F0B3
:1047800031F9944802F02EF9934B9448197802F0CD
:1047900029F9934B9348197802F024F9924B9348E6
:1047A000197802F01FF9924B9248197802F01AF921
:1047B000914B92481A78924C114602F013F99148A5
:1047C000914902F00FF92778384601F021FE50B3E5
:1047D000207801F01DFE024639468C4802F002F9AD
:1047E00061788B4802F0FEF8A1788A4802F0FAF866
:1047F000A188894802F0F6F8E188884802F0F2F8CA
:10480000874802F0EFF86E4807F010FA854802F08A
:10481000E9F8854802F0E6F8844802F0E3F88448B5
:1048200002F0E0F828E0834AD6E78349384607F0EB
:1048300037FC0446C8B9814802F0D4F8DFF8748226
:10484000E7B2384601F0E4FD38B1384601F0E0FD4A
:1048500021460246404602F0C5F80134FF2CEFD154
:10486000774802F0BFF87748DAE77749384607F02B
:1048700017FC60B902F00EFF0023744A2B701380FE
:10488000304602F049F9002002B0BDE8F0817049DD
:10489000384607F005FC044678B96E4FFFF786FEF0
:1048A000002804F1010480F204822146384602F017
:1048B00099F8052CF2D1684807E06849384607F0B6
:1048C000EFFB38B9FFF7FCFC654802F08BF8FFF707
:1048D0008FFCD1E76349384607F0E2FB002840F03F
:1048E000D98101AA384907F016FC0446002800F0D7
:1048F000CF815D4907F0D4FB88B901AA324907F09E
:104900000AFC08B959488BE7FFF7CCFC0128F9D815
:10491000314B187008B1564882E7564880E756492F
:10492000204607F0BDFB88B901AA274907F0F3FB31
:1049300008B9524874E7FFF7B5FC0128F9D8284BAD
:10494000187008B14E486BE74E4869E74E4920465B
:1049500007F0A6FBD0B901AA1B4907F0DCFB08B998
:104960004A485DE7FFF79EFC0128F9D8204B1870F4
:1049700020B1474802F036F8464851E7464802F071
:1049800031F8464802F02EF8454849E745492046A7
:1049900007F086FB002840F08F8001AA0A4907F043
:1049A000BAFB08B940483BE7FFF77CFC0128F9D87F
:1049B0000D4B187008B13D4832E73D4830E700BF65
:1049C000E5690008F00000202AC600082DC600088E
:1049D00032C600084FC60008C200002071C6000899
:1049E000CE000020D3C60008CF00002032C7000848
:1049F000C100002085C70008C0000020DEC70008F5
:104A0000C40000203AC80008D00000207BC800087D
:104A1000BFC8000811C9000863C90008A8C9000878
:104A2000EEC9000824CA00087CCA0008BECA0008F3
:104A3000F1CA000822C6000816CB000820CB0008E7
:104A400046CB00087DCB0008DFCB000840010020EA
:104A500010CC0008E5CB000880D300080ECC00087D
:104A600016CC0008E1CB000832CC00083BCC000893
:104A700056CC000876CC000897CC0008A2CC0008E1
:104A8000BFCC0008F3CC000828CD00083BCD0008BF
:104A900060CD000890CD0008D9CD00080ACE0008EE
:104AA00067CE0008BBCE0008C4CE0008DFCE0008E9
:104AB00026CF00083ACB00087F49204607F0F0FADD
:104AC00020B17E49204607F0EBFAB8B901AA7C492B
:104AD000002007F020FB08B97A48A1E6FFF7E2FBC7
:104AE0007F280246F8D8784B01461870774801F0C5
:104AF00079FF774801F076FF764891E676492046BF
:104B000007F0CEFA002833D101AA6D4907F003FB64
:104B10008046C8B1FFF7C6FB041E0EDA002702E08C
:104B20000137FF2F09D0F8B201F072FC0146404670
:104B300007F09AFA0028F3D13C46FF2C07D96748C2
:104B400001F050FF66486BE64FF0FF34E6E7654F33
:104B5000E0B2387001F05CFC40B1387801F058FCEC
:104B600002462146604801F03DFF85E65F4AF8E7CE
:104B70005F49204607F094FA90B901AA504907F01E
:104B8000CAFA08B95B484BE6FFF78CFB431EFE2BC5
:104B90000146F7D8534B5870574801F023FF6BE696
:104BA0005649204607F07CFA80B901AA444907F02B
:104BB000B2FA08B9524833E6FFF774FB431EFE2BE6
:104BC0000146F7D8474B98704E48E6E74E492046D5
:104BD00007F066FA90B901AA394907F09CFA08B9BA
:104BE0004A481DE6FFF75EFB4FF6FE73421E9A42EF
:104BF0000146F5D83B4B98804548CEE745492046CD
:104C000007F04EFA90B901AA2D4907F084FA08B9C5
:104C1000414805E6FFF746FB4FF6FE73421E9A42F7
:104C20000146F5D82F4BD8803C48B6E73C49204692
:104C300007F036FA48B13B49204607F031FA20B177
:104C40003949204607F02CFAF8B9019C204607F0B4
:104C500031FA1F2802D91F2134489EE7344B2046E1
:104C60001A4604F1200150F8044B884243F8044BE3
:104C7000F9D113782BB12E492E4801F0B3FE144818
:104C8000CEE52D4801F0AEFEF9E721462B4884E73A
:104C90002B48C5E52B48C3E52B490A884E2A3FF629
:104CA000EFAD531C9BB20B8028498C540022CA5490
:104CB000E6E5274809E600BF75CF00086ECF00087B
:104CC0002AC6000878CF0008C0000020AFCF000837
:104CD000E7CF000820D0000866D000086FD0000899
:104CE000B0D00008C4000020DED0000822C60008B2
:104CF00009D1000813D1000836D1000859D10008A5
:104D000063D1000886D10008A9D10008B3D10008FA
:104D1000DCD10008FFD100080AD2000834D2000814
:104D20005CD2000858D2000861D200086ED2000898
:104D3000D00000209CD20008D7D200080AD3000877
:104D400027D3000846D3000840010020F0000020CF
:104D50009ED300082DE9F041FFF74AFA002001F048
:104D600093FB202001F0D8FEAD4801F03BFE10205F
:104D700001F0D2FEAA4801F035FE202001F0CCFE61
:104D8000A84801F02FFE102001F0C6FEA54801F052
:104D900029FE202001F0C0FEA349A44801F022FE14
:104DA000102001F0B9FEA049A04801F01BFE202010
:104DB00001F0B2FE9B4801F015FE102001F0ACFEA0
:104DC000984801F00FFE202001F0A6FE944801F063
:104DD00009FE102001F0A0FE914801F003FEFFF74C
:104DE0006FFB0446002842D1014601F053FB904876
:104DF00001F0F6FB0121204601F04CFB8D4801F04B
:104E0000EFFB01214FF0FF3003F0AAFB202001F05F
:104E100083FE894801F0E6FD102001F07DFE864802
:104E200001F0E0FD202001F077FE844801F0DAFD7A
:104E3000102001F071FE814801F0D4FD202001F026
:104E40006BFE7F4801F0CEFD102001F065FE7C482E
:104E500001F0C8FD202001F05FFE7A4801F0C2FD9C
:104E6000102001F059FE774801F0BCFDFEE700215B
:104E7000084601F00FFB744801F0B2FB202001F05E
:104E80004BFE724801F0AEFD102001F045FE6F4868
:104E900001F0A8FD0021084601F0FCFA6C4801F081
:104EA0009FFB0121002001F0F5FA6A4801F098FB10
:104EB000202001F031FE684801F094FD102001F03F
:104EC0002BFE654801F08EFD0525644FDFF8B481A7
:104ED000634EFFF76BFB00280EDA01304FF0200025
:104EE00021D101F019FE404601F07CFD102001F0B7
:104EF00013FE404601F076FDFFF7E2FA0446E0B10A
:104F0000013D1AD0C5F10504202001F005FE21461F
:104F1000304601F067FD102001F0FEFD21463046CD
:104F200001F060FDD5E701F0F7FD384601F05AFDCC
:104F3000102001F0F1FD3846DCE701214FF0FF3091
:104F400003F00EFB94BB2146204601F0A3FA45482E
:104F500001F046FB0121204601F09CFA424801F095
:104F60003FFB202001F0D8FD404801F03BFD102020
:104F700001F0D2FD3D4801F035FD202001F0CCFDCF
:104F80002F4801F02FFD102001F0C6FD2C4801F044
:104F900029FD202001F0C0FD2A4801F023FD10204A
:104FA00001F0BAFD274801F01DFDFEE7002108468B
:104FB00001F070FA2E4801F013FB0121002001F0EE
:104FC00069FA2C4801F00CFB2B4E2C4D2C4C202068
:104FD00001F0A2FD304601F005FD102001F09CFD1E
:104FE000304601F0FFFC202001F096FD284601F03C
:104FF000F9FC102001F090FD284601F0F3FC202080
:1050000001F08AFD204601F0EDFC102001F084FD46
:10501000204601F0E7FC0120FFF73EFAD7E700BF8A
:10502000DB13010820C2000836C2000842CB00088A
:1050300047C2000858C2000869C200087FC20008C1
:105040009EC20008C7C2000800C3000812C30008BF
:1050500034C3000846C3000858C3000894C30008BE
:10506000B0C30008CBC30008DDC30008EFC30008CD
:105070001EC4000831C4000844C400085FC400080E
:10508000AFC400087EC3000808B503F07BFABDE892
:105090000840C143012003F063BA7047704770476E
:1050A000704770477047704708B501F001F8BDE8D8
:1050B0000840FFF7F5BF000073B500F023FB0F4E6B
:1050C0000F4D104C0190012101A800F01BFC00F0D5
:1050D00019FB019B421F9A4288BF019003F0A8FE72
:1050E000304600F081FF284601F034F9204603F0F5
:1050F000B8FC02F071F8FFF7C7FFE4E7A35000081F
:10510000A5500008A750000813B500F0FBFA0A4CA0
:105110000190012101A800F0F5FB00F0F3FA019BDA
:10512000421F9A4288BF019001F0AAFC204601F07C
:1051300067FFFFF7B2FFECE79D50000837B500208E
:1051400002F048FB002003F05FFC002002F090FA20
:10515000002003F0DDF9002003F060F8002000F0EB
:1051600095FE002000F014FF002000F06FFF0020EB
:1051700000F07AFF002002F077FA002003F06EFCC6
:10518000002002F06EFA002001F06AFA002003F01D
:10519000B5FD002001F0E6FF002001F0E9FF00204E
:1051A00001F0C4F9012001F06FF9002006F018F9B0
:1051B000002001F069F94FF4FA6406F01BFFFFF7D5
:1051C0004FF901F02BFA4FF47A7003F03BFC013CED
:1051D000F9D103252346019400954FF480720949C3
:1051E000094800F075F923464FF480720749CDE96C
:1051F0000054074800F06CF900F04AFA204603B06A
:1052000030BD00BF90140108B95000088B1401088C
:105210000951000808B502F035FAFFF740FFBDE874
:105220000840014800F082BEA9500008FFF792BD77
:10523000F8B50024642542F210760C4F0134B4FB1B
:10524000F5F305FB13430BB901F01AFC384601F0E6
:10525000D7FEB4FBF6F306FB1343002BEED103F0AD
:1052600091F9C143012003F07BF9E7E79D50000865
:1052700008B56FF07F4001F0EFF9002001F0EEF982
:10528000002001F001F901F04FF90021084601F07A
:1052900001F9074801F0A4F90121002001F0FAF812
:1052A000044801F09DF9044801F09CFBFFF7C0FFA2
:1052B00096140108A7140108B814010800B5036882
:1052C00089B000934368384C019383680293C368A4
:1052D0000393036904934369059383690693C36940
:1052E00032480793069901F07DFB204601F07AFBD6
:1052F0002F4801F077FB204601F074FB00992D4800
:1053000001F070FB01992C4801F06CFB02992B48CD
:1053100001F068FB03992A4801F064FB04992948CD
:1053200001F060FB0599284801F05CFB06992748CD
:1053300001F058FB0799264801F054FB254B2648FD
:10534000196801F04FFB254B2548196801F04AFB0D
:10535000244B2548196801F045FB244B2448196863
:1053600001F040FB234B2448196801F03BFB6FF030
:105370007F4001F071F9002001F070F9002001F088
:1053800083F801F0D1F80021084601F083F81B48AA
:1053900001F026F90121002001F07CF80699184857
:1053A00001F02AF9FFF744FF22C20008B3130108F5
:1053B000C9130108DD130108E8130108F3130108FC
:1053C000FE1301080914010815140108BE13010891
:1053D0002014010838ED00E02C14010828ED00E04D
:1053E000391401082CED00E04614010830ED00E00E
:1053F000531401083CED00E0601401086D1401082D
:105400007E1401081EF0040F0CBFEFF30880EFF3C9
:105410000980FFF753BF70470022F8B51C4E1D4BA3
:1054200005461C683368306883F84C2004300F460A
:1054300000F02BFB334640B901203168164EC96A93
:105440003268884022EA000232606A1C07D137B114
:10545000196812480431BDE8F84000F0F3BA1A6840
:105460006419546007D30E4A10681968BDE8F84003
:10547000043100F0F3BA0B4A10681968043100F0E7
:10548000EDFA094B1A68A24288BF1C60F8BD00BF44
:105490004401002040020020C80100201802002022
:1054A0004C01002048010020F8010020064A136842
:1054B0001968064B19B94FF0FF321A60704712682D
:1054C000D268D2685268F8E748010020F80100204D
:1054D0002DE9F84F9600814630460D469A4600F079
:1054E000BFFB0746002800F0A180502000F0B8FB69
:1054F0000446002800F0978007633246A52138460D
:1055000006F0AAFDD4F830B06B1E04F134020F355A
:1055100013F8011F02F8011B09B19D42F8D10A9D41
:105520004FF00008042D28BF0425271DE562C4E9BB
:105530001158384684F84380043E00F080FAC5F1E3
:10554000050504F118005E4400F079FA2461A561B4
:10555000646284F84C805246494626F0070000F009
:10556000BDFA0B9B206003B11C6000F0DBFA364BE8
:10557000364E1A68DFF8108101321A603268002A4C
:1055800057D134601B68012B25D1314800F04CFA0B
:10559000304800F049FA304800F046FADFF8EC9065
:1055A0002E4800F041FA2E4D2E4800F03DFA4846B4
:1055B00000F03AFA284600F037FA2B4800F034FAA7
:1055C0002A4800F031FA2A4800F02EFA294BC3F895
:1055D0000090294B1D600125284A29491368086855
:1055E00001331360E26A05FA02F3034314200B60EF
:1055F000174B394600FB023000F024FA00F0A2FA03
:10560000D8F8003063B13368DA6AE36A9A4207D2A5
:105610004FF080521B4B1A60BFF34F8FBFF36F8F59
:105620002846BDE8F88F384600F094FB4FF0FF3570
:10563000F6E7D8F80030002BCDD13368E26ADB6A98
:105640009A4228BF3460C6E7B4010020440100201C
:105650005001002064010020780100208C0100200E
:10566000E0010020A0010020000200202C02002008
:1056700018020020480100204C010020C401002035
:10568000C801002004ED00E014020020CC0100203D
:1056900013B50024114B009401934FF480722346FC
:1056A0000F491048FFF714FF012814D14FF0BF0332
:1056B00083F31188BFF36F8FBFF34F8F4FF0FF322B
:1056C000094B1A60094B1860094B1C6002B0BDE819
:1056D000104000F089BA02B010BD00BFF4010020F4
:1056E000D914010851590008F801002014020020C3
:1056F00040020020024A136801331360704700BF64
:10570000C0010020014B1868704700BF4002002014
:105710002DE9F84F3A4B1B68002B67D1394B1C68B9
:1057200001341C605CB9384A384B11681868106045
:10573000374A1960136801331360FFF7B7FE354D20
:105740004FF0000B2B68344FA34216D93A68334B05
:10575000D16A14224A439A58022A314A28BF4FF08C
:10576000010B12680AB9FFF755FD2E4A1268002A8C
:105770000CBF58460120BDE8F88FDFF88CA0DFF899
:10578000A890DAF8002012681AB94FF0FF322A60A8
:10579000DCE7DAF80020D268D66871688C4201D262
:1057A0002960D3E706F10408404600F06EF9B16ABB
:1057B00019B106F1180000F068F901224FF0140C3D
:1057C000F06AD9F8003002FA00F11943134BC9F816
:1057D00000100CFB0030414600F034F93868F16AE3
:1057E000C26A914228BF4FF0010BCAE70C4A4FF042
:1057F000000B136801331360FFF70CFDB5E700BF22
:10580000C001002040020020480100204C0100207F
:10581000FC010020F801002044010020500100207C
:10582000BC01002044020020C80100202DE9F843FB
:1058300000F078F92A4B1A68013A1A601C682CB1FA
:10584000002400F07FF92046BDE8F883254B1B6853
:10585000002BF5D0244D254EDFF8A4801FE0EB6827
:105860000127DC6804F1040904F1180000F00DF9C7
:10587000484600F00AF91420E26A316807FA02F398
:105880000B4300FB02804946336000F0DBF8184B05
:10589000E26A1B68DB6A9A4201D3164B1F602B68D1
:1058A000002BDCD10CB1FFF701FE134D2C6844B185
:1058B0000127104EFFF72CFF00B13760013CF9D1F2
:1058C0002C600C4B1B68002BBAD04FF080520B4B56
:1058D0001A60BFF34F8FBFF36F8F0124B1E700BF92
:1058E000C0010020B401002000020020C8010020F7
:1058F0004401002044020020BC01002004ED00E02F
:105900005001002010B5FFF7F5FE0F4B04681A6830
:1059100063182CBF01210021944203600CD961B9A6
:10592000FFF784FF38B94FF08052084B1A60BFF37D
:105930004F8FBFF36F8F10BD09B99A42F0D200218B
:10594000981AFFF769FDEBE74002002004ED00E044
:1059500008B5184E184C236873B9184B1B68012BF7
:1059600007D94FF08052164B1A60BFF34F8FBFF329
:105970006F8FFFF75BFCEDE7FFF7BCFE3568FFF7C5
:1059800055FF002DE7D000F0CDF8F368DD68281D45
:1059900000F07BF80B4A1368013B13602368013B5E
:1059A000236000F0CFF8286B00F0D4F9284600F00F
:1059B000D1F9D0E72C020020B801002050010020CE
:1059C00004ED00E0B4010020124B30B51A68124B10
:1059D00012B101221A6030BD1A60104B1B68B3FA75
:1059E00083F31420DBB2C3F11F0300FB03F20C4965
:1059F0008C18656808326D680A44954200FB0313F1
:105A000008BF6A68656008BF62605B68DA68054B5A
:105A1000E0E700BFC001002044020020C8010020D0
:105A200050010020440100204FF0FF3200F1080334
:105A30004360C0E902230361002303607047002331
:105A40000361704743689A684B608A609A68516046
:105A50009960036808610133036070470A6830B5D4
:105A6000531C0AD103695A684A6091608B6059607F
:105A7000036808610133036030BD00F108035C680E
:105A800025689542EFD82346F9E70369D0E901126A
:105A90008A6051605968814208BF5A6000220261E1
:105AA00018680138186070474FF0BF0383F31188FE
:105AB000BFF36F8FBFF34F8FFEE70000064800680B
:105AC000006880F3088862B661B6BFF34F8FBFF3FA
:105AD0006F8F00DF00BF000008ED00E04FF0807323
:105AE00040F8043C054B21F0010140F8081C40F847
:105AF0000C3C40F8202C4038704700BFA95A0008E1
:105B0000074B19680868B0E8F00F80F30988BFF305
:105B10006F8F4FF0000080F311884EF00D0E70472C
:105B2000440100204FF0BF0383F31188BFF36F8F50
:105B3000BFF34F8F024A136801331360704700BFF1
:105B400000000020034A1368013B13600BB983F384
:105B500011887047000000200000000000000000D5
:105B6000EFF30980BFF36F8F0D4B1A6820E9F00F38
:105B700010602DE908404FF0BF0080F31188FFF757
:105B800023FF4FF0000080F31188BDE8084019683A
:105B90000868B0E8F00F80F30988BFF36F8F704793
:105BA0004401002008B54FF0BF0383F31188BFF311
:105BB0006F8FBFF34F8FFFF7ABFD18B14FF08052DF
:105BC000024B1A60002383F3118808BD04ED00E046
:105BD000034B044A1A60072243F8042C704700BFA5
:105BE00014E000E03F19010008B5094B1A6842F4BF
:105BF0007F021A601A6842F07F421A60FFF7E8FFDE
:105C00000022044B1A60FFF759FFFFF74DFF00BF5A
:105C100020ED00E00000002010B50F4B1A68824212
:105C200018D35C681919884201BF416818460919E0
:105C30005960446801198A4207D1084909688A42B3
:105C40001FBF51681268091941609842026018BF6D
:105C5000186010BD1346E1E75802002048020020FA
:105C60002DE9F041344E0446FFF744FD33683348D4
:105C7000D3B90023324A510718BF0732314918BF40
:105C800022F007020A604B602F4921F00701C1E9A9
:105C900000338B1AC2E900132C4A316013602C4A7E
:105CA00013604FF0004303600768274205D0FFF7F9
:105CB000BDFDFFF7DDFA002637E0002CF7D004F138
:105CC00008035A071CBF23F007030833002BEED04C
:105CD0001F4A156890469D42E9D31A4A14686068C5
:105CE000984201D2216819BB3168A142DFD02168F6
:105CF00016681160C21A102A06F1080604D9E018C5
:105D000042606360FFF788FF0023104962680868FB
:105D1000AD1A174385426760236038BF0D60C8F82D
:105D20000050FFF783FD002EC3D03046BDE8F08160
:105D300022460C46D3E700BF480200204C02002058
:105D400082060020580200207A2E002054020020F3
:105D50005002002010B50446E0B10F4A50F8043C50
:105D60001268134216D050F8081C99B923EA0203AE
:105D700040F8043CFFF7BEFC084A54F8043C1168A4
:105D8000A4F108000B441360FFF746FFBDE8104084
:105D9000FFF74CBD10BD00BF4C0200205002002098
:105DA000FEE70000684620F007018D4601B50A4B6A
:105DB0000A4A0B498B4207D300210A4B0A4A9342F5
:105DC00007D3FFF7BBF9FEE752F8040B43F8040BC7
:105DD000F0E743F8041BF2E70000002098220108D6
:105DE000C0000020C0000020F831002070470000F3
:105DF000F8B5002201241D4B114620461C7001F00D
:105E0000C3FE22462046002101F0BEFE0023184CAE
:105E100018482778184D194E9F4213DC184B1B6801
:105E200003B19847174B1B885BB1174A138843B1DE
:105E3000013B138000231D46247810490D48A342DE
