:020000040800F2
:1000000000500020E9010008E501000800000000A0
:10001000E5010008E5010008E50100080000000016
:10002000000000000000000000000000E5010008E2
:10003000E501000800000000E5010008E5010008F6
:10004000E5010008E5010008E5010008E5010008F8
:10005000E5010008E5010008E5010008E5010008E8
:10006000E5010008E5010008E5010008E5010008D8
:10007000E5010008E5010008E5010008E5010008C8
:10008000E5010008E5010008E5010008E5010008B8
:10009000551A0008E5010008E5010008E50100081F
:1000A000E5010008E5010008E5010008E501000898
:1000B000E5010008E5010008E5010008E501000888
:1000C000E5010008E5010008E5010008E501000878
:1000D000E5010008B9220008992300082923000837
:1000E000E5010008E5010008E5010008E501000858
:1000F000E5010008E5010008E5010008E501000848
:10010000E5010008E5010008E5010008E501000837
:10011000E5010008E5010008E5010008E501000827
:10012000E5010008E5010008E5010008E501000817
:10013000E5010008000000000000000000000000D1
:1001400000000000000000000000000000000000AF
:10015000000000000000000000000000000000009F
:10016000000000000000000000000000000000008F
:10017000000000000000000000000000000000007F
:10018000000000000000000000000000000000006F
:10019000000000000000000000000000000000005F
:1001A000000000000000000000000000000000004F
:1001B000000000000000000000000000000000003F
:1001C000000000000000000000000000000000002F
:1001D000000000000000000000000000000000001F
:1001E0005FF8E0F1FEE70000684620F007018D4669
:1001F00001B500230A4A0B499818884204D20A49DB
:10020000585898500433F5E7084B094A934203D2F3
:10021000002043F8040BF8E700F00CF8FEE700BFFD
:100220000000002050000020083C00085000002082
:10023000D81600202DE9F743002001F035F9002001
:1002400001F0AAFA012001F033FA01A802F047FAFE
:10025000022314208DF806308DF807000024A649EB
:100260000A196058958802A9056121F8045D0834CF
:1002700002F0E5F9182CF2D10026A04F02A9BB1913
:10028000F0599C880836046121F8044D02F0D7F932
:10029000282EF2D100259A494A196858968802A951
:1002A000466121F8046D083502F0C9F9182DF2D124
:1002B0008024944DDFF8648240264FF020094FF4EB
:1002C0000057C8F8149001206F616E6101F088FA40
:1002D000C8F8109001202F612E6101F081FA013CD5
:1002E000E7D12046854B1A18C15895880830282830
:1002F0004D61F7D1012001F073FA00277F4EF0190C
:10030000BC5983880837282F2361F7D1012001F0D9
:1003100067FA48218DF807100025774F02A97A194E
:100320009688E85921F8046D083502F088F9182DEF
:10033000F3D10024714802A903199D88205821F89F
:10034000045D083402F07BF9282CF3D100276C4EB1
:10035000F1198A8802A9B85921F8042D083702F04A
:100360006EF9182FF3D1674F642001F0D3F9BC6800
:1003700084F00400C0F3800501F08AFBC6B216B910
:10038000BB6859070DD44DB14FF40000012102F0B4
:100390005DFC4FF40000002102F058FC002001F049
:1003A0007FFB002000F00EFB002000F00FF9AEB93B
:1003B00054498A68520711D5534F3C78422C0DD1CD
:1003C0005248037853B1524F02F0E6F90120002160
:1003D00001F08CF9FB78082B33D108E0202000F0E5
:1003E0009DFA002E45D0102000F098FA41E06FF001
:1003F0000700012102F01EFC6FF40000012102F051
:1004000025FC4FF0FF30002102F014FC4FF0FF30CC
:10041000002102F01BFC55B101214FF4000002F055
:1004200015FC4FF40000002102F010FC02E0394AF4
:1004300015605560384D2E6886F3088834490C687D
:10044000A04701F08FF90120014601F04FF901F0BA
:1004500093F940F2F317B8423D46F8D901F082F91A
:100460000120002101F042F901F086F9A842FBD9F0
:10047000E7E701F077F901F07FF93222B0FBF2F7FC
:100480006421B7FBF1F4064601FB147042F21077C9
:10049000B6FBF7F107FB1164B6FBF2F702FB17613D
:1004A000430841F28830844288BFC3EB0203012035
:1004B000994294BF0021012101F018F90A23B6FBEB
:1004C000F3F203FB12660EB900F0DEFD002000F02F
:1004D0004FFD01F051F944F61F618842CBD900F07D
:1004E0007FF80028C7D1002D3FF46DAF054CA06800
:1004F0004307C0D567E700BFA8390008C039000826
:1005000090390008000C0140D23F0008D33F00089A
:1005100004400008405C0040004000080008014022
:10052000124B10B51A78032A0BD8114900F07F003E
:100530000C684FEAC41444EA001008600FD104228A
:100540000EE0072A0FD80B4900F07F000C684FEA35
:10055000C41444EA0010086001D1082200E001320E
:100560001A70002010BD4FF0FF3010BD14050020A0
:10057000500000205800002070B5134B16461A7822
:1005800088B004460D468DF800209978DA785878BE
:100590001B798DF802108DF803208DF801008DF87D
:1005A000043000F0C5FD8DF80500F7208DF8080037
:1005B0006946204609228DF806508DF8076000F044
:1005C00097FA08B070BD00BF873A000810B9034B16
:1005D000187070474FF0FF30704700BF15050020BE
:1005E000014B1878704700BF150500202DE9F04138
:1005F00098460C461546064600F08EFD01F0B2F80E
:10060000B8F1010F04D0B8F1020F40F07B8185E012
:10061000B04B14B1012C0AD104E01C70AE4BAF4AB0
:100620001C608EE01978072900F2508193E0197858
:10063000082903D030460E210122E1E0A848A94C48
:100640000278437881782270C2780079A24FA34D56
:100650006370A170E27020713F682D6800F068FD42
:100660004FEA556E6071780E0223E071C7F3864140
:100670007044A3712172C7F3C62341186372C7F394
:100680000612CB18C5F38640A2729A181118C5F34A
:10069000C623CA182073C5F306101118637300230C
:1006A000A07384F80BE001F0FF011A460F341846DE
:1006B000A84221D010F807E04FF0080C0133520097
:1006C000DBB242EADE12062B4FEA4E0ED2B25FFADE
:1006D0008EFE0AD9C3F1070302FA03F2D2B251180F
:1006E000002304F8012BC9B21A460CF1FF3C1CF0A0
:1006F000FF0CE3D10130DBE71BB18B1804F8012BB1
:10070000D9B24A42774902F07F00F723A21C207039
:1007100063703046521A00F0EBF9D7E014B1012CA7
:1007200053D110E06B4B6C496C486F4A1C700C60E5
:1007300004606E4B6E496F4814706F4A1C700C60F9
:1007400004601460C2E0634B1978072907D8664932
:1007500008782A180A702846FFF7E2FEB6E0082952
:100760002BD1614B18782A181A70614B1B68B3F5AE
:10077000806F80F0AB80594E5F4F5E4C36683868B2
:10078000226807240132C5F380176D00072A47EA63
:100790004000EDB206D9534AD0540133B34228BFCA
:1007A00009210022013CEDD1534C206051480260E8
:1007B0004F4A1360474B197088E0092902D14B4A10
:1007C000157083E00C20187080E0444B48481F6887
:1007D0000168B942FFF42EAF3E4A13780C2B03D1C7
:1007E00030460E2142460BE03F4A404813780178DC
:1007F000584200F07F02914205D030460E2103227C
:10080000FFF7BAFE62E0344B3C4901240C701C68CF
:1008100044EA0700830779D1394A944202D86FF03D
:10082000070075E000F0CCFE00F100614B1E9C4219
:1008300032D801F0A5FF2546291BB9423BD200F072
:10084000E9FE00F0BDFEB0F5802F34BF4FF48061AB
:100850004FF40061B5FBF1F301FB135060B928467A
:1008600001F0ECFF042807D0142001F09DFF00F0F8
:10087000E5FE6FF003004BE01A4A2846131B591996
:100880004A785B5D43EA022101F0BAFF0428EBD10C
:1008900000F0D4FE0235CFE7B4F1005FBFD300F023
:1008A00097FE00F10050421E9442B8D820460D49F0
:1008B0003A4603F064F80C4B0F211878424202F0DC
:1008C0007F023046FFF758FE00F0DEFB0020BDE857
:1008D000F08100BF140500205000002058000020C7
:1008E000873A000860000020540000205C000020CF
:1008F00010050020080500200C050020150500202B
:10090000FF3F00084FF0FF30BDE8F0816FF00800B6
:1009100042420E213046D2B2D4E700BF10B5114B8F
:1009200088B01A78997804468DF800205878DA78DB
:100930001B798DF802108DF803208DF801008DF8D9
:10094000043000F0F5FBF7218DF8050001208DF84B
:1009500006008DF8071020466946082200F0C8F806
:1009600008B010BD873A000808B52020FFF7D6FF71
:100970001020FFF7D3FF024B0020187008BD00BF06
:100980001505002008B50B4B1A7802F00801C9B212
:1009900049B109490978814205D16FF307021A70FC
:1009A000064B00221A7006490A6802B190470020DF
:1009B00008BD00BF44050020280500201C050020BC
:1009C0003005002038B50446002837D11D4A1E499D
:1009D000102313700B701D4D1D4B1E4A1E492860BD
:1009E00018601E4D1E4B106008601860286001F0F2
:1009F000A1F9C50F204600F0C1FB1A4A00281A4B86
:100A0000B8BF45F00205002010701978174A60F34E
:100A100007011970107016480378422B04D115494C
:100A20000878010658BF1070134B002213491A8032
:100A300000220023C1E90023684238BD4FF0FF3097
:100A400038BD00BF0000002001000020200500206C
:100A50001805002040050020300500203405002046
:100A60002405002028050020440500202A05002038
:100A7000D03F0008D13F00082C0500203805002099
:100A800010F0F00F70B504460D4604D101280CBFDC
:100A9000144B154B1C78154B04F00F061A6872B9ED
:100AA00004F0F000102812D0202817D166F30715A3
:100AB00004F00F002946BDE8704000F00FBC66F35B
:100AC00007152046294690470028E9D070BD66F3F7
:100AD00007152846BDE8704001F09AB94FF0FF3085
:100AE00070BD00BF0100002000000020180500209C
:100AF0002DE9F04180460E4617460024BC4235D20F
:100B00003B1B022B0DD0032B19D0012B19D1325DC9
:100B1000052161F3030562F30F2501346FF31745D7
:100B20000AE0305D3119062363F303054A7860F368
:100B30000F2562F3174502346FF31F650FE007209E
:100B400000E0042060F30305335D3019417863F35E
:100B50000F25827861F3174562F31F650334404621
:100B60002946FFF78DFF0028C8DA00E00020BDE825
:100B7000F081000030B5F023A1B08DF80030134BA8
:100B80007E2232258DF803201A7800248DF8045037
:100B90000F258DF801408DF802408DF805208DF865
:100BA000065002AB0D5D5A1E35B101341A4603F8EA
:100BB000015C0133642CF5D1F72102F8011B694671
:100BC000521AFFF795FF21B030BD00BF2A05002063
:100BD00000B5F02389B08DF8003000238DF8013086
:100BE0008DF802307E238DF8033032238DF80430E7
:100BF000084B8DF806101B78F7218DF807208DF82B
:100C00000810092269468DF80530FFF771FF09B019
:100C100000BD00BF2A050020F0B5454E8BB03378EB
:100C200004460D461746FFF7E1FC00287CDA3178D0
:100C30000D295AD001D829B169E00E2974D00F29A5
:100C400065D15AE03B4B1DB1012D03D11F706BE004
:100C50001D7069E01878052829D011D8022820D005
:100C600004D801283DD12046334937E003281BD062
:100C7000042836D100F09EFC30490246684623E045
:100C8000082826D006D8062819D0072829D100F030
:100C90009FFC16E009281FD07F2822D1FFF764FEB1
:100CA00042E02046264919E02046264916E06846DB
:100CB00000F096FC0028204609DA23490EE000F0F7
:100CC0007FFC22490246684601F0AAFC204669469C
:100CD00004E020461E4901E01E492046FFF74AFF76
:100CE00022E020460E210D2204E0022D1CD12046D8
:100CF0000E211022FFF76CFF16E0174A0DB1012DEF
:100D000001D1556010E0526872B92046F2E70E2119
:100D10000A462046FFF75CFF0F49054B0A78002082
:100D20006FF307020A70187000200BB0F0BD00BF0F
:100D30001C05002029050020203A0008413A00083F
:100D4000273A0008373A0008463A0008483A0008AF
:100D50004B3A00085D3A000844050020F72910B519
:100D60000A465AD82E4B197801F0080303F0FF0405
:100D70001BB12C4B1B7883424CD1A0F11103062BE5
:100D800048D9284B187004BB2548037803F00703A3
:100D9000042B03D82448C05C904221D101F0070104
:100DA000052903D121480178914219D15A1C1C4BC5
:100DB00002F007001978052860F3020119702CD998
:100DC000CAB242F00800187027E0130611D5F72ABE
:100DD00006D101F01001CBB213B10221FFF71CFFC5
:100DE0000F4B134A197800206FF307011970107028
:100DF00010BD01F01004E4B244B9094B197841F078
:100E0000100119700A4B21461A7000E00121FFF70A
:100E100003FF02E04FF0FF3010BD002010BD00BF07
:100E20004405002028050020873A00082A050020F4
:100E30001C05002001F00F032DE9F0470F46C1F318
:100E40000728C1F307494FEA116A03F1080101F0CD
:100E50000F010629064602D8002A5ED180E0B8F1CB
:100E6000F00F08D003F10C0000F00F0103292CD87B
:100E7000B8F1F60F29D03C49D1E9004554EA050004
:100E800023D106F0F004302C4FF000000CD0502C91
:100E900013D0102C19D1354C208006F00F000124FE
:100EA00004FA00F0088010E0304C208006F00F00BB
:100EB000012404FA00F0488007E02C4C208006F062
:100EC0000F00012404FA00F088800F2B48D8DFE8D7
:100ED00003F022222222081C282847474747474779
:100EE0004708B8F1F70F16D83046414607F00F070C
:100EF000FFF734FF0F2F33D049463046FFF72EFF60
:100F000030465146FFF72AFF2AE0B8F1F70F02D822
:100F1000B8F1F60F05D11AB3304627F0F00190472B
:100F20001EE01A1F12F0FF041AD030464146FFF7A8
:100F300015FF012C0CD030464946FFF70FFF022C5D
:100F400005D030465146FFF709FFD04600E0C846BD
:100F5000B8F1F70F04D1044900220023C1E90023AE
:100F60000020BDE8F08700BF380500202C050020D8
:100F70002DE9F041804688B0684600F061FF002806
:100F800007DB00994246C1F303101030FFF752FF10
:100F9000F2E73A4D02AC0FCD0FC495E803009DF87F
:100FA000083084E803004BB300242546264608A8F1
:100FB00000EBC40111F8182C12B9FDB11446154606
:100FC00008AF07EBC40313F8187C53F8142C07F090
:100FD0000F0001A9904710F10A0F03D13846FFF71F
:100FE000D1FC08E0002806DB38460199424601366C
:100FF0000135FFF71FFF0134092ED8DD2049D1E963
:10100000002352EA030035D01E480388B3F57A7FE7
:1010100030D90A8862B1002142FA01F313F00100CD
:1010200003D101311029F7D101461031C8B21AE0BD
:101030004B885BB143FA02F010F0010103D1013299
:10104000102AF7D10A463032D0B20CE0888850B16D
:1010500040FA03F111F0010203D10133102BF7D153
:1010600013465033D8B2FFF78DFC05480022002309
:10107000C0E90023002008B0BDE8F081E83900088D
:10108000380500202C05002010B500F005FF0446AF
:1010900000F09AF8044300F005FA054B4FF6FF7193
:1010A0001A8820438A4201D001321A8010BD00BF45
:1010B0002C05002008B5034B1A680AB1904708BDFB
:1010C000104608BD20050020114BF7B51C680746E7
:1010D000E4B1C1F307640F4DC1F30720C1F3074228
:1010E0008DF8064001F00F0100246E5C8DF80400BD
:1010F0008DF805202546B54208DA054B01AA515D59
:101100001B683846984701350443F4E72046FEBD86
:1011100020050020103A0008012803D0034B187066
:10112000002070474FF0FF30704700BF01000020E3
:10113000014B1878704700BF2A05002008B500F061
:10114000C3FE0028D4BF0020012008BD012838B507
:1011500004460CD800F05EFA064B0748FF22002533
:101160001A5520F8145000F069FA284638BD4FF09F
:10117000FF3038BD4C0500206A05002010B504463C
:1011800010B14FF0FF3010BD0D4B0E49FF2218601B
:10119000187158719871D8711881D8601874587482
:1011A0009874D87498820A70FFF7D0FF0120FFF777
:1011B000CDFF204600F04EFF0028E2DB204610BDA8
:1011C000500500206805002008B500F023FA104AF9
:1011D0004FF6FF71138808468B4201D0013313800C
:1011E0000C4B1989814201D0481C188152884FF656
:1011F000FF718A4202D00648013242809B8A8B42AC
:1012000002D0044A591C918200F018FA002008BD4F
:101210006A050020500500202DE9F347C1F3072699
:10122000054601F00F075FFA86F8C1F3074AC1F3DC
:101230000769FFF783FF002840D0234BDC5D002CBB
:101240003FD022488DF8046030F815208DF805A0B5
:10125000B2F57A7F8DF8069003D92846FFF776FF1E
:101260001BE01B490B7843FA05F3DA0715D5072F66
:1012700013DD0F2F11D0012C0ED9164A515D4145B7
:1012800006D1013C8DF804A08DF80590E4B204E08D
:10129000002320F8153000E00124B8F1F70F98BFC3
:1012A0000C4801A998BF46552246284600F0F8FF91
:1012B0000230022802D8084A105603E04FF0FF30EF
:1012C00000E02046BDE8FC87103A00086A050020CF
:1012D000680500204C0500208C3A000838B505460A
:1012E0000C4621462846FFF797FF811CF9D038BDF0
:1012F0002DE9F04180460F46FFF720FF002800F05F
:10130000C5800C2606FB08F6634DAC19404600F07C
:10131000F9FE0028C0F2A1800206C3B252D5F72B15
:1013200008D9396841F00F023A607B700023BB7026
:10133000FB70AFE05949C3F30212895C23716171FC
:1013400009B1002137E0564A00F00F00125CF02B83
:10135000627103D101226370E271F2E7F72B1DD1B4
:10136000E279207842B1012A0ED1062262F303000D
:101370002070A370E1700CE0052161F30300207080
:101380006370A270E27004E0072161F30300207033
:10139000E370236800203B60E0710BE0002AD0D1AD
:1013A0002178052060F3030121706370A270E27060
:1013B00023683B60012163790020A371208100290B
:1013C000A4D067E02279F02A17D1E279511CC8B283
:1013D0000128E07103D0022803D1A37096E763705F
:1013E00094E7E370AB5D042262F30303AB55A959A4
:1013F00000203960E07120814CE0A07920B9627949
:101400002081511EA17101E0411EA1716079012866
:1014100002D1A370002303E0A2790AB1A37000E017
:10142000E370A379002B7FF471AF2079AA5D00F0FF
:10143000F001F02901D0010908E063791BB1012B0B
:1014400003D1022102E0052100E0032161F3030240
:10145000AA556070A85938601CE00020A17971B1CC
:101460002289B2F57A7F0AD90023AB5123716371C7
:10147000A371E37123816FF00900BDE8F0810028BA
:101480000CBF4FF0FF300020BDE8F0814FF0FF307F
:10149000BDE8F0810120E1E7500500207F3A000817
:1014A000003A00080020704737B5054600286FD184
:1014B00001217D2001F0A6FB01A801F010F94EF2F8
:1014C000FF704823ADF8040001A933488DF80730B8
:1014D00001F0B5F84FF6FF71ADF804102F4801A9DF
:1014E00001F0ADF82E4801A901F0A9F82D4801A995
:1014F00001F0A5F801F002FB082834D001F0AAFAA7
:101500004FF4803001F0C6FA01F0C0FB0128044618
:101510002AD1102001F028F9022001F01BF92846F9
:1015200001F0F4FA284601F005FB4FF4806001F069
:10153000F7FA4FF4004001F00DFB4FF480304FF408
:10154000801101F0C1FA204601F0C8FA392001F0FB
:1015500089FB0028FAD0022001F0C6FA01F0CEFA89
:101560000828FBD100E02C4600210F4801F0AEFB1B
:101570004FF4407001F0A0FB042001F0B1FB0B4AD6
:101580000B4B012C14BF4FF0FF3000201A6001E01C
:101590004FF0FF303EBD00BF000801400010014089
:1015A00000140140000C01400000000800FF1F0073
:1015B000042004E0014B1868704700BF002004E0DD
:1015C000024B188881B28802704700BFE0F7FF1F06
:1015D000024B188881B28802704700BFE2F7FF1FF4
:1015E00000235A1002F10051A1F618021278D9070F
:1015F00058BF120902F00F02092A94BF3021372187
:101600008A18C2540133182BEBD100210176084609
:1016100070470000074B1A681AB9EFF310810648AB
:1016200001604FF0010080F310881A680020511CFF
:10163000196070477405002070050020074A136880
:101640003BB1581E106038B905490A6882F310880A
:1016500002E04FF0FF307047002070477405002013
:10166000700500200F291CD80F4BDA68D343C3F351
:101670000222C2F1040301FA03F100F160430901FF
:10168000CAB203F5614181F80023012342B200F0A0
:101690001F00510903FA00F2044840F821200020FD
:1016A00070474FF0FF30704700ED00E000E100E0D0
:1016B00013B5044601A801F012F8102303208DF899
:1016C0000730E3078DF8060006D50421ADF80410B5
:1016D0000548694400F0B3FF34F0010314BF6FF014
:1016E000010000201CBD00BF00140140C20707D547
:1016F000074B11F0010F4FF0040214BF1A615A6139
:1017000030F0010314BF6FF001000020704700BFEC
:101710000014014030B5012185B00446102001F0CD
:101720007DFA48204443611E0D4C4FF6FF7300259F
:10173000ADF80410204601A9ADF80830ADF80A5004
:10174000ADF8065001F018F901210A46204601F0D3
:1017500069F92046012101F059F9284605B030BD4C
:10176000001000400348012108B5818401F06EF9A2
:10177000002008BD00100040064810B50121848CEF
:1017800001F059F9A4B200280CBF20464FF0FF30F9
:1017900010BD00BF001000401FB50446C8B94FF48B
:1017A0000060012101F02EFA47204FF6FF73ADF8DB
:1017B000040001A90948ADF80830ADF80A40ADF8B9
:1017C000064001F0D9F80548012101F01FF9204633
:1017D00001E04FF0FF3004B010BD00BF002C01400D
:1017E000044B998C89B29A8C521A92B28242FAD9DD
:1017F00000207047002C0140014B04221A60704702
:10180000780500207047704702207047022070471B
:1018100009B1022070470128FBD808467047000034
:1018200070B5454AC4B05168054610686B4603C39D
:10183000906803A91860414B03F110060C46186824
:101840005968083303C4B3422146F7D11A883C488B
:1018500022800368D97803296BD8DFE801F00602FB
:101860001E460DF1FF3000230EE009238DF84A30AB
:1018700004238DF84B304EE0C82A13460BD012AA31
:10188000D154D2180021517010F8011F9A1C93B244
:101890000029F1D13FE0C8233DE00023294A99B255
:1018A000981802785AB1203A5F2A8CBF0022012290
:1018B0000133202B06D0002AF0D103AB05E000292C
:1018C000FBD001E0002AF8D01E4B591E002311F86E
:1018D000010F9A1C93B2F0B1C82A1346DBD012AAAA
:1018E000D054D21800205070F1E708A8FFF778FE16
:1018F00000281EDB0DF11F01002311F8010F9A1CB7
:1019000093B240B1C82A134605D012AAD054D218B7
:1019100000205070F1E703208DF8490012AA2846F4
:1019200008A98DF848300892ADF8243001F0B0FBDA
:1019300000E0002044B070BD0C3B00084B3A0008AA
:10194000CC160020E03F000813B5054A044692E893
:1019500003008DE803002046694601F099FB1CBD99
:10196000903A000813B5054A044692E803008DE852
:1019700003002046694601F08BFB1CBD983A000825
:1019800038B5294B00241868802584724572C472CA
:10199000204601F0E7FE20464FF4007101F0EAFE18
:1019A0001021204601F0FBFE4021204601F07AFF85
:1019B0002946204601F066FF204601F02FFF1B4913
:1019C00020460A6892F82C1001F0A6FF204601F08C
:1019D00014FF0120214601F0CDFE0220214601F036
:1019E000C9FE0120C02101F04DFF0120402101F07E
:1019F00085FF0120202101F0D2FE02204FF48071EA
:101A000001F050FF4021022001F086FF022001F08A
:101A1000F4FE204601F07AFD204600F091F9044BD7
:101A20000120186038BD00BFCC160020C41600206D
:101A30007805002008B5054B1868817A29B1012086
:101A400000F07EF9024B05221A6008BDCC1600207A
:101A5000780500200C4B10B51C68610506D50B48B5
:101A60004FF6FF3201681A604B689847A20503D50C
:101A700005484FF6FF520260230403D5BDE810402D
:101A800001F096BD10BD00BF445C0040C4160020AC
:101A900008B5002001F07AFE003018BF012008BD13
:101AA00073B5044601A800F01AFE022C74D8FFF7A3
:101AB000B1FD3B4B00221A60FFF7C0FD022C12D093
:101AC00038483949394D08602E88394A39483A4BE7
:101AD0001680186039493A4D3A4E3B4A3B483C4BD8
:101AE000296016605860304E002000F029F93168F6
:101AF000022500220D728A729CB9FFF7C9FF80B1DE
:101B00002021012001F04BFE284601F076FE2C4AF0
:101B100034688020012311686072A3724C68A0476A
:101B20002AE01F4D0320102128604FF480538DF8C8
:101B300007108DF8060001A92648ADF8043000F022
:101B40007EFD254B234A4FF48050013B5061F9D173
:101B5000022129600A201F4A002301385361FAD16B
:101B60000F490860486000F0EFFF01214FF40000CA
:101B700001F054F8022C06D0184B00204FF4044218
:101B8000186043F8042C164900240C601420082126
:101B9000FFF768FD204601E04FF0FF307CBD00BF3D
:101BA000405C00407C050020CC160020A03A0008D4
:101BB000D0160020DC3A0008C4160020A43A000821
:101BC000C8160020A91E000804000020B91E000845
:101BD0002000002000080140400D0300445C00404C
:101BE0007805002070B5FFF715FD224B1878002806
:101BF0003BD0022001F0AEFEC0F38F04002C34D0A5
:101C00001D4920B20A8893B2C3F5007188422CDACC
:101C10001A4D35F8046C35F8082C42EA0646C6F32E
:101C2000031010303146FFF74FFA90B9144B154AA4
:101C3000198889B242F8216019884A1C91B2B1F51D
:101C4000007F198028BF18800B4803885A1C91B266
:101C50000180013CA4B220B208350028D9DC054B34
:101C6000002202201A7001F0C8FDBDE87040FFF7A5
:101C7000E5BC00BFA01500209805002008620040C8
:101C8000A2150020A00D002038B5FFF7C3FC234BA0
:101C9000187800283ED122490A8893B2002B39D007
:101CA00020480278002A35D00D88ABB2102B98BF9F
:101CB0000C881A4994BFA4B21024A5B2AA0001202E
:101CC000087091B201F01AFE1548174A0388591B93
:101CD0008DB20580154B1649188880B231F8200066
:101CE00042F8080C188880B251F82010080C1988A6
:101CF00042F8040C481C81B2B1F5007F198001D371
:101D000000201880013CA4B20832002CE2D101204E
:101D100001F062FDBDE83840FFF790BC9C0D00204B
:101D2000A6150020AA15002088610040A8150020F3
:101D30009C050020002814BF4FF0FF3000207047A2
:101D40000D49002310B50B800C4C0D4923800B80EE
:101D50000C4C0D4923700B800C4C0D4923801A4606
:101D60000B800C4C01210C4B10B121701A7001E05A
:101D700022701970002010BD98050020A2150020C7
:101D80009A050020A0150020A6150020AC15002003
:101D9000A8150020AA1500209C0D002038B5184C6D
:101DA0000546237813B94FF0FF3038BD1548018838
:101DB0008AB2B2F5FF7F07D9FFF766FF2378002BC1
:101DC000F1D06FF0010038BDFFF724FC0E4B0F4936
:101DD000188882B2501C41F8225082B21A801988A9
:101DE00088B2B0F5007F01D300221A80054B198814
:101DF000481C82B21A80FFF721FC002038BD00BFCA
:101E0000AA150020A6150020AC1500209C05002076
:101E100010B504462046FFF7C1FF831C08D1074BCD
:101E200042F20F711A888A4207D8501C1880F1E7D5
:101E3000002802DB014B00221A8010BDA4150020EF
:101E4000124B10B50446188881B2D9B1FFF7E2FBF6
:101E50000F4B10491A8890B251F8202022601C883C
:101E6000601C81B2B1F5007F198001D300221A8075
:101E7000064C2388581E81B22180FFF7DFFB2288A1
:101E800090B210BD4FF0FF3010BD00BF980500208C
:101E90009A050020A00D002008B5FFF7A3FEFFF76C
:101EA000F3FE002008BD0000024B00221A70FFF76D
:101EB000EBBE00BF9C0D0020024B01221A70FFF701
:101EC00091BE00BFA0150020034B197841FA00F025
:101ED00000F00100704700BFC016002030B5012897
:101EE00085B004460D461BD84FF00C014FF000039F
:101EF00014BF0D480D48ADF80A1004AA6946ADF8A4
:101F00000430ADF80630ADF80830ADF80C3042F8CA
:101F1000105D00F0B3FC064840F82450002001E0BA
:101F20004FF0FF3005B030BD0038014000480040A0
:101F3000B8160020F7B5044601A81F460D46164600
:101F400000F0CDFB02239C428DF806305ED831486C
:101F5000012202FA04F201780FB10A4301E021EAFA
:101F60000202012C02701CD0022C31D04FF40073FD
:101F7000294801A9052E14BF1C261826ADF80430E7
:101F80008DF8076000F05BFB48204FF480618DF80E
:101F90000700ADF80410204801A900F050FB002014
:101FA0002FE04FF48061ADF804101C48052E14BFDB
:101FB0001C26182601A98DF8076000F040FB482276
:101FC0004FF400638DF80720ADF80430134814E097
:101FD00004221148052E14BF1C2618260DEB020101
:101FE000ADF804208DF8076000F029FB0820482395
:101FF000ADF8040008488DF8073001A900F01FFB78
:1020000020462946FFF76AFF002001E04FF0FF302D
:10201000FEBD00BFC01600200008014000100140B6
:10202000012808B5034605D002D302280ED108E0E6
:10203000002006E047F612210622FFF77BFF002072
:1020400008BD47F6122106220123F6E74FF0FF30C4
:1020500008BD000038B5044600283ED120480121C3
:1020600000F046FB4FF48040012100F0CBFD4FF41F
:10207000C020012100F0D2FD1A4B1B4800251D5540
:102080001A4905551A4A1B4B1B480D5515551D5528
:102090000555E0B20134FFF7C3FF032CECD1042156
:1020A0002520FFF7DFFA0122144840F2255100F005
:1020B00049FC04212720FFF7D5FA0122104840F2FD
:1020C000255100F03FFC01210C4800F02FFC0C488A
:1020D000012100F02BFC284638BD4FF0FF3038BD01
:1020E00010001400B0150020B4160020B215002016
:1020F000B6160020C1160020AE15002000380140A1
:1021000000480040012838B504461BD8104B185C25
:10211000D8B1FFF77FFA0F4B0F491A5D185D02EB3C
:102120008415421C4D5DD1B23F29195501D90020BB
:102130001855074B1A5D511EC8B21855FFF77EFAA5
:10214000284638BD4FF0FF3038BD6FF0010038BD74
:10215000B0150020B215002034160020012838B533
:1021600004460D461CD8114B185C3F281BD8FFF7BE
:1021700051FA0F4B0F491A5D02EB84101A5D0D5492
:10218000501CC1B23F29195501D900221A55074BDD
:10219000185D411CCAB21A55FFF750FA002038BD2D
:1021A0004FF0FF3038BD6FF0010038BDB015002092
:1021B000B416002034160020012838B504461BD878
:1021C000104B185CD8B1FFF725FA0F4B0F491A5D79
:1021D000185D02EB8415421C4D5DD1B23F291955A3
:1021E00001D900201855074B1A5D511EC8B2185569
:1021F000FFF724FA284638BD4FF0FF3038BD6FF0A6
:10220000010038BDB6160020AE150020B415002020
:102210000128F8B504460D46164630D81B4B185C0D
:1022200081183F292EDCFFF7F5F92846421B93B2AF
:10223000B34220D2164B17491F5D07EB841210F8EA
:10224000017B8F541A5D511CCAB23F2A1A5501D91D
:10225000002119550D4A135D591CCBB2012B1355A2
:10226000E4D1012C14BF0C4B0C4B9A8991B241F074
:1022700080029A81DAE7FFF7E1F90020F8BD4FF01C
:10228000FF30F8BD6FF00100F8BD00BFB6160020AA
:10229000C1160020B415002000380140004800405D
:1022A00070B506460D461446304629462246FFF7CD
:1022B000AFFF831CF8D070BD194B10B51A8802F01F
:1022C000200081B281B19C880020E4B2FFF7FCFDC0
:1022D00020B900202146FFF741FF05E020202146DC
:1022E000FEF7E8FE0028F4D00D4C238803F08002AE
:1022F00090B298B10B490B7853B10020FFF75CFF07
:10230000002802DAFF20A08010BD82B2A28010BD9A
:10231000A28922F0800001040B0CA38110BD00BF34
:1023200000380140B6160020194B10B51A8802F08B
:10233000200081B281B19C880120E4B2FFF7C4FD86
:1023400020B901202146FFF709FF05E021202146A1
:10235000FEF7B0FE0028F4D00D4C238803F0800275
:1023600090B298B10B494B7853B10120FFF724FF8D
:10237000002802DAFF20A08010BD82B2A28010BD2A
:10238000A28922F0800001040B0CA38110BD00BFC4
:1023900000480040B616002038B50E4C238803F0E4
:1023A000200081B249B1A5880220ADB2FFF78CFDB3
:1023B00018B12220E9B2FEF77DFE2388054A03F01A
:1023C000800081B229B1938923F0800001040B0CB5
:1023D000938138BD0044004020B103681970016842
:1023E0004A1C026070472DE9F843141E8046894656
:1023F00001DC20270FE0002219F8021009B1013298
:10240000FAE7A242B4BFC2EB04040C4613F0020F79
:102410000CBF20273027DB070CD42546002D05DD17
:1024200040463946FFF7D8FF013DF7E724EAE47656
:10243000A41B00E000263546C6EB0903595D21B117
:102440004046FFF7C9FF0135F6E72646002E05DDB9
:1024500040463946FFF7C0FF013EF7E7002CACBF0E
:102460002819281CBDE8F8832DE9FF470C9E8146FA
:10247000DDF834800C4651B930228DF804208DF8F7
:102480000510324601A94346FFF7ADFF35E033B1F1
:102490000A2A04D1002902DA4C42012700E0002771
:1024A00004AD002305F8013DAA466CB1B4FBF2F37C
:1024B00002FB1344092C02DD0E993A3964183034BA
:1024C00005F8014D1C46EFE787B14EB118F0020F39
:1024D00006D048462D21FFF77FFF013E012705E08A
:1024E0002D2005F1FF3A05F8010C0027484651461A
:1024F00032464346FFF777FF381804B0BDE8F0874F
:10250000F0B589B006460D46059200242B7823B11C
:10251000252B79D168786A1C28B9002E7BD03068C9
:102520000022027077E025286DD02D2802D1AA1C48
:10253000012300E00023174639780132302902D107
:1025400043F00203F7E7002239783D46A1F130005D
:102550005FFA80FC0137BCF1090F03D80A2505FB9F
:102560000202F1E7732909D1059F3046391D059113
:1025700039682A4F002908BF394641E064290ED145
:102580008DE80C00059961230293081D09680590E8
:102590000A2230460123FFF767FF241839E0782923
:1025A00006D105998DE80C00081D0590612207E011
:1025B00058290AD105998DE80C00081D0590412283
:1025C00002923046096810220BE075290BD18DE884
:1025D0000C00059961230293081D096805900A22E1
:1025E00030460023D7E7632913D10599081D0968F0
:1025F000059000208DF81C108DF81D0007A93046AD
:10260000FFF7F1FEC9E7154630462978FFF7E4FEEB
:10261000013401357AE7204609B0F0BD7D3B000862
:102620000EB40FB505AA52F8041B019001A803923D
:10263000FFF766FF04B05DF804EB03B07047CB789A
:10264000F0B5DA0648BF8A78098803F00F0548BF5D
:10265000154311F0FF0F1ED004680022012707FA6E
:1026600002F707EA0106BE4211D197004FF00F0CA6
:102670000CFA07FC05FA07F724EA0C04282B44EAB5
:10268000070401D1466102E0482B08BF0661013210
:10269000082AE3D10460FF2920D94468002202F10E
:1026A0000806012707FA06F707EA0106BE4211D11C
:1026B00097004FF00F0C0CFA07FC05FA07F724EA15
:1026C0000C04282B44EA070401D1466102E0482BA0
:1026D00008BF06610132082AE1D14460F0BD4FF61F
:1026E000FF730221042203808170C27070470000D2
:1026F0000028174B30B500F44014B4BFDB695B68A9
:10270000B4F5401F82B207D1114C23F070636568A5
:1027100025F0706565600FE0C40205D5C0F3034481
:10272000032505FA04F403E0440D240102FA04F43D
:1027300023EA040343F0706321B1410D090102FA59
:1027400001F2134300280248B4BFC361436030BDA7
:1027500000000140034B1A6802F03801084318607A
:10276000704700BF00200240044B1A6822F010019D
:1027700019601A6810431860704700BF00200240BB
:10278000034A044B02F188305A605860704700BF1A
:102790002301674500200240024B1A6942F0800085
:1027A0001861704700200240014BD860704700BF9D
:1027B00000200240084BDA68D20709D4D8684007E5
:1027C00008D4D96811F0100F0CBF04200320704703
:1027D00001207047022070470020024010B50446D7
:1027E000FFF7E8FF012806D11CB1FFF7E3FF013C2A
:1027F000F8E7052010BD002C08BF052010BD000023
:1028000070B505464FF400500E46FFF7E7FF042869
:1028100010D1094C236943F0010020612E804FF450
:102820000050FFF7DBFF052804D0226941F6FE7156
:102830001140216170BD00BF0020024038B505463F
:102840004FF43020FFF7CAFF042814D10A4C236943
:1028500043F002002061656121694FF4302041F0AE
:1028600040022261FFF7BAFF052804D0216941F632
:10287000FD730B40236138BD00200240038A30B550
:102880000D460446EA8898B220F440511143218253
:10289000A3892889A98823F4B05340EA01026889F2
:1028A00023F00C0102430804030C1A4391B2A181E6
:1028B000A08AAA8983B223F4407187B01143A18210
:1028C00001A800F051F91848A38984420CBF04986C
:1028D000039819B200294FF019032A6803FB00F08E
:1028E00001DA510000E09100B0FBF1F16423B1FB8B
:1028F000F3F21201100903FB1011A08900B20028A5
:1029000006DAC9003231B1FBF3F303F0070005E04A
:1029100009013231B1FBF3F303F00F00024390B22F
:10292000208107B030BD00BF00380140838919B154
:1029300099B241F4005303E023F400510A04130C4C
:1029400083817047C1F3421310B5012401F01F01C8
:10295000A34204FA01F101D10C3004E0022B01D1B1
:10296000103000E01430036812B143EA010201E0C4
:1029700023EA0102026010BD224A038890429BB202
:1029800012D002F5006290420ED0B0F1804F0BD011
:10299000A2F59832904207D002F58062904203D0AF
:1029A00002F58062904203D14A8823F070031343FA
:1029B000154A904208D002F58062904204D023F478
:1029C0004073CA889BB2134303808B880A8883852F
:1029D0000C4B028598420FD003F5006290420BD059
:1029E00002F54063984207D003F58062904203D01D
:1029F00002F58063984201D1097A01860122828220
:102A0000704700BF002C014000100040038819B13E
:102A100099B241F0010303E023F001010A04130C11
:102A20000380704783899BB20AB1194301E023EA0E
:102A3000010181817047038A828911EA030092B201
:102A400003D011420CBF002001207047C9438AB255
:102A5000028270470D4B1A6842F0010018605968F5
:102A60000B4A0A405A60186820F0847121F48032C1
:102A70001A60186820F4802119605A684FF41F0109
:102A800022F4FE0058609960704700BF00100240B9
:102A90000000FFF80B4BB0F5803F1A6822F480313C
:102AA00019601A6822F48021196006D0B0F5802FD1
:102AB00007D1186840F4A02202E0196841F480327E
:102AC0001A60704700100240034B5A6822F47C12CF
:102AD000104301435960704700100240014B1860D9
:102AE000704700BF60004242034B5A6822F0030166
:102AF00008435860704700BF00100240024B5868FE
:102B000000F00C00704700BF00100240034B5A68F1
:102B100022F0F00108435860704700BF00100240E7
:102B2000034B5A6822F4E06108435860704700BFC5
:102B300000100240034B5A6822F4605141EAC00081
:102B40005860704700100240014B1860704700BF8A
:102B5000D8004242034B5A6822F44041084358606F
:102B6000704700BF001002401F4B10B55A6802F0BA
:102B70000C01042903D0082904D01C4A00E01C4A97
:102B800002600FE05C685968C4F38342941CC90377
:102B900001D4184904E05B6899034CBF16491449F5
:102BA0004C430460104B15495C68C4F303128C5C01
:102BB000026822FA04F242605C68C4F302240C5DED
:102BC00022FA04F484605C68C4F3C224095D22FA2A
:102BD00001F2C2605B680A49C3F38133CB5CB2FB8C
:102BE000F3F2026110BD00BF0010024000127A0033
:102BF000001BB70000093D00808D5B0040000020F5
:102C00003C000020044B9A6909B1104301E022EA1C
:102C100000009861704700BF00100240044BDA6961
:102C200009B1104301E022EA0000D861704700BFFB
:102C300000100240044BDA6809B1104301E022EAB7
:102C40000000D860704700BF00100240044B1A69B2
:102C500009B1104301E022EA00001861704700BF8B
:102C6000001002404309012B074A01D1136803E019
:102C7000022B0CBF136A536A00F01F0023FA00F105
:102C800001F00100704700BF0010024007B50023AB
:102C900001933120FFF7E6FF01994A1C0192019B45
:102CA000B3F5A06F01D00028F3D03120FFF7DAFF91
:102CB000003018BF01200EBD40F0BF60024B40F451
:102CC0000031D960704700BF00ED00E021F06041A5
:102CD00021F07F02014B10439860704700ED00E047
:102CE000044B04281A680CBF42F0040222F00402CC
:102CF0001A60704710E000E010B5064C18B9236860
:102D000001221A8210BD044B1868016888472068A8
:102D10000A3010BDCC160020C816002010B5064C95
:102D200018B9236801221A8210BD044B1868816803
:102D3000884720680C3010BDCC160020C816002033
:102D400008B5234A18B9136802221A8208BD214B1C
:102D5000002012681880117811F07F0113D1507A89
:102D600000F02002D1B209B102221A7000F0400333
:102D7000D8B2184B18B11A7842F001011EE0197848
:102D800021F001011AE001291FD002291ED150793A
:102D900000F00F024FEA820110F0800F01F1804035
:102DA00000F5B842116803D001F03002102A03E0A8
:102DB00001F44050B0F5805F01D101211970064B3C
:102DC000186801698847034808BD184608BD00BF58
:102DD000CC160020D2160020C8160020F8B5224BD1
:102DE0001C68238A267AABB9042E13D11F480178B8
:102DF00001291F490AD11F4C226894B21E4AA21809
:102E00005200136030220A80037028E010260E80E2
:102E1000072624E0A58AA169AB428CBF02260426BE
:102E20009D4228BF1D46284688470746002000F0DF
:102E300049FD2A460146384600F06AFC2946002032
:102E400000F05CFD208A638A421BED1808480B4B9A
:102E5000228230214FF44052018065821A80024B59
:102E600018680672F8BD00BFCC160020C3160020FB
:102E7000D6160020505C004002300020D4160020FE
:102E800010B50A4B0A4918684B78C27893420AD3A6
:102E9000817841B9848834B98272064802685368DF
:102EA0009847204610BD022010BD00BFCC16002060
:102EB000D0160020C816002038B50E4A0E4C1068F7
:102EC00023688269D9785879904721688B7A7BB1D9
:102ED00070B9087960B98D7855B9084A1168CB681E
:102EE000984720684279C178C2720173284638BD7C
:102EF000022038BDC4160020CC160020C8160020C1
:102F000010B5334B1B68187810F07F0004D1597A44
:102F100021F020025A7210BD022856D15A88002A88
:102F200054D11979002951D15A7922F080004FEA01
:102F3000800404F1804101F5B8442168254C12F069
:102F4000800F247814BF01F0300101F44051A042F9
:102F50003BD2002939D09B7A002B36D0840002F076
:102F6000800204F18043D1B203F5B844226861B114
:102F700002F03001102922D1C4B2204600F06FFCCB
:102F80002046302100F00BFC19E002F44051B1F56D
:102F9000805F14D130B9104B1A6892F82C1000F0F1
:102FA000BBFC01E000F049FC20684BF68F7101404A
:102FB00081F4405343F4004242F080002060074B0C
:102FC0001A6850698047002010BD022010BD00BF64
:102FD000CC160020D0160020C4160020C8160020F1
:102FE00010B51F4B19684A7922F080034FEA83001D
:102FF00000F1804404F5B8401A4C0068247812F0BF
:10300000800F14BF00F0300000F44050A34224D2DF
:103010004C8814BB08B3897AF9B19B0003F1804155
:1030200002F0800201F5B843D0B2196828B148F621
:10303000BF720A4082F0100004E04BF68F720A4023
:1030400082F4805040F4004141F080001860064B4B
:103050001A6891698847002010BD022010BD00BF8A
:10306000CC160020D0160020C816002008B5064B4C
:103070001868064B427A42F0200141721868C26912
:103080009047002008BD00BFCC160020C8160020C5
:10309000054B1A68538A18B98988CB1A138270476E
:1030A0000868C018704700BFCC16002070B5A2B0E9
:1030B00002AD8024064607492846224600F05FFC00
:1030C000304669460095ADF80440FFF7E1FF22B0B5
:1030D00070BD00BF843B000808B50C4B0020196888
:1030E00091F82C1000F018FC09480268117A0829A0
:1030F00006D1084B4FF480501880074810220280F8
:1031000009394B4253EB010008BD00BFC416002033
:10311000CC160020D4160020D616002070B52E4BF9
:103120001C68207A02284FD004284DD0032801D0F3
:10313000052843D1A169208AA9B1A0B1A58A8542F9
:1031400028BF054628468847228A0646608A531BC0
:10315000291861822382002000F0C2FB2A46014622
:10316000304600F0ECFA228A52B11C4B4FF440502A
:1031700018800020014600F0C1FB194A302111805F
:10318000208AA38A1449834202D80B68032202E0F2
:1031900018B10B6805221A720CE00A68062311495F
:1031A00013720A68104993B25A1853000C491860F8
:1031B00030200880084801680B7A06E0072803D110
:1031C0000A490A68D36898470823034A10680372BB
:1031D000BDE87040FFF780BFCC160020D416002059
:1031E000D6160020505C004002300020C41600209B
:1031F000944B73B51A68944990B24418934E650085
:103200002A6835682B7A092B15D090B2410001F15C
:10321000804404F5C04422782A7063786B70A088DB
:1032200000F0A8FB68802089356800F0A3FBA88027
:10323000A0893168C880854D01242B68DA881C720A
:103240005C78002A6AD1187810F07F023ED1092CF0
:1032500002D1FFF715FE4BE0052C0FD193F90320A7
:10326000002A01DA082155E099780029FAD19888D6
:103270000028F7D19B7A002B3ED0F3E7032C16D120
:10328000D878012807D0724A204611684B699847C0
:1032900003282FD13DE09A88002AF4D15B7A03F00D
:1032A0002001C8B20028EED0FFF7E0FE20E0012C9C
:1032B000E9D1D9780129E6D198880028E3D15B7A51
:1032C00003F02002D1B20029DDD00AE0012A04D1A6
:1032D0000B2CD8D1FFF7F0FD0AE0022AD3D1012C44
:1032E00002D1FFF70DFE03E0032CCCD1FFF778FEEF
:1032F00010B1C8E70028B5D15248564B026891B2C8
:10330000C818554B4100002230200A601880062161
:1033100000E009214D4A10680172DCE0062C14D14E
:103320001A78510640F083809C78494B012C02D1D9
:103330001A68D16971E0022C02D11868016A6CE048
:10334000032C74D11968496A67E0002C3ED1598872
:1033500000296CD1586820F47F44B4F5003F66D151
:103360001A7812F07F0004D19888002800F0B68007
:103370005DE001280CD1364C587922689469A04749
:10338000002854D12B68997A002940F0A7804EE09C
:1033900002284CD15B7903F00F014FEA810404F15C
:1033A000804202F5B8402D4A0468107813F0800F6F
:1033B00014BF04F0300404F44054814237D213F0B7
:1033C000700F34D1002C40F0898030E0082C04D1FB
:1033D0001B785A0600F0848029E00A2C16D11C784C
:1033E00004F07F02012A22D1987A00B35988F1B9FA
:1033F0005C6824F47F42B2F5803F18D11448046819
:103400005879A269904700286CD010E0552C0ED155
:10341000588860B9802A0AD166E041B10B4800247F
:10342000036820465C8299618847204618E0084C72
:103430002168064C0A6923685878904703280FD101
:10344000236814E0505C004004300020CC160020BB
:10345000C416002002300020D6160020D01600200E
:1034600022490B684FF6FF711A8A8A4201D109215D
:1034700003E0022800D012B9082119722BE093F959
:103480000000002821DAD98801910198824202D9EE
:10349000019A1A8211E08A420FD21549086890F801
:1034A0002C108A4201D2002105E092FBF1F001FBD1
:1034B000102212B901210F4801700D49086890F8D7
:1034C0002C209A82FFF78AFC05E003221A720A4B2D
:1034D0004FF440511980FFF7FFFD7CBD07499DE780
:1034E00007499BE7074999E7074997E7CC1600206A
:1034F000C4160020C3160020D4160020412D000859
:10350000F92C00081D2D0008AD30000870B50D4BDA
:103510001C780023A34210D203F1805202F5B85563
:10352000A90043F400420E6842F0800540F60F7295
:1035300032402A430A600133ECE7034940F080003F
:10354000086070BDD01600204C5C004010B51449D6
:103550000B680C461A7A022A01D0042A04D1FFF71C
:103560003DFC2168087A13E0062A10D15878052816
:1035700009D11978480606D1D878FFF7C7FF094B5B
:103580001A68106A804708490B689A6890470820B3
:10359000034B1A681072BDE81040FFF79DBD00BFD5
:1035A000CC160020C8160020C4160020704700006A
:1035B00037B50023ADF806304F4803681A0440F1D0
:1035C0009A8013F00F056BD14C4C2568AAB24C4D74
:1035D0002A8028884B4A00F03001118028884BF659
:1035E000BF7200F4405129802068024082F40051EB
:1035F00081F0200040F4004242F080012160D906B1
:1036000007D4216848F60F730B402360FFF79EFF35
:103610001DE0236898B2ADF80600BDF8062002F45C
:1036200000618BB23BB1206840F68F72024022608D
:10363000FFF7DEFD0BE0BDF8060002B2002ABBDAA0
:10364000216840F68F730B402360FFF767FD206809
:103650002A884BF6BF7302F48051034088B208B148
:1036600083F48053264A118801F4005082B20AB1D3
:1036700083F400532348018801F0100291B209B18C
:1036800083F01003008800F0200291B209B183F0AA
:10369000200343F40040194A40F0800111602AE001
:1036A000AC0004F1804101F5B844226890B2ADF855
:1036B0000600BDF8063019B2002909DA226840F682
:1036C0008F70114B1040691E206053F821209047E5
:1036D000BDF8060000F080018BB2002B3FF46CAF08
:1036E00022680A4948F60F701040013D206051F8E9
:1036F0002530984760E73EBD445C0040005C0040D8
:10370000D4160020D616002020000020040000203F
:1037100030B501F1005101F540530132590052100A
:1037200000230230934209D010F8015C10F8024CDB
:1037300044EA052421F823400133F2E730BD01F1CA
:10374000005110B5013201F54054521064000023BD
:10375000934205D054F8231020F813100133F7E7F3
:1037600010BD00004FF6F873014A03401360704724
:10377000505C0040800000F1804202F5B8421068C1
:1037800048F68F130340194311607047800000F121
:10379000804303F5B8410A6802F4C06070478000B6
:1037A00000F1804202F5B842106848F6BF7303404A
:1037B00001F0100080B208B99BB201E083F0100361
:1037C00001F0200188B208B183F0200343F40041E6
:1037D00041F0800010607047800000F1804202F5E7
:1037E000B840016848F6BF730B4083F0300242F4E2
:1037F000004141F0800303607047800000F1804287
:1038000002F5B84001684BF68F730B4083F44052C9
:1038100042F4004141F0800303607047800000F1F2
:10382000804202F5B840016840F60F630B4043F454
:10383000004242F0800101607047800000F1804347
:1038400003F5B8400268510408D5016840F60F73CB
:103850000B4043F4404242F0800101607047800019
:1038600000F1804303F5B8431A68500608D519687B
:1038700040F60F70084040F4004242F0C001196069
:1038800070470000064B49081A6893B203EBC0006A
:1038900000F1005202F5405358004A0002607047A0
:1038A000505C0040054B49081A6893B2044A03EB88
:1038B000C000831858004A0002607047505C004006
:1038C00004300020054B19688AB202EBC00000F1F9
:1038D000005303F540514A0010887047505C004087
:1038E000044B1968044B8AB202EBC000C1184A00AD
:1038F00010887047505C004004300020044B1A6868
:1039000093B2044A03EBC00083185800016070476B
:10391000505C0040023000200C4B1A6893B20C4AF5
:1039200003EBC00083185A003E2908D94B09C90689
:1039300001D1581E83B2990241F4004104E04B08C2
:10394000C80748BF0133990211607047505C0040BE
:1039500006300020054B1968054B8AB202EBC00007
:10396000C1184A0010688305980D7047505C0040EC
:1039700006300020C3B2000A40EA0320704710B5A9
:103980000023934203D0CC5CC4540133F9E710BD4B
:103990000008014080000000000C01400080000091
:1039A000000C014020000000000801402000000041
:1039B000000C014000200000000C0140400000000D
:1039C00000080140100000000010014000800000CD
:1039D000000C014000100000001001400020000019
:1039E000001001400040000020000000F11200081B
:1039F00021000000F112000800000000000000009B
:103A000001010201000000000000000000000000B1
:103A10000000020303010203030303030202030184
:103A20004D494F533332004D4248505F434F52454A
:103A30005F53544D33320053544D33324631307856
:103A40000025303878003F002564004D494F53333E
:103A50003220426F6F746C6F616465720028632955
:103A6000203230313420542E204B6C6F736500208F
:103A70002530325800202020002530385820000200
:103A800002020201010200F000007E32FEFF00008F
:103A9000183B000865000000C83A0008120000004A
:103AA00005010000AD350008351A0008AD350008E5
:103AB000AD350008AD350008AD350008AD3500085E
:103AC000AD350008F917000812010002000000409F
:103AD000C016FE03101001020301000000000000E8
:103AE00081190008051800080718000809180008BF
:103AF0000D18000811180008651900084919000878
:103B00002118000800000000400000006D69646991
:103B1000626F782E6F7267000902650002010080F3
:103B2000320904000000010100020924010001091A
:103B30000001010904010002010300020724010041
:103B400001410006240201010006240202020009CC
:103B500024030103010201000924030204010101FD
:103B600000090502024000000000052501010109CD
:103B700005810240000000000525010103286E7543
:103B80006C6C2900D10FED54CFC5FBB8975238911A
:103B900038910E7D0FED389301910E9100C11F02F7
:103BA0000E91F7041040006E106EE76A00000000EE
:103BB0000000000000000000000000000000000005
:103BC00000000400000000000000000000000000F1
:103BD0002F55461F00D84840376AF76A003000006A
:103BE000C7062E734A2C137BE97F32002A280D9BCF
:103BF000FE0B21EF422A2F73B5B8DA76E679BF0FB4
:103C0000EB793E0B0000000010100000AD350008FD
:103C1000AD350008AD350008AD350008AD350008FC
:103C2000AD350008AD350008AD350008AD350008EC
:103C3000AD350008AD350008AD350008AD350008DC
:103C4000AD3500080204060800000000010203046C
:103C50000102030406070809FFFFFFFFFFFFFFFF44
:103C6000FFFFFFFFFFFFFFFFFFFFFFFFFFFFFFFF64
:103C7000FFFFFFFFFFFFFFFFFFFFFFFFFFFFFFFF54
:103C8000FFFFFFFFFFFFFFFFFFFFFFFFFFFFFFFF44
:103C9000FFFFFFFFFFFFFFFFFFFFFFFFFFFFFFFF34
:1040000000000120995E0008955E0008DD5300085D
:10401000955E0008955E0008955E000800000000AF
:10402000000000000000000000000000D15B00085C
:10403000955E000800000000415C0008915C0008EB
:10404000955E0008955E0008955E0008955E000884
:10405000955E0008955E0008955E0008955E000874
:10406000955E0008955E0008955E0008955E000864
:10407000E1850008955E0008F9850008955E000856
:10408000955E0008955E0008955E0008955E000844
:10409000298E0008955E0008955E0008955E000870
:1040A000955E0008955E0008955E0008955E000824
:1040B000F98A00081D8B0008955E0008955E0008CF
:1040C000955E0008A597000811990008955E000804
:1040D000955E00088596000865970008F59600082B
:1040E000955E0008955E0008955E0008955E0008E4
:1040F000955E0008955E0008955E0008955E0008D4
:10410000955E0008955E0008418B0008955E0008EA
:10411000955E0008955E0008955E0008955E0008B3
:10412000955E0008955E0008955E0008955E0008A3
:10413000955E000800000000000000000000000084
:10414000000000000000000000000000000000006F
:10415000000000000000000000000000000000005F
:10416000000000000000000000000000000000004F
:10417000000000000000000000000000000000003F
:10418000000000000000000000000000000000002F
:10419000000000000000000000000000000000001F
:1041A000000000000000000000000000000000000F
:1041B00000000000000000000000000000000000FF
:1041C00000000000000000000000000000000000EF
:1041D00000000000000000000000000000000000DF
:0441E0005FF8E0F1B3
:1041F00070B5002002F00EFA214B00245A789D7809
:104200005543AC4219DA661C31461E4802F07EFC6A
:10421000E0B202F0ADF9002002F0FCF900280ADA61
:1042200017484178184894FBF1F301FB13445A1CDA
:10423000611C02F06BFC3446E3E70024AC421ADA5E
:10424000E0B202F095F90020014602F097F90C481F
:1042500041780E4894FBF1F301FB1342511C5A1CA8
:1042600002F05EFA0121002002F088F9084802F00D
:1042700057FA0134E2E7002002F07AF9002070BD1D
:104280006A310020B4C30008C8C30008EEC30008A8
:10429000F9C3000838B54B4B00220220012110243D
:1042A000494D1A70587099709C80D8802A78422A9B
:1042B0000ED14648464C0178464A19702578464941
:1042C0005D701078454D98700C789C802A78DA8063
:1042D000434B0020434918700C78422C04D1424DC6
:1042E0002A78110658BF1A70404B002040491870B8
:1042F0000C78422C04D13F4D2A78150658BF1A700D
:104300003D4B00203D4918700C78422C04D13C4DA7
:104310002A78140658BF1A703A4B00203A49187090
:104320000C78422C04D1394D2A78100658BF1A70E7
:10433000374B0020374918700C78422C04D1364D89
:104340002A78110658BF1A701D7802F087FF85423F
:104350002F4C1BD0202002F073FC21782F480A46F6
:1043600002F0D4FB102002F06BFC21782B480A46A7
:1043700002F0CCFB202002F063FC294802F0C6FBCF
:10438000102002F05DFC264802F0C0FB204B18789C
:1043900002F05CFF234B244A244953F8040B8B4260
:1043A00042F8040BF9D100231F4A995C20395F2998
:1043B000114601D90020D0540133202BF4D1002024
:1043C000C87738BD60000020C03F0008C13F00082A
:1043D000C23F0008C33F0008C43F0008C53F0008B3
:1043E000C0000020D23F0008D33F0008E1000020B9
:1043F000D43F0008D53F00086C000020D63F0008DD
:10440000D73F00086A000020D83F0008D93F0008C5
:104410006B000020D03F0008D13F000800C4000816
:1044200029C40008E03F0008C10000200040000847
:1044300013B5044610B94FF0FF3006E0002201A981
:1044400001F05AF8019B9C42F5D01CBD08B5FFF75E
:1044500021FF4FF0FF3004F0E5F800214FF0FF306E
:1044600004F0FEF8044802F0FFFE044A044800236A
:104470001370038008BD00BF114700086D000020C5
:10448000BE00002038B50546322435B904F0FCF8EA
:10449000C1434FF0FF3004F0E3F844F6206004F02D
:1044A00085FB013CF1D1204638BD00000020F8B565
:1044B000014602F063F82F4802F008F901210020BC
:1044C00002F05CF82C4802F001F9202002F0B8FB61
:1044D0002A4802F01BFB102002F0B2FB274802F032
:1044E00015FB6FF07845002404F0CEF805F178460E
:1044F000C14301364FF0FF3004F0B2F8300707D166
:104500000121092002F03AF81D48314602F008F96D
:104510001C4B6F1C6A78F85C824225D01A496A18D5
:10452000FF2A21D90134092C0FDC202002F088FB5E
:104530003146164802F0EAFA102002F081FB1348D7
:10454000314602F0E3FA3D46CEE70A2CFBD12020AB
:1045500002F076FB0E4802F0D9FA102002F070FB50
:104560000B4802F0D3FAEEE70A4B9F42EBD120460C
:10457000F8BD00BF67C4000878C4000889C40008FB
:10458000A1C4000847D5000001C1FFF7A8C4000876
:10459000C4C40008FF3F000810B503F007FA05F097
:1045A000DBFB4FF0006404F06FF8C1434FF0FF30C5
:1045B00004F056F803F012F9B0F5802F34BF4FF431
:1045C00080604FF40060B4FBF0F300FB134169B965
:1045D000204605F01FFC042808D04FF0FF3005F0FE
:1045E000CFFB03F0F7F94FF0FF3010BD374AA018AA
:1045F0004178037804F17840A0F57C52FF2A43EA21
:10460000012147D8A0F57F53012B01D8304A17E08C
:1046100030482218012A03D82D488178437837E0A2
:104620002D4BE018012806D82948C188838843EA21
:10463000012291B22EE0294AA318012B05D8284A5D
:1046400011780B0243F0420124E026482218012A87
:1046500001D8254AF4E7254BE018012801D8244A5F
:10466000EEE7244AA318012B01D8234AE8E72348A0
:104670002218012A01D8224AE2E7224BE0181F281B
:1046800008D804F12001204ACBB2D0184178D35C7D
:1046900043EA0121204605F09FFB042808D04FF093
:1046A000FF3005F06DFB03F095F96FF0010010BDD0
:1046B000164A023494427FF476AF05F059FB03F0BA
:1046C00089F9FFF7E7FD002010BD00BF47D50000C6
:1046D000600000203EC0FFF73CC0FFF730C0FFF78E
:1046E0006B0000202EC0FFF7C00000202CC0FFF799
:1046F000E10000202AC0FFF76C00002028C0FFF76F
:104700006A00002020C0FFF7C10000200040000820
:10471000F7B50C46054602F093FD0646284602F022
:104720008FFA0D2C00F0BB820A2C40F0AA8296482A
:10473000964907F0ADFB002800F39D82924894490A
:1047400001AA07F033FE0446002800F09482914944
:1047500007F0EAFD002855D18F48904C02F0D6F9B9
:104760008F4D904802F0D2F921788F4802F0CEF9AF
:1047700029788E4802F0CAF98D498E48097802F0EE
:10478000C5F98D4A8D48117802F0C0F98C488D4DDD
:1047900001788D480A4602F0B9F98C488C4902F03C
:1047A000B5F92C78204601F0A3FE20B1287801F05D
:1047B0009FFE024600E0874A2146824C864802F06E
:1047C000A5F98648617802F0A1F98548A17802F040
:1047D0009DF98448A18802F099F9E188824802F0A5
:1047E00095F9824802F092F9684807F049FB804841
:1047F00002F08CF97F4802F089F97F4802F086F9CF
:104800007E4836E220467E4907F08EFD0546C0B957
:104810007C4802F07BF92C46E5B2284601F068FEA0
:1048200038B1284601F064FE21460246764802F07F
:104830006DF90134FF2CEFD1744802F067F9744828
:1048400017E22046734907F06FFD10B902F07EFFB2
:1048500011E22046704907F067FD70B90124FFF7A7
:104860009BFE002880F2198221466C48013402F038
:104870004DF9062CF3D16A4807E02046694907F054
:1048800053FD38B9FFF706FD674802F03FF9FFF71F
:10489000AFFCF0E12046654907F046FD002840F0F6
:1048A000E7813B4901AA07F081FD0446002800F09A
:1048B000DD815F4907F038FD90B9354901AA07F05D
:1048C00075FD18B1FFF7B4FD012801D95948D0E1B1
:1048D000324BC2B21A700AB15748CAE15748C8E110
:1048E0002046574907F020FD90B9294901AA07F051
:1048F0005DFD18B1FFF79CFD012801D95148B8E1D1
:10490000C1B22748017009B14F48B2E14F48B0E148
:1049100020464F4907F008FDD8B91D4901AA07F004
:1049200045FD18B1FFF784FD012801D94948A0E1F0
:10493000214BC2B21A7022B1474802F0E7F847484B
:1049400097E1474802F0E2F8464802F0DFF84648AF
:104950008FE12046454907F0E7FC002840F08E80B3
:104960000B4901AA07F022FD18B1FFF761FD0128EC
:1049700001D93F487DE1C1B20D48017009B13D4800
:1049800077E13D4875E100BF6D0000200D6B000828
:104990000AC500080DC5000812C50008C0000020A7
:1049A000E10000202FC5000851C50008B3C500086C
:1049B0006A00002012C600086C00002065C60008CE
:1049C0006B00002060000020BEC600081AC7000867
:1049D000C100002002C500085BC700089FC700088F
:1049E000F1C7000843C8000888C80008CEC80008FE
:1049F00004C900085CC900089EC90008D1C90008A4
:104A0000F6C9000800CA00081ACA000826CA000829
:104A10005DCA0008BFCA0008F0CA0008C5CA00087D
:104A200060D20008EECA0008F6CA0008C1CA000831
:104A300012CB00081BCB000836CB000856CB000871
:104A400077CB000882CB00089FCB0008D3CB0008AF
:104A500008CC00081BCC000840CC000870CC000833
:104A6000B9CC0008EACC000847CD00089BCD00086F
:104A7000A4CD0008BFCD000806CE000820468A4914
:104A800007F052FC20B12046884907F04DFCB8B928
:104A90000020874901AA07F089FC20B1FFF7C8FC74
:104AA0007F28014601D98348E3E0834B0A4618700A
:104AB000824802F02BF8824802F028F88148D8E0BA
:104AC0002046814907F030FC002833D1784901AAFB
:104AD00007F06CFC074620B1FFF7AAFC041E11DAB0
:104AE00001E04FF0FF340025284601F001FD0146AA
:104AF000384607F0FBFB08B92C4603E00135EDB260
:104B0000FF2DF1D1FF2C04D9704801F0FFFF704850
:104B1000AFE0704DE0B2287001F0EAFC20B12878D7
:104B200001F0E6FC024600E06B4A6C48214601F0C9
:104B3000EDFFA0E020466A4907F0F6FB98B95C4912
:104B400001AA07F033FC18B1FFF772FC014601E03F
:104B50004FF0FF31481EFE2801D9624889E05D4AC6
:104B6000614851707FE02046604907F0DDFB98B94D
:104B70004F4901AA07F01AFC18B1FFF759FC01468A
:104B800001E04FF0FF314A1EFE2A01D9584870E07B
:104B9000504B5848997066E02046574907F0C4FBCF
:104BA000A8B9434901AA07F001FC18B1FFF740FC7E
:104BB000014601E04FF0FF314A1E4FF6FE739A4264
:104BC00001D94E4855E0434881804D484BE020468E
:104BD0004C4907F0A9FBA8B9354901AA07F0E6FB43
:104BE00018B1FFF725FC014601E04FF0FF314A1EE6
:104BF0004FF6FE739A4201D943483AE03548C180E6
:104C0000424830E02046424907F08EFB48B120463A
:104C1000404907F089FB20B120463F4907F084FB5B
:104C2000F8B9019C204607F08AFB1F2802D93B48AF
:104C30001F2118E03A4B204604F120011A4650F893
:104C4000044B884243F8044BF9D1107820B1354821
:104C5000334901F05BFF02E0334801F057FF184889
:104C600007E03248214601F051FF04E0304800E0FF
:104C7000304801F04BFF3049304800230B8003706F
:104C80000DE02D490B884E2B09D82C4A581CD454C2
:104C900083B20B800021D15401E02948F5E530466C
:104CA00001F0CEFF0020FEBD55CE00084ECE00081C
:104CB0000AC5000858CE00086B0000208FCE0008FF
:104CC000C7CE000800CF000846CF00084FCF00082D
:104CD00090CF00086000002002C50008BECF000889
:104CE000E9CF0008F3CF000816D0000839D000083B
:104CF00043D0000866D0000889D0000893D000088F
:104D0000BCD00008DFD00008EAD0000814D10008A9
:104D10003CD1000838D1000841D100084ED100082C
:104D2000C10000207CD10008B7D10008EAD10008FA
:104D300007D2000826D20008BE0000206D00002027
:104D40007ED2000838B5FFF753FA002001F010FCBE
:104D5000202001F075FFAA4801F0D8FE102001F0D4
:104D60006FFFA74801F0D2FE202001F069FFA5489F
:104D700001F0CCFE102001F063FFA24801F0C6FE56
:104D8000202001F05DFFA049A04801F0BFFE1020E7
:104D900001F056FF9C499D4801F0B8FE202001F02B
:104DA0004FFF984801F0B2FE102001F049FF9548EE
:104DB00001F0ACFE202001F043FF914801F0A6FE77
:104DC000102001F03DFF8E4801F0A0FEFFF76EFBC2
:104DD0000446002842D1014601F0D0FB8C4801F086
:104DE00075FC0121204601F0C9FB8A4801F06EFCE8
:104DF00001214FF0FF3003F033FC202001F020FFB1
:104E0000854801F083FE102001F01AFF824801F06E
:104E10007DFE202001F014FF804801F077FE102075
:104E200001F00EFF7D4801F071FE202001F008FF27
:104E30007B4801F06BFE102001F002FF784801F082
:104E400065FE202001F0FCFE764801F05FFE102098
:104E500001F0F6FE734801F059FEFEE7002001461E
:104E600001F08CFB704801F031FC202001F0E8FEDD
:104E70006E4801F04BFE102001F0E2FE6B4801F09D
:104E800045FE0020014601F079FB694801F01EFC57
:104E90000121002001F072FB664801F017FC202080
:104EA00001F0CEFE644801F031FE102001F0C8FE92
:104EB000614801F02BFE0024FFF76EFB002818DA92
:104EC00001304FF0200009D101F0BAFE5B4801F03B
:104ED0001DFE102001F0B4FE584808E001F0B0FEBD
:104EE000574801F013FE102001F0AAFE544801F0CB
:104EF0000DFEFFF7DBFA054688B10134052C0ED014
:104F0000202001F09DFE21464E4801F0FFFD1020BB
:104F100001F096FE21464B4801F0F8FDCCE74FF03A
:104F2000FF30012103F09CFB95BB2946284601F088
:104F300025FB454801F0CAFB0121284601F01EFB74
:104F4000424801F0C3FB202001F07AFE404801F006
:104F5000DDFD102001F074FE3D4801F0D7FD20205A
:104F600001F06EFE2E4801F0D1FD102001F068FE28
:104F70002B4801F0CBFD202001F062FE294801F012
:104F8000C5FD102001F05CFE264801F0BFFD35E0B4
:104F90000020014601F0F2FA2E4801F097FB0020B4
:104FA000012101F0EBFA2C4801F090FB202001F0E8
:104FB00047FE2A4801F0AAFD102001F041FE2748D3
:104FC00001F0A4FD202001F03BFE254801F09EFDEC
:104FD000102001F035FE224801F098FD202001F05C
:104FE0002FFE204801F092FD102001F029FE1D48FF
:104FF00001F08CFD0120FFF745FAD7E7FEE700BF7F
:10500000D015010893D20008A9D200085B2001083E
:10501000BAD20008CBD20008DCD20008F2D20008D5
:1050200011D300083AD3000873D3000885D30008D1
:10503000A7D30008B9D30008CBD30008F1D30008E8
:1050400007D4000823D400083ED4000850D4000838
:1050500062D4000891D40008A4D40008B7D4000892
:10506000D2D4000822D5000808B503F00DFBC143D7
:105070000120BDE8084003F0F3BA7047704770475D
:10508000704770477047704708B501F09FF8BDE85A
:105090000840FFF7F5BF000007B500F0A7FB01903F
:1050A000012101A800F0CEFC00F0A0FB019B421FF3
:1050B000934238BF019003F07FFF074801F010F8DA
:1050C000064801F0B9F9064803F07FFD02F00AF93D
:1050D000FFF7CAFFE4E700BF8350000885500008CF
:1050E0008750000807B500F081FB0190012101A85D
:1050F00000F0A8FC00F07AFB019B421F934238BFEE
:10510000019001F053FD034802F000F8FFF7B5FFEE
:10511000ECE700BF7D50000837B5002002F0B6FB79
:10512000002003F01FFD002002F0FEFA002003F033
:105130006FFA002003F0F4F8002000F021FF0020B7
:1051400000F0A2FF002000F0FDFF002001F008F8B1
:10515000002002F0E5FA002003F034FD002002F008
:10516000DCFA002001F0F2FA002003F083FE0020B8
:1051700002F080F8002002F083F8002001F04AFAE3
:10518000012001F0F5F9002006F046FB002001F0B7
:10519000EFF907F073F8FFF759F901F0A3FA4FF4AC
:1051A000FA644FF47A7003F001FD013CF9D1032554
:1051B00023460095019409494FF48072084800F095
:1051C00005FA08494FF48072234600950194064879
:1051D00000F0FCF900F0D0FA20463EBD4C15010865
:1051E0009950000847150108E550000808B502F07D
:1051F000A5FAFFF744FF0248BDE8084000F012BFDF
:1052000089500008FFF79EBD10B5002401346423C7
:10521000B4FBF3F203FB124008B901F0C7FC0948E4
:1052200001F074FF42F21071B4FBF1F301FB134281
:10523000002AEBD103F028FAC143012003F010FA51
:10524000E4E700BF7D50000808B56FF07F4001F033
:1052500079FA002001F078FA002001F089F901F0D4
:10526000D7F90020014601F089F9074801F02EFA2C
:105270000121002001F082F9044801F027FA0448D6
:1052800001F044FCFFF7C0FF521501086315010847
:105290007415010810B503684168826888B00093EE
:1052A000C46803690191029241698269C0690394EB
:1052B0000493334C0591069207900699314801F00A
:1052C00025FC204601F022FC2F4801F01FFC20465F
:1052D00001F01CFC00992D4801F018FC01992C48A4
:1052E00001F014FC02992B4801F010FC03992A48A4
:1052F00001F00CFC0499294801F008FC05992848A4
:1053000001F004FC0699274801F000FC07992648A3
:1053100001F0FCFB254B2648196801F0F7FB2549F5
:105320002548096801F0F2FB244A2548116801F07C
:10533000EDFB2448244C0168244801F0E7FB216878
:10534000234801F0E3FB6FF07F4001F0FBF9002000
:1053500001F0FAF9002001F00BF901F059F90020F1
:10536000014601F00BF91B4801F0B0F901210020C2
:1053700001F004F90699184801F0D2F9FFF744FF4B
:1053800095D20008A8150108BE150108D21501081C
:10539000DD150108E8150108F3150108FE150108DF
:1053A0000A160108B31501081516010838ED00E0CA
:1053B0002116010828ED00E02E1601082CED00E072
:1053C0003B16010830ED00E03CED00E04816010816
:1053D0005516010862160108731601081EF0040F25
:1053E0000CBFEFF30880EFF30980FFF753BF70475E
:1053F00040482DE9F04FD0F800800846044614F8E4
:10540000015B08EB05067778204607F00806F7B23F
:10541000002FF3D12D2D03D114F8015B012704E0F7
:105420002B2D04BF244614F8015B002B5BD0102BFE
:1054300007D1302D05D12578782D4DD165781023F1
:105440000234002F0CBF6FF000404FF00040B0FB63
:10545000F3F9002603FB190A304608EB050C9CF80B
:1054600001C00CF0040B5FFA8BFBBBF1000F01D005
:10547000303D0BE01CF0030C1BD0BCF1010F14BF3E
:105480004FF0570C4FF0370CCCEB05059D4210DA6E
:10549000B6F1FF3F0AD0484506D801D1554503DC97
:1054A00003FB0050012601E04FF0FF3614F8015BCA
:1054B000D3E7731C08D1002F14BF4FF000406FF0EA
:1054C00000402AB9BDE8F08F07B140427AB106B179
:1054D000611E1160BDE8F08F582DAFD03025002B34
:1054E000AFD10823ADE7302DA5D00A23A9E7BDE849
:1054F000F08F00BF5C00002030B505460C46134617
:10550000002029462246BDE83040FFF771BF000069
:10551000F8B51E4D1E4B04461E680F4628682968C4
:10552000002280F84C20081D00F016FB48B9194BEA
:1055300019682868C26A012000FA02F221EA020111
:105540001960631C114807D137B102681248111D58
:10555000BDE8F84000F0DCBAA4190268B4420B4B75
:10556000546007D20D4908681B68191DBDE8F84052
:1055700000F0DABA0A4908681B68191D00F0D4FA6D
:1055800008480268944238BF0460F8BD88010020D2
:1055900090010020E0010020CC01002094010020B7
:1055A000E80000208C010020064A074813681968AB
:1055B00011B94FF0FF3203E01268D368D9684A6826
:1055C00002607047E80000208C0100202DE9F84FB0
:1055D0004FEA820B814658460E46924698460B9FEC
:1055E00000F0B4FB0546002800F0A580502000F034
:1055F000ADFB044670B105635A462846A52106F066
:105600006CFE236B0AF1FF3A03EB8A0020F0070BD4
:10561000002506E0284600F017FC8CE00135102D2F
:1056200006D0725D611981F83420735D002BF5D1CD
:105630000A9E0025042E34BFB2464FF0040A261DF0
:10564000304684F84350C4F82CA0C4F844A0A564A4
:1056500000F05BFA04F1180000F057FACAF10500F7
:10566000A0612461646284F84C5058464946424621
:1056700000F09CFA206007B13C6000F0C1FA304AAB
:10568000304811684B1C1360056815BB0460106836
:10569000012827D12C4A142707FB0520013500F0EB
:1056A00029FA052DF6D1294F294D384600F022FA66
:1056B000284600F01FFA274800F01CFA264800F0A0
:1056C00019FA264800F016FA2549264B0F601D608E
:1056D00008E0254D2A682AB90168E56ACB6AAB4221
:1056E00098BF04602148E36A0268551C05600125E3
:1056F00005FA03F01E4A116801431160124A142092
:1057000000FB0320314600F003FA00F089FA164B43
:10571000196869B10B48E36A0268D16A994207D2F5
:10572000144A4FF080501060BFF34F8FBFF36F8F5C
:105730002846BDE8F88F4FF0FF30BDE8F88F00BF76
:10574000B0010020880100200C010020F40000209E
:10575000B40100209801002070010020CC0100203D
:10576000E800002094010020EC000020AC010020A3
:10577000E001002004ED00E013B5124B002401937A
:105780000094114811494FF480722346FFF71EFF21
:10579000012814D14FF0BF0383F31188BFF36F8F3B
:1057A000BFF34F8F0A490B4B4FF0FF320A6018606E
:1057B0000948046002B0BDE8104000F08BBA02B0A6
:1057C00010BD00BFC8010020CD5900088016010897
:1057D0008C010020EC00002090010020024B1A6890
:1057E000501C1860704700BFF0000020014B186883
:1057F000704700BF90010020F8B5354B18680028AD
:1058000036D1344B1E6801361E605EB9324A334DC4
:1058100011682868324B106029601A68511C1960A1
:10582000FFF7C2FE2F4D28680025864210D32A4B71
:105830001A68116821B92B4B4FF0FF30186007E050
:105840001C68E068C46863689E421FD225490B60EB
:10585000254A14231168254AC86A58431158244818
:10586000012988BF012503684BB9FFF7BFFC06E09B
:105870001F490A68551C0D60FFF7B8FC00251D4A3A
:10588000116800290CBF28460120F8BD271D3846A5
:1058900000F062F9A26A1AB104F1180000F05CF994
:1058A000E36A012101FA03F1134A10680143116010
:1058B0000E4A142000FB0320394600F029F90A4B58
:1058C000E06A1968CA6A904228BF0125AFE700BFA5
:1058D000F000002090010020E8000020940100204A
:1058E000E40000208C010020880100200C01002031
:1058F00008010020E4010020E001002070B500F064
:105900007FF9294B1A68501E18601C680CB10024DE
:1059100045E026490B68002BF9D0254D2A680AB3CB
:10592000EE680125F468261D04F1180000F014F952
:10593000304600F011F9E36A1E4A05FA03F01168D7
:10594000014311601C4A142000FB0320314600F083
:10595000DFF81A4BE06A1968CA6A904224BF1848F7
:105960000560DAE70CB1FFF71FFE1648046805462C
:1059700044B1FFF741FF10B1114B01211960013C07
:10598000F7D12C600E4A10680028C0D00E4B4FF0A3
:1059900080511960BFF34F8FBFF36F8F012400F068
:1059A0003FF9204670BD00BFF0000020B00100208C
:1059B00098010020E00100200C0100208801002057
:1059C000E40100200801002004ED00E070B5184C4F
:1059D0002368F3B1174DFFF701FF2E68FFF78EFF25
:1059E000002EF4D000F00CF9EB68DD68281D00F003
:1059F000B3F8114801684A1E02602668731E2360CE
:105A000000F00EF9286B00F01FFA284600F01CFA8F
:105A1000DDE70A480168012907D9094D4FF0805296
:105A20002A60BFF34F8FBFF36F8FFFF7EBFBCEE71B
:105A30008401002070010020B00100200C01002032
:105A400004ED00E038B504460D46FFF7C7FE124BE3
:105A500022681868A918904202D2914207D201E048
:105A6000914206D3814294BF0022012202E000222B
:105A700000E0012221601AB1081A0021FFF748FD59
:105A8000FFF73CFF38B9054B4FF080501860BFF36B
:105A90004F8FBFF36F8F38BD9001002004ED00E001
:105AA0000F4B1A680F4B0AB1012217E00E481A601B
:105AB0000168B1FA81F3DAB20C4B1421C2F11F0074
:105AC00001FB0030426800F1080153688B424360DB
:105AD00004BF5B6843604068054BC2681A6070474A
:105AE000F0000020E4010020E00100200C01002073
:105AF0008801002000F108034FF0FF3200214360CD
:105B00008260C360036101607047002303617047D6
:105B1000436808619A684B608A609A68996051602E
:105B200001684B1C036070470A6830B5531C01D1F3
:105B3000036907E000F108035C682568954201D815
:105B40002346F9E75A6808614A60916059608B60A2
:105B500001684B1C036030BD4168826803698A603C
:105B6000826851605968814208BF5A600022026110
:105B700018680138186070474FF0BF0383F311882D
:105B8000BFF36F8FBFF34F8FFEE70000064800683A
:105B9000006880F3088862B661B6BFF34F8FBFF329
:105BA0006F8F00DF00BF000008ED00E04FF0807352
:105BB00040F8043C054B21F0010140F8081C40F876
:105BC0000C3C40F8202C4038704700BF795B00083F
:105BD000074B19680868B0E8F00F80F30988BFF335
:105BE0006F8F4FF0000080F311884EF00D0E70475C
:105BF00088010020AFF30080AFF30080AFF3008096
:105C00004FF0BF0383F31188BFF36F8FBFF34F8F44
:105C1000024B1A68501C1860704700BF000000203B
:105C2000034A1368581E106008B980F31188704742
:105C30000000002000000000000000000000000044
:105C4000EFF30980BFF36F8F0D4B1A6820E9F00F57
:105C500010602DE908404FF0BF0080F31188FFF776
:105C60001FFF4FF0000080F31188BDE8084019685D
:105C70000868B0E8F00F80F30988BFF36F8F7047B2
:105C800088010020AFF30080AFF30080AFF3008005
:105C900008B54FF0BF0383F31188BFF36F8FBFF3D5
:105CA0004F8FFFF7A9FD18B1034B4FF080521A60D8
:105CB000002080F3118808BD04ED00E0034B044A86
:105CC00007201A6043F8040C704700BF14E000E09E
:105CD0003F19010008B5094B1A6842F47F001860AB
:105CE000196841F07F421A60FFF7E8FF044B00207B
:105CF0001860FFF74BFFFFF73FFF00BF20ED00E00C
:105D00000000002010B50F4B1A68824201D21346E2
:105D1000FAE759685C18844203D140684118596019
:105D2000184641684418944207D1074C2468A2429F
:105D300003D054681268611841608342026018BF42
:105D4000186010BDF0010020EC010020F8B50546F8
:105D5000FFF744FD364B186818BB364A510707D089
:105D6000D61D26F0070302F52050C11A1A4601E09D
:105D70004FF420515118304E083921F0070100230B
:105D8000326073600B604B608B1A82E80A002B4E06
:105D90002B4A2748136033602A4B01604FF00041C3
:105DA00019602848066835423AD1002D39D005F1EE
:105DB00008035A071CBF23F007030833002B2DD01C
:105DC0001E4D2F68BB422BD81B4A1468616899424C
:105DD00004D3174D2868844206D121E020680028AA
:105DE000F7D022460446F1E7206815681060CA1A09
:105DF0000835102A04D9E01842606360FFF782FF7B
:105E000062680E49BB1A0B600D491643086866604C
:105E1000834238BF0B600022226002E01D4600E092
:105E20000025FFF76BFD0DB9FFF70EFA2846F8BD08
:105E3000EC01002021060020F0010020E8010020F4
