:1000000000800010D1000000CD000000CD000000F5
:10001000CD000000CD000000CD0000002E7BFFEFE2
:10002000000000000000000000000000CD00000003
:10003000CD00000000000000CD000000CD00000059
:10004000CD000000CD000000CD000000CD0000007C
:10005000CD000000CD00000069250000CD000000AB
:10006000C5250000CD000000CD000000CD0000003F
:10007000CD000000CD000000CD000000CD0000004C
:10008000CD000000CD000000CD000000CD0000003C
:10009000CD000000CD000000CD000000CD0000002C
:1000A000C91D0000CD00000049190000CD0000006E
:1000B000CD000000CD000000CD000000CD0000000C
:1000C000CD000000CD000000CD000000FEE70000E4
:1000D000684620F007018D4601B500230B4A0C4904
:1000E0009818884204D20B49585898500433F5E7C1
:1000F000094B0A4A934203D2002043F8040BF8E765
:1001000002F030FF00F00EF8FEE700BF0000001024
:100110001000001070330000100100108017001054
:1001200070470000F8B5002001F06CFB002001F0E2
:1001300037FD012001F0E9FCBF4BC04C1A6822F4E6
:100140004000186019681960256825F0006626606F
:100150001F6C27F440021A64186C18640023B84915
:100160005E5CCF18740104F100557C7805F51C2005
:100170000125F20005FA04F502F1804104F00F07B1
:1001800001F5303221097C00032707FA04F4856168
:1001900052F82160023326EA040642F8216052F840
:1001A0002170062B42F82170026845EA02050560BD
:1001B000D5D10023A34DEC1867785E5D0125700151
:1001C00005FA07F500F1005107F00F0401F51C20B6
:1001D00064003909032707FA04F4F20002F18046AB
:1001E000856106F5303252F82160023326EA0406B2
:1001F00042F8216052F821700C2B42F821700268FD
:1002000045EA02050560D5D100238F4DEC186778CB
:100210005E5D0125700105FA07F500F1005107F058
:100220000F0401F51C2064003909032707FA04F4C0
:10023000F20002F18046C56106F5303252F82160C5
:10024000023326EA040642F8216052F82170062B98
:1002500042F82170026845EA02050560D5D1802484
:1002600000257748295C43194E015978012006F191
:10027000005700FA01F6023507F51C22062DD6615B
:10028000EFD101F097FC00226D4D505DAE187578EE
:100290004701012007F1005300FA05F7023203F588
:1002A0001C21062A8F61EFD101F084FC013CD7D1DB
:1002B00023466448C218195C547801204E0100FAA4
:1002C00004F106F10055023305F51C270C2BF961EA
:1002D000EFD101F06FFC00235A48C2181E5C517820
:1002E0000120750100FA01F605F10057023307F508
:1002F0001C240C2BA661EFD101F05CFC0023504DB7
:10030000585DE9184D784701012007F1005400FAC3
:1003100005F704F51C221668023326EA0704062BAB
:100320001460ECD10023474E9A5DF41866785101B1
:10033000012201F1005502FA06F105F51C27386883
:10034000023320EA01050C2B3D60ECD100233E4F27
:10035000D85DF9184F784401012004F1005600FAE5
:1003600007F406F51C221568023325EA0406062B5D
:100370001660ECD1314D642001F0ECFB6A6902F0AB
:10038000006701F023FDC4B214B96969090102D400
:10039000002001F0D5FC002000F02CFB002000F034
:1003A000F1F84CBB25484669320125D543F6D27396
:1003B0001D78422D20D143F6D3721178E1B100218E
:1003C000012044F2040701F0B1FBF97869BB1F4E2C
:1003D0004FF4804206F5804303F5082404F5804578
:1003E0007160596061606960106880F3088844F248
:1003F00004073968884718E0202000F0C7FA3CB3AA
:10040000102000F0C3FA23E001F0BEFB40F2F31627
:10041000B0423446F8D901F0B1FB0120002101F0CF
:1004200085FB01F0B1FBA042FBD901F0A7FB012045
:10043000014601F07BFBE7E70CC0024020C0092029
:10044000DA2F0000E02F0000D42F000000C0004091
:1004500001F094FB01F098FB3226B0FBF6F3642523
:100460000446B3FBF5F005FB103242F21071B4FB09
:10047000F1F5530801FB1542B4FBF6F106FB1141FF
:1004800041F28830824288BFC3EB060301209942C3
:1004900094BF002101210A2601F048FBB4FBF6F3CA
:1004A00006FB13440CB900F0AFFC002000F0F0FE96
:1004B00001F06AFB44F61F65A842CBD900F06CF846
:1004C0000028C7D1002F7FF47AAF024A5069030198
:1004D000C0D574E720C00920124B10B51A78032A42
:1004E0000BD8114900F07F000C684FEAC41444EAAD
:1004F000001008600FD104220EE0072A0FD80B4924
:1005000000F07F000C684FEAC41444EA0010086051
:1005100001D1082200E001321A70002010BD4FF016
:10052000FF3010BDD4050010140100101C01001094
:1005300070B5134B16461A7888B004460D468DF8F0
:1005400000209978DA7858781B798DF802108DF8A8
:1005500003208DF801008DF8043000F025FF8DF8A0
:100560000500F7208DF808006946204609228DF81D
:1005700006508DF8076000F0D1FA08B070BD00BFDA
:10058000C832000010B9034B187070474FF0FF30AD
:10059000704700BFD5050010014B1878704700BFA9
:1005A000D50500102DE9F04798468AB00C4615464F
:1005B000064600F071FC01F0E1FAB8F1010F04D039
:1005C000B8F1020F40F0C78182E0AF4B14B1012CAB
:1005D0000AD104E01C70AD4BAD4A1C608BE0197869
:1005E000072900F2B68190E01978082940F0D980F7
:1005F000A848A94C0278437881782270C2780079A3
:10060000A24FA34D6370A170E27020713F682D6806
:1006100000F0CAFE4FEA556E6071780E0223E07159
:10062000C7F386417044A3712172C7F3C6234118F2
:100630006372C7F30612CB18C5F38640A2729A18EC
:100640001118C5F3C623CA182073C5F30610111874
:1006500063730023A07384F80BE001F0FF011A46D6
:100660000F341846A84221D010F807E04FF0080CCC
:1006700001335200DBB242EADE12062B4FEA4E0E85
:10068000D2B25FFA8EFE0AD9C3F1070302FA03F26F
:10069000D2B25118002304F8012BC9B21A460CF14A
:1006A000FF3C1CF0FF0CE3D10130DBE71BB18B18E2
:1006B00004F8012BD9B24A42774902F07F00F723B0
:1006C000A21C207063703046521A00F027FA40E1F5
:1006D00014B1012C53D110E06B4B6C496C486F4A3C
:1006E0001C700C6004606E4B6E496F4814706F4A4A
:1006F0001C700C60046014602BE1634801780729CA
:1007000007D8664908782A180A702846FFF7E4FED9
:100710001FE108292BD161480378EA18027061486B
:100720000368B3F5806F80F01481594E5F4F5E4CC3
:1007300036683868226807240132C5F380176D00D7
:10074000072A47EA4000EDB206D9534AD054013394
:10075000B34228BF09210022013CEDD1534C206057
:10076000514802604F4A1360474B1970F1E0092964
:1007700002D14B4A1570ECE00C230370E9E0494BC1
:1007800043481A680768BA4207D23946484800F019
:10079000EBFA30460E21012213E03B490A780C2A7D
:1007A00003D130460E2142460BE03C493C4B0A78CF
:1007B0001878534203F07F01884205D030460E215D
:1007C0000322FFF7B5FEC4E03A48304A0124047022
:1007D000146844EA07039B0740F0B180B4F5804FEA
:1007E00002D26FF00701ACE000F0AEFF411E8C4278
:1007F00000F2938001F0C0F804252F4B53F8251028
:100800008C423CD22D4850F82520944226D1DFF866
:10081000B0A032238DE82800DFF8A890684605A92B
:100820000295CDF80CA0C847059B6846C3F10008A7
:10083000342305A98DE828000295CDF80CA0C847FF
:100840000599B8F1000FB4BF4FF0FF384FF0000822
:1008500048420028B8BF6FF0010801E04FF00008DF
:10086000174A32238DE82800684605A902950392AD
:10087000144B984705994842002825DA28E00135AD
:100880001E2DBAD12CE000BFD405001014010010B9
:100890001C010010C83200002401001018010010D3
:1008A00020010010D0050010CC0500101001001030
:1008B000EC2F0000D505001064300000DC30000093
:1008C000A0860100F11FFF1FB8F1000F08D001E062
:1008D0006FF0020801F064F826482146424614E011
:1008E000254D264A33238DE81800029505A9039764
:1008F00004926846224B984705994D42002D09DA2B
:1009000001F04EF81F4821462A4600F02DFA6FF0FC
:10091000030116E001F044F820E0B4F1805FFFF439
:1009200060AF00F014FF00F18050421E94423FF689
:1009300058AF204610493A4602F03AFB0EE06FF0FD
:1009400008014A4230460E21D2B2FFF7F1FD00F015
:100950005BFA00200AE04FF0FF3007E00A480F2161
:1009600002783046534203F07F02EEE70AB0BDE85A
:10097000F08700BF1B30000024010010A08601009A
:10098000F11FFF1F3D3000001801001010B5114B82
:1009900088B01A78997804468DF800205878DA786B
:1009A0001B798DF802108DF803208DF801008DF869
:1009B000043000F0F9FCF7218DF8050001208DF8D6
:1009C00006008DF8071020466946082200F0A6F8B8
:1009D00008B010BDC832000008B52020FFF7D6FFD0
:1009E0001020FFF7D3FF024B0020187008BD00BF96
:1009F000D505001038B50446002839D11E4A1F49D4
:100A0000102313700B701E4D1E4B1F4A1F49286088
:100A100018601F4D1F4B106008601860286001F0BF
:100A2000B3FAC50F204600F0E5FC1B4A00281B4B1B
:100A3000B8BF45F00205002010701978184A60F31D
:100A400007011970107043F6D0700378422B05D15E
:100A500043F6D1710878010658BF1070114B00227F
:100A600011491A8000220023C1E90023684238BDE1
:100A70004FF0FF3038BD00BF000000100100001033
:100A8000E0050010D8050010000600100406001054
:100A9000F4050010E4050010E8050010EC05001056
:100AA000E9050010EA050010F805001010F0F00F3D
:100AB00070B504460D4604D101280CBF144B154BEC
:100AC0001C78154B04F00F061A6872B904F0F00098
:100AD000102812D0202817D166F3071504F00F0054
:100AE0002946BDE8704000F035BD66F30715204685
:100AF000294690470028E9D070BD66F307152846BF
:100B0000BDE8704001F0AABA4FF0FF3070BD00BFE1
:100B10000100001000000010D80500102DE9F04180
:100B200080460E4617460024BC4235D23B1B022BA2
:100B30000DD0032B19D0012B19D1325D052161F3A2
:100B4000030562F30F2501346FF317450AE0305DAA
:100B50003119062363F303054A7860F30F2562F326
:100B6000174502346FF31F650FE0072000E00420F3
:100B700060F30305335D3019417863F30F25827804
:100B800061F3174562F31F65033440462946FFF7BA
:100B90008DFF0028C8DA00E00020BDE8F0810000E9
:100BA00030B5F023A1B08DF80030134B7E223225F2
:100BB0008DF803201A7800248DF804500F258DF845
:100BC00001408DF802408DF805208DF8065002ABEB
:100BD0000D5D5A1E35B101341A4603F8015C01332C
:100BE000642CF5D1F72102F8011B6946521AFFF770
:100BF00095FF21B030BD00BFE905001000B5F0231E
:100C000089B08DF8003000238DF801308DF8023066
:100C10007E238DF8033032238DF80430084B8DF895
:100C200006101B78F7218DF807208DF8081009228F
:100C300069468DF80530FFF771FF09B000BD00BFB0
:100C4000E90500102DE9F041042300240E4663F36A
:100C500003046FF00F0161F30F246FF317446FF378
:100C60001F64214605469046FFF720FF0E4B0746BE
:100C70007E201978322260F30F2462F3174461F367
:100C80001F6421462846FFF711FF07430D2060F33C
:100C90000F2466F3174468F31F6428462146FFF7C4
:100CA00005FF3843BDE8F081E90500102DE9F84360
:100CB00081468846174652B30D460026C8EB050309
:100CC000BB4225D22978042060F3030431B16B784C
:100CD00001F07F0262F30F241BB90DE061F30F24D2
:100CE0000AE0A97803F07F0060F3174431B101F006
:100CF0007F0262F31F6403E06FF317446FF31F6416
:100D000048462146FFF7D2FE03350643D6E716468E
:100D10003046BDE8F88308B50021052363F30301DD
:100D20006FF0080262F30F2189B2FFF7BFFE08BD22
:100D3000F8B5054602F045F90A4F064640213878D5
:100D40002A78FFF77FFF012E044605D93878691C01
:100D5000721EFFF7ABFF0443024B1878FFF7DBFF6F
:100D60002043F8BD010000100FB430B5A3B0269D9C
:100D7000284602F026F9642801D90E4813E002AC97
:100D800027AA29462046019201F07DFD204602F067
:100D900018F90023834205D0E25C02F07F01E154A0
:100DA0000133F7E72046FFF7C3FF23B0BDE830402B
:100DB00004B070477C31000010B50E4B04461A7821
:100DC00002F00801C8B248B10B490878A04205D129
:100DD0006FF307021A70094B00221A7008490A685B
:100DE0000AB12046904721460648FFF7BDFF002084
:100DF00010BD00BFEC050010E8050010DD05001077
:100E000004060010CF31000010B501F06BF9044664
:100E100000F016FB044300F081FC054B4FF6FF7118
:100E20001A8820438A4201D001321A8010BD00BFC7
:100E3000EA05001008B5034B1A680AB1904708BDCF
:100E4000104608BDE0050010114BF7B51C680746B9
:100E5000E4B1C1F307640F4DC1F30720C1F30742AA
:100E60008DF8064001F00F0100246E5C8DF804003F
:100E70008DF805202546B54208DA054B01AA515DDB
:100E80001B683846984701350443F4E72046FEBD09
:100E9000E00500106C310000012803D0034B1870EE
:100EA000002070474FF0FF30704700BF0100001076
:100EB000F0B5614E8BB0337804460D461746FFF708
:100EC00071FB002880F2B58031780D295CD001D803
:100ED00039B1A1E00E2900F0AC800F2940F09C80D0
:100EE0008EE0564B1DB1012D03D11F70A1E01D7086
:100EF0009FE0187805282BD011D8022820D004D8DC
:100F000001283DD120464E491CE003281DD004286D
:100F100036D100F005FC4B490246684625E008281A
:100F200028D006D806281BD0072829D100F00FFCAE
:100F300018E0092821D07F2822D1FFF74DFD78E065
:100F400041492046FFF72CFE73E020463F49F9E770
:100F5000684600F0FFFB0028204609DA3C49F1E72B
:100F600000F0F2FB3B490246684601F07DFC20465A
:100F70006946E7E720463849E4E720463749E1E794
:100F800020460E210D2244E0354E15B1012D16D11B
:100F900002E0FF2131704CE03078FF2801D137703A
:100FA00047E018B1012844D12E4B00E02E4B1B68BE
:100FB000002B3ED02D4A39461078984739E03278D8
:100FC000AAB920460F21FFF719FE3378002B30D144
:100FD000254A116869BB264D20462D78FFF75CFF36
:100FE0002448FFF7A5FE2846FFF756FF21E0012A17
:100FF00002D11C490868E0B920460E21102208E001
:101000001D4A0DB1012D01D1556012E0526882B91F
:101010002046FFF7F3FD0CE00E210A462046FFF7BD
:10102000EDFD1549044B0A7800206FF307020A70A2
:10103000187000200BB0F0BDDD050010DC050010BD
:1010400015320000343200001C3200002C32000047
:10105000393200003B3200003E32000050320000C6
:1010600002000010E4050010F4050010E80500106F
:101070000100001062320000EC050010F72910B5E5
:101080000A465AD82E4B197801F0080303F0FF04E2
:101090001BB12C4B1B7883424CD1A0F11103062BC2
:1010A00048D9284B187004BB2548037803F0070380
:1010B000042B03D82448C05C904221D101F00701E1
:1010C000052903D121480178914219D15A1C1C4BA2
:1010D00002F007001978052860F3020119702CD975
:1010E000CAB242F00800187027E0130611D5F72A9B
:1010F00006D101F01001CBB213B10221FFF7D8FEE7
:101100000F4B134A197800206FF307011970107004
:1011100010BD01F01004E4B244B9094B197841F054
:10112000100119700A4B21461A7000E00121FFF7E7
:10113000BFFE02E04FF0FF3010BD002010BD00BF29
:10114000EC050010E8050010C8320000E9050010A9
:10115000DD05001001F00F032DE9F0470F46C1F344
:101160000728C1F307494FEA116A03F1080101F0AA
:101170000F010629064602D8002A5ED180E0B8F1A8
:10118000F00F08D003F10C0000F00F0103292CD858
:10119000B8F1F60F29D03C49D1E9004554EA0500E1
:1011A00023D106F0F004302C4FF000000CD0502C6E
:1011B00013D0102C19D1354C208006F00F000124DB
:1011C00004FA00F0088010E0304C208006F00F0098
:1011D000012404FA00F0488007E02C4C208006F03F
:1011E0000F00012404FA00F088800F2B48D8DFE8B4
:1011F00003F022222222081C282847474747474756
:101200004708B8F1F70F16D83046414607F00F07E8
:10121000FFF734FF0F2F33D049463046FFF72EFF3C
:1012200030465146FFF72AFF2AE0B8F1F70F02D8FF
:10123000B8F1F60F05D11AB3304627F0F001904708
:101240001EE01A1F12F0FF041AD030464146FFF785
:1012500015FF012C0CD030464946FFF70FFF022C3A
:1012600005D030465146FFF709FFD04600E0C8469A
:10127000B8F1F70F04D1044900220023C1E900238B
:101280000020BDE8F08700BFF8050010EA05001057
:101290002DE9F041804688B0684600F0F7FE00284E
:1012A00007DB00994246C1F303101030FFF752FFED
:1012B000F2E73A4D02AC0FCD0FC495E803009DF85C
:1012C000083084E803004BB300242546264608A8CE
:1012D00000EBC40111F8182C12B9FDB114461546E3
:1012E00008AF07EBC40313F8187C53F8142C07F06D
:1012F0000F0001A9904710F10A0F03D13846FFF7FC
:101300005BFD08E0002806DB3846019942460136BD
:101310000135FFF71FFF0134092ED8DD2049D1E93F
:10132000002352EA030035D01E480388B3F57A7FC4
:1013300030D90A8862B1002142FA01F313F00100AA
:1013400003D101311029F7D101461031C8B21AE09A
:101350004B885BB143FA02F010F0010103D1013276
:10136000102AF7D10A463032D0B20CE0888850B14A
:1013700040FA03F111F0010203D10133102BF7D130
:1013800013465033D8B2FFF717FD0548002200235B
:10139000C0E90023002008B0BDE8F081543100000E
:1013A000F8050010EA050010014B1878704700BFDF
:1013B000E905001008B500F0B7FE0028D4BF0020F2
:1013C000012008BD012838B504460CD800F0D4FA35
:1013D000064B0748FF2200251A5520F8145000F04C
:1013E000DFFA284638BD4FF0FF3038BD0806001040
:1013F0002606001010B5044610B14FF0FF3010BDA6
:101400000D4B0E49FF221860187158719871D871F0
:101410001881D860187458749874D87498820A70B7
:10142000FFF7D0FF0120FFF7CDFF204600F074FF4B
:101430000028E2DB204610BD0C0600102406001038
:1014400008B500F099FA104A4FF6FF711388084664
:101450008B4201D0013313800C4B1989814201D09A
:10146000481C188152884FF6FF718A4202D0064804
:10147000013242809B8A8B4202D0044A591C9182DD
:1014800000F08EFA002008BD260600100C060010A1
:101490002DE9F347C1F30726054601F00F075FFA70
:1014A00086F8C1F3074AC1F30769FFF783FF0028F5
:1014B00040D0234BDC5D002C3FD022488DF80460E7
:1014C00030F815208DF805A0B2F57A7F8DF80690DA
:1014D00003D92846FFF776FF1BE01B490B7843FA38
:1014E00005F3DA0715D5072F13DD0F2F11D0012CC7
:1014F0000ED9164A515D414506D1013C8DF804A034
:101500008DF80590E4B204E0002320F8153000E0E7
:101510000124B8F1F70F98BF0C4801A998BF4655B0
:101520002246284601F014F80230022802D8084A60
:10153000105603E04FF0FF3000E02046BDE8FC8786
:101540006C3100002606001024060010080600106A
:10155000CD32000038B505460C4621462846FFF737
:1015600097FF811CF9D038BD2DE9F04180460F4628
:10157000FFF720FF002800F0C5800C2606FB08F6C8
:10158000634DAC19404600F00FFF0028C0F2A18067
:101590000206C3B252D5F72B08D9396841F00F02C1
:1015A0003A607B700023BB70FB70AFE05949C3F316
:1015B0000212895C2371617109B1002137E0564A3A
:1015C00000F00F00125CF02B627103D101226370F6
:1015D000E271F2E7F72B1DD1E279207842B1012ABE
:1015E0000ED1062262F303002070A370E1700CE0BC
:1015F000052161F3030020706370A270E27004E0C3
:10160000072161F303002070E370236800203B6032
:10161000E0710BE0002AD0D12178052060F30301AE
:1016200021706370A270E27023683B6001216379CE
:101630000020A37120810029A4D067E02279F02A3C
:1016400017D1E279511CC8B20128E07103D00228F9
:1016500003D1A37096E7637094E7E370AB5D042257
:1016600062F30303AB55A95900203960E071208172
:101670004CE0A07920B962792081511EA17101E06E
:10168000411EA1716079012802D1A370002303E0FB
:10169000A2790AB1A37000E0E370A379002B7FF474
:1016A00071AF2079AA5D00F0F001F02901D00109A5
:1016B00008E063791BB1012B03D1022102E005216F
:1016C00000E0032161F30302AA556070A859386055
:1016D0001CE00020A17971B12289B2F57A7F0AD984
:1016E0000023AB5123716371A371E37123816FF008
:1016F0000900BDE8F08100280CBF4FF0FF3000204A
:10170000BDE8F0814FF0FF30BDE8F0810120E1E756
:101710000C060010C0320000B032000000207047FC
:1017200000B58BB000F028F936230AA840F8283D10
:1017300005A96846034A904700F032F906980BB0B5
:1017400000BD00BFF11FFF1F4FF4002070474FF492
:101750008030704770B58AB0044600F00DF93A2227
:101760000AA840F8282D114B684605A9984700F0B3
:1017700017F900230AA9CD1855F8101C002204EB14
:10178000430501F00F00092894BF30263726301892
:10179000A85401320909082AF3D10433102BE9D1E6
:1017A000002084F820000AB070BD00BFF11FFF1FA9
:1017B00037B502AB03E90300114B009A02211972FD
:1017C0003C21B2FBF1F401FB14250020ECB21872AD
:1017D00083F820404FF46164B2FBF4F504FB15225A
:1017E000B2FBF1F1CCB2182183F82440B2FBF1F442
:1017F00001FB1422D1B2012283F828101A723EBDD7
:101800000040024013B5002840F08880454B20225C
:10181000C3F8A0211946D1F8A001424C4006FAD5E0
:101820000323414A4149C4F80431414BC4F8A8217B
:101830000120C4F8AC115522AA21C4F80C01C4F847
:101840008430C4F88C10C4F88C20C4F88000C4F82C
:101850008C10C4F88C20334CD4F888004101FAD5A0
:101860000323AA215522C4F88030C4F88C10C4F890
:101870008C20D4F888002B4B10F0407FF9D0AA219F
:10188000552223240120C3F8A440C3F8AC10C3F8A8
:10189000AC20C3F8A000C3F8AC10C3F8AC20214CB6
:1018A000D4F8A8305B05FAD50321AA225520C4F844
:1018B000A010C4F8AC20C4F8AC00D4F8A810194BA0
:1018C00011F4407FF9D04FF0FF34C3F8C440002436
:1018D000C3F8C8411A6822F4704040F4804119608E
:1018E000144A154B15489A6002A9D86000940194D7
:1018F00011E90300FFF75CFF114B124801221C6045
:101900005C609C60DC601C615C619C61DC61052149
:1019100002631A2000F058F8204601E04FF0FF3033
:101920001CBD00BF00C00F40000011540004400067
:10193000630005000000000000ED00E00003FA0570
:101940002C06001000400050094B70B51E680025A1
:101950000124344206D00748295801B18847044A77
:101960009460146104356400202DF2D170BD00BF75
:10197000004000502C060010074B1A681AB9EFF30C
:101980001081064801604FF0010080F310881A684A
:101990000020511C19607047500600104C060010C2
:1019A000074A13683BB1581E106038B905490A68E8
:1019B00082F3108802E04FF0FF307047002070473C
:1019C000500600104C0600100F291CD80F4BDA6887
:1019D000D343C3F30222C2F1040301FA03F100F17D
:1019E00060430901CAB203F5614181F80023012374
:1019F00042B200F01F00510903FA00F2044840F817
:101A00002120002070474FF0FF30704700ED00E0CC
:101A100000E100E0013A2DE9F0478446052A70D83C
:101A2000DFE802F00318080C0F1300231C46022203
:101A3000012513E000231C4603220EE000231C4670
:101A400001E0002301241A4607E0012300221C467E
:101A5000154603E000231C4602221D4601F00F0834
:101A60004FEA48084FF0030909FA08F905FA08F5A2
:101A700002FA08F24FEACC0606F1804000F5303653
:101A80000F0956F827A06FEA090909EA0A0A46F879
:101A900027A056F827A006EB870045EA0A0546F876
:101AA0002750056C09EA05050564056C2A430264A4
:101AB0004FEA4C1000F1005202F51C22012024B123
:101AC00000FA01F01468204304E000FA01F0146801
:101AD00024EA000010604FEA8C0202F1804000F519
:101AE000303001223BB102FA01F2836E1A43826662
:101AF0000020BDE8F08702FA01F2846E24EA0202B7
:101B0000F5E74FF0FF30BDE8F087C30710B5044696
:101B100004D5002016210522FFF77CFF34F00103D5
:101B200014BF6FF00100002010BD0000C20707D5F0
:101B3000074B11F0010F4FF4800214BF9A61DA6174
:101B400030F0010314BF6FF001000020704700BFA8
:101B500000C0092019214843074B002201381A67A9
:101B60004FF0FF31D860032099615861196001215D
:101B700059601046704700BF00400940014B0020EB
:101B80009860704700400940044B9868196811F04C
:101B9000010F18BF4FF0FF30704700BF00400940F1
:101BA00018B9034B08221A7270474FF0FF30704784
:101BB00000000B4019235843034BD968DA68521AC6
:101BC0008242FBD90020704700000B4000F010005B
:101BD000C1B211B1002000F0DDB97047F0B5164672
:101BE000474A93B05168074610686B4603C3906834
:101BF00003AC1860434B03F110021868596825467E
:101C000003C5083393422C46F7D119882980787888
:101C1000092803D1012000F0BDF96EE006286CD13F
:101C20007B881A0A032A68D1D9B2032965D8DFE86C
:101C300001F006021D470DF1FF3000230DE0324890
:101C4000092383700423C37050E0642A13460BD029
:101C50002D4AD154D2180021517010F8011F9A1C3E
:101C600093B20029F1D141E064233FE0002303F562
:101C70007F5292F8200099B258B120385F288CBF6B
:101C8000002001200133202B06D00028EFD103AB28
:101C900006E00029FBD001E00028F8D043F6E0730D
:101CA000591E002311F8010F9A1C93B2F0B1642A57
:101CB0001346D9D0144AD054D21800205070F1E7FE
:101CC00008A8FFF747FD002817DB0DF11F010023CF
:101CD00011F8010F9A1C93B240B1642A134605D043
:101CE000094AD054D21800205070F1E7064A032167
:101CF000137051700120326000E0002013B0F0BD7D
:101D0000D03200003E320000540600104378212BF0
:101D10000ED0222B10D0202B01D00020704712684B
:101D2000064B106818609088927998809A7101E04B
:101D3000024B136007200860012070470400001068
:101D4000022808B52FD8012806D1002000F023FE74
:101D500042F21070FFF72EFF01F0DEF8134801F099
:101D60000DF8134A0120134900F0FCFF124801F05E
:101D7000CBF88120114900F0DBFD1149022000F071
:101D8000D7FD202000F00DFE0E4800F0F1FD0120EF
:101D900000F000F908211820FFF716FE012000F0DE
:101DA000FAFD002008BD4FF0FF3008BDDC32000016
:101DB000B80600100D1D0000DD1B00000121000011
:101DC00011210000CD1B000000F07CBE024BD3F8B7
:101DD000F40FC0F34000704700C00050084B0004EF
:101DE000302240F4A061C3F80822C3F81012D3F8DF
:101DF000002212F01000FAD0014BC3F8080270471D
:101E000000C000502DE9F041064606F00F07FFF72D
:101E1000B3FDBA00284B42F00100C3F828021A466D
:101E2000D2F820020105FBD542053CD5C0F3870856
:101E30001FFA88F1002936D0204B1A8890B2C0F5DD
:101E4000007399422FDA0024C4EB08010AB2002A79
:101E500019481DDDD0F81852C5F30310103029467B
:101E6000FEF7F2FF90B9164B164A198889B242F86C
:101E7000215019884A1C91B2B1F5007F198028BF02
:101E800018800E4803885A1C91B201800134DBE7A8
:101E90000023F109C0F8283241EA4700FFF79EFF0E
:101EA000F220FFF79BFF04480022C0F82822BDE87B
:101EB000F041FFF775BD00BF00C00050C006001024
:101EC000C8160010C80E001070B50446FFF754FD88
:101ED000274B1878002846D1264B1A8891B2002942
:101EE00041D025480278002A3DD0198888B21028B0
:101EF00098BF1B8804F00F0194BF9BB210238A0087
:101F000042F002001D4AC2F8280218B28000C2F84E
:101F10002402C3B100231948D0F82822920712D511
:101F2000174A184D16880133B6B255F82650C0F836
:101F30001C521088013080B2B0F5007F1080EAD3C7
:101F400000201080E7E70A4A01201070094A108833
:101F5000C31A98B21080E20942EA4100FFF73EFF3F
:101F6000FA20FFF73BFFBDE87040FFF719BD00BF47
:101F7000C40E0010CA160010CE16001000C000508B
:101F8000CC160010C4060010002814BF4FF0FF301C
:101F9000002070470C4A0D49002310B513800B80B8
:101FA0000B4A0C4913800B800B4A0C4913801C46CA
:101FB0000B8001220A490B4B10B10A701C7001E022
:101FC0000C701A70002010BDC0060010C81600105A
:101FD000C2060010CA160010D2160010CC1600104F
:101FE000CE160010C40E001038B5184C05462378E4
:101FF00013B94FF0FF3038BD154801888AB2B2F5E9
:10200000FF7F08D98120FFF75FFF2378002BF0D0F6
:102010006FF0010038BDFFF7AFFC0E4B0E4918887A
:1020200082B2501C41F8225082B21A80198888B2BC
:10203000B0F5007F01D300221A80054B1988481C97
:1020400082B21A80FFF7ACFC002038BDCE1600101B
:10205000CA160010D2160010C406001010B50446AF
:102060002046FFF7C1FF811C08D1074B42F20F71D8
:102070001A888A4207D8501C1880F1E7002802DB32
:10208000014B00221A8010BDD0160010124B10B563
:102090000446188881B2D9B1FFF76EFC0F4B104986
:1020A0001A8890B251F8202022601C88601C81B2EE
:1020B000B1F5007F198001D300221A80064C2388D5
:1020C000581E81B22180FFF76BFC228890B210BDB0
:1020D0004FF0FF3010BD00BFC0060010C206001058
:1020E000C80E001008B5054B187828B10220FFF77C
:1020F00089FE8120FFF7E8FE002008BDCE16001003
:10210000024B00221A70FFF7DFBE00BFC40E0010A2
:10211000030604D5034B00221A70FFF7D5BEFFF764
:1021200071BE00BFC40E0010034B197841FA00F0D5
:1021300000F00100704700BFE81600102DE9F04FD5
:10214000012885B0009059D82F4B304C53F82060AF
:102150000122002348082E4D029001949C46984687
:102160009346002707EB0209B5FBF9F9B9FBF1F437
:1021700001FB1490DDF808A0504588BF0134E01E33
:102180004FF6FC7A50450FD8B9FBF4F38B42019817
:1021900094BFC3EB0103C1EB0303834204D283B1B9
:1021A0000193A446B84693460137102FDAD15BB1AC
:1021B00005F5BE15013205F5BC50051D102AD0D11C
:1021C00002E0A446B846934683233373CCF3072238
:1021D0005FFA8CF0032308F00F0C32714CEA0B18F5
:1021E000307033730B48009B5FFA88F8072286F83B
:1021F000288040F823103272002001E04FF0FF30B9
:1022000005B0BDE8F08F00BF54330000A086010088
:1022100084D71700E0160010012810B55AD8012401
:102220002E4A04FA00F413B113781C4302E0137829
:1022300023EA04040128147025D0294B186820F0E3
:1022400003021A60186840F002021A60186C20F04D
:1022500003021A64186C40F002021A64214A906E5C
:1022600040F0010090661A6822F00C0018601A68AD
:1022700042F0080018601A6C22F00C0018641A6C06
:1022800000201A6422E0184B1A6822F003021A6038
:102290001A6842F002021A601A6C22F003021A64F1
:1022A0001A6C42F002021A649A6E42F001029A66B7
:1022B0001A6822F00C021A601A6842F008021A60CA
:1022C0001A6C22F00C021A641A6C1A64FFF736FFBB
:1022D000002010BD4FF0FF3010BD00BFE816001009
:1022E00010C0024008C0024000C0024010B50446C1
:1022F00030B101280CD147F612210622034603E033
:1023000047F6122106220123FFF786FF002010BDA9
:102310004FF0FF3010BD00002DE9F047044678BBB8
:10232000DFF878A0DFF87890DFF87880164F174E46
:10233000174D8AF8000089F8000088F8000038700E
:1023400030702870FFF7D2FF01208AF8014089F829
:10235000014088F801407C7074706C70FFF7C6FF14
:102360000C4B03255D6004210620FFF72DFB0A4876
:10237000042145600820FFF727FB2046BDE8F087D1
:102380004FF0FF30BDE8F087DE160010D6160010C3
:10239000D41600100000014000C00940D8160010FB
:1023A000DC160010DA160010012838B504461BD8D8
:1023B000104B185CD8B1FFF7DFFA0F4B0F491A5DCD
:1023C000185D02EB8415421C4D5DD1B23F291955B1
:1023D00001D900201855074B1A5D511EC8B2185577
:1023E000FFF7DEFA284638BD4FF0FF3038BD6FF0FA
:1023F000010038BDD8160010DA16001010000010C9
:10240000012838B504460D461CD8114B185C3F28EE
:102410001BD8FFF7B1FA0F4B0F491A5D02EB84107E
:102420001A5D0D54501CC1B23F29195501D9002223
:102430001A55074B185D411CCAB21A55FFF7B0FA7E
:10244000002038BD4FF0FF3038BD6FF0010038BDBF
:10245000D8160010DC16001010000010012838B546
:1024600004461DD8114B185CE8B1FFF785FA104BF4
:10247000104A195D02EB84156818195D90F88050B8
:102480004A1CD0B23F28185501D900211955074BD5
:102490001A5D501EC1B21955FFF782FA284638BDA1
:1024A0004FF0FF3038BD6FF0010038BDDE16001070
:1024B000D4160010100000100128F8B504460E468E
:1024C000174636D81E4D2B5C98183F2834DCFFF792
:1024D00053FA1C492A5D51F824304AB9187D00F09E
:1024E0002001C8B228B116F8012B01201A7000E0B3
:1024F00000200346BB4218DA134D144A295D02EB53
:1025000084125218311AC95C82F880100C4A115D8D
:102510000131C9B211552A5D511CCAB23F2A2A5550
:1025200001D9002129550133E4E7FFF739FA0020EA
:10253000F8BD4FF0FF30F8BD6FF00100F8BD00BFEF
:10254000DE16001054330000D616001010000010E4
:1025500070B506460D461446304629462246FFF71A
:10256000ABFF831CF8D070BD10B5144CA36803F00A
:102570000E00042813D1207DC1071ED50020247829
:10258000FFF7D2FD28B900202146BDE81040FFF733
:1025900037BF20202146FEF74DFC70B9F3E7022833
:1025A0000BD107490A7842B10020FFF757FF30EA04
:1025B000200028BFFF20C3B2237010BD00000140DF
:1025C000DE16001010B5144CA36803F00E000428AA
:1025D00013D1207DC0071ED501202478FFF7A4FD6C
:1025E00028B901202146BDE81040FFF709BF20208F
:1025F0002146FEF71FFC70B9F3E702280BD107490B
:102600004A7842B10120FFF729FF30EA200028BFB5
:10261000FF20C3B2237010BD00C00940DE160010B9
:1026200020B10368197001684A1C026070472DE9E7
:10263000F843141E8046894601DC20270FE0002263
:1026400019F8021009B10132FAE7A242B4BFC2EB95
:1026500004040C4613F0020F0CBF20273027DB07C1
:102660000CD42546002D05DD40463946FFF7D8FF3E
:10267000013DF7E724EAE476A41B00E00026354696
:10268000C6EB0903595D21B14046FFF7C9FF01358B
:10269000F6E72646002E05DD40463946FFF7C0FF27
:1026A000013EF7E7002CACBF2819281CBDE8F883D1
:1026B0002DE9FF470C9E8146DDF834800C4651B968
:1026C00030228DF804208DF80510324601A94346CA
:1026D000FFF7ADFF35E033B10A2A04D1002902DA51
:1026E0004C42012700E0002704AD002305F8013D1E
:1026F000AA466CB1B4FBF2F302FB1344092C02DDD1
:102700000E993A396418303405F8014D1C46EFE74C
:1027100087B14EB118F0020F06D048462D21FFF7C1
:102720007FFF013E012705E02D2005F1FF3A05F866
:10273000010C00274846514632464346FFF777FFD3
:10274000381804B0BDE8F087F0B589B006460D46EC
:10275000059200242B7823B1252B79D168786A1C47
:1027600028B9002E7BD030680022027077E025283F
:102770006DD02D2802D1AA1C012300E000231746AA
:1027800039780132302902D143F00203F7E7002201
:1027900039783D46A1F130005FFA80FC0137BCF189
:1027A000090F03D80A2505FB0202F1E7732909D1B5
:1027B000059F3046391D059139682A4F002908BF09
:1027C000394641E064290ED18DE80C00059961235A
:1027D0000293081D096805900A2230460123FFF77D
:1027E00067FF241839E0782906D105998DE80C0097
:1027F000081D0590612207E058290AD105998DE846
:102800000C00081D059041220292304609681022F2
:102810000BE075290BD18DE80C000599612302931B
:10282000081D096805900A2230460023D7E763296E
:1028300013D10599081D0968059000208DF81C101A
:102840008DF81D0007A93046FFF7F1FEC9E71546D0
:1028500030462978FFF7E4FE013401357AE7204657
:1028600009B0F0BD643300000EB40FB505AA52F8EC
:10287000041B019001A80392FFF766FF04B05DF806
:1028800004EB03B0704707B502AB43F8040D1846DC
:10289000FFF75AFF0EBD0000044BD3F800220240A0
:1028A0008242F9D1C3F80802704700BF00C000504F
:1028B000054B000440F4A06130221020C3F8082228
:1028C000C3F81012FFF7E8BF00C0005010B50C4667
:1028D000FFF7EEFF2004054B40F480741020C3F88E
:1028E0001042BDE81040FFF7D7BF00BF00C0005046
:1028F00010B500F00F04C00940EA4404012202FAB6
:1029000004F20A4BD3F844020243C3F844224FF4C2
:102910008070C3F84842C3F84C12FFF7BDFF44F083
:1029200040000021BDE81040FFF7D0BF00C00050BC
:1029300000F00F03C00940EA430002220A4B90FB5B
:10294000F2F243F82210012101FA00F0074BD3F80C
:1029500034221043C3F83402D3F8042242F00401B5
:10296000C3F80412704700BFF416001000C00050F6
:10297000044B18600448D0F8042242F00801C0F863
:1029800004127047F016001000C0005040F08001A3
:10299000D020FFF79BBF011C18BF0121FE20FFF7CD
:1029A00095BF0146F320FFF791BF000010B500F07E
:1029B0000F04C00940EA44042046FFF779FF2104D0
:1029C000054C41F400732020C4F81032FFF764FF77
:1029D000D4F81422D0B210BD00C00050C30943F097
:1029E0004002003100F00F0042EA400018BF012110
:1029F000FFF76CBF38B500F00F03C009144640EA7A
:102A000043009A00104B42F00202C3F82822C3F898
:102A100024420D4BD3F8282292070DD58A78CD7821
:102A2000120442EA05620D782A434D78043142EAE5
:102A30000522C3F81C22ECE7FFF73AFFFA20FFF764
:102A400037FF204638BD00BF00C0005038B500F049
:102A50000F03C0099C0040EA4300164B44F00104F8
:102A6000C3F82842D3F8205215F4006FFAD06B0552
:102A70001CD5AC05A50D00242346AB420CD013F0A9
:102A8000030F04BF0B4CD4F8184211B19342B8BFE6
:102A9000CC54240A0133F0E706490022C1F8282269
:102AA000FFF706FFF220FFF703FF01E04FF0FF35CD
:102AB000284638BD00C00050011C18BF0121D82095
:102AC000FFF704BF70B52B4CD4F80052E90712D5BC
:102AD000294801230668C4F8083266B1F520FFF7DB
:102AE000E7FE26492020C4F81012FFF7D5FED4F8DF
:102AF0001422D0B2B0472A0717D51E4C0823FE2057
:102B0000C4F80832FFF7D4FE1D48C4F81002202094
:102B1000FFF7C2FED4F8141211F01A0F05D0194AAB
:102B2000136813B101F0150098476B0721D5114DBB
:102B30000424C5F808420024012000FA04F00D4DD9
:102B4000D5F83012084211D0C5F838022020FFF71E
:102B5000A3FE0D4B601053F82030D5F814222BB192
:102B600040EAC411C8B202F01F0198470134202C7A
:102B7000E2D170BD00C00050EC1600100002F5005C
:102B80000002FE00F0160010F416001008B5002335
:102B90001E4A002199500433402BF9D11C48016989
:102BA00021F440220261036943F4802101614268FB
:102BB00022F070534360416841F0A052426000F53A
:102BC0005020D0F8C4301A2243F00041C0F8C4109D
:102BD0001048C0F8F42F0146D1F8F80F0D4B00F063
:102BE0001A021A2AF8D100204FF0FF31C3F804026C
:102BF000C3F80812C3F82C02C3F83402C3F8381221
:102C0000C3F84002FFF7CDFE012008BDF416001006
:102C100000C0024000C0005070B5094C094E256844
:102C20003168402DA8BF40252A468020FFF7E2FEEC
:102C30003368216858194D1B3060256070BD00BF96
:102C40005C1700106017001000B5104BA1B05A7847
:102C50001846552A0AD1598841B90D4B1A68802A5D
:102C600004D10C4800AA026001200CE000780A4B55
:102C7000C0F3411153F8213023B10549054A0348F7
:102C8000984700E0184621B000BD00BF541700105F
:102C900064170010601700103417001038B50028B2
:102CA00053D101F00401C9B2002927D0284C0822D1
:102CB0002146FFF7CBFE2078264BC0F3411153F895
:102CC00021202549E3880A60244A254913600B60C6
:102CD0000BB1C2093BD0FFF7B7FF28B98020012113
:102CE000BDE83840FFF77ABE19481D4BC1881A6805
:102CF0001A489142D4BF016002601DE0174D2A6856
:102D0000002A1DDD144C2168FFF7A0FE0028E5DB3A
:102D1000226829681318081A23602860002816D131
:102D20000B4A0C481378C3F3411150F8212022605C
:102D3000FFF78AFF0028D1D0BDE83840FFF76CBF0D
:102D40000A46BDE83840FFF781BE8028F4D038BD80
:102D50005417001044170010601700105C17001083
:102D600064170010034B43F82010034941F820205A
:102D7000704700BF3417001044170010014B186053
:102D8000704700BF6C1700100D49F0B50968050ABF
:102D9000C6B20024087890B14F78AF420DD1B4424A
:102DA0000AD11960022D05BFC8788B780B7843EAE9
:102DB000002313600120F0BD01340918EAE7F0BDDB
:102DC0006C1700104D4B2DE9F0411B6804460D4671
:102DD00017464BB9267806F01F06012E54D007D3AC
:102DE000022E40F0848062E098470028F2D081E013
:102DF00060783B6809287AD8DFE800F005797979AE
:102E000079090D79151C00201870587046E0A078DB
:102E1000FFF7BCFD6EE06088A1882A463B46BDE80E
:102E2000F041FFF7B1BF364A0120117819702860D0
:102E3000BDE8F081A6780EB930461FE0314DFF277E
:102E40002D68B8462978C1B16A78042A06D0052AC7
:102E500006D0022A0ED195F805800BE0EF7809E044
:102E6000B04507D137B969792B79A87843EA0121B0
:102E7000FFF73EFD28782D18E4E70120FFF71CFE40
:102E800062881F490A7035E06378386823B10A2BDD
:102E900006D00B2B2BD106E003704370022204E016
:102EA0000021017016E062880ABB2A6022E0D7F890
:102EB00000806778012F0FD002D3032F17D10FE0C6
:102EC0002079FFF773FD0022C0F3400188F800105D
:102ED00088F801202E600DE0618841B9207903E077
:102EE000608820B920790121FFF778FD02E00020F9
:102EF000BDE8F0810120BDE8F08100BF6817001037
:102F0000701700106C170010014B1860704700BF5D
:102F1000681700107047000010B50E4CFFF736FE22
:102F20000D48FFF725FD00202146FFF701FD802019
:102F30002146FFF7FDFC00204021FFF7D9FC80204F
:102F40004021FFF7D5FC00200449054AFFF70AFF9E
:102F5000012010BD9D2C0000152F0000C52D000084
:102F60007117001038B50E4D0E4B0024E81A85106D
:102F7000AC4205D00B4951F8242090470134F7E7C3
:102F8000FDF7CEF80849094A541AA5100024AC42AE
:102F900005D0054B53F8240080470134F7E738BDCE
:102FA0006C3300006C3300006C3300006C330000A5
:102FB00010B50023934203D0CC5CC4540133F9E72D
:102FC00010BD034613F8012B002AFBD1181A013853
:102FD0007047000001180009001201140007000FDB
:102FE0000116011500060005001000155B42534C48
:102FF0005F53595345585D20657870656374656407
:103000002025642C20676F74202564206279746504
:103010007320287265747279290A0065726173657C
:10302000206661696C656420666F72203078253097
:1030300038783A20636F64652025640A00777269E6
:1030400074655F64617461206661696C65642066A3
:103050006F72203078253038783A20636F646520AD
:1030600025640A00FF0F0000FF1F0000FF2F000073
:10307000FF3F0000FF4F0000FF5F0000FF6F0000F8
:10308000FF7F0000FF8F0000FF9F0000FFAF0000E8
:10309000FFBF0000FFCF0000FFDF0000FFEF0000D8
:1030A000FFFF0000FF7F0100FFFF0100FF7F020024
:1030B000FFFF0200FF7F0300FFFF0300FF7F04000C
:1030C000FFFF0400FF7F0500FFFF0500FF7F0600F4
:1030D000FFFF0600FF7F0700FFFF07000000000062
:1030E0000010000000200000003000000040000040
:1030F0000050000000600000007000000080000030
:103100000090000000A0000000B0000000C000001F
:1031100000D0000000E0000000F00000000001000E
:103120000080010000000200008002000000030097
:10313000008003000000040000800400000005007F
:103140000080050000000600008006000000070067
:103150000080070020000000691500002100000029
:1031600069150000000000000000000000000203DC
:103170000301020303030303020203012845525221
:103180004F523A20737472696E6720706173736571
:103190006420746F204D494F5333325F4D49444989
:1031A0005F53656E6444656275674D6573736167EF
:1031B000652829206973206C6F6E676572207468BA
:1031C000616E20313030206368617273210A005BC8
:1031D0004D494F5333325F4D4944495F52656365F2
:1031E0006976655F48616E646C65725D2054696DD7
:1031F000656F7574206F6E20706F72742030782543
:103200003032780A00202530325800202020002556
:1032100030385820004D494F533332004D4248500A
:103220005F434F52455F4C50433137004C50433160
:103230003778780025303878003F002564004D4904
:103240004F53333220426F6F746C6F61646572004C
:10325000286329203230313420542E204B6C6F7378
:1032600065005B4D494F5333325F4D4944495F53CD
:10327000595345585F436D645F44656275675D20CF
:10328000636F6D6D616E642068616E646C65722041
:103290006E6F7420696D706C656D656E7465642009
:1032A0006279206170706C69636174696F6E0A0085
:1032B0000101020100000000000000000000000009
:1032C0000202020201010200F000007E32FEFF0055
:1032D0006D696469626F782E6F7267001201000277
:1032E00000000040C016FE03101001020301090295
:1032F00065000201008032090400000001010002A3
:10330000092401000109000101090401000201036F
:103310000002072401000141000624020101000609
:10332000240202020009240301030102010009240E
:10333000030204010101000905020240000000002F
:103340000525010101090581024000000000052555
:10335000010103000000014000C0094000C000401E
:1033600000800940286E756C6C2900000000000088
:103370001010FF0000C20100000008000000000063
:10338000000000000000000000000000000000003D
:10339000000000000000000000000000000000002D
:1033A000000000000000000000000000000000001D
:1033B000000000000000000000000000000000000D
:1040000000800010E55C0000E15C0000415300000E
:10401000E15C0000E15C0000E15C000000000000E9
:10402000000000000000000000000000415A0000F5
:10403000E15C000000000000A15A0000E55A000009
:10404000E15C0000C5870000D9870000F18700000F
:10405000E15C0000E15C0000AD910000E15C00006B
:1040600011920000E15C0000919300009D9300001C
:10407000E15C0000E15C0000E15C0000E15C00004C
:10408000E15C0000E15C0000E15C0000E15C00003C
:10409000E15C0000E15C0000E15C0000E15C00002C
:1040A000218A0000E15C000071790000E15C000001
:1040B000E15C0000E15C0000E15C0000E15C00000C
:0C40C000E15C0000E15C0000E15C00003D
:1040D0002DE9F8430024264E002002F0E7F972781B
:1040E000B578DFF894805543DFF89090AC420BD15F
:1040F0000024204FDFF88880AC421ED1002002F05F
:1041000083F90020BDE8F883671C3946404602F079
:1041100027FCE0B202F078F9002002F0C7F900288D
:1041200009DA71784846B4FBF1F201FB1241013221
:10413000013102F015FC3C46D8E7E0B202F064F928
:104140000021084602F066F971783846B4FBF1F2B6
:1041500001FB12410132013102F00EFA012100206F
:1041600002F058F9404602F007FA0134C4E700BFF4
:104170001A09001015B30000DBB20000EFB2000016
:1041800020B3000013B5044630B1002201A906F0A7
:10419000F3FE019BA34201D14FF0FF3002B010BDEE
:1041A0004FF4007238B5534B1A8001229A701022D6
:1041B0009A800222DA804FF47F521278422A13D179
:1041C00043F6C17212781A7043F6C27212785A70AE
:1041D00043F6C37212789A7043F6C47212789A80CA
:1041E00043F6C5721278DA800022434B1A7043F608
:1041F000D2721278422A05D143F6D372127815068C
:1042000058BF1A7000223D4B1A7043F6D4721278D0
:10421000422A05D143F6D5721278140658BF1A7097
:104220000022374B1A7043F6D6721278422A05D113
:1042300043F6D7721278100658BF1A700022314B1D
:104240001A7043F6D8721278422A05D143F6D97211
:104250001278110658BF1A7000232B4C237043F6B6
:10426000D0731B78422B05D143F6D1731B781A0605
:1042700058BF237002F028FF237883421BD02020F0
:1042800002F008FC22782148114602F069FB102058
:1042900002F000FC22781D48114602F061FB20204C
:1042A00002F0F8FB1A4802F05BFB102002F0F2FB70
:1042B000174802F055FB207802F0FEFE154A43F63F
:1042C000E0741546234603CBB3F5804F1060516070
:1042D0001C4602F10802F5D1202000210D4B13F8F5
:1042E000012B203A5F2A88BF03F8011C0138F6D160
:1042F000E87738BD04000010020000100E00001026
:10430000010000100F0000100000001027B3000093
:1043100050B300001000001008B5FFF741FF4FF048
:10432000FF3003F08DFF00214FF0FF3003F098FFC6
:10433000044802F0CFFE0023034A1370034A13809F
:1043400008BD00BF6D460000300000108000001066
:1043500038B50546322435B903F096FFC1434FF016
:10436000FF3003F07DFF44F6206004F057FA013C73
:10437000F1D1204638BD000000212DE9F843002589
:10438000084602F047F82F4802F0EAF80121002021
:1043900002F040F82C4802F0E3F8202002F07AFB0B
:1043A0002A4802F0DDFA102002F074FB274802F0E0
:1043B000D7FA2C46264EDFF8A090264FDFF89C80D7
:1043C00003F062FFC1434FF0FF3003F049FF2307C2
:1043D00007D10121092002F01DF82146484602F0CC
:1043E000CBF816F8013B22789A4214D0A4F57C53FE
:1043F000FF2B10D90135092D14DC202002F04AFBD7
:104400002146404602F0ACFA102002F043FB214660
:10441000404602F0A5FA0134B4F5804FD0D12846C9
:10442000BDE8F8830A2DF6D1202002F033FB384690
:1044300002F096FA102002F02DFB384602F090FAB6
:10444000E9E700BF40B2000051B2000062B20000D4
:1044500068C100009DB200007AB2000081B2000085
:104460002DE9F047CAB003F09FFA0026DFF8F88183
:104470000AAC03F009FFC1434FF0FF3003F0F0FE38
:104480004FF48075234606EB080212F8011B013D2C
:1044900003F8011BF9D1A6F57C53FF2B3AD8422330
:1044A00084F8C03084F8D03084F8D23084F8D43026
:1044B00084F8D63084F8D8305E4B5F4A1B78117888
:1044C00084F8D930202384F8C110517884F8C210C0
:1044D000917884F8C3109188D28884F8C41084F845
:1044E000C520564A5649127884F8D120554A127888
:1044F00084F8D320544A127884F8D520534A12788D
:1045000084F8D7200DF2071211F8010B013B02F8D5
:10451000010FF9D14E4B53F8042BB24237D94D4B12
:1045200053F825309E422DD13223DFF82CA1CDE95E
:104530000035DFF8289105A968460295CDF80CA052
:10454000C8473423CDE9025ACDE9003505A96846AC
:10455000059FC847059B002B16DC002FD4BF002702
:1045600001277F423223CDE900353B4B029503936F
:1045700005A93A4B68469847059B002B30DD6FF044
:1045800002072FE00027EDE76FF00107EAE70135AA
:104590001E2DC0D133234FF48072CDE900362E4B4F
:1045A0000294CDE9032305A92C4B68469847059B47
:1045B000002B2EDD5C4203F00BFA202002F06AFA99
:1045C00022463146264802F0CBF9102002F062FA6A
:1045D00022463146224802F0C3F96FF0010015E08F
:1045E000002FD7D003F0F4F9202002F053FA3A4616
:1045F00031461C4802F0B4F9102002F04BFA3A465A
:104600003146184802F0ACF94FF0FF304AB0BDE82F
:10461000F08706F5807603F0DBF903F0C5F9B6F50F
:10462000804F7FF426AF03F0D3F9FFF7B9FD0020E8
:10463000ECE700BF0F0000100400001000000010A5
:1046400010000010020000100E0000100100001009
:1046500068010100E0010100A0860100F11FFF1FB9
:1046600041C100001FC1000068C100002DE9F341F5
:104670000C46054602F01AFD0646284602F00AFAE4
:104680000D2C00F09B800A2C40F0A4829B499C4892
:1046900006F098F900289A4D00F38C8001AA9949F8
:1046A000284606F0EEFB0746002800F08380964976
:1046B00006F0ACFB002856D1944802F051F994481A
:1046C00002F04EF9934B9448197802F049F9934B54
:1046D0009348197802F044F9924B9348197802F004
:1046E0003FF9924B9248197802F03AF9914B92486F
:1046F0001A78924C114602F033F99148914902F030
:104700002FF92778384601F043FE50B3207801F0A6
:104710003FFE024639468C4802F022F961788B4808
:1047200002F01EF9A1788A4802F01AF9A188894896
:1047300002F016F9E188884802F012F9874802F081
:104740000FF96E4806F036F9854802F009F98548F8
:1047500002F006F9844802F003F9844802F000F9F7
:1047600028E0834AD6E78349384606F04FFB0446E3
:10477000C8B9814802F0F4F8DFF87482E7B238462D
:1047800001F006FE38B1384601F002FE214602462D
:10479000404602F0E5F80134FF2CEFD1774802F0F3
:1047A000DFF87748DAE77749384606F02FFB60B93B
:1047B00002F02EFF0023744A2B701380304602F063
:1047C00069F9002002B0BDE8F0817049384606F072
:1047D0001DFB044678B96E4FFFF742FE002804F136
:1047E000010480F204822146384602F0B9F8052C13
:1047F000F2D1684807E06849384606F007FB38B947
:10480000FFF7CEFC654802F0ABF8FFF761FCD1E79B
:104810006349384606F0FAFA002840F0D98101AA27
:10482000384906F02EFB0446002800F0CF815D4990
:1048300006F0ECFA88B901AA324906F022FB08B961
:1048400059488BE7FFF79EFC0128F9D8314B1870C7
:1048500008B1564882E7564880E75649204606F098
:10486000D5FA88B901AA274906F00BFB08B95248C6
:1048700074E7FFF787FC0128F9D8284B187008B1B6
:104880004E486BE74E4869E74E49204606F0BEFAAF
:10489000D0B901AA1B4906F0F4FA08B94A485DE705
:1048A000FFF770FC0128F9D8204B187020B1474859
:1048B00002F056F8464851E7464802F051F846489B
:1048C00002F04EF8454849E74549204606F09EFA71
:1048D000002840F08F8001AA0A4906F0D2FA08B9F0
:1048E00040483BE7FFF74EFC0128F9D80D4B187004
:1048F00008B13D4832E73D4830E700BF616900003C
:104900003000001096B3000099B300009EB3000081
:10491000BBB3000002000010DDB300000E00001069
:104920003FB400000F0000109EB400000100001012
:10493000F1B40000000000104AB5000004000010AF
:10494000A6B5000010000010E7B500002BB600006F
:104950007DB60000CFB6000014B700005AB70000C3
:1049600090B70000E8B700002AB800005DB800006A
:104970008EB3000082B800008CB80000B2B800000E
:10498000E9B800004BB90000800000107CB90000BD
:1049900051B90000ECC000007AB9000082B90000F3
:1049A0004DB900009EB90000A7B90000C2B90000CF
:1049B000E2B9000003BA00000EBA00002BBA0000F2
:1049C0005FBA000094BA0000A7BA0000CCBA000099
:1049D000FCBA000045BB000076BB0000D3BB000062
:1049E00027BC000030BC00004BBC000092BC0000A3
:1049F000A6B800007F49204606F008FA20B17E499B
:104A0000204606F003FAB8B901AA7C49002006F056
:104A100038FA08B97A48A1E6FFF7B4FB7F280246C6
:104A2000F8D8784B01461870774801F099FF77481D
:104A300001F096FF764891E67649204606F0E6F9C1
:104A4000002833D101AA6D4906F01BFA8046C8B18F
:104A5000FFF798FB041E0EDA002702E00137FF2F54
:104A600009D0F8B201F094FC0146404606F0B2F9D4
:104A70000028F3D13C46FF2C07D9674801F070FFAE
:104A800066486BE64FF0FF34E6E7654FE0B23870FA
:104A900001F07EFC40B1387801F07AFC02462146F4
:104AA000604801F05DFF85E65F4AF8E75F49204610
:104AB00006F0ACF990B901AA504906F0E2F908B93C
:104AC0005B484BE6FFF75EFB431EFE2B0146F7D823
:104AD000534B5870574801F043FF6BE65649204648
:104AE00006F094F980B901AA444906F0CAF908B958
:104AF000524833E6FFF746FB431EFE2B0146F7D82C
:104B0000474B98704E48E6E74E49204606F07EF93E
:104B100090B901AA394906F0B4F908B94A481DE626
:104B2000FFF730FB4FF6FE73421E9A420146F5D85E
:104B30003B4B98804548CEE74549204606F066F94C
:104B400090B901AA2D4906F09CF908B9414805E63B
:104B5000FFF718FB4FF6FE73421E9A420146F5D846
:104B60002F4BD8803C48B6E73C49204606F04EF92A
:104B700048B13B49204606F049F920B13949204661
:104B800006F044F9F8B9019C204606F049F91F28BF
:104B900002D91F2134489EE7344B20461A4604F1BF
:104BA000200150F8044B884243F8044BF9D11378A4
:104BB0002BB12E492E4801F0D3FE1448CEE52D48E6
:104BC00001F0CEFEF9E721462B4884E72B48C5E5E6
:104BD0002B48C3E52B490A884E2A3FF6EFAD531CFC
:104BE0009BB20B8028498C540022CA54E6E5274822
:104BF00009E600BFE1BC0000DABC000096B300008B
:104C0000E4BC0000000000101BBD000053BD00000C
:104C10008CBD0000D2BD0000DBBD00001CBE00004A
:104C2000040000104ABE00008EB3000075BE0000F4
:104C30007FBE0000A2BE0000C5BE0000CFBE0000C7
:104C4000F2BE000015BF00001FBF000048BF0000FB
:104C50006BBF000076BF0000A0BF0000C8BF00000F
:104C6000C4BF0000CDBF0000DABF0000100000107C
:104C700008C0000043C0000076C0000093C00000E0
:104C8000B2C0000080000010300000100AC1000017
:104C90002DE9F041FFF71CFA002001F0B5FB2020C0
:104CA00001F0F8FEAD4801F05BFE102001F0F2FECD
:104CB000AA4801F055FE202001F0ECFEA84801F0C2
:104CC0004FFE102001F0E6FEA54801F049FE20202D
:104CD00001F0E0FEA349A44801F042FE102001F0DB
:104CE000D9FEA049A04801F03BFE202001F0D2FEF1
:104CF0009B4801F035FE102001F0CCFE984801F0F1
:104D00002FFE202001F0C6FE944801F029FE10205D
:104D100001F0C0FE914801F023FEFFF72DFB044691
:104D2000002842D1014601F075FB904801F018FCC3
:104D30000121204601F06EFB8D4801F011FC01219C
:104D40004FF0FF3003F08CFA202001F0A3FE8948D9
:104D500001F006FE102001F09DFE864801F000FEE5
:104D6000202001F097FE844801F0FAFD102001F0A8
:104D700091FE814801F0F4FD202001F08BFE7F4878
:104D800001F0EEFD102001F085FE7C4801F0E8FD09
:104D9000202001F07FFE7A4801F0E2FD102001F0B2
:104DA00079FE774801F0DCFDFEE70021084601F0BE
:104DB00031FB744801F0D4FB202001F06BFE7248F7
:104DC00001F0CEFD102001F065FE6F4801F0C8FD36
:104DD0000021084601F01EFB6C4801F0C1FB0121D7
:104DE000002001F017FB6A4801F0BAFB202001F017
:104DF00051FE684801F0B4FD102001F04BFE6548FB
:104E000001F0AEFD0525644FDFF8B481634EFFF776
:104E100027FB00280EDA01304FF0200021D101F0ED
:104E200039FE404601F09CFD102001F033FE404663
:104E300001F096FDFFF7A0FA0446E0B1013D1AD05B
:104E4000C5F10504202001F025FE2146304601F081
:104E500087FD102001F01EFE2146304601F080FD46
:104E6000D5E701F017FE384601F07AFD102001F079
:104E700011FE3846DCE701214FF0FF3003F0F0F976
:104E800094BB2146204601F0C5FA454801F068FB75
:104E90000121204601F0BEFA424801F061FB2020CA
:104EA00001F0F8FD404801F05BFD102001F0F2FD3B
:104EB0003D4801F055FD202001F0ECFD2F4801F0A8
:104EC0004FFD102001F0E6FD2C4801F049FD2020A7
:104ED00001F0E0FD2A4801F043FD102001F0DAFD69
:104EE000274801F03DFDFEE70021084601F092FA57
:104EF0002E4801F035FB0121002001F08BFA2C48EF
:104F000001F02EFB2B4E2C4D2C4C202001F0C2FD2D
:104F1000304601F025FD102001F0BCFD304601F0C7
:104F20001FFD202001F0B6FD284601F019FD1020DC
:104F300001F0B0FD284601F013FD202001F0AAFD8C
:104F4000204601F00DFD102001F0A4FD204601F0E7
:104F500007FD0120FFF7FCF9D7E700BF8002010041
:104F60008CAF0000A2AF0000AEB80000B3AF0000ED
:104F7000C4AF0000D5AF0000EBAF00000AB00000E6
:104F800033B000006CB000007EB00000A0B00000A4
:104F9000B2B00000C4B0000000B100001CB10000BD
:104FA00037B1000049B100005BB100008AB10000D8
:104FB0009DB10000B0B10000CBB100001BB20000F9
:104FC000EAB0000008B503F05FF9BDE80840C1434E
:104FD000012003F045B9704770477047704770472C
:104FE0007047704708B501F029F8BDE80840FFF7A1
:104FF000F5BF000073B500F023FB0F4E0F4D104CB2
:105000000190012101A800F01BFC00F019FB019B9D
:10501000421F9A4288BF019003F004FD304600F021
:10502000A9FF284601F05CF9204603F006FC02F0D7
:1050300091F8FFF7C7FFE4E7DF4F0000E14F000002
:10504000E34F000013B500F0FBFA0A4C0190012178
:1050500001A800F0F5FB00F0F3FA019B421F9A4211
:1050600088BF019001F0CAFC204601F087FFFFF7DE
:10507000B2FFECE7D94F000037B5002002F0C8FBC3
:10508000002003F0C1FB002002F0B0FA002003F082
:10509000C5F8002002F05EFF002000F0ADFE002009
:1050A00000F03CFF002000F097FF002000F0A2FF7E
:1050B000002002F097FA002003F0BCFB002002F071
:1050C0008EFA002001F08CFA002003F063FC00202F
:1050D00002F006F8002002F009F8002001F0E6F9DD
:1050E000012001F091F9002005F044F8002001F0C2
:1050F0008BF94FF4FA6405F041FEFFF70DF901F06A
:105100004DFA4FF47A7003F089FB013CF9D1032585
:105110002346019400954FF480720949094800F034
:1051200075F923464FF480720749CDE900540748CA
:1051300000F06CF900F04AFA204603B030BD00BF21
:1051400035030100F54F0000300301004550000019
:1051500008B502F055FAFFF740FFBDE808400148E6
:1051600000F0A0BEE54F0000FFF792BDF8B50024A7
:10517000642542F210760C4F0134B4FBF5F305FBC5
:1051800013430BB901F03AFC384601F0F7FEB4FBCB
:10519000F6F306FB1343002BEED103F075F8C14381
:1051A000012003F05DF8E7E7D94F000008B56FF084
:1051B0007F4001F011FA002001F010FA002001F008
:1051C00023F901F071F90021084601F023F907489D
:1051D00001F0C6F90121002001F01CF9044801F09A
:1051E000BFF9044801F0BCFBFFF7C0FF3B0301001F
:1051F0004C0301005D03010000B5036889B0009312
:105200004368384C019383680293C368039303692E
:1052100004934369059383690693C36932480793EE
:10522000069901F09DFB204601F09AFB2F4801F002
:1052300097FB204601F094FB00992D4801F090FB6C
:1052400001992C4801F08CFB02992B4801F088FB56
:1052500003992A4801F084FB0499294801F080FB56
:105260000599284801F07CFB0699274801F078FB56
:105270000799264801F074FB254B2648196801F070
:105280006FFB254B2548196801F06AFB244B254824
:10529000196801F065FB244B2448196801F060FB94
:1052A000234B2448196801F05BFB6FF07F4001F04D
:1052B00093F9002001F092F9002001F0A5F801F027
:1052C000F3F80021084601F0A5F81B4801F048F961
:1052D0000121002001F09EF80699184801F04CF9D0
:1052E000FFF744FF8EAF0000580201006E0201007C
:1052F000820201008D02010098020100A302010058
:10530000AE020100BA02010063020100C502010001
:1053100038ED00E0D102010028ED00E0DE020100DE
:105320002CED00E0EB02010030ED00E0F80201009E
:105330003CED00E00503010012030100230301001E
:105340001EF0040F0CBFEFF30880EFF30980FFF7A6
:1053500053BF70470022F8B51C4E1D4B05461C6814
:105360003368306883F84C2004300F4600F02BFB84
:10537000334640B901203168164EC96A3268884008
:1053800022EA000232606A1C07D137B1196812485C
:105390000431BDE8F84000F0F3BA1A6864195460AB
:1053A00007D30E4A10681968BDE8F840043100F0D0
:1053B000F3BA0B4A10681968043100F0EDFA094B92
:1053C0001A68A24288BF1C60F8BD00BF84000010AC
:1053D0008001001008010010580100108C0000101E
:1053E0008800001038010010064A13681968064B3F
:1053F00019B94FF0FF321A6070471268D268D2684C
:105400005268F8E788000010380100102DE9F84FC5
:105410009600814630460D469A4600F0C1FB07468D
:10542000002800F0A180502000F0BAFB04460028BC
:1054300000F0978007633246A521384605F0C2FC8C
:10544000D4F830B06B1E04F134020F3513F8011F8D
:1054500002F8011B09B19D42F8D10A9D4FF00008E6
:10546000042D28BF0425271DE562C4E911583846DC
:1054700084F84380043E00F080FAC5F1050504F18C
:1054800018005E4400F079FA2461A561646284F832
:105490004C805246494626F0070000F0BDFA0B9BAF
:1054A000206003B11C6000F0DDFA364B364E1A68FE
:1054B000DFF8108101321A603268002A57D1346057
:1054C0001B68012B25D1314800F04CFA304800F020
:1054D00049FA304800F046FADFF8EC902E4800F028
:1054E00041FA2E4D2E4800F03DFA484600F03AFAB7
:1054F000284600F037FA2B4800F034FA2A4800F02A
:1055000031FA2A4800F02EFA294BC3F80090294BB3
:105510001D600125284A2949136808680133136072
:10552000E26A05FA02F3034314200B60174B394675
:1055300000FB023000F024FA00F0A4FAD8F80030A2
:1055400063B13368DA6AE36A9A4207D24FF0805255
:105550001B4B1A60BFF34F8FBFF36F8F2846BDE818
:10556000F88F384600F096FB4FF0FF35F6E7D8F895
:105570000030002BCDD13368E26ADB6A9A4228BF43
:105580003460C6E7F40000108400001090000010A2
:10559000A4000010B8000010CC0000102001001082
:1055A000E0000010400100106C01001058010010D4
:1055B000880000108C000010040100100801001089
:1055C00004ED00E0540100100C01001013B500249C
:1055D000114B009401934FF4807223460F491048F9
:1055E000FFF714FF012814D14FF0BF0383F3118894
:1055F000BFF36F8FBFF34F8F4FF0FF32094B1A602D
:10560000094B1860094B1C6002B0BDE8104000F067
:105610008BBA02B010BD00BF340100107E03010040
:105620008D58000038010010540100108001001056
:10563000024A136801331360704700BF0001001075
:10564000014B1868704700BF800100102DE9F84F2A
:105650003A4B1B68002B67D1394B1C6801341C6026
:105660005CB9384A384B116818681060374A1960BD
:10567000136801331360FFF7B7FE354D4FF0000B91
:105680002B68344FA34216D93A68334BD16A14229F
:105690004A439A58022A314A28BF4FF0010B126838
:1056A0000AB9FFF755FD2E4A1268002A0CBF58466A
:1056B0000120BDE8F88FDFF88CA0DFF8A890DAF8B9
:1056C000002012681AB94FF0FF322A60DCE7DAF8DE
:1056D0000020D268D66871688C4201D22960D3E775
:1056E00006F10408404600F06EF9B16A19B106F1FE
:1056F000180000F068F901224FF0140CF06AD9F894
:10570000003002FA00F11943134BC9F800100CFBEA
:105710000030414600F034F93868F16AC26A9142BB
:1057200028BF4FF0010BCAE70C4A4FF0000B13687B
:1057300001331360FFF70CFDB5E700BF0001001057
:1057400080010010880000108C0000103C01001047
:10575000380100108400001090000010FC000010C0
:1057600084010010080100102DE9F84300F07AF9D7
:105770002A4B1A68013A1A601C682CB1002400F008
:1057800081F92046BDE8F883254B1B68002BF5D036
:10579000244D254EDFF8A4801FE0EB680127DC686C
:1057A00004F1040904F1180000F00DF9484600F076
:1057B0000AF91420E26A316807FA02F30B4300FB8E
:1057C00002804946336000F0DBF8184BE26A1B6840
:1057D000DB6A9A4201D3164B1F602B68002BDCD189
:1057E0000CB1FFF701FE134D2C6844B10127104E98
:1057F000FFF72CFF00B13760013CF9D12C600C4B56
:105800001B68002BBAD04FF080520B4B1A60BFF3CD
:105810004F8FBFF36F8F0124B1E700BF000100106D
:10582000F400001040010010080100108400001076
:1058300084010010FC00001004ED00E09000001056
:1058400010B5FFF7F5FE0F4B04681A6863182CBFFC
:1058500001210021944203600CD961B9FFF784FF54
:1058600038B94FF08052084B1A60BFF34F8FBFF327
:105870006F8F10BD09B99A42F0D20021981AFFF734
:1058800069FDEBE78001001004ED00E008B5184E5B
:10589000184C236873B9184B1B68012B07D94FF0BC
:1058A0008052164B1A60BFF34F8FBFF36F8FFFF715
:1058B0005BFCEDE7FFF7BCFE3568FFF755FF002DF9
:1058C000E7D000F0CFF8F368DD68281D00F07BF822
:1058D0000B4A1368013B13602368013B236000F00F
:1058E000D1F8286B00F0D6F9284600F0D3F9D0E7BC
:1058F0006C010010F80000109000001004ED00E0B2
:10590000F4000010124B30B51A68124B12B101228C
:105910001A6030BD1A60104B1B68B3FA83F3142071
:10592000DBB2C3F11F0300FB03F20C498C1865685E
:1059300008326D680A44954200FB031308BF6A6889
:10594000656008BF62605B68DA68054BE0E700BF2E
:1059500000010010840100100801001090000010E8
:10596000840000104FF0FF3200F108034360C0E9EB
:105970000223036100230360704700230361704723
:1059800043689A684B608A609A68516099600368BE
:1059900008610133036070470A6830B5531C0AD1AF
:1059A00003695A684A6091608B60596003680861B6
:1059B0000133036030BD00F108035C68256895423F
:1059C000EFD82346F9E70369D0E901128A605160F4
:1059D0005968814208BF5A60002202611868013884
:1059E000186070474FF0BF0383F31188BFF36F8FC8
:1059F000BFF34F8FFEE7000006480068006880F3A1
:105A0000088862B661B6BFF34F8FBFF36F8F00DFB8
:105A100000BF000008ED00E04FF0807340F8043C48
:105A2000054B21F0010140F8081C40F80C3C40F8FF
:105A3000202C4038704700BFE559000000000000EE
:105A4000074B19680868B0E8F00F80F30988BFF3C6
:105A50006F8F4FF0000080F311884EF00D0E7047ED
:105A6000840000104FF0BF0383F31188BFF36F8FE2
:105A7000BFF34F8F024A136801331360704700BFB2
:105A800000C00720034A1368013B13600BB983F37E
:105A90001188704700C007200000000000000000CF
:105AA000EFF30980BFF36F8F0D4B1A6820E9F00FF9
:105AB00010602DE908404FF0BF0080F31188FFF718
:105AC00021FF4FF0000080F31188BDE808401968FD
:105AD0000868B0E8F00F80F30988BFF36F8F704754
:105AE0008400001008B54FF0BF0383F31188BFF3A3
:105AF0006F8FBFF34F8FFFF7A9FD18B14FF08052A2
:105B0000024B1A60002383F3118808BD04ED00E006
:105B1000034B044A1A60072243F8042C704700BF65
:105B200014E000E09F86010008B5094B1A6842F4B2
:105B30007F021A601A6842F07F421A60FFF7E8FF9E
:105B40000022044B1A60FFF757FFFFF74BFF00BF1F
:105B500020ED00E000C0072010B50F4B1A6882420C
:105B600018D35C681919884201BF416818460919A1
:105B70005960446801198A4207D1084909688A4274
:105B80001FBF51681268091941609842026018BF2E
:105B9000186010BD1346E1E798010010880100105D
:105BA0002DE9F041344E0446FFF742FD3368334897
:105BB000D3B90023324A510718BF0732314918BF01
:105BC00022F007020A604B602F4921F00701C1E96A
:105BD00000338B1AC2E900132C4A316013602C4A3F
:105BE00013604FF0004303600768274205D0FFF7BA
:105BF000BBFDFFF7DBFA002637E0002CF7D004F1FD
:105C000008035A071CBF23F007030833002BEED00C
:105C10001F4A156890469D42E9D31A4A1468606885
:105C2000984201D2216819BB3168A142DFD02168B6
:105C300016681160C21A102A06F1080604D9E01885
:105C400042606360FFF788FF0023104962680868BC
:105C5000AD1A174385426760236038BF0D60C8F8EE
:105C60000050FFF781FD002EC3D03046BDE8F08123
:105C700022460C46D3E700BF880100108C010010BB
:105C800080C007209801001078E8072094010010D8
:105C90009001001010B50446E0B10F4A50F8043CE2
:105CA0001268134216D050F8081C99B923EA02036F
:105CB00040F8043CFFF7BCFC084A54F8043C116867
:105CC000A4F108000B441360FFF746FFBDE8104045
:105CD000FFF74ABD10BD00BF8C01001090010010FD
:105CE000FEE70000684620F007018D4601B50E4B27
:105CF0000E4A0F498B420CD300210E4B0E4A9342A1
:105D00000CD300210D4B0E4A93420AD3FFF7B4F98E
:105D1000FEE752F8040B43F8040BEBE743F8041BCF
:105D2000EDE743F8041BEFE700C007203010010047
:105D300080C00720000000103809001080C0072034
:105D400080E9072070470000F8B500220124224BAB
:105D5000114620461C7001F0C5FF21460022204656
:105D600001F0C0FF22460021204601F0BBFF224681
:105D70002146204601F0B6FF0023184C184827782A
:105D8000184D194E9F4213DC184B1B6803B19847FE
:105D9000174B1B885BB1174A138843B1013B138033
:105DA00000231D46247810490D489C420DDCF8BDA7
:105DB000C15C15F803C0F25C81EA0C010A43F2549D
:105DC000EA5CD2B2C2540133DCE7CE5CC25C724002
:105DD000C254CD540133E8E7AC010010A401001017
:105DE00002060010F2050010D2050010A8010010F4
:105DF000A2010010A001001070B568BB1022184B62
:105E0000184E1860184B194D1A700346FF22184C93
:105E1000184933542A5422540B5401301028F8D115
:105E2000154A00211380154A13800122104601F003
:105E300059FF01221146104601F054FF02210120B2
:105E400001F0FEFD06220321012001F0B3FF012233
:105E500000200B4B1A7070BD4FF0FF30FBE700BF06
:105E6000A8010010E2050010A401001002060010B5
:105E7000F2050010D2050010A2010010A0010010D0
:105E8000AC010010014B1878704700BFA40100104E
:105E9000024B00201A88024B1A807047A2010010A2
:105EA000A001001037B5174D2B782BB3164B1A787D
:105EB0002AB300241C70154B22461860214601208D
:105EC00001F010FF01212246084601F00BFF0122DC
:105ED0002146104601F006FF01221146104601F04E
:105EE00001FF0B4B0B4A00930B492B78012002F06A
:105EF00073F8204603B030BD4FF0FF30FAE76FF083
:105F00000100F7E7A4010010AC010010A801001087
:105F1000495D0000F2050010E205001010B550B90F
:105F2000FF2402460549064B0C541A540130102830
:105F3000FAD1002010BD4FF0FF30FBE70206001041
:105F4000D205001070B505460E46FFF79BFFA8422C
:105F50000CD901F029FD064B5C5D595D344021EA06
:105F60000601595501F034FD204670BD0024FBE7C1
:105F7000D20500102DE9F0470646FFF783FF0746DC
:105F800020B31EB30024DFF84C90FF212046FFF71A
:105F9000D9FF804628B90134A742F6DC0020BDE8CD
:105FA000F08700254FEAC40A48FA05F3DB0709D554
:105FB00019F8041005EB0A00294101F00101B0476E
:105FC000FFF766FF0135082DEED1E4E74FF0FF3013
:105FD000E5E700BF0206001038B90246044B1A5428
:105FE00001301028FBD1002070474FF0FF30704780
:105FF000E205001070B5B8B906460D4D0D4A0E4CBD
:1060000052F8303005F8206003F0E00343F00F034E
:1060100002EBC00142F830308B8801302340402829
:106020008B80EDD1002070BD4FF0FF30FBE700BF4B
:10603000180600101807001000F0FFFF2DE9F74FB9
:10604000DFF8988200264746A04C18F82630002B2F
:1060500000F09B80F500621993780BB1013B9370BF
:106060009B4B4FEA860913F82630ABB314F8360081
:1060700003F1FF3B07EB090393F801A0034603215B
:1060800060F383034FEA5A1A04F83630914B5FFAF3
:106090008BFB0AF00602914013F80B30C9B20B4299
:1060A0001AD058460192FFF74DFFA8B18A4B019ACA
:1060B00013F80B301AF0010F43FA02F303F0030355
:1060C0001EBF5A0002F0020242EA530314F83620BF
:1060D00063F3010204F8362014F83610C1F381028C
:1060E00001F003039A4250D001F00F02012A17F881
:1060F000263052D113F0100F47D0C90603D46219CD
:106100009278E02A41D8FF2B09D1631914F8362080
:10611000DB7802F00F0203F00F039A4235D014F837
:106120003630621943F0100304F836301379917851
:10613000B944C91A1429C4BF1433937099F80130B3
:1061400013F0030238D0022A49D161198A78C3F3C7
:10615000820302F0C002C3F1070332FA03F308BF5F
:10616000012391F90120D31A6FF045029342B8BF81
:1061700013464B702544AB782B71FF23AB7014F89A
:106180003620EB7862F30303EB700136402E7FF488
:106190005CAF002003B0BDE8F08F072A02D113F0F6
:1061A000200FA9E70E2A02D113F0400FA4E7082A16
:1061B0001AD113F0800F9FE761194A79C3F3820364
:1061C00002F00F020133D31A42BF4A7802F1FF32C4
:1061D0004A706219517963F303015171CAE7621978
:1061E0005378013B5370C5E7022A47D113F0010FE2
:1061F000CBD0CA0603D562199278E02AC5D8FF2B06
:1062000008D114F836306219D27803F00F03B3EBDB
:10621000121FBAD014F8363062196FF3041304F861
:10622000363013799178B944C91A1429C4BF14338C
:10623000937099F8013013F003022FD0022A40D155
:1062400061198A78C3F3820302F0C002C3F1070325
:1062500032FA03F308BF012391F901201344462BBE
:10626000A8BF46234B702544AB782B71FF23AB703E
:1062700014F83620EB7862F3071385E70B2A02D176
:1062800013F0020FB4E70D2A02D113F0040FAFE7A9
:10629000042A7FF47AAF13F0080FA9E76219517945
:1062A000C3F3820301F00F0101330B440F2BC2BF74
:1062B0005178013151706219517963F303015171C1
:1062C000D1E76219537801335370CCE718070010F7
:1062D0001A060010D2050010020600101806001061
:1062E0002DE9F0410546C8B10024A0460D4F01F04C
:1062F0005BFB07EBC40393F9016066B183F801808F
:1063000001F066FB31462046A8470134402CEED10F
:106310000020BDE8F08101F05BFBF6E74FF0FF30B5
:10632000F7E700BF18070010134A144B11681960F3
:106330005168128959601A814FF47F521278422AAB
:1063400017D143F6C17212781A7043F6C2721278EE
:106350005A7043F6C37212789A7043F6C472127878
:10636000FF2A08BF4FF480729A8043F6C5721278F4
:10637000DA800020704700BF100401001A090010E5
:10638000024B93F90000C00F704700BF1A090010BC
:10639000812817D009D8012816D0B8B1022817D003
:1063A00080280F4818BF00207047842812D004D8D6
:1063B000822811D083280B48F4E785280ED0862840
:1063C0000948EFE70948704709487047094870478E
:1063D000094870470948704709487047094870479D
:1063E00094030100BE030100E9030100A0030100C2
:1063F000F6030100870301008C030100C7030100BD
:10640000AC030100D4030100014B18700020704759
:10641000BC0100100A4B10B40A4A18800A4B1980BC
:10642000938853B19279DBB24343084C4A432380AB
:10643000074B10BC1A8004F03BBA08220623F3E78E
:1064400024090010B00100102A0900102C090010C6
:1064500018090010024B1880024B198004F0C0B9D3
:106460002C09001018090010054A431E033013F8C8
:10647000011F834202F8011BF9D10020704700BFC1
:10648000260900108278074B043202441A60027811
:106490009A804278DA80C27800201A8101229A72AA
:1064A000704700BFB001001004F0FEB813B50446F9
:1064B000F8B9FFF739FF104B9C80104B186801901A
:1064C00001A8FFF7D1FF4CF2503002F0A7F92046A7
:1064D00003F050FE00280ADBFFF7E6FF21462046C6
:1064E000FFF798FF21462046FFF7B4FF204602B091
:1064F00010BD4FF0FF30FAE7B00100108303010038
:1065000030B5144B85B093F900300546002B1DDAE9
:10651000114CA3881BB94FF0FF3005B030BD01AB63
:1065200094E8070083E80700E288D10822894A43FB
:1065300005FB0200019093E8070004F0E5F900284C
:10654000A1BF064A138801331380E6E703F09EFFDC
:10655000F5E700BF1A090010B0010010240900106F
:1065600038B50024451E15F8010F08B9204638BD7E
:10657000FFF7C6FF0443F6E70FB400B593B014AAC3
:1065800052F8041B02A8019203F03BF802A8FFF79F
:10659000E7FF13B05DF804EB04B0704738B5002591
:1065A0000A4B294628461D70FFF734FF0446084869
:1065B000FFF7D6FF012104432846FFF72BFF0443D2
:1065C0000448FFF7CDFF204338BD00BFBC010010D9
:1065D000A2AF0000FF03010004F090B904F091B9EC
:1065E00038B50546002846D11023244A1370244AA2
:1065F0001370244B1860244B1860244B1860244BF4
:106600001860244B1860244B186002F0DFFAC40FA6
:10661000284600F01FFE00284FF00000B8BF44F0ED
:10662000020400F0D4FF00284FF00000B8BF44F08F
:10663000040400F0C1FF0023184A00281370184A10
:10664000B8BF44F008041370164A137043F6D073B1
:106650001B78422B05D143F6D1731B78190658BF1E
:1066600013700022002000210F4B1A800F4BC3E94A
:106670000001604238BD4FF0FF30FBE706C0072045
:1066800004C00720C4010010C8010010D40100108C
:10669000F0010010C0010010CC010010D00100106A
:1066A000DC010010D9010010E4010010E801001025
:1066B00010F0F00FF8B504460D4604D101280CBFC8
:1066C0001E4B1F4B1C781F4B04F00F071B68FEB2BC
:1066D000A3B904F0F004202C1FD004D8102C15D03E
:1066E0004FF0FF30F8BD302C1FD0502CF8D166F39E
:1066F00007152846BDE8F84000F063BF66F30715AC
:106700002946204698470028E3D0EBE766F30715B3
:106710002846BDE8F84002F0BFBA66F307152946DF
