:020000040800F2
:10000000005000208D010008890100080000000058
:10001000890100088901000889010008000000002A
:10002000000000000000000000000000890100083E
:10003000890100080000000089010008890100080A
:100040008901000889010008890100088901000868
:100050008901000889010008890100088901000858
:100060008901000889010008890100088901000848
:100070008901000889010008890100088901000838
:100080008901000889010008890100088901000828
:100090008901000889010008890100088901000818
:1000A0008901000889010008890100088901000808
:1000B00089010008890100088901000889010008F8
:1000C00089010008890100088901000889010008E8
:1000D00089010008890100088901000889010008D8
:1000E00089010008890100088901000889010008C8
:1000F00089010008890100088901000889010008B8
:1001000089010008890100088901000889010008A7
:100110008901000889010008890100088901000897
:100120008901000889010008890100088901000887
:100130008901000889010008890100088901000877
:10014000890100088901000889010008A11600083A
:100150008901000889010008890100088901000857
:100160008901000889010008890100088901000847
:100170008901000889010008890100088901000837
:100180008901000889010008FEE70000684620F0A8
:1001900007018D4601B500230A4A0B499818884289
:1001A00004D20A49585898500433F5E7084B094AD5
:1001B000934203D2002043F8040BF8E700F00CF858
:1001C000FEE700BF0000002040000020183A0008B1
:1001D00040000020F02000202DE9F743002000F02F
:1001E00067FF002001F00EF9012001F0A3F8684636
:1001F00001F081FE002401238DF805408DF80430C4
:100200008DF80640B5490A196058958802AE0583F5
:100210006946083446F8085D01F020FE182CF1D13B
:100220000027AF4CE31938599A8802A9028341F894
:10023000082D0837694601F011FE302FF1D1002654
:10024000A84DAF197059BC8802AB44836946083683
:1002500043F8084D01F002FE182EF1D1A24D0826F8
:10026000284669460096802401F0F8FD2E839F4DB4
:10027000DFF87C8208264FF020094FF40057A8F8D9
:100280001A9001206F836E8301F0DEF8A8F81890B1
:1002900001202F832E8301F0D7F8013CE7D12046BF
:1002A0008F4A131881589D88083030284D83F7D124
:1002B000012001F0C9F80027894EF019BC59828845
:1002C0000837302F2283F7D1012001F0BDF8002537
:1002D00001218DF804508DF80710804B5F1902AC96
:1002E000BE88E85844F8086D6946083501F0B6FD47
:1002F000182DF2D100257A48421902A9938828586E
:1003000041F8083D0835694601F0A8FD302DF2D1CD
:100310000027744EF41902A8A588694640F8085DC4
:10032000B859083701F09AFD182FF2D1704F6420A8
:1003300001F028F83A6902F0010501F0C0F9C6B2EF
:1003400016B93B69D9070BD53DB18020012101F0D9
:100350002FFE8020002101F02BFE002001F0B6F9D5
:10036000002000F02FFB002000F024F9B6B960490E
:100370000C69E20770D45F480778422F6CD15E4A5F
:100380001678002E68D001F0DDFC0120002100F07D
:10039000E5FF5A4BDF78082F46D103E0102000F02C
:1003A000DDFA59E06FF00700012101F0F5FD6FF073
:1003B0008000012101F0FCFD4FF0FF30012101F030
:1003C00003FE4FF0FF30012101F00AFE4FF0FF3035
:1003D000002101F0E1FD4FF0FF30002101F0E8FDC8
:1003E0004FF0FF30002101F0EFFD4FF0FF30002112
:1003F00001F0F6FD45B18020012101F0D9FD8020FA
:10040000002101F0D5FD08E001F059F928B13C4880
:10041000D0F8E4550DB102F011FB3A4E346884F384
:10042000088836490A68904700F0D4FF0120014649
:1004300000F094FF00F0D8FF40F2F31398421F46FB
:10044000F8D900F0C7FF0120002100F087FF00F07D
:10045000CBFFB842FBD9E7E700F0BCFF00F0C4FFD8
:100460003227B0FBF7F364210446B3FBF1F001FB44
:10047000103242F21073B4FBF3F1560841F28830A7
:1004800003FB11428242B4FBF7F307FB134188BF21
:10049000C6EB07060120B14294BF002101210A27C3
:1004A00000F05CFFB4FBF7F607FB16440CB900F054
:1004B000AFFD002000F040FD00F096FF44F61F6104
:1004C0008842CBD900F080F80028C7D1002D3FF436
:1004D0005AAF074A1069C307C0D454E74037000831
:1004E0005837000828370008001002400004024076
:1004F00000000240D23F0008D33F0008044000083B
:10050000B415002000400008124B1A78032A10B5D9
:100510000BD811490C6800F07F004FEAC41444EA7C
:10052000001008600FD104220EE0072A0FD80B49F3
:100530000C6800F07F004FEAC41444EA0010086021
:1005400001D1082200E001321A70002010BD4FF0E6
:10055000FF3010BD040500204000002050000020A6
:1005600070B5134B88B016461A7804460D468DF8C0
:1005700000209978DA7858781B798DF802108DF878
:1005800003208DF801008DF8043000F089FD8DF80E
:100590000500F7208DF808006946204609228DF8ED
:1005A00006508DF8076000F087FA08B070BD00BFF4
:1005B0008838000810B9034B187070474FF0FF30AF
:1005C000704700BF05050020014B1878704700BF39
:1005D000050500202DE9F04198460C4615460646D3
:1005E00000F052FD00F0F6FEB8F1010F04D0B8F1B2
:1005F000020F40F0A38189E0B14B14B1012C0AD164
:1006000004E01C70AF4BB04A1C6092E019780729D7
:1006100000F2918197E01978082903D030460E2125
:100620000122E5E0A948AA4C02784378817822703B
:10063000C2780079A34FA44D6370A170E27020715D
:100640003F682D6800F02CFD4FEA556E6071780E02
:100650000223E071C7F386417044A3712172C7F38E
:10066000C62341186372C7F3061253FA81F3C5F328
:100670008640A27252FA83F250FA82F1C5F3C62381
:1006800053FA81F22073C5F3061050FA82F16373B6
:100690000023A07384F80BE0C9B21A460F34184641
:1006A000A84221D010F807E04FF0080C01335200A7
:1006B000DBB242EADE12062B4FEA4E0ED2B25FFAEE
:1006C0008EFE0AD9C3F1070302FA03F2D2B251181F
:1006D000002304F8012BC9B21A460CF1FF3C1CF0B0
:1006E000FF0CE3D10130DBE71BB18B1804F8012BC1
:1006F000D9B24A42764902F07F00F723A21C20704B
:1007000063703046521A00F0D7F914E114B1012C8D
:1007100053D110E06A4B6B496B486E4A1C700C60F9
:1007200004606D4B6D496E4814706E4A1C700C600D
:1007300004601460FFE062480178072907D8654922
:1007400008782A180A702846FFF7DEFEF3E0082929
:100750002BD160480278AB18037060480368B3F58A
:10076000806F80F0E880584E5E4F5D4C3668386888
:10077000226807240132C5F380176D00072A47EA73
:100780004000EDB206D9524AD0540133B34228BFDB
:1007900009210022013CEDD1524C206050480260FA
:1007A0004E4A1360464B1970C5E0092902D14A4BE5
:1007B0001D70C0E00C220270BDE0434B47481F682B
:1007C0000168B942FFF42AAF3D4A13780C2B03D1DC
:1007D00030460E2142460BE03E4A3F4813780178EE
:1007E000584200F07F02914205D030460E2103228C
:1007F000FFF7B6FE9FE0334B3B4901240C701C68A9
:1008000044EA0700830740F08C80384A944202D8BB
:100810006FF0070087E000F0DFFC00F100614B1E85
:100820009C426DD801F080FA00230C2159433048D6
:100830000A58944224D12F492F488C4201D10022DA
:1008400002600121006801FA03F1014203D02B4D3F
:100850004FF000082EE041EA000227490A60244ACE
:100860000C2000FB03230221586801F0C1FA08287C
:10087000EDD04FF0FF3001F06DFA6FF0030052E061
:1008800001330C2BD1D1E2E76B7829781A0442EAC4
:10089000012315F8011CAA780B4343EA026101F019
:1008A00089FA04350828E4D101F036FA01F02CFA6F
:1008B00008F10408B84508EB0400E5D342E000BFA6
:1008C0000405002040000020500000208838000867
:1008D000580000204C00002054000020000500209B
:1008E000080500204400002005050020FF3F000807
:1008F0008837000800400008480000205900002008
:10090000B4F1005F84D300F06FFC00F10050421E90
:1009100094423FF67DAF20460E493A4602F0FAFE79
:1009200010E06FF0080043420E213046DAB2FFF7C4
:1009300017FE00F06DFB0020BDE8F0814FF0FF30A6
:10094000BDE8F0810449087842420F21304602F0A8
:100950007F02ECE7580000204C00002010B5114B3E
:1009600088B01A7899788DF800200446DA7858789B
:100970001B798DF802108DF803208DF801008DF899
:10098000043000F08DFBF7218DF8050001208DF873
:1009900006008DF8071020466946082200F08CF802
:1009A00008B010BD8838000808B52020FFF7D6FF32
:1009B0001020FFF7D3FF024B0020187008BD00BFC6
:1009C0000505002010B5044600282CD1174A184907
:1009D000102313700B70174A174B184918601060DA
:1009E0000860174B174A184918601060086000F03B
:1009F0006DFF164B164A1C70164B174914701C706D
:100A00000A78C00F422A04D114490A78110658BF47
:100A10001A70134B00211980124900220023C1E9EA
:100A20000023404210BD4FF0FF3010BD00000020F9
:100A3000010000200C0500201405002038050020CE
:100A40003C05002028050020180500201C0500207A
:100A5000200500201D050020D03F0008D13F0008E0
:100A60001E0500203005002010F0F00F38B50446B8
:100A70000D4604D101280CBF0C4B0D4B1C780D4BBF
:100A80001A6864F3071542B904F0F004102C0AD177
:100A90002846BDE8384000F087BF204629469047E9
:100AA0000028F1D038BD4FF0FF3038BD01000020E4
:100AB000000000200C0500202DE9F04180460E4684
:100AC00017460024BC4235D23B1B022B0DD0032B12
:100AD00019D0012B19D1325D052161F3030562F3B1
:100AE0000F2501346FF317450AE03119305D4A785C
:100AF000062363F3030560F30F2562F31745023401
:100B00006FF31F650FE0072000E0042060F303058A
:100B10003019335D4178827863F30F2561F317450F
:100B200062F31F65033440462946FFF79DFF002806
:100B3000C8DA00E00020BDE8F081000030B5A1B0C7
:100B4000F0238DF80030134B7E2232258DF80320E0
:100B50001A788DF8045000240F258DF801408DF887
:100B600002408DF805208DF8065002AB0D5D5A1E2F
:100B700035B101341A4603F8015C0133642CF5D118
:100B8000F72102F8011B6946521AFFF795FF21B0C1
:100B900030BD00BF1D05002000B589B0F0238DF8E1
:100BA000003000238DF801308DF802307E238DF85F
:100BB000033032238DF80430084B8DF806101B7873
:100BC0008DF80720F7218DF80810092269468DF865
:100BD0000530FFF771FF09B000BD00BF1D05002003
:100BE000F0B5454E8BB0337804460D461746FFF7F7
:100BF000F1FC00287CDA31780D295AD001D829B1CE
:100C000069E00E2974D00F2965D15AE03B4B1DB124
:100C1000012D03D11F706BE01D7069E01878052865
:100C200029D011D8022820D004D801283DD120464F
:100C3000334937E003281BD0042836D100F0C6FA28
:100C400030490246684623E0082826D006D8062800
:100C500019D0072829D100F0C7FA16E009281FD0BB
:100C60007F2822D1FFF7A0FE42E02046264919E066
:100C70002046264916E0684600F0BAFA00282046C9
:100C800009DA23490EE000F0A7FA22490246684635
:100C900001F010F82046694604E020461E4901E0B4
:100CA0001E492046FFF74AFF22E020460E210D2272
:100CB00004E0022D1CD120460E211022FFF76CFF0C
:100CC00016E0174A0DB1012D01D1556010E05268B0
:100CD00072B92046F2E70E210A462046FFF75CFF74
:100CE0000F49054B0A7800206FF307020A7018704D
:100CF00000200BB0F0BD00BF100500204005002013
:100D0000283800084A3800082F3800084038000802
:100D10004F38000851380008543800086638000879
:100D200020050020F72910B50A465AD82E4B19780D
:100D300001F0080303F0FF041BB12C4B1B78834226
:100D40004CD1A0F11103062B48D9284B187004BBD5
:100D50002548037803F00703042B03D82448C05C1C
:100D6000904221D101F00701052903D121480178E2
:100D7000914219D15A1C1C4B197802F0070060F3FC
:100D80000201052819702CD9CAB242F00800187067
:100D900027E0130611D5F72A06D101F01001CBB2D6
:100DA00013B10221FFF71CFF0F4B134A19780020E3
:100DB0006FF307011970107010BD01F01004E4B258
:100DC00044B9094B197841F0100119700A4B2146BA
:100DD0001A7000E00121FFF703FF02E04FF0FF303F
:100DE00010BD002010BD00BF200500201C05002004
:100DF000883800081D0500201005002001F00F03B1
:100E00002DE9F0470F46C1F30728C1F307494FEA20
:100E1000116A03F1080101F00F010629064602D804
:100E2000002A5ED180E0B8F1F00F08D003F10C0089
:100E300000F00F0103292CD8B8F1F60F29D03C4956
:100E4000D1E9004554EA050023D106F0F004302C26
:100E50004FF000000CD0502C13D0102C19D1354C71
:100E6000208006F00F00012404FA00F0088010E052
:100E7000304C208006F00F00012404FA00F0488076
:100E800007E02C4C208006F00F00012404FA00F04B
:100E900088800F2B48D8DFE803F022222222081C8A
:100EA00028284747474747474708B8F1F70F16D85C
:100EB0003046414607F00F07FFF734FF0F2F33D0BE
:100EC00049463046FFF72EFF30465146FFF72AFFCE
:100ED0002AE0B8F1F70F02D8B8F1F60F05D11AB32E
:100EE000304627F0F00190471EE01A1F12F0FF0471
:100EF0001AD030464146FFF715FF012C0CD0304682
:100F00004946FFF70FFF022C05D030465146FFF748
:100F100009FFD04600E0C846B8F1F70F04D10449F4
:100F200000220023C1E900230020BDE8F08700BFB4
:100F3000300500201E05002013B5044601A800F06E
:100F40004BFD002807DB0199C1F303101030224646
:100F5000FFF754FFF2E72849D1E9002352EA0300E2
:100F600047D0264B1888B0F57A7F42D90A8862B1FB
:100F7000002142FA01F313F0010003D101311029DD
:100F8000F7D101461031C8B21AE04B885BB143FA81
:100F900002F010F0010103D10132102AF7D10A4604
:100FA0003032D0B20CE0888850B140FA03F111F031
:100FB000010203D10133102BF7D113465033D8B2BD
:100FC0000F4B1A7802F00801C9B249B10D490978EE
:100FD000814205D16FF307021A700B4B00221A7081
:100FE0000A490A6802B19047034800220023C0E979
:100FF000002300201CBD00BF300500201E0500207E
:10100000200500201C050020100500203C050020C4
:1010100010B500F00DFD044600F048F8054B1A88A5
:101020004FF6FF718A4240EA040001D001321A8073
:1010300010BD00BF1E050020114BF7B51C68074608
:10104000E4B1C1F30764C1F30720C1F307420D4DBA
:101050008DF8064001F00F0100246E5C8DF804004D
:101060008DF805202546B54208DA01AA044B515DEA
:101070001B683846984701350443F4E72046FEBD17
:101080001405002018380008012803D0034B1870FD
:10109000002070474FF0FF30704700BF0100002074
:1010A000014B1878704700BF1D05002000207047D5
:1010B00013B5044600287AD11F20012100F03CFF1F
:1010C0003C4B00949A6802F00C00082802D10120E1
:1010D00000905DE0196841F001021A609C60186898
:1010E00020F08471344821F480321A605860196805
:1010F00021F480221A60DC600194186840F4803189
:1011000019602C4B1A6802F40030009001994A1CB7
:101110000192009818B90199B1F5A06FF1D11B683F
:1011200013F4003218BF01220092009801282FD139
:10113000204B2248196C41F080521A64016841F436
:101140008042026098689860996841F400429A6011
:1011500098681B4A40F4A05199605A60186840F0A2
:10116000807119601868134A8101FBD5154B40F254
:1011700005611960906820F003019160936843F065
:10118000020090600B4A916801F00C03082BF9D122
:101190000D48002100F0A8FD4FF4407000F09AFDCA
:1011A000009A012A14BF4FF0FF30002001E04FF0F9
:1011B000FF301CBD00380240103000240070004099
:1011C00008544007003C024000000008014B18682A
:1011D000704700BF002004E0024B188881B28802EB
:1011E000704700BF227AFF1F4FF440307047000065
:1011F00000230B4A591089180A78D90758BF1209D9
:1012000002F00F02092A94BF302137218A18C254F4
:101210000133182BEDD1002101760846704700BF3D
:10122000107AFF1F074B1A681AB9EFF310810648AE
:1012300001604FF0010080F310881A68511C19609A
:10124000002070474805002044050020074A136825
:101250003BB1581E106038B905490A6882F31088FE
:1012600002E04FF0FF307047002070474805002033
:10127000440500200F291CD80F4BDA68D343C3F371
:101280000222C2F1040301FA03F1090100F16043F3
:10129000CAB203F56141012381F8002342B200F094
:1012A0001F00510903FA00F2044840F821200020F1
:1012B00070474FF0FF30704700ED00E000E100E0C4
:1012C00073B5054668460E46144600F014FE022328
:1012D0008DF805300096062C29D8DFE804F02604A6
:1012E000090F13181D0003208DF80400002302E0ED
:1012F00000238DF804308DF8073012E000228DF8BD
:101300000420F8E700218DF804100123F3E7012001
:101310008DF80400002302E001238DF804308DF8DD
:1013200006302846694600F099FD002001E06FF084
:1013300001007CBDC30710B5044605D506484FF42F
:1013400080510522FFF7BCFF34F00F0314BF6FF08C
:101350000100002010BD00BF000C0240C20707D5ED
:10136000074B11F0010F4FF4805214BF1A835A83B8
:1013700030F00F0314BF6FF001000020704700BF72
:10138000000C024030B5012185B00446102000F069
:10139000EBFD54204443611E0D4CADF804104FF694
:1013A000FF730025204601A90293ADF80C50ADF85B
:1013B000065000F021FE01210A46204600F066FE9C
:1013C0002046012100F056FE284605B030BD00BF82
:1013D000001000400348012108B5416200F06AFE98
:1013E000002008BD00100040054810B50121446AE6
:1013F00000F055FE00280CBF20464FF0FF3010BD16
:10140000001000401FB50446B8B90120014600F0A5
:10141000B7FDA7204FF6FF73ADF8040001A90948F6
:101420000293ADF80C40ADF8064000F0E5FD05482C
:10143000012100F01FFE204601E04FF0FF3004B014
:1014400010BD00BF00000140044B596A89B25A6ABE
:10145000521A92B28242FAD900207047000001402D
:1014600012230B8000487047C838000804230B8003
:1014700000487047C438000870477047704770478D
:1014800070470020704700207047000065230B80E4
:10149000004870470739000810B50B4B8CB098789E
:1014A0001A888DF8060002A80C46ADF80420FFF754
:1014B0009FFE0028ACBF02A801A80449224601F003
:1014C0009BF902480CB010BDF838000888200020B5
:1014D00070B5164B86B00A4601AC03F110061868C9
:1014E0005968254603C50833B3422C46F7D11888FE
:1014F000002328800E495818017859B120395F29F6
:101500008CBF002101210133202B06D00029F1D10D
:1015100001A805E0002BFBD001E00029F8D0044829
:10152000044901F069F9034806B070BD5438000859
:10153000E03F000888200020FFF7CABFFFF7C8BFC0
:101540001146FFF7C5BF00001FB5084C0A462068CA
:10155000616801AB03C3A068054C1860214601A86F
:1015600001F04AF9204604B010BD00BFFB38000866
:1015700088200020022908B503D10846002100F088
:101580006DFA002008BD012908B503D108460021E5
:1015900000F05CFA002008BD10B50221044601F0FD
:1015A000C1FD2046812101F0BDFD002010BD0020BD
:1015B00000F092B9012000F08FB90000022110B5AF
:1015C000402204460B4601F08CFD8121402202237B
:1015D000204601F086FD0221034A0448402301F021
:1015E000BAFD002010BD00BF44200020B41500202B
:1015F000F7B5274B1D78002D48D101242046214600
:101600001C7000F099FC4FF4D8500090032602277C
:1016100020488DF8056069468DF804708DF80650F5
:101620008DF8075000F01AFC1A4808210A2200F031
:101630006BFC184809210A2200F066FC15480B21B2
:101640000A2200F061FC0A2212480C2100F05CFC26
:101650004FF4806100910F488DF8047069468DF851
:1016600007408DF8056000F0F9FB0A210A46094899
:1016700000F04AFC4FF48040214600F081FC8020BD
:10168000214600F065FC204600F038FBFEBD00BF9F
:101690004C0500200000024043200821FFF7EABD6E
:1016A000014801F031BE00BFB415002080B2FFF741
:1016B000CBBE4FF47A73584380B2FFF7C5BE4FF0EC
:1016C000A0431868C0F3C04070470000022837B537
:1016D000054642D8FFF7F3FF0446FFF768FF45BB16
:1016E00014F0FF0F25D01E4C2046FFF781FF1D4848
:1016F0001D491E4AC4F8E405C4F8E8152046012136
:10170000C4F8EC2501F0EAF8204601F090F92046F3
:1017100001F000FA2046FFF7BFFF01210323204616
:1017200084F8101184F81231FFF748FFFFF742FFE9
:1017300011E00D4B0D4A009301210A4B084800F0BF
:10174000BBFD074801F08BFD4CF25030FFF77CFEEB
:10175000034801F07CFD002001E04FF0FF303EBD6A
:10176000B4150020903800086C390008DC380008F7
:1017700070B5254CD4F8E435002B43D0FFF752FD6B
:1017800022480178002939D0D4F8DC63B608B3B216
:10179000002B33D01E4A108881B21BB2C1F50072F3
:1017A00093422BDA00241B4D55F82450C5F3031047
:1017B00010302946FFF740FC90B9174B174A19889B
:1017C00089B242F8215019884A1C91B2B1F5007FC4
:1017D000198028BF18800E4803885A1C91B20180D6
:1017E0000134301B03B2002BDDDC0849064800221F
:1017F0000A7040230221074A01F0ADFCBDE87040A9
:10180000FFF724BD70BD00BFB4150020581500209F
:1018100050050020442000205A150020580D0020BB
:10182000234BD3F8E40510B5002840D0FFF7FAFCAD
:1018300020490A78002A36D11F4B188881B2002926
:1018400031D01E4A107800282DD019888AB2102A6B
:1018500098BF1988174B94BF89B2102101201870C6
:1018600015480288531A9AB2028000220BB29A429B
:1018700013DA134B13481C88A4B250F824401248C2
:1018800040F822401888013080B2B0F5007F1880FF
:1018900001D3002018800132E8E705480A4A812177
:1018A0009B0001F075FCBDE81040FFF7CFBC10BDF8
:1018B000B4150020540D00205E1500206215002094
:1018C000601500205405002064150020002814BF76
:1018D0004FF0FF30002070470D49002310B50B80FA
:1018E0000C4C0D4923800B800C4C0D4923700B8050
:1018F0000C4C0D4923801A460B800C4C0C4B0121DB
:1019000010B121701A7001E022701970002010BD12
:10191000500500205A1500205205002058150020BF
:101920005E1500204E050020601500206215002085
:10193000540D002038B5184C2378054613B94FF0E4
:10194000FF3038BD154801888AB2B2F5FF7F07D94C
:10195000FFF766FF2378002BF1D06FF0010038BD50
:10196000FFF760FC0E4B0F49188882B2501C41F8FB
:10197000225082B21A80198888B2B0F5007F01D354
:1019800000221A80054B1988481C82B21A80FFF782
:101990005DFC002038BD00BF621500205E150020F0
:1019A0004E0500205405002010B504462046FFF7E0
:1019B000C1FF831C08D1074B1A8842F20F718A427B
:1019C00007D8501C1880F1E7002802DB014B0022E9
:1019D0001A8010BD5C150020124B10B50446188803
:1019E00081B2D9B1FFF71EFC0F4B10491A8890B293
:1019F00051F8202022601C88601C81B2B1F5007F64
:101A0000198001D300221A80064C2388581E81B207
:101A10002180FFF71BFC228890B210BD4FF0FF30F1
:101A200010BD00BF5005002052050020580D0020B9
:101A300008B5054801F05EF818B9FFF799FEFFF701
:101A4000EFFE002008BD00BFB4150020024B0022AD
:101A50001A70FFF7E5BE00BF540D0020024B0122B3
:101A60001A70FFF785BE00BF5815002020B103682B
:101A7000197001684A1C026070472DE9F843141E72
:101A80008046894601DC20270FE0002219F8021069
:101A900009B10132FAE7A242B4BFC2EB04040C461A
:101AA00013F0020F0CBF20273027DB070CD425468C
:101AB000002D05DD40463946FFF7D8FF013DF7E729
:101AC00024EAE476A41B00E000263546C6EB0903B1
:101AD000595D21B14046FFF7C9FF0135F6E72646BB
:101AE000002E05DD40463946FFF7C0FF013EF7E70F
:101AF000002CACBF2819281CBDE8F8832DE9FF474E
:101B00000C9EDDF8348081460C4651B930228DF8A8
:101B100004208DF80510324601A94346FFF7ADFFBA
:101B200035E033B10A2A04D1002902DA4C420127F8
:101B300000E0002704AD002305F8013DAA466CB182
:101B4000B4FBF2F302FB1344092C02DD0E993A397F
:101B50006418303405F8014D1C46EFE787B14EB1EB
:101B600018F0020F06D048462D21FFF77FFF013EF7
:101B7000012705E02D2005F1FF3A05F8010C0027AB
:101B80004846514632464346FFF777FF381804B0BF
:101B9000BDE8F087F0B589B006460D4605920024F1
:101BA0002B7823B1252B79D168786A1C28B9002EAF
:101BB0007BD030680022027077E025286DD02D2878
:101BC00002D1AA1C012300E0002317460132397814
:101BD000302902D143F00203F7E700223978A1F15E
:101BE00030005FFA80FC3D460137BCF1090F03D895
:101BF0000A2505FB0202F1E7732909D1059F391D6A
:101C0000059139682A4F3046002908BF394641E01E
:101C100064290ED18DE80C00059961230293081DFB
:101C2000096805900A2230460123FFF767FF241850
:101C300039E0782906D10599081D8DE80C0005903A
:101C4000612207E058290AD10599081D8DE80C008A
:101C50000590412202923046096810220BE0752956
:101C60000BD18DE80C00059961230293081D0968CA
:101C700005900A2230460023D7E7632913D105993E
:101C8000081D0968059000208DF81C108DF81D00B6
:101C900007A93046FFF7F1FEC9E715463046297817
:101CA000FFF7E4FE013401357AE7204609B0F0BDC4
:101CB000883900080EB40FB505AA019052F8041B2C
:101CC00001A80392FFF766FF04B05DF804EB03B0D0
:101CD0007047000040F0BF60024B40F40031D96013
:101CE000704700BF00ED00E021F0604121F07F026D
:101CF000014B10439860704700ED00E0014B5861C4
:101D0000704700BF003C0140024B1A6842F400607B
:101D100018607047003C0240024B1A6842F4805041
:101D200018607047003C0240044B1A69002A04DA2C
:101D3000034800F18831586059607047003C024008
:101D400023016745024B1A6942F000401861704751
:101D5000003C0240014BD860704700BF003C02408D
:101D60000B4BDA68D0030DD4D868C1060CD4D968FF
:101D700011F0EF0F0AD1DB6813F0020F0CBF08203F
:101D800007207047012070470520704706207047E4
:101D9000003C024007B508238DF80730FFF7E0FF4D
:101DA0008DF807009DF807000128F7D09DF807007F
:101DB0000EBD000070B505460E46FFF7EBFF082884
:101DC00013D10A4C236923F440702061216941F446
:101DD00000722261236943F0010020612E60FFF749
:101DE000D9FF216921F00102226170BD003C02404F
:101DF00070B5064641B1012908D0022914BF4FF43D
:101E000040754FF4007503E00D4601E04FF4807516
:101E1000FFF7C0FF08281ED10F4C236923F4407040
:101E2000206121690D432561226922F0F8032361B5
:101E3000206940F002010E432661226942F480339A
:101E40002361FFF7A7FF216921F0020222612369C4
:101E500023F0F801216170BD003C0240F0B50E682E
:101E60000022012303FA02F303EA06059D423ED154
:101E700007680C79530027FA03F707F00307A74216
:101E80000DD007684FF0030C0CFA03FC27EA0C078F
:101E90000760076804FA03FC4CEA07070760013C87
:101EA000012C17D88768032404FA03F427EA0407EF
:101EB00087604C79876804FA03F43C438460446883
:101EC00024EA05058C794560456804FA02F4A4B259
:101ED0002C434460C568032404FA03F425EA04058E
:101EE000C560CD79C46805FA03F32343C3600132AA
:101EF000102AB6D1F0BD00214FF6FF7303600171C7
:101F000041718171C171704701F00703C90808313F
:101F100030B59B0050F821500F2404FA03F425EA51
:101F2000040440F8214050F8214002FA03F214431F
:101F300040F8214030BD0000044B1A6B09B110433A
:101F400001E022EA00001863704700BF0038024039
:101F5000044B5A6B09B1104301E022EA00005863B8
:101F6000704700BF00380240044B1A6C09B110439F
:101F700001E022EA00001864704700BF0038024008
:101F8000044B5A6C09B1104301E022EA0000586486
:101F9000704700BF00380240044B1A6909B1104372
:101FA00001E022EA00001861704700BF00380240DB
:101FB000044B5A6909B1104301E022EA000058615C
:101FC000704700BF00380240044B1A6A09B1104341
:101FD00001E022EA00001862704700BF00380240AA
:101FE000044B5A6A09B1104301E022EA000058622A
:101FF000704700BF003802401C4A038890429BB2E1
:1020000012D002F5806290420ED0B0F1804F0BD01A
:10201000A2F58032904207D002F58062904203D050
:1020200002F58062904203D14A8823F07003134383
:102030000F4A904208D002F58062904204D023F407
:1020400040730A899BB2134303804B680A88C362BA
:10205000064B0285984203D003F58062904201D17D
:10206000897A018601238382704700BF0000014006
:1020700000100040038819B199B241F0010303E058
:1020800023F001010A04130C0380704783899BB27B
:102090000AB1194301E023EA010181817047038AF3
:1020A000828911EA030092B203D011420CBF0020D2
:1020B00001207047C9438AB202827047D0F8E835E0
:1020C00010B5044618698047032184F812110020D6
:1020D00010BD08B590F81231042180F8133180F852
:1020E0001211D0F8E805C2689047002008BD08B575
:1020F000D0F8E435D96901B18847002008BD08B59A
:10210000D0F8E435196A8847002008BD08B5D0F832
:10211000E435596A8847002008BD002110B54022E7
:1021200004460B4600F0DDFF8021402200232046BC
:1021300000F0D7FFD4F8E805012384F81231416894
:10214000A0788847002010BD13B56946044600F00A
:1021500023F99DF8001001F01F03012B0CD006D3CA
:10216000022B0ED12046694600F046F90EE02046CB
:10217000694600F0BBF909E02046694600F09EF987
:1021800004E0204601F0800101F01DF800201CBD94
:1021900070B50446002947D190F81131022B37D190
:1021A000D0F83821D0F824319A4211D9D21AC0F887
:1021B0003821C078012804D1D4F82811CB18C4F8EC
:1021C00028312046D4F8281192B200F0B5F81FE06B
:1021D000D0F83C51B5FBF3F603FB16565EB99D42B1
:1021E00009D3D0F84021954205D2324600F0A4F838
:1021F000C4F840610CE0D4F8E405C16829B194F852
:102200001231032B01D120468847204600F0B5F853
:1022100094F81621012A10D1094920690B6800227F
:10222000436084F8162108E0D0F8E4355B6923B1F7
:1022300090F81221032A00D19847002070BD00BFFA
:102240008420002010B5044659BB90F811110329D1
:1022500030D1D0F89023D0F87C339A4214D9D21AD6
:10226000C0F89023C078012804D1D4F88013C8188E
:10227000C4F880039A4228BF1A462046D4F8801337
:1022800092B200F062F815E0D0F8E4150B6923B1C2
:1022900090F81221032A00D19847204600F05EF8FA
:1022A00008E0D0F8E4359B6923B190F81221032AA5
:1022B00000D19847002010BD2DE9F041069F04464B
:1022C000164698460D46FFF793F920462946C4F86E
:1022D000E485C4F8E875C4F8EC6500F0B7FED4F8FE
:1022E000E835186880472046BDE8F041FFF7D4B9CB
:1022F000D0F8E43510B504461A689047D4F8E805DC
:1023000081688847002010BD08B5D0F8E4355A68C8
:102310009047002008BD38B504460D46C4F83C215E
:10232000C4F838211346022280F8112100212A46E0
:1023300000F02EFF002038BD10B50C4613460021DA
:10234000224600F025FF002010BD10B50C461346B4
:102350000021224600F0FFFE002010BD00210423D2
:1023600010B50A46044680F811310B4600F010FF04
:10237000204600F04DFE002010BD0021052310B5C1
:102380000A46044680F811310B4600F0E4FE204670
:1023900000F03EFE002010BD90F8CC350B7090F898
:1023A000CD254A7090F8CE3590F8CF2503EB022268
:1023B0004A8090F8D03590F8D12503EB02228A802C
:1023C00090F8D23590F8D32503EB022293B2CB805C
:1023D0000121C0F8403180F81111704710B58021FB
:1023E000044600F0F0FE2046002100F0ECFE2046FE
:1023F000BDE8104000F00CBE70B54E788A88012E02
:1024000004460D46D3B211D029D3032E51D190F8F2
:102410001221022A2AD0032A49D14988A9B9A3B195
:10242000802B12D0194600F0CEFE0EE090F812215B
:10243000022A1BD0032A3AD14988002939D153B145
:10244000802B08D0194600F0DCFED4F8E4052946BC
:102450008368204698472046FFF780FF29E090F8E0
:102460001251022D02D0032D21D106E00BB3802B97
:102470001FD0194600F0A7FE1BE012F0800F4FF0AE
:10248000280006D002F07F0200FB024191F81E31C5
:1024900003E000FB034393F87633074803B10123BD
:1024A0000360054920460222FFF735FF01E0FFF7F0
:1024B00095FF002070BD00BFAC15002038B590F826
:1024C0001231032B04460D460CD10A79012A09D892
:1024D000D0F8E4359A689047E88828B92046FFF795
:1024E0003DFF01E0FFF77AFF002038BD70B54B7863
:1024F000052BA2B004460D4600F0B18008D8012B90
:1025000000F04381C0F00881032B40F0618114E1A9
:10251000082B00F0F38003D8062B40F0598106E029
:10252000092B00F0BC80552B40F052813DE14888DA
:10253000010A4B1E062B00F24B81DFE813F0070067
:1025400018003200490149015E007300D4F8EC35EF
:10255000A0781A680DF1060190470146E8884028E6
:1025600003D094F81231012B69D1082357E0D4F835
:10257000E4050DF10601826AA0789047A378012B4B
:10258000014609D1207A012806D1D4F8E415CA6A97
:102590000DF106019047014602204870C4F8F0157D
:1025A0004DE0C1B2A078052920D8DFE801F003078B
:1025B0000F13171BD4F8EC154A6802E0D4F8EC3579
:1025C0009A680DF106019047014638E0D4F8EC25F1
:1025D000D268F6E7D4F8EC150A69F2E7D4F8EC35DE
:1025E0005A69EEE7D4F8EC158A69EAE7D4F8E425ED
:1025F000136B0DF106029847E6E7A078002840F03B
:10260000E780D4F8E4158A6A0DF106019047744911
:10261000837BC27B007C0B714A7188710A23ADF801
:1026200006300CE0A078002840F0D280D4F8E425F1
:102630000DF10601D36A9847014607204870BDF89E
:102640000600002800F0C880EA88002A00F0C48054
:10265000824228BF0246ADF806202046B5E08A88AF
:10266000002A40F0B580C988002940F0B1806E880A
:1026700090F8122106F07F03032A1E4600F0A8807E
:1026800080F81431194600F0DAFD2046FFF766FEA7
:102690000EB1022000E0012084F812019CE08B784A
:1026A000504A012B137000F2938090F81221022AF5
:1026B00003D0032A40F08E8008E0002B61D0012176
:1026C000032380F8101180F8123114E043B902217D
:1026D00080F8121180F810311946FFF715FE50E00E
:1026E00090F8101101294CD0FFF70EFE3D480178FB
:1026F000204684F81011FFF7FBFD42E0CA88012A4A
:1027000066D190F81231022B04D0032B62D100F570
:1027100088715AE0344958E090F81221931E012B39
:1027200058D83248D4F81821002101600AB1022398
:10273000036020462D49022247E04B88012B2DD013
:10274000022B49D18A8812F0FF0F45D10069110A86
:102750004A1E4368042A0FD8DFE802F00305070980
:102760000B00012006E0022004E0032002E0042028
:1027700000E0052060F306131D490B60012384F877
:1027800016312046FFF7EAFD26E090F81221931E4D
:10279000012B1FD84A88012A1ED10023D4F8E42532
:1027A000C4F8183193689847EBE70978C0290FD12E
:1027B0006A886AB9EE88802E0AD10E49324602A88C
:1027C00000F0A8FF204602A93246FFF7A4FD03E06F
:1027D00020462946FFF702FE002022B070BD00BF50
:1027E00004000020A4150020B0150020A81500202A
:1027F000842000208F39000830B5C0B10023C55CAB
:10280000DCB20133002DFAD1631C5B00138003227C
:102810000B704A700138022310F8012F3AB15C1C8A
:10282000CA54E2B2023300248C54DBB2F4E730BD68
:10283000C36804494FF0FF326FF080405A6058611E
:10284000996170470008008037B50023104C019350
:1028500005460320FEF72AFFE8680269013C019261
:1028600013D001990029F4DA019B43F0010201928F
:102870000199074A01610369013A019302D0019964
:10288000C907F8D40320FEF711FF00203EBD00BFAA
:10289000410D030030B5C4786CB900EB82000333FE
:1028A000D0F8D0509B1022469A4204D051F8220012
:1028B00001322860F8E7002030BD10B50332D0F8AF
:1028C000D0409210002393424FEA830004D0206846
:1028D00041F823000133F6E7081810BD0122F0B5D6
:1028E000002340249142C370827084800CD14FF445
:1028F000A073C172082204240221C38002704470B4
:1029000001724FF0A0430CE059B90C23C17203705F
:1029100006214FF4A0650226204B4170C580067247
:10292000C27003F5006505614578C360024619462B
:1029300000240432AC4201F1200608D201F51067F0
:1029400001F530611165576101343146F1E703F556
:10295000806403F5886144610478C0F8CC100022DB
:1029600003F5A061A24206D200EB82050132C5F850
:1029700090102031F6E703F580510022A24207D2E1
:1029800000EB82050132C5F8D01001F58051F5E762
:1029900003F56063C0F80C310020F0BD0000044076
:1029A00038B5037A0025012B0446C36821D1986B02
:1029B000617A65F3104009B140F480109863DA68D9
:1029C0006FF386126FF314526FF396526FF3514206
:1029D0006FF3D342DA602046FFF736FFE378012B2E
:1029E00019D1052161F34405E06845F020058560B3
:1029F00011E0DA6842F04001D960FFF725FF607A04
:102A0000E36800280CBF4FF434124FF474129A6339
:102A10001420FEF74EFEE278012A06D1E368996899
:102A200021F03E0040F02A029A60002038BDC368C1
:102A30009A6842F00100986000207047C3689A6865
:102A400022F00100986000207047000007B50023C5
:102A50000193019A42F020030193019A094B61F31B
:102A60008A120192C268019810611169013B0191BB
:102A700002D001988006F8D40320FEF717FE00204C
:102A80000EBD00BF410D030007B50023019301995E
:102A900041F010020192C068019B074A036101697D
:102AA000013A019102D0019BD906F8D40320FEF728
:102AB000FDFD00200EBD00BF410D0300C26808B53A
:102AC000D36801296FF35D736FF39E7302D143F0F6
:102AD000005302E009B943F080433220D360FEF78F
:102AE000E8FD002008BDC368586900F0010181F0CD
:102AF00001007047C368586900F001007047C3685F
:102B00005A6998691040704703691A6861F30102B5
:102B10001A60704738B5C368044600256FF08042DC
:102B20009D615A61FFF784FEE078A8420CBF102136
:102B3000294641F4872343F00812E368996942F477
:102B4000401021EA000141EA00029A61284638BD9E
:102B5000D0F80C31016970B500261E600A6866F372
:102B6000CC220A60C37A012B044635461BD10321CF
:102B7000FFF7CAFFC021E06880224FF4800661F3AE
:102B80000F0562F31F4562F30F064FF4A073426214
:102B90008662C0F8045163F30F056FF31F45C0F858
:102BA0000851C0F80C51E17A19BB227A012A18BFEA
:102BB00001212046FFF7A8FFC021E0688023C0F272
:102BC000400661F30F0563F31F4563F30F064FF4EF
:102BD000A07243628662C0F8045162F30F056FF37E
:102BE0001F45C0F80851C0F80C51C0F81051C0F88A
:102BF000145110212046FFF729FF2046FFF744FF1C
:102C0000206900234FF0FF31036143618161C3619B
:102C10006278934214D204EB830201339069016815
:102C2000C1F3076202F08001CAB2002A14BF4FF05C
:102C30009041002101600022FF2102618160E7E7ED
:102C400000236078834214D204EB83000133426D89
:102C50001168C1F3076000F08001C8B2002814BFFA
:102C60004FF09041002111600020FF211061916020
:102C7000E7E72369196941F480721A61E078012855
:102C800004D1054A402161F359421A632046FFF7F7
:102C900041FF002070BD00BF030101000369986877
:102CA000C0F341014B1E022B02D8024AD05C704790
:102CB000032070470F3A00080369816910B59C68CA
:102CC0000A68C4F34100022802D06FF30A0202E04E
:102CD000032060F30A020A60596841F480725A6066
:102CE000002010BD30B54D780B780022012D00EB8F
:102CF000830405D105FA03F5A46965F30F0205E025
:102D0000012505FA03F3646D63F31F422368C3F3DF
:102D1000072505F08005EDB26DB98D6865F30A03EE
:102D2000CD7865F39343CD8865F3995343F0805391
:102D300043F40043236009780369012905D1C07A6F
:102D400018B9D86B0243DA6302E0D9690A43DA6141
:102D5000002030BD70B54E780B780024012E22463D
:102D600000EB830505D106FA03F3AD6963F30F02A7
:102D700005E0012606FA03F36D6D63F31F426FF35E
:102D8000CF342C6009780369012906D1C07A20B9B3
:102D9000D86B20EA0201D96303E0D96921EA020273
:102DA000DA61002070BD70B54E780A78012E0B46AE
:102DB00000EB820148D18D695C6929682A6964F356
:102DC000120214B966F3DC420BE09E68A419013CC0
:102DD000B4FBF6F6DC7866F3DC42012C08BF64F342
:102DE0005E722A61C278012A06D11A7800EB820449
:102DF0001A69A46962610CE0DA78012A09D05A697B
:102E00003AB102691C78556B012606FA04F42C438A
:102E10005463DA78012A07D102699268D20554BF57
:102E200041F0005141F080511A7800EB820241F0EC
:102E3000044192691160D978012937D1D9681A788B
:102E40009B8AFFF727FD31E04D6D5E692A689C681B
:102E500029692EB964F31201012464F3DC410AE00C
:102E60003619013EB6FBF4F666F3DC41B605B60D45
:102E7000744364F312012961C178012905D11C78DA
:102E800000EB84014C6D19696161D978012906D183
:102E9000597911B142F0005201E042F080521B78A2
:102EA00000EB830042F00441426D1160002070BDD0
:102EB00073B54D78012D3DD183694A691E681C693F
:102EC0000094E4B242B962F306049DF802208DF842
:102ED000004065F3C4020EE08D68AA428ABF4D61CE
:102EE00062F3060465F306049DF802208DF80040A5
:102EF000012464F3C4028DF80220009A1A61C2789A
:102F0000012A05D10C7800EB840294690A69626198
:102F100046F004461E60C378002B34D14A69002A6B
:102F200031D003690A78586B012101FA02F2024399
:102F30005A6328E00B784E6900EB8302536D8A6870
:102F40001D681C690094E4B206B14A6162F306048C
:102F50009DF802208DF80040012464F3C4028DF82E
:102F60000220009A1A61C378012B05D10A7800EB80
:102F700082035A6D0B695361097800EB810045F0BB
:102F80000445426D156000207CBD4B780978012B0B
:102F900000EB81000DD180690368C3F3076202F082
:102FA0008001CAB20AB143F0804343F400110160CA
:102FB00004E0436D1A6842F4001119600020704764
:102FC0004B78012B0B78C97800EB83000CBF82692A
:102FD000426D1368881E6FF35553012898BF43F064
:102FE000805313600020704703699A69D8691040C4
:102FF000000C704700EB810102694B6D99685069C4
:103000000840704703699869D969084080B27047E1
:1030100082B000230093C021012200238DF8031009
:1030200062F3C40318218DF802308DF80010436D4F
:10303000009A1A61C178012906D100F2CC5058617A
:103040001A684FF080221A6002B0704710B504462B
:10305000FFF744FC012384F81231002384F8143173
:103060006278934213D2282202FB034101F58E724B
:10307000012081F81D0181F81C31A1F82231402086
:103080000021D1709060D16051610133E8E70023E5
:103090006078834213D2282101FB034000F55D7262
:1030A000002180F87433A0F87A3380F8751380F823
:1030B000771340209060D16051610133E8E72046EA
:1030C000FFF7BCFC2046FFF76BFC00212046FFF712
:1030D000F5FC2046FFF73CFD2046BDE81040FFF719
:1030E000A6BC70B5CDB201F07F044FF0280606FBF8
:1030F000040415F0800F14BF04F58E7404F55D749C
:1031000001F07F01ED0921706570A260E37005B1E7
:10311000E180022B01D1002323712146FFF7E2FD5C
:10312000002070BD10B5CAB201F07F034FF0280433
:1031300004FB030312F0800F14BF03F58E7303F535
:103140005D7301F07F01D20919705A701946FFF7BB
:1031500001FE002010BD38B501F07F04282505FBD5
:10316000040505F55D7185F874434B610023CA6061
:103170008B614B70C378012B05F55C7508BF0A6144
:1031800014B9FFF795FE01E0FFF70DFE002038BDF2
:1031900070B501F07F04282505FB040505F58E7147
:1031A0000126CA600A61002285F81C414E7005F5AF
:1031B0008C758A614B6114B9FFF77AFE01E0FFF765
:1031C000F2FD002070BDCAB212F0800F10B54FF0B2
:1031D000280306D001F07F0403FB040303F58E737C
:1031E00003E003FB010404F55D73D209012401F03F
:1031F0007F0119709C705A701946FFF7C6FE0020B7
:1032000010BDCAB212F0800F10B54FF0280306D0DF
:1032100001F07F0403FB040303F58E7303E003FB5B
:10322000010404F55D730024D20901F07F011970D7
:103230009C705A701946FFF7C3FE204610BD026904
:10324000002361F30A1311680B431360704703698D
:103250005A6803206FF341025A60FEF72ABA0369E5
:103260005A6842F0020058600320FEF722BA2DE9A6
:10327000F8434FF02808054608FB010000F58C785C
:1032800008F104040E466269A369A068D11A05EB2F
:103290008602814238BF0846936900F103099969A3
:1032A0004FEA990989B249452AD9A76960698742D5
:1032B00026D228B3A268E168C71B974228BF1746E9
:1032C00007F1030CBBB2F2B228464FEA9C09FFF7A4
:1032D000E1FAE368A069D91905EB86023F18E160BD
:1032E00060699369A76187429969DBD32B6998F874
:1032F0000420596B012000FA02F221EA020159630D
:103300000120BDE8F88300002DE9F04F85B00446A8
:10331000FFF7E9FB08B90020F7E12046FFF7EFFBD4
:1033200007460028F7D0C0F3074A0AF00800C0B2E9
:10333000002856D02046FFF757FE26468046A34673
:103340004FF00009B8F1000F4AD018F0010F3FD03C
:103350005FFA89F5294620460195FFF74BFE10F0EC
:10336000010F0546019B20D0726D01259560E07824
:10337000A84207D11169DBF87C23C1F31200111AAE
:10338000CBF88C139448026819461268204690477F
:10339000E378012B09D1B9F1000F06D194F811118E
:1033A000052902D12046FFF733FE05F00200C2B224
:1033B00012B1736D02259D6005F00801C8B238B1E5
:1033C000854A15682046AB689847716D082088606B
:1033D00009F101094FEA580804360BF1280BB1E74F
:1033E00001200AF0040A5FFA8AF3002B67D0204616
:1033F000FFF708FE264681464FF00008B9F1000F9E
:103400005CD019F0010F53D023695FFA88F1186975
:103410005D6B04EB810225FA01F59269ED0192687A
:10342000EDB205431540EA071AD55A6B012505FA96
:1034300008F022EA00025A63674AB36910689D6087
:10344000436820469847E178A94209D1B8F1000FB6
:1034500006D194F81121042A02D12046FFF7D8FDA5
:1034600005F00800C3B213B1B16908258D6005F0FD
:103470001002D0B210B1B36910259D6005F0400173
:10348000CAB212B1B0694025856005F00203D9B215
:1034900011B1B2690225956025F07F0010F0FF0F91
:1034A00006D041462046FFF7E2FEB36980219960CD
:1034B00008F101084FEA590904369FE70120FDB2DF
:1034C00005F00201CAB212B1E36802215961C7F3E3
:1034D000076202F08003D9B2C9B1A07A40B1D4F832
:1034E0000C31D4F80C216FF341036FF30003136028
:1034F0002169394A486820F001034B601168204671
:103500008B699847E0684FF0004242610120C7F3A1
:10351000072808F00801CBB26BB32F4994F81221A9
:103520000B6800208DF80F008DF80F2020465A6997
:1035300090472069E36882684FF400615961A07A7E
:10354000C0B1D00716D594F81521012A12D19DF8E3
:103550000F30032B0ED1D4F80C11086840F0010293
:103560000A600B6843F0030008601C490A6942F0D6
:1035700006030B61012005F00801CAB242B11648EA
:1035800003682046D9688847E06808224261012024
:1035900005F01005EDB2002D39D0E668B36923F0CF
:1035A0001001B161366A282206F00F00C6F34343CA
:1035B00002FB0045022B05F55D7511D0062B20D1CD
:1035C00004F2CC5120460822FFF777F9A969C6F327
:1035D0000A168819A86114E01000002000ED00E030
:1035E00047F6F072324062B1C6F30A16E968324615
:1035F0002046FFF762F9EB68A86999198619E96016
:10360000AE61E3689A6942F010019961012008F007
:103610001003DAB2002A37D026697068002520F03E
:103620000101716020462946FFF710FA23462A4619
:1036300066780433B24206D25E69FF21B160186D2C
:1036400001328160F4E70126206966F30F050B2142
:103650004FF0FF3266F31F458261C5614161C0F8DA
:1036600084100161416403686FF30A13036020460C
:10367000FFF7CEFC2649E0680B684FF480524261A8
:103680001A6920469047304608F020085FFA88F112
:10369000E9B12046FFF710FBE5682046ED68FFF72B
:1036A000FDFA032806D100214FF40070A170A0801C
:1036B000092204E001204023A070A3800522E368D2
:1036C00062F38D254FF40052DD6001205A61C7F38B
:1036D000074707F01001CBB24BB10D4802682046F6
:1036E000D1698847E3684FF480105861012007F0E2
:1036F0002007FFB24FB1064A116820460B6A98476F
:10370000E0684FF400124261012005B0BDE8F08F7F
:103710001000002010B50023934203D0CC5CC454A9
:103720000133F9E710BD00000000024080000000F6
:10373000000402400080000000040240200000005D
:1037400000000240200000000004024000200000B1
:1037500000040240080000000004024004000000D1
:10376000000C0240000800000004024000100000AD
:10377000000C024000040000000002400080000035
:103780000004024000010000FFFFFFFF00000000F6
:1037900000000000004000080800000000000000D9
:1037A00000800008100000000000000000C00008B9
:1037B00018000000000000000000010820000000C8
:1037C00000000000000002082800000000000000C7
:1037D000000004083000000000000000000006089F
:1037E0003800000000000000000008084000000051
:1037F0000000000000000A0848000000000000006F
:1038000000000C08500000000000000000000E083E
:103810005800000000000000000002030301020342
:1038200003030303020203014D494F533332005394
:10383000544D33324634444953434F564552590050
:1038400053544D3332463478780025303878003F71
:10385000002564004D494F53333220426F6F746C22
:103860006F6164657200286329203230313420543E
:103870002E204B6C6F7365002025303258002020BD
:103880002000253038582000F000007E3200000073
:10389000BD150008991500088314000800000000F9
:1038A000871400088715000875150008000000003F
:1038B00000000000000000008D1400088D140008B6
:1038C0004115000804030904120100020000004031
:1038D000C016FE031010010203010000611400086D
:1038E0006D14000849150008D11400089914000847
:1038F0003D150008391500083432006D69646962AD
:103900006F782E6F72670009026500020104803231
:10391000090400000001010002092401000109005E
:103920000101090401000201030002072401000152
:1039300041000624020101000624020202000924BB
:103940000301030102010009240302040101010033
:1039500009050202400000000005250101010905DA
:1039600081024000000000052501010379140008D0
:103970007B140008B51500087F14000881140008A6
:103980007D140008AF150008286E756C6C2900D1F5
:103990000FED54CFC5FBB89752389138910E7D0F7B
:1039A000ED389301910E9100C11F020E91F70410A2
:1039B00040006E106EE76A0000000000000000008A
:1039C00000000000000000000000000000040000F3
:1039D00000000000000000000000002F55461F00FE
:1039E000D84840376AF76A00300000C7062E734A8D
:1039F0002C137BE97F32002A280D9BFE0B21EF421E
:103A00002A2F73B5B8DA76E679BF0FEB793E0B0251
:103A10000102000000000000101000000A06000271
:103A200000000040010000001400002045220008B2
:103A30009121000849210008EF2000081B210008FF
:103A4000D3200008BD200008FF2000080D21000839
:103A50000000000000000000FFFFFFFFFFFFFFFF6E
:103A6000FFFFFFFFFFFFFFFFFFFFFFFFFFFFFFFF66
:103A7000FFFFFFFFFFFFFFFFFFFFFFFFFFFFFFFF56
:103A8000FFFFFFFFFFFFFFFFFFFFFFFFFFFFFFFF46
:103A9000FFFFFFFFFFFFFFFFFFFFFFFFFFFFFFFF36
:104000000000022075A3040871A30408619104084C
:1040100071A3040871A3040871A304080000000040
:1040200000000000000000000000000011A00408D3
:1040300071A304080000000081A00408D1A00408B6
:1040400071A3040871A3040871A3040871A30408F0
:1040500071A3040871A3040871A3040871A30408E0
:1040600071A3040871A3040871A3040871A30408D0
:1040700071A3040805DF0408E5DE040871A3040841
:1040800071A3040871A3040871A3040871A30408B0
:1040900071A3040871A3040871A3040871A30408A0
:1040A00071A3040871A3040871A3040871A3040890
:1040B000B5E50408D9E5040871A3040819FF04084C
:1040C00025FF040801FF04080DFF040871A304087C
:1040D00071A3040839F8040809F7040879F70408FB
:1040E00071A3040871A3040871A3040871A3040850
:1040F00071A3040871A3040871A3040871A3040840
:1041000071A3040871A30408FDE5040871A3040861
:1041100071A3040889F8040871A3040871A30408B2
:1041200071A3040871A30408C5DE040871A3040880
:1041300071A3040871A3040871A3040871A30408FF
:1041400071A3040871A3040871A3040869E90408B1
:1041500071A3040871A3040871A30408E9F7040813
:1041600071A3040871A3040871A3040871A30408CF
:1041700071A3040891E9040871A3040871A3040859
:0841800071A3040871A30408F7
:020000040801F1
:1000000038B505460C4620F009FC2146284646F046
:1000100069F82846214620F007F9002038BD000085
:1000200010B504461FF0F4FE204646F047F80020C5
:100030004FF4FA61024A034B03F0ECF8002010BDC4
:1000400098010608A60106081EF060BE10B50C4611
:1000500020F028FC012802D1204647F001FD0020B5
:1000600010BD000010B54FF0FF3000243DF0A2FF9E
:10007000274B20461C7035F013FA204645F0D6FC7D
:10008000204638F093FA204600F0C8FD204638F0AC
:10009000BBFC20461EF00AFB20461EF04BFB204610
:1000A0001FF030F920461FF07DFE204622F008FEAA
:1000B000204648F075F8204620F0F4FA204636F045
:1000C00011FC204634F0EAFD204624F04DFC204689
:1000D00035F08EF9204623F091FE204638F0D4F911
:1000E000204605F039FC204628F096FA204600F01C
:1000F00003FD08483BF04AF907483BF041F907483F
:100100003BF0A6FC0648BDE810403BF0B3BC00BF86
:10011000283D00204D0001084900010801000108A8
:100120002100010838F052B938B5C1F30723F72B85
:1001300005460C4616D8002045F0D6FE854203D170
:10014000214645F01BFF0DE02846214605F0BCF98D
:10015000002807DC2146284620F0C4FA284621461C
:100160001FF0D4F928462146BDE838401EF04EBEA7
:1001700070B59F4B9F4C1A78501CC1B2062988BF9E
:10018000002119702378DA0701D545F0ABFC9A4AB3
:100190001078C30701D538F03DFA984C2178002932
:1001A00000F0A180022914BF0026FF2614BF0025FD
:1001B000012547F017FB8E4B1A78D2B990494FF0C2
:1001C00019FC4FF0DDFD0A2390FBF3F202FB130054
:1001D000C0B238F0CFF9637886EA0001C9B2581E80
:1001E0003AF0A8FA294660883AF06AFA85F00105E3
:1001F0006DE0012A1ED14FF0C3FD0A2190FBF1F3FF
:1002000003FB1100C0B238F0B5F9627860F07F01ED
:100210004E40501EF1B285F001063AF08BFA31469D
:1002200060883AF04DFA2946A0883AF049FAE08809
:1002300031461FE0022A22D14FF0A2FD0A2190FB95
:10024000F1F090FBF1F201FB1203D8B238F092F911
:1002500062784640F1B2501E85F001063AF06AFA23
:10026000314660883AF02CFA3146A0883AF028FAF4
:10027000E08829463AF024FA2089314631E0032A01
:100280001FD14FF07DFD64210A2390FBF1F090FB1C
:10029000F3F203FB1201C8B238F06CF96378464000
:1002A000F1B2581E85F001063AF044FA31466088F2
:1002B0003AF006FA3146A0883AF002FAE088314670
:1002C0000BE085F00105608829463AF0F9F92946E6
:1002D000A0883AF0F5F9E08829463AF0F1F920894A
:1002E00029463AF0EDF9474A107800287CD00228D8
:1002F00014BF0026FF2614BF0024012447F07EFB14
:1003000040B101F06DFA404A8C2101FB002090F8C9
:10031000533001E03D4D2B785D1C354B1978042995
:1003200016D10A2095FBF0F300FB1355E8B238F024
:1003300021F9344D6A7886EA0001C9B2501E3AF0BC
:10034000F9F92146A8783AF0BBF984F0010443E0BA
:1003500005291DD10A2095FBF0F595FBF0F300FB74
:100360001351C8B238F006F9264D6A784640F1B20A
:10037000501E84F001063AF0DDF93146A8783AF0D3
:100380009FF92146E8783AF09BF92879314629E02F
:1003900006291AD1642295FBF2F00A2590FBF5F3A9
:1003A00005FB1301C8B238F0E5F8164D6A784640EF
:1003B000F1B2501E84F001063AF0BCF93146A8783B
:1003C0003AF07EF9E878314608E00E4D84F00104F9
:1003D000A87821463AF074F9E87821463AF070F9A5
:1003E000287921463AF06CF9BDE8704038F01ABB24
:1003F000800300200C0000200100002002000020EB
:10040000000020410D000020384A0020F23D00206D
:1004100008B5074B1878C00701D545F0B3FB05496F
:100420000A78D10703D5BDE8084038F029B908BDDE
:100430000C000020010000207047000008B5114B9F
:100440005878C10702D426F04FFE03E034F0C4FC14
:100450000028F8D101F018FC01F02AF924F080FB03
:1004600009490A78D20702D5084845F0D1FB084B64
:100470001878C30704D50748BDE8084038F060B9CC
:1004800008BD00BF9C4900200C000020010A0108A3
:10049000010000208909010810B501F083FA02F07B
:1004A00007F838F057FB1EF0FBFB124A1378022BBB
:1004B0001FD111490888441CA3B20B804FF47A71F4
:1004C000B3FBF1F001FB1034A4B240F2E7308442F8
:1004D00003D1BDE810401FF00DBF41F287308342C9
:1004E00007D900201070054B054ABDE8104002F006
:1004F00091BE10BD1940002020400020C301060815
:10050000B20106080C4B1A6810B51C464AB925F012
:100510005FFE47F07BFE1DF01BFF0748006838B9FF
:1005200010BD0121206839F02BFD0128F9D1EEE73B
:10053000BDE8104039F066BCB03D00200FB430B5C6
:100540001A4BA3B01A68269C1D4642B920464FF0AC
:100550004AFD64280AD916483AF036FE0CE001211B
:10056000286839F00DFD0128F9D1EFE727AA02A884
:10057000214601923FF013FE02A84FF034FD002304
:10058000834202AA05D0D15C01F07F01D15401332E
:10059000F6E710463AF018FE0448006808B139F052
:1005A00031FC23B0BDE8304004B07047B03D0020BE
:1005B000D20106082DE9F04194B030F0BDF808B939
:1005C0003BF090FE8C4A137859B2002905DD581E85
:1005D000C3B21370002B40F0A781884C0121206822
:1005E00039F0CEFC0128F8D14AF0ACFA01280446D3
:1005F00021D1814B93F900209AB14AF01BFB80492D
:1006000002460CA83FF0BCFD4FF4FA617D4A7E4BD8
:10061000022002F0FFFD4AF00DFB01467B48FFF788
:100620008DFF28F007F97A487A49FFF787FF012004
:1006300028F036F899E002280ED14FF4FA61764A94
:10064000764B02F0E7FD7648FFF778FF28F06CF86C
:100650006948FF24047088E0032876D14AF0CAFA7A
:10066000044640B902204FF4FA616E4A6E4B02F024
:10067000D1FD6E480BE04AF0C3FA044678B9022077
:100680004FF4FA616A4A6B4B02F0C4FD6A48FFF707
:1006900055FF30F059F85849FF220A7066E0564875
:1006A00090F90040002C4BD004A864494FF093FC13
:1006B0000024E5B2284628F0F9FC10B13135EEB23D
:1006C00000E02D2604AF3A190134042CD671F0D184
:1006D00029F086F900280CBF2D252A2529F04CFB8E
:1006E00000280CBF2D242A2429F0C6FD00280CBFA9
:1006F0004FF02D084FF02A082AF070FE00280CBF9A
:100700002D2753272CF036FD00280CBF2D26472619
:1007100030F00AF800280CBF2D212A2103912A4627
:100720004749CDF800802346019702960CA83FF078
:1007300027FD02204FF4FA6104AA0CAB02F06AFD17
:100740002D4BFF201870012410E000280DDA2A49F3
:10075000FF220A704FF4FA60214603F0F9FC394B8E
:1007600039481A682146FFF7E9FE0024374908781E
:10077000F8B128F0A9F8041E0BDA21464FF4FA600C
:1007800003F0E6FC2F4B30481A682146FFF7D6FEEF
:100790000BE04FF47A712E4A2E4B002002F03AFD06
:1007A0002D48FFF7CBFE27F0EDFF284900220A7005
:1007B00001242A480378002B67D028F0D3F9051EBE
:1007C00054DA15F1120F0AD100204FF4FA61244ACD
:1007D000244B02F01FFD2448FFF7B0FE52E02946EB
:1007E0004FF4FA6003F0B4FC164A17481268294621
:1007F000FFF7A4FE46E000BF00000020AC3D002053
:10080000250206082F020608420206084E020608C4
:100810006502060861590020790206088E02060862
:100820009A020608B0020608C5020608D1020608A8
:10083000E4020608F90206080E0306083403060857
:1008400040030608A8FB00205C030608D13D0020F9
:1008500083030608910306089F030608D43F00207F
:10086000BC030608C9030608D30306084FF47A71CF
:100870002F4A304B002002F0CDFC2F48FFF75EFEE0
:1008800027F080FF2D48002101702D4B1A78002A97
:1008900034D0002635462B4800EB460110F81620D0
:1008A0004978294801230093C1F38201F3B202F091
:1008B0007F0228F0E9FD0136042E45EA0005EAD161
:1008C00021482BF09BFE2DF063F834F0C9F8C0B23C
:1008D00034F016FA002D03DB27F054FF05430AD548
:1008E00029464FF4FA6003F033FC184A184812689E
:1008F0002946FFF723FE124900200870154B18689F
:1009000039F080FA74B127F0C7FF014650B945F0BD
:100910004FFC34F0A5F8C0B234F0CEF934F04AFA06
:1009200034F0DEFA35F010FD14B0BDE8F08100BF00
:10093000E803060891030608F5030608D43F0020E3
:10094000D73F00204E57002061590020A8FB00200F
:100950005C030608AC3D002038B5094B0546187805
:100960000C4620B1074829462246FFF7E7FD35F03F
:1009700007FD28462146BDE8384003F031BB00BFE3
:10098000283D00201104060873B5194B0646187857
:100990000C46154670B1174A174B1848002D08BF72
:1009A0001346C9080093013106F1410204F0070320
:1009B000FFF7C4FD35F0E4FC2FF0B6FE68B91F2C3C
:1009C00009D9A4F13001072905D904F0F803E4435B
:1009D00004F007041C43204603E004F5807000EB9C
:1009E0008610294602B0BDE8704003F0E5BB00BFA9
:1009F000283D0020210406081F04060829040608D3
:100A0000F8B50C4B060900F00F0518780C4650B1EC
:100A1000094B0A4F0A48F1B201312A46002C08BF9F
:100A20003B46FFF78BFDF0B229462246BDE8F84071
:100A300001F0CEB8283D00201F0406082104060856
:100A40005104060837B50E4B044618780D4668B1B8
:100A50000C490D4B0D48002D08BF0B46E2080093D2
:100A60002146013204F00703FFF768FD35F088FCEA
:100A70002046294603B0BDE8304003F09DBB00BFCF
:100A8000283D0020210406081F04060874040608F7
:100A900010B54FF47A74013C0120A4B238F092FEF4
:100AA000FFF7FAFC002CF6D1FFF784FDF1E707B55C
:100AB00038F05CFD0190012101A838F09DFE38F06E
:100AC00055FD019B421F934238BF0190FFF7B6FCD2
:100AD000F1E707B538F04AFD0190012101A838F08F
:100AE0008BFE38F043FD019B421F934238BF0190BB
:100AF000FFF708FDF1E7000037B5042039F097F95A
:100B00001C4B1D4C1860042039F091F91B491C4DF9
:100B10000860042039F08BF91A4A1060042039F07B
:100B200086F92060042039F082F90024042328602B
:100B3000154916488DE818000225234640F2DB12BD
:100B400038F006FC234600950194114911484FF4F2
:100B5000AF7238F0FDFB104900954FF4AF72234699
:100B600001940E4838F0F4FB20464CF081FB2046FF
:100B70003EBD00BFAC3D0020A83D0020B83D002098
:100B8000B43D0020B03D0020F8410608D30A01081A
:100B90009A040608AF0A0108A4040608910A01088D
:100BA000054B1A6810B51C462AB10121206839F09E
:100BB000E7F90128F9D110BDB43D0020024B1868B7
:100BC00008B139F01FB97047B43D0020054B1A68D1
:100BD00010B51C462AB10121206839F0D1F901284D
:100BE000F9D110BDB03D0020024B186808B139F0B2
:100BF00009B97047B03D002008B5044B01211868C1
:100C000039F0BEF90128F8D108BD00BFB83D002079
:100C1000014B186839F0F6B8B83D002073B51020C4
:100C200039F074FC0024144B204653F8241001348E
:100C300039F0CCFD122CF6D1104A11490020107069
:100C400050709070D070107150719071D0710870A8
:100C50000446E6B26846314637F016FE14238DF896
:100C6000053030469DE80600013437F0F7FD032CCF
:100C70006D46EED100207CBDB4040608BD3D0020C9
:100C8000BC3D00200A4B1A78511CCAB2824201D2E4
:100C90001A7001E001381870064B074801211970DD
:100CA000FF220649064B027000200870188070472A
:100CB000CA3D00201C040020AD030020E83D0020B8
:100CC000CE3D002010B510BB124C46F0A9FE237893
:100CD00083F0010020703CF0BFFC217849B146F060
:100CE00095FE18B90C4B012018700CE046F0C0FFBF
:100CF00009E046F08BFE08B9074A107046F07EFE08
:100D000008B946F0A3FF3CF0BBFC002010BD4FF03B
:100D1000FF3010BDEF3D0020A049002038B5094B41
:100D20001C7804F001040146254644B906480268CF
:100D30002AB1122090470549054B0C701C800020F9
:100D400038BD00BFD83D0020BC030020E83D002096
:100D5000CE3D002038B5094B1C7804F00104014653
:100D6000254644B9064802682AB113209047054930
:100D7000054B0C701C80002038BD00BFD83D002002
:100D8000BC030020E83D0020CE3D002038B50D4BCF
:100D90000146DA781C78D0F1010038BF002060F3FA
:100DA000C71204F00104DA70254644B9064B1A68EC
:100DB0002AB115209047054905480C700480002091
:100DC00038BD00BFD83D0020BC030020E83D002016
:100DD000CE3D002038B50D4B0146DA781C78D0F1B5
:100DE000010038BF002060F3861204F00104DA70BD
:100DF000254644B9064B1A682AB114209047054984
:100E000005480C700480002038BD00BFD83D00208C
:100E1000BC030020E83D0020CE3D0020164B5A7850
:100E200002F00201CAB2B2B118BB144B597860F398
:100E300000011878597010F0010204BF62F3060037
:100E400018701878C0F3000181F0010262F300000D
:100E5000187000207047094B5978D0F1010062F3F7
:100E600000011A78597038BF002060F300021A7030
:100E7000EFE74FF0FF30704714000020D83D00200E
:100E800010B5114B11495A78D0F1010438BF002434
:100E900064F382025A700A7802F00401CAB24AB1BD
:100EA00070B95A78C2F3400181F0010161F3410247
:100EB0005A7010BD587864F341005870104610BD48
:100EC0004FF0FF3010BD00BFD83D002014000020BF
:100ED0001FB50024204639F087FC134B0390009087
:100EE0009978124B11F0060F0CBF01220222000A62
:100EF00062F301008DF80D000CB91B7803E0112C92
:100F00000CBF5B789B789DF80D2003F0070161F31F
:100F100084028DF80D2020460399013439F056FCE7
:100F2000122CD7D104B010BDD83D0020BA0000204B
:100F3000014B186000207047BC030020014B186073
:100F400000207047A8030020014B18600020704764
:100F5000B8030020014B186000207047A403002054
:100F6000014B186000207047CC03002070B50D467F
:100F7000164604463CF070FB044B054905481E60CC
:100F800004600D803CF07CFB002070BD200400203C
:100F9000240400201804002010B504463CF05CFB3B
:100FA000044B1A68A24201D1002018603CF068FB93
:100FB000002010BD18040020014B1860002070476D
:100FC000B003002008B5044B1A680AB1904708BD69
:100FD0004FF0FF3008BD00BFB003002038B5204BF4
:100FE00005461878A84224D01E490A6802B19047E5
:100FF0001D4B00241C7039F023F819481B491C4A6A
:101000001C4B05700C6014601C601B4815491B4A82
:101010001B4B04600C6014601C6039F021F8194807
:10102000194B417801F0FB0264F341024270012048
:1010300018701649134B4A7802F00200C1B219B178
:101040001A786FF300021A70587840F00101597055
:10105000034B1A780F2A84BF0D490A70002038BD4F
:10106000E93D0020CC030020CF3F0020BC0300203E
:10107000A8030020B8030020A4030020B003002030
:1010800018040020D83D0020D83F00201400002084
:10109000D63F002010B5044668B92448244B017897
:1010A000052211291A7003D0132901D0142902D165
:1010B0001020FFF793FF1F4A537803F02000C1B2BE
:1010C00091B1002C2FD11C4B187800F00801CAB246
:1010D00012B964F3060018701A78C2F3C00484F0E1
:1010E000010060F3C30207E0134BD4F101041A7846
:1010F00038BF002464F3C3021A700F4B0B481978F1
:10110000037801F00802D4B244B1042B04D00B4A96
:1011100004201370FFF762FF002010BD042BFBD1E9
:1011200006490878F6E74FF0FF3010BDE93D002092
:10113000EE3D002014000020D83D0020D03D0020CE
:1011400010B5174B04461878C30705D4154A137811
:1011500003F02000C2B23AB1ECB9C8B204F0BAFD53
:10116000FFF73CFF204610BD0F4B012202FA01F2AF
:10117000188814B120EA020200E002431A800B4BE7
:101180001A685AB1C8B2214690470949094B002054
:101190000870188010BD4FF0FF3010BD104610BD14
:1011A000D83D00200C000020463E0020BC0300205B
:1011B000E83D0020CE3D002010B5044628B9204B64
:1011C000022210201A70FFF709FF1E48417801F033
:1011D0001002D3B293B1002C2ED11B48037803F038
:1011E0000201CAB212B964F3060303700278C2F3B3
:1011F000400484F0010363F3410207E01248D4F194
:101200000104027838BF002464F3410202700E48E2
:101210000E4B017801F00202D4B23CB11A780C4BAB
:1012200003201A70FFF7DAFE002010BD187803289B
:10123000FAD107490878F5E74FF0FF3010BD00BF3D
:10124000EE3D002014000020D83D0020E93D0020A4
:10125000CB3D002010B510B91D4B03221A701D495B
:101260008A78D20712D500282ED11B4C227802F0A2
:101270002001CBB213B960F3060222702378C3F3C6
:10128000401080F0010262F3451307E0124CD0F1E8
:101290000100237838BF002060F3451323700E4C03
:1012A0000E48217801F02003DCB23CB100780C4BF1
:1012B00018700720FFF792FE002010BD0278072A61
:1012C000FAD107490878F5E74FF0FF3010BD00BFAD
:1012D000EE3D002014000020D83D0020E93D002014
:1012E000EC3D002010B51D4B997801F00202D3B2FD
:1012F00093B100282ED11A4C237803F04001C8B2D4
:1013000010B960F3060323702278C2F3801383F0D0
:10131000010161F3861207E0114CD0F1010022783F
:1013200038BF002060F3861222700D4C0D4B2278DE
:1013300002F04000C4B23CB118780B4B1870082082
:10134000FFF74CFE002010BD19780829FAD1064A93
:101350001078F5E74FF0FF3010BD00BF14000020FB
:10136000D83D0020E93D00202704002010B510B929
:101370001C4B01221A701C494A7802F00403D9B2AE
:1013800071B100282BD1194C237803F08001CAB227
:1013900012B960F306032370207840F0800207E062
:1013A000124CD0F10100227838BF002060F3C71240
:1013B00022700E4C0E48237803F08001CCB20378E3
:1013C00044B1382B1CBF0B4A13703820FFF706FEC0
:1013D000002010BD382BFBD1064A1078F6E74FF0FD
:1013E000FF3010BDEE3D002014000020D83D00204D
:1013F000E93D0020F13D002038B50F4B1C7804F08A
:101400000104014625461CB1BDE83840FFF7AEBFD8
:101410005A78D0F1010038BF002060F3C3025A703F
:10142000064B1A682AB111209047054905480C70EF
:101430000480002038BD00BFD83D0020BC03002040
:10144000E83D0020CE3D002070B50546D0B946F0FD
:10145000D5FA0E4C064648B146F0D8FA10B9012329
:1014600023700BE0257046F003FC07E0207033F09A
:1014700053FF304622F0CAFF1FF046FC044900200B
:10148000086070BD4FF0FF3070BD00BFA049002064
:10149000E03D002037B5002841D1234B1878C10723
:1014A00004D503B0BDE8304014F0B2BE46F0B8FA3F
:1014B00046F0ACFA40B946F0A1FA28B11B4D2A78A3
:1014C00012B302242C701FE019490A680C460AB9AD
:1014D000002406E00121206838F052FD0128F9D1EE
:1014E000F6E7651C204600210122ECB231F05EF9DE
:1014F000102CF6D10E4B186808B138F083FC0B495C
:101500000020087046F090FB68463CF08BF89DE8A0
:101510000300084D6C4685E80300002001E04FF011
:10152000FF3003B030BD00BFD83D0020A0490020EF
:10153000B03D0020E03D00202DE9FF474B4B1878DF
:10154000022809D13CF088F849490C7800230B7037
:101550003CF096F8204641E046490A88002A3CD0F3
:10156000454D2F787B1E032B20D8DFE803F0413C4C
:10157000020242480168042F0CBF0027012714BF54
:101580002725282549B33E4C3E4826884FF47A72D9
:10159000B6FBF2F35A1C1BB93B494EF01CFD02E0AE
:1015A0003A493EF0EDFD3A4C3A4E25E00127272519
:1015B00020E01F2363439A1800208854387899F854
:1015C0000010327800909AF80000734401900134C2
:1015D000314834F0A5F8022C36D1002004B0BDE823
:1015E000F04733F0A3BF00273D462C4C2C4E03E0C0
:1015F000002728252B4C2C4E1E48B0F8009021487F
:101600004EF0F1FC8046029028484EF0ECFC40453C
:10161000A8BF804627B1093DC8EB050505F0FF05C9
:101620004FF47A71B9FBF1F701FB1792039093B273
:10163000FA20B3FBF0F14F0007F1010A06EB0709AE
:101640005644E719A2440024A1B2284633F064FFAF
:1016500002AA0C4952F824201F2303FB04138E46D0
:101660004245A6DA202098540132F9E719400020BB
:101670001A400020C4030020150400201804002094
:10168000240400202C040020490506085C050608F7
:101690007D0A0608860A0608700506082F0A06084D
:1016A000380A0608400506088F0A06084B04002081
:1016B000F8B53C4B1878022872D03B490A88541C74
:1016C000A3B2B3F5FA7F01D20B8009E000200880B5
:1016D00036490A78541CE3B20B7035490120087072
:1016E000344A354C1378304920780A88102B02D1BF
:1016F000B2F5967F01E0B2F5E17F34BF002201220E
:1017000022702478A04202D0294B012018702B4966
:101710000A8832B1541EA0B2088010B9244B0121AE
:101720001970274C22880AB1501E208025490B7859
:101730005C1CE2B2032A01D80A701BE0002008708A
:1017400038F07EFC204991F8823013B15C1E81F89C
:1017500082401E4A8C319142F5D100231C4C195D08
:1017600048B2002801DD4A1E1A550133102BF5D16D
:1017700038F076FC174C1848216809B901800FE051
:1017800005886DB1013DADB205804DB9134F3BF0F9
:1017900063FF3F68266825603BF072FF3846B0471C
:1017A0000020F8BD19400020CE3D0020E83D00207B
:1017B000EA3D0020E93D0020F43D0020C83D002026
:1017C000C4030020D4030020384A0020F85200202F
:1017D0006F59002018040020240400202004002059
:1017E0000E4B0F481A780188930041FA03F010F06D
:1017F000080F0CBF0021032110F0040F18BF0221B5
:1018000010F0020F18BF012110F0010F0CBF0B46A2
:10181000002303EB8202D0B2704700BFD53F002007
:10182000CC3F002070B5524B524D1A782988900059
:1018300041FA00F10C0703D1012404FA00F62E80CE
:10184000FFF7CEFF4C4B1A780446D0071AD54B4809
:101850000578A54216D04A494A4D11F824304A4A23
:1018600001EB840613707078B17828704748484BB4
:101870000578F6781970474A05F00F0101EB061359
:1018800016700370404D20462E7832F0C3FE86421B
:1018900001DB00222A703B4D20462E7832F0C0FE3C
:1018A000864201DB00202870394D20462E7832F028
:1018B0004DFC864201DB00212970344D20462E78F4
:1018C00032F04AFC864201DB00232B70314D20466A
:1018D0002E7832F041FC102290FBF2F0864206DBBB
:1018E0002A4B1A78002102F00F00297018702A493B
:1018F0004B7803F00202D0B260B9244925480B7836
:101900000278B3EB021F03DB511CB3EB011F01DBB9
:101910001B09037019481C49194A0470087802EB26
:10192000840302F82400174A194811780278597084
:1019300018499A700878D870184B1A78B2B11849BB
:101940000878A04212D0012A0C7009D0022A0DD1C9
:10195000DA7858789978A21802F07F027F2303E0A2
:1019600058789978DA78234639F003FB002070BD67
:10197000D53F0020CC3F0020CC3D0020C7030020F5
:10198000D5030020D33F0020D43D0020F23D0020AD
:10199000F33D0020CA3F0020D83D0020E001002098
:1019A000D23F002038B5714B1878022803D1BDE82A
:1019B0003840FFF7C1BD6E490A787AB100240C7037
:1019C00033F074FD012033F0B1FD6A486A4B0078B2
:1019D0001C7004F025F9694A012111702EF0ACFE4B
:1019E00030BB674C2478242C00F2BC8065490B780E
:1019F0005A1CD3B24A2B0B7040F2B48008707CB9E9
:101A000033F054FD2146204633F086FD5E4833F026
:101A100077FE2046012133F07FFD5C4833F070FEF5
:101A2000574801784A1C0270282034F0D5FB99E011
:101A3000574B187818B957490A78002A53D033F011
:101A400035FD534C0020014633F066FD217809B185
:101A5000514805E04F4A107808B1504800E050481E
:101A6000504C33F04DFE2368002B7BD00121002029
:101A700033F052FD21684C4833F052FE00212B20F8
:101A800033F04AFD494833F03BFE0024484D2978A5
:101A90000522B1FBF2F08442D4BF23202020013480
:101AA00033F018FD142CF1D12978424833F038FE78
:101AB00001212B2033F030FD3F4833F021FE00247C
:101AC0003E4D29780523B1FBF3F29442D4BF232085
:101AD0002020013433F0FEFC142CF1D12978354854
:101AE00033F01EFE3EE034F051FC054628B1344B85
:101AF0000120187034F05CFC34E0324C238823F071
:101B0000FE01CA05D40D012C15D1014633F004FDA8
:101B10002D4833F0F5FD412033F014FE28462146D0
:101B200033F0FAFCE8B204F0EFF8013533F0E8FDE9
:101B3000102DF7D116E02248037813B1057033F069
:101B4000D1FD22490A680AB1012090470B48037869
:101B500043B100240470FFF765FE1C490A680AB10E
:101B600020469047FFF7E8FC002038BD19400020D0
:101B7000D83F0020E93D0020D13F0020EA3D002071
:101B8000260400202804002081050608A705060871
:101B9000D43F0020D13D0020C0050608DC05060822
:101BA000FC050608505900201B06060827060608F3
:101BB0006E5900203006060838060608A4FB0020EF
:101BC000C2030020D83D002041060608A4030020DF
:101BD000244B2DE9F0410646187802280C4617469A
:101BE00006D1F0B2C9B2D2B2BDE8F0411EF0F4BBEA
:101BF0002EF0A2FD002830D01B490A78002A2CD1F3
:101C00001A4D2D78002D28D1032E26D80F2C24D83C
:101C1000174B184918784FF0010806EB800608FAB0
:101C200006F60E80FFF7FEFD134A144B82F8008083
:101C3000187800F01001CAB24AB13946E0B205F096
:101C40002FFE0F4B0F491D700D80BDE8F081384607
:101C50002146BDE8F041FFF773BA4FF0FF30BDE811
:101C6000F08100BF19400020D43F0020D13D00206A
:101C7000D53F0020CC3F0020EA3D00200C00002092
:101C8000E83D0020CE3D0020A44B2DE9F74F187809
:101C9000022800F004842EF04FFD002800F001849B
:101CA00045F0ACFEC5B23DB19D490A8812F0030F64
:101CB00014BF0024012400E02C469A4E2146708B6C
:101CC00036F0E4FB0DB1E1B200E0012101203CF06F
:101CD0009DF96DB1944C924B217818884A1C90FB69
:101CE000F2F602FB1603D3F1010138BF002100E038
:101CF00029468C4C8D4EA08B36F0C8FB48F07AFFFD
:101D0000002814BF0221002102203CF07FF9317825
:101D1000E08B36F0BBFB3178854E0420002914BFE0
:101D2000014600213CF072F93178208C36F0AEFB90
:101D300032780820002A14BF014600213CF066F9E1
:101D40007C48037843B97C497C4A0B8811888B42D4
:101D500002D1002D40F0A383784F002404703E8808
:101D600075480680FFF73CFD754B8C2202FB003165
:101D7000744A91F853701378012B06461AD07249B1
:101D80000A78032A08D1A5B132F0E6F9102490FBB5
:101D9000F4F197FBF1F707E05DB16C480378B3EB22
:101DA000171F07D107F00F07012202FA07F294B2BA
:101DB00000E02C465A48037A03F08007F9B2C1B11B
:101DC0005F488C2202FB060393F853705F4B1A782E
:101DD00007F0F001B1EB021F0BD038095C4F18700F
:101DE0003B7803F00F0101EB00123A70594F0120CC
:101DF00038704C4B198849B1504F9A88481E397831
:101E000012B984EA0103D9B236F06EFB454948881D
:101E100040B14A4FCA883B88013802B96340190A69
:101E200036F062FB3F4988880F4618B10138E1B2AD
:101E300036F05AFBFA881AB1501E210A36F054FBCC
:101E4000384B19891F4621B1434A481E117836F094
:101E50004BFB788928B1404B19880138090A36F0C4
:101E600043FB3E4A1078C10704D43D4B1878C207A3
:101E70007CD414E34FF0010A00273A4B197807EBA2
:101E80008102D0B295B12E498C2303FB00122F4B57
:101E900092F853901978B1EB191F09D109F00F0886
:101EA000012202FA08FB1FFA8BF903E0A94601E0C0
