:020000040800F2
:10000000005000208D010008890100080000000058
:10001000890100088901000889010008000000002A
:10002000000000000000000000000000890100083E
:10003000890100080000000089010008890100080A
:100040008901000889010008890100088901000868
:100050008901000889010008890100088901000858
:100060008901000889010008890100088901000848
:100070008901000889010008890100088901000838
:100080008901000889010008890100088901000828
:100090008901000889010008890100088901000818
:1000A0008901000889010008890100088901000808
:1000B00089010008890100088901000889010008F8
:1000C00089010008890100088901000889010008E8
:1000D00089010008890100088901000889010008D8
:1000E00089010008890100088901000889010008C8
:1000F00089010008890100088901000889010008B8
:1001000089010008890100088901000889010008A7
:100110008901000889010008890100088901000897
:100120008901000889010008890100088901000887
:100130008901000889010008890100088901000877
:1001400089010008890100088901000831160008AA
:100150008901000889010008890100088901000857
:100160008901000889010008890100088901000847
:100170008901000889010008890100088901000837
:100180008901000889010008FEE70000684620F0A8
:1001900007018D4601B500230A4A0B499818884289
:1001A00004D20A49585898500433F5E7084B094AD5
:1001B000934203D2002043F8040BF8E700F00CF858
:1001C000FEE700BF0000002040000020A03900082A
:1001D00040000020F02000202DE9F743002000F02F
:1001E0005DFF002001F0D6F8012001F05FF86846BD
:1001F00001F049FE002401238DF805408DF80430FC
:100200008DF80640B1490A196058958802AE0583F9
:100210006946083446F8085D01F0E8FD182CF1D174
:100220000027AB4CE31938599A8802A9028341F898
:10023000082D0837694601F0D9FD302FF1D100258E
:10024000A44E7719A859BC8802AB44836946083587
:1002500043F8084D01F0CAFD182DF1D180249E4DC0
:10026000DFF8788208264FF020094FF40057A8F8ED
:100270001A9001206F836E8301F0AEF8A8F81890F1
:1002800001202F832E8301F0A7F8013CE7D12046FF
:100290008F4A131881589D88083030284D83F7D134
:1002A000012001F099F80027894EF019BC59828885
:1002B0000837302F2283F7D1012001F08DF8002577
:1002C00001218DF804508DF80710804B5F1902ACA6
:1002D000BE88E85844F8086D6946083501F086FD87
:1002E000182DF2D100257A48421902A9938828587E
:1002F00041F8083D0835694601F078FD302DF2D10E
:100300000027744EF41902A8A588694640F8085DD4
:10031000B859083701F06AFD182FF2D16F4F6420E9
:1003200000F0F8FF3A6902F0010501F090F9C6B259
:1003300016B93B69D9070BD53DB18020012101F0E9
:10034000FFFD8020002101F0FBFD002001F086F977
:10035000002000F02DFB002000F022F9B6B95F4923
:100360000C69E20770D45E480778422F6CD15D4A71
:100370001678002E68D001F0ADFC0120002100F0BD
:10038000B5FF594BDF78082F46D103E0102000F06D
:10039000DBFA59E06FF00700012101F0C5FD6FF0B5
:1003A0008000012101F0CCFD4FF0FF30012101F070
:1003B000D3FD4FF0FF30012101F0DAFD4FF0FF30A7
:1003C000002101F0B1FD4FF0FF30002101F0B8FD38
:1003D0004FF0FF30002101F0BFFD4FF0FF30002152
:1003E00001F0C6FD45B18020012101F0A9FD80206A
:1003F000002101F0A5FD08E001F029F928B13B48F2
:10040000D0F8E4550DB102F0E1FA394E346884F3C6
:10041000088835490A68904700F0A4FF012001468A
:1004200000F064FF00F0A8FF40F2F31398421F466B
:10043000F8D900F097FF0120002100F057FF00F0ED
:100440009BFFB842FBD9E7E700F08CFF00F094FF78
:100450003227B0FBF7F364210446B3FBF1F001FB54
:10046000103242F21073B4FBF3F1560841F28830B7
:1004700003FB11428242B4FBF7F307FB134188BF31
:10048000C6EB07060120B14294BF002101210A27D3
:1004900000F02CFFB4FBF7F607FB16440CB900F094
:1004A000ADFD002000F03EFD00F066FF44F61F6148
:1004B0008842CBD900F07EF80028C7D1002D3FF448
:1004C0005AAF064A1069C307C0D454E7D0360008B3
:1004D000E8360008B8360008000402400000024078
:1004E000D23F0008D33F000804400008B4150020A4
:1004F00000400008124B1A78032A10B50BD8114996
:100500000C6800F07F004FEAC41444EA0010086051
:100510000FD104220EE0072A0FD80B490C6800F017
:100520007F004FEAC41444EA0010086001D1082299
:1005300000E001321A70002010BD4FF0FF3010BDF6
:1005400004050020400000205000002070B5134B2F
:1005500088B016461A7804460D468DF80020997822
:10056000DA7858781B798DF802108DF803208DF811
:1005700001008DF8043000F089FD8DF80500F720AA
:100580008DF808006946204609228DF806508DF83E
:10059000076000F087FA08B070BD00BF113800088E
:1005A00010B9034B187070474FF0FF30704700BF11
:1005B00005050020014B1878704700BF0505002095
:1005C0002DE9F04198460C461546064600F052FDCE
:1005D00000F0C8FEB8F1010F04D0B8F1020F40F0EE
:1005E000A38189E0B14B14B1012C0AD104E01C7045
:1005F000AF4BB04A1C6092E01978072900F2918154
:1006000097E01978082903D030460E210122E5E051
:10061000A948AA4C0278437881782270C278007980
:10062000A34FA44D6370A170E27020713F682D68E4
:1006300000F02CFD4FEA556E6071780E0223E071D8
:10064000C7F386417044A3712172C7F3C6234118D2
:100650006372C7F3061253FA81F3C5F38640A272A0
:1006600052FA83F250FA82F1C5F3C62353FA81F2AB
:100670002073C5F3061050FA82F163730023A07350
:1006800084F80BE0C9B21A460F341846A84221D0AC
:1006900010F807E04FF0080C01335200DBB242EAD9
:1006A000DE12062B4FEA4E0ED2B25FFA8EFE0AD948
:1006B000C3F1070302FA03F2D2B25118002304F87F
:1006C000012BC9B21A460CF1FF3C1CF0FF0CE3D120
:1006D0000130DBE71BB18B1804F8012BD9B24A4279
:1006E000764902F07F00F723A21C20706370304629
:1006F000521A00F0D7F914E114B1012C53D110E0D3
:100700006A4B6B496B486E4A1C700C6004606D4B01
:100710006D496E4814706E4A1C700C600460146061
:10072000FFE062480178072907D8654908782A1848
:100730000A702846FFF7DEFEF3E008292BD1604857
:100740000278AB18037060480368B3F5806F80F0DF
:10075000E880584E5E4F5D4C366838682268072442
:100760000132C5F380176D00072A47EA4000EDB259
:1007700006D9524AD0540133B34228BF092100227E
:10078000013CEDD1524C2060504802604E4A13604B
:10079000464B1970C5E0092902D14A4B1D70C0E0D3
:1007A0000C220270BDE0434B47481F680168B94204
:1007B000FFF42AAF3D4A13780C2B03D130460E21AB
:1007C00042460BE03E4A3F4813780178584200F019
:1007D0007F02914205D030460E210322FFF7B6FE7C
:1007E0009FE0334B3B4901240C701C6844EA07002E
:1007F000830740F08C80384A944202D86FF007009B
:1008000087E000F0DFFC00F100614B1E9C426DD8D8
:1008100001F052FA00230C21594330480A589442FF
:1008200024D12F492F488C4201D10022026001219E
:10083000006801FA03F1014203D02B4D4FF000088C
:100840002EE041EA000227490A60244A0C2000FBFE
:1008500003230221586801F093FA0828EDD04FF0E5
:10086000FF3001F03FFA6FF0030052E001330C2B30
:10087000D1D1E2E76B7829781A0442EA012315F80E
:10088000011CAA780B4343EA026101F05BFA0435CC
:100890000828E4D101F008FA01F0FEF908F1040893
:1008A000B84508EB0400E5D342E000BF0405002092
:1008B000400000205000002011380008580000209F
:1008C0004C000020540000200005002008050020F6
:1008D0004400002005050020FF3F000818370008ED
:1008E000004000084800002059000020B4F1005FDB
:1008F00084D300F06FFC00F10050421E94423FF69A
:100900007DAF20460E493A4602F0CCFE10E06FF073
:10091000080043420E213046DAB2FFF717FE00F01E
:100920006DFB0020BDE8F0814FF0FF30BDE8F081A5
:100930000449087842420F21304602F07F02ECE77A
:10094000580000204C00002010B5114B88B01A78D8
:1009500099788DF800200446DA7858781B798DF85C
:1009600002108DF803208DF801008DF8043000F09E
:100970008DFBF7218DF8050001208DF806008DF81C
:10098000071020466946082200F08CF808B010BD18
:100990001138000808B52020FFF7D6FF1020FFF718
:1009A000D3FF024B0020187008BD00BF05050020D2
:1009B00010B5044600282CD1174A1849102313708B
:1009C0000B70174A174B1849186010600860174BD6
:1009D000174A184918601060086000F03FFF164B76
:1009E000164A1C70164B174914701C700A78C00FF9
:1009F000422A04D114490A78110658BF1A70134BC1
:100A000000211980124900220023C1E9002340423D
:100A100010BD4FF0FF3010BD00000020010000208D
:100A20000C05002014050020380500203C0500209E
:100A300028050020180500201C05002020050020A6
:100A40001D050020D03F0008D13F00081E050020F2
:100A50003005002010F0F00F38B504460D4604D1E3
:100A600001280CBF0C4B0D4B1C780D4B1A6864F31E
:100A7000071542B904F0F004102C0AD12846BDE84D
:100A8000384000F059BF2046294690470028F1D051
:100A900038BD4FF0FF3038BD0100002000000020BD
:100AA0000C0500202DE9F04180460E461746002433
:100AB000BC4235D23B1B022B0DD0032B19D0012B8E
:100AC00019D1325D052161F3030562F30F2501346D
:100AD0006FF317450AE03119305D4A78062363F356
:100AE000030560F30F2562F3174502346FF31F65AA
:100AF0000FE0072000E0042060F303053019335DA8
:100B00004178827863F30F2561F3174562F31F651F
:100B1000033440462946FFF79DFF0028C8DA00E06D
:100B20000020BDE8F081000030B5A1B0F0238DF8C1
:100B30000030134B7E2232258DF803201A788DF871
:100B4000045000240F258DF801408DF802408DF8E7
:100B500005208DF8065002AB0D5D5A1E35B10134EB
:100B60001A4603F8015C0133642CF5D1F72102F831
:100B7000011B6946521AFFF795FF21B030BD00BF37
:100B80001D05002000B589B0F0238DF8003000234A
:100B90008DF801308DF802307E238DF8033032233A
:100BA0008DF80430084B8DF806101B788DF807205F
:100BB000F7218DF80810092269468DF80530FFF7F6
:100BC00071FF09B000BD00BF1D050020F0B5454E06
:100BD0008BB0337804460D461746FFF7F1FC00282A
:100BE0007CDA31780D295AD001D829B169E00E2973
:100BF00074D00F2965D15AE03B4B1DB1012D03D1B3
:100C00001F706BE01D7069E01878052829D011D895
:100C1000022820D004D801283DD12046334937E0AE
:100C200003281BD0042836D100F0C6FA304902460A
:100C3000684623E0082826D006D8062819D00728B9
:100C400029D100F0C7FA16E009281FD07F2822D149
:100C5000FFF7A0FE42E02046264919E0204626493B
:100C600016E0684600F0BAFA0028204609DA23495F
:100C70000EE000F0A7FA22490246684600F0E2FFC3
:100C80002046694604E020461E4901E01E492046F0
:100C9000FFF74AFF22E020460E210D2204E0022D3C
:100CA0001CD120460E211022FFF76CFF16E0174AD8
:100CB0000DB1012D01D1556010E0526872B9204686
:100CC000F2E70E210A462046FFF75CFF0F49054B6D
:100CD0000A7800206FF307020A70187000200BB02A
:100CE000F0BD00BF1005002040050020B837000807
:100CF000D3370008BF370008C9370008D8370008C5
:100D0000DA370008DD370008EF370008200500203B
:100D1000F72910B50A465AD82E4B197801F0080366
:100D200003F0FF041BB12C4B1B7883424CD1A0F184
:100D30001103062B48D9284B187004BB25480378AB
:100D400003F00703042B03D82448C05C904221D150
:100D500001F00701052903D121480178914219D1F9
:100D60005A1C1C4B197802F0070060F30201052899
:100D700019702CD9CAB242F00800187027E0130687
:100D800011D5F72A06D101F01001CBB213B102211F
:100D9000FFF71CFF0F4B134A197800206FF3070170
:100DA0001970107010BD01F01004E4B244B9094B81
:100DB000197841F0100119700A4B21461A7000E0B1
:100DC0000121FFF703FF02E04FF0FF3010BD0020CC
:100DD00010BD00BF200500201C05002011380008B0
:100DE0001D0500201005002001F00F032DE9F0473C
:100DF0000F46C1F30728C1F307494FEA116A03F10F
:100E0000080101F00F010629064602D8002A5ED12A
:100E100080E0B8F1F00F08D003F10C0000F00F01F2
:100E200003292CD8B8F1F60F29D03C49D1E9004567
:100E300054EA050023D106F0F004302C4FF00000F6
:100E40000CD0502C13D0102C19D1354C208006F02A
:100E50000F00012404FA00F0088010E0304C2080DC
:100E600006F00F00012404FA00F0488007E02C4C43
:100E7000208006F00F00012404FA00F088800F2B78
:100E800048D8DFE803F022222222081C28284747FE
:100E9000474747474708B8F1F70F16D8304641464D
:100EA00007F00F07FFF734FF0F2F33D049463046C6
:100EB000FFF72EFF30465146FFF72AFF2AE0B8F130
:100EC000F70F02D8B8F1F60F05D11AB3304627F064
:100ED000F00190471EE01A1F12F0FF041AD03046AE
:100EE0004146FFF715FF012C0CD030464946FFF76D
:100EF0000FFF022C05D030465146FFF709FFD046C0
:100F000000E0C846B8F1F70F04D1044900220023DD
:100F1000C1E900230020BDE8F08700BF30050020B4
:100F20001E05002013B5044601A800F01DFD002891
:100F300007DB0199C1F3031010302246FFF754FF7D
:100F4000F2E72849D1E9002352EA030047D0264BB3
:100F50001888B0F57A7F42D90A8862B1002142FA36
:100F600001F313F0010003D101311029F7D101463B
:100F70001031C8B21AE04B885BB143FA02F010F0AE
:100F8000010103D10132102AF7D10A463032D0B222
:100F90000CE0888850B140FA03F111F0010203D14E
:100FA0000133102BF7D113465033D8B20F4B1A78B8
:100FB00002F00801C9B249B10D490978814205D151
:100FC0006FF307021A700B4B00221A700A490A6865
:100FD00002B19047034800220023C0E9002300200B
:100FE0001CBD00BF300500201E050020200500208C
:100FF0001C050020100500203C05002010B500F065
:10100000DFFC044600F048F8054B1A884FF6FF71E4
:101010008A4240EA040001D001321A8010BD00BFAC
:101020001E050020114BF7B51C680746E4B1C1F35B
:101030000764C1F30720C1F307420D4D8DF8064048
:1010400001F00F0100246E5C8DF804008DF805207E
:101050002546B54208DA01AA044B515D1B683846A3
:10106000984701350443F4E72046FEBD14050020EF
:10107000A8370008012803D0034B187000207047E0
:101080004FF0FF30704700BF01000020014B18787F
:10109000704700BF1D0500200020704713B50446AF
:1010A00000287AD11F20012100F00EFF3C4B009454
:1010B0009A6802F00C00082802D1012000905DE03F
:1010C000196841F001021A609C60186820F0847170
:1010D000344821F480321A605860196821F4802263
:1010E0001A60DC600194186840F4803119602C4B60
:1010F0001A6802F40030009001994A1C019200988D
:1011000018B90199B1F5A06FF1D11B6813F4003241
:1011100018BF01220092009801282FD1204B2248AD
:10112000196C41F080521A64016841F480420260F7
:1011300098689860996841F400429A6098681B4AE0
:1011400040F4A05199605A60186840F080711960AD
:101150001868134A8101FBD5154B40F205611960EF
:10116000906820F003019160936843F00200906062
:101170000B4A916801F00C03082BF9D10D480021AE
:1011800000F07AFD4FF4407000F06CFD009A012AE7
:1011900014BF4FF0FF30002001E04FF0FF301CBDC6
:1011A000003802401030002400700040085440070E
:1011B000003C024000000008014B1868704700BF67
:1011C000002004E0024B188881B28802704700BFFB
:1011D000227AFF1F4FF440307047000000230B4A73
:1011E000591089180A78D90758BF120902F00F025E
:1011F000092A94BF302137218A18C2540133182B91
:10120000EDD1002101760846704700BF107AFF1F1C
:10121000074B1A681AB9EFF31081064801604FF0C6
:10122000010080F310881A68511C19600020704773
:101230004805002044050020074A13683BB1581EAA
:10124000106038B905490A6882F3108802E04FF04F
:10125000FF307047002070474805002044050020FB
:101260000F291CD80F4BDA68D343C3F30222C2F113
:10127000040301FA03F1090100F16043CAB203F566
:101280006141012381F8002342B200F01F0051099F
:1012900003FA00F2044840F82120002070474FF084
:1012A000FF30704700ED00E000E100E0C30713B538
:1012B000044611D5684600F0E6FD402001210223D6
:1012C00000908DF80410002207488DF8053069461B
:1012D0008DF8062000F08AFD34F0030314BF6FF090
:1012E000010000201CBD00BF00080240C20707D556
:1012F000074B11F0010F4FF0400214BF1A835A83BD
:1013000030F0030314BF6FF001000020704700BFEE
:101310000008024030B5012185B00446102000F0DD
:10132000EBFD54204443611E0D4CADF804104FF604
:10133000FF730025204601A90293ADF80C50ADF8CB
:10134000065000F021FE01210A46204600F066FE0C
:101350002046012100F056FE284605B030BD00BFF2
:10136000001000400348012108B5416200F06AFE08
:10137000002008BD00100040054810B50121446A56
:1013800000F055FE00280CBF20464FF0FF3010BD86
:10139000001000401FB50446B8B90120014600F016
:1013A000B7FDA7204FF6FF73ADF8040001A9094867
:1013B0000293ADF80C40ADF8064000F0E5FD05489D
:1013C000012100F01FFE204601E04FF0FF3004B085
:1013D00010BD00BF00000140044B596A89B25A6A2F
:1013E000521A92B28242FAD900207047000001409E
:1013F00012230B80004870475038000804230B80EC
:10140000004870474C380008704770477047704775
:1014100070470020704700207047000065230B8054
:10142000004870478F38000810B50B4B8CB0987887
:101430001A888DF8060002A80C46ADF80420FFF7C4
:10144000CDFE0028ACBF02A801A80449224601F045
:101450009BF902480CB010BD80380008882000209D
:1014600070B5164B86B00A4601AC03F11006186839
:101470005968254603C50833B3422C46F7D118886E
:10148000002328800E495818017859B120395F2966
:101490008CBF002101210133202B06D00029F1D17E
:1014A00001A805E0002BFBD001E00029F8D004489A
:1014B000044901F069F9034806B070BDDD37000842
:1014C000E03F000888200020FFF7CABFFFF7C8BF31
:1014D0001146FFF7C5BF00001FB5084C0A4620683B
:1014E000616801AB03C3A068054C1860214601A8E0
:1014F00001F04AF9204604B010BD00BF833800084F
:1015000088200020022908B503D10846002100F0F8
:101510006DFA002008BD012908B503D10846002155
:1015200000F05CFA002008BD10B50221044601F06D
:10153000C1FD2046812101F0BDFD002010BD00202D
:1015400000F092B9012000F08FB90000022110B51F
:10155000402204460B4601F08CFD812140220223EB
:10156000204601F086FD0221034A0448402301F091
:10157000BAFD002010BD00BF44200020B41500209B
:10158000F7B5274B1D78002D48D101242046214670
:101590001C7000F099FC4FF4D850009003260227ED
:1015A00020488DF8056069468DF804708DF8065066
:1015B0008DF8075000F01AFC1A4808210A2200F0A2
:1015C0006BFC184809210A2200F066FC15480B2123
:1015D0000A2200F061FC0A2212480C2100F05CFC97
:1015E0004FF4806100910F488DF8047069468DF8C2
:1015F00007408DF8056000F0F9FB0A210A4609480A
:1016000000F04AFC4FF48040214600F081FC80202D
:10161000214600F065FC204600F038FBFEBD00BF0F
:101620004C0500200000024043200821FFF718BEAF
:10163000014801F031BE00BFB415002080B2FFF7B1
:10164000CBBE4FF47A73584380B2FFF7C5BE4FF05C
:10165000A0431868C0F3C04070470000022837B5A7
:10166000054642D8FFF7F3FF0446FFF768FF45BB86
:1016700014F0FF0F25D01E4C2046FFF781FF1D48B8
:101680001D491E4AC4F8E405C4F8E81520460121A6
:10169000C4F8EC2501F0EAF8204601F090F9204664
:1016A00001F000FA2046FFF7BFFF01210323204687
:1016B00084F8101184F81231FFF748FFFFF742FF5A
:1016C00011E00D4B0D4A009301210A4B084800F030
:1016D000BBFD074801F08BFD4CF25030FFF77CFE5C
:1016E000034801F07CFD002001E04FF0FF303EBDDB
:1016F000B415002018380008F438000864380008D1
:1017000070B5254CD4F8E435002B43D0FFF780FDAD
:1017100022480178002939D0D4F8DC63B608B3B286
:10172000002B33D01E4A108881B21BB2C1F5007263
:1017300093422BDA00241B4D55F82450C5F30310B7
:1017400010302946FFF76EFC90B9174B174A1988DD
:1017500089B242F8215019884A1C91B2B1F5007F34
:10176000198028BF18800E4803885A1C91B2018046
:101770000134301B03B2002BDDDC0849064800228F
:101780000A7040230221074A01F0ADFCBDE8704019
:10179000FFF752BD70BD00BFB415002058150020E2
:1017A00050050020442000205A150020580D00202C
:1017B000234BD3F8E40510B5002840D0FFF728FDEF
:1017C00020490A78002A36D11F4B188881B2002997
:1017D00031D01E4A107800282DD019888AB2102ADC
:1017E00098BF1988174B94BF89B210210120187037
:1017F00015480288531A9AB2028000220BB29A420C
:1018000013DA134B13481C88A4B250F82440124832
:1018100040F822401888013080B2B0F5007F18806F
:1018200001D3002018800132E8E705480A4A8121E7
:101830009B0001F075FCBDE81040FFF7FDBC10BD3A
:10184000B4150020540D00205E1500206215002004
:10185000601500205405002064150020002814BFE6
:101860004FF0FF30002070470D49002310B50B806A
:101870000C4C0D4923800B800C4C0D4923700B80C0
:101880000C4C0D4923801A460B800C4C0C4B01214B
:1018900010B121701A7001E022701970002010BD83
:1018A000500500205A150020520500205815002030
:1018B0005E1500204E0500206015002062150020F6
:1018C000540D002038B5184C2378054613B94FF055
:1018D000FF3038BD154801888AB2B2F5FF7F07D9BD
:1018E000FFF766FF2378002BF1D06FF0010038BDC1
:1018F000FFF78EFC0E4B0F49188882B2501C41F83E
:10190000225082B21A80198888B2B0F5007F01D3C4
:1019100000221A80054B1988481C82B21A80FFF7F2
:101920008BFC002038BD00BF621500205E15002032
:101930004E0500205405002010B504462046FFF750
:10194000C1FF831C08D1074B1A8842F20F718A42EB
:1019500007D8501C1880F1E7002802DB014B002259
:101960001A8010BD5C150020124B10B50446188873
:1019700081B2D9B1FFF74CFC0F4B10491A8890B2D5
:1019800051F8202022601C88601C81B2B1F5007FD4
:10199000198001D300221A80064C2388581E81B278
:1019A0002180FFF749FC228890B210BD4FF0FF3034
:1019B00010BD00BF5005002052050020580D00202A
:1019C00008B5054801F05EF818B9FFF799FEFFF772
:1019D000EFFE002008BD00BFB4150020024B00221E
:1019E0001A70FFF7E5BE00BF540D0020024B012224
:1019F0001A70FFF785BE00BF5815002020B103689C
:101A0000197001684A1C026070472DE9F843141EE2
:101A10008046894601DC20270FE0002219F80210D9
:101A200009B10132FAE7A242B4BFC2EB04040C468A
:101A300013F0020F0CBF20273027DB070CD42546FC
:101A4000002D05DD40463946FFF7D8FF013DF7E799
:101A500024EAE476A41B00E000263546C6EB090321
:101A6000595D21B14046FFF7C9FF0135F6E726462B
:101A7000002E05DD40463946FFF7C0FF013EF7E77F
:101A8000002CACBF2819281CBDE8F8832DE9FF47BE
:101A90000C9EDDF8348081460C4651B930228DF819
:101AA00004208DF80510324601A94346FFF7ADFF2B
:101AB00035E033B10A2A04D1002902DA4C42012769
:101AC00000E0002704AD002305F8013DAA466CB1F3
:101AD000B4FBF2F302FB1344092C02DD0E993A39F0
:101AE0006418303405F8014D1C46EFE787B14EB15C
:101AF00018F0020F06D048462D21FFF77FFF013E68
:101B0000012705E02D2005F1FF3A05F8010C00271B
:101B10004846514632464346FFF777FF381804B02F
:101B2000BDE8F087F0B589B006460D460592002461
:101B30002B7823B1252B79D168786A1C28B9002E1F
:101B40007BD030680022027077E025286DD02D28E8
:101B500002D1AA1C012300E0002317460132397884
:101B6000302902D143F00203F7E700223978A1F1CE
:101B700030005FFA80FC3D460137BCF1090F03D805
:101B80000A2505FB0202F1E7732909D1059F391DDA
:101B9000059139682A4F3046002908BF394641E08F
:101BA00064290ED18DE80C00059961230293081D6C
:101BB000096805900A2230460123FFF767FF2418C1
:101BC00039E0782906D10599081D8DE80C000590AB
:101BD000612207E058290AD10599081D8DE80C00FB
:101BE0000590412202923046096810220BE07529C7
:101BF0000BD18DE80C00059961230293081D09683B
:101C000005900A2230460023D7E7632913D10599AE
:101C1000081D0968059000208DF81C108DF81D0026
:101C200007A93046FFF7F1FEC9E715463046297887
:101C3000FFF7E4FE013401357AE7204609B0F0BD34
:101C4000103900080EB40FB505AA019052F8041B14
:101C500001A80392FFF766FF04B05DF804EB03B040
:101C60007047000040F0BF60024B40F40031D96083
:101C7000704700BF00ED00E021F0604121F07F02DD
:101C8000014B10439860704700ED00E0014B586134
:101C9000704700BF003C0140024B1A6842F40060EC
:101CA00018607047003C0240024B1A6842F48050B2
:101CB00018607047003C0240044B1A69002A04DA9D
:101CC000034800F18831586059607047003C024079
:101CD00023016745024B1A6942F0004018617047C2
:101CE000003C0240014BD860704700BF003C0240FE
:101CF0000B4BDA68D0030DD4D868C1060CD4D96870
:101D000011F0EF0F0AD1DB6813F0020F0CBF0820AF
:101D10000720704701207047052070470620704754
:101D2000003C024007B508238DF80730FFF7E0FFBD
:101D30008DF807009DF807000128F7D09DF80700EF
:101D40000EBD000070B505460E46FFF7EBFF0828F4
:101D500013D10A4C236923F440702061216941F4B6
:101D600000722261236943F0010020612E60FFF7B9
:101D7000D9FF216921F00102226170BD003C0240BF
:101D800070B5064641B1012908D0022914BF4FF4AD
:101D900040754FF4007503E00D4601E04FF4807587
:101DA000FFF7C0FF08281ED10F4C236923F44070B1
:101DB000206121690D432561226922F0F803236126
:101DC000206940F002010E432661226942F480330B
:101DD0002361FFF7A7FF216921F002022261236935
:101DE00023F0F801216170BD003C0240F0B50E689F
:101DF0000022012303FA02F303EA06059D423ED1C5
:101E000007680C79530027FA03F707F00307A74286
:101E10000DD007684FF0030C0CFA03FC27EA0C07FF
:101E20000760076804FA03FC4CEA07070760013CF7
:101E3000012C17D88768032404FA03F427EA04075F
:101E400087604C79876804FA03F43C4384604468F3
:101E500024EA05058C794560456804FA02F4A4B2C9
:101E60002C434460C568032404FA03F425EA0405FE
:101E7000C560CD79C46805FA03F32343C36001321A
:101E8000102AB6D1F0BD00214FF6FF730360017137
:101E900041718171C171704701F00703C9080831B0
:101EA00030B59B0050F821500F2404FA03F425EAC2
:101EB000040440F8214050F8214002FA03F2144390
:101EC00040F8214030BD0000044B1A6B09B11043AB
:101ED00001E022EA00001863704700BF00380240AA
:101EE000044B5A6B09B1104301E022EA0000586329
:101EF000704700BF00380240044B1A6C09B1104310
:101F000001E022EA00001864704700BF0038024078
:101F1000044B5A6C09B1104301E022EA00005864F6
:101F2000704700BF00380240044B1A6909B11043E2
:101F300001E022EA00001861704700BF003802404B
:101F4000044B5A6909B1104301E022EA00005861CC
:101F5000704700BF00380240044B1A6A09B11043B1
:101F600001E022EA00001862704700BF003802401A
:101F7000044B5A6A09B1104301E022EA000058629A
:101F8000704700BF003802401C4A038890429BB251
:101F900012D002F5806290420ED0B0F1804F0BD08B
:101FA000A2F58032904207D002F58062904203D0C1
:101FB00002F58062904203D14A8823F070031343F4
:101FC0000F4A904208D002F58062904204D023F478
:101FD00040730A899BB2134303804B680A88C3622B
:101FE000064B0285984203D003F58062904201D1EE
:101FF000897A018601238382704700BF0000014077
:1020000000100040038819B199B241F0010303E0C8
:1020100023F001010A04130C0380704783899BB2EB
:102020000AB1194301E023EA010181817047038A63
:10203000828911EA030092B203D011420CBF002042
:1020400001207047C9438AB202827047D0F8E83550
:1020500010B5044618698047032184F81211002046
:1020600010BD08B590F81231042180F8133180F8C2
:102070001211D0F8E805C2689047002008BD08B5E5
:10208000D0F8E435D96901B18847002008BD08B50A
:10209000D0F8E435196A8847002008BD08B5D0F8A3
:1020A000E435596A8847002008BD002110B5402258
:1020B00004460B4600F0DDFF80214022002320462D
:1020C00000F0D7FFD4F8E805012384F81231416805
:1020D000A0788847002010BD13B56946044600F07B
:1020E00023F99DF8001001F01F03012B0CD006D33B
:1020F000022B0ED12046694600F046F90EE020463C
:10210000694600F0BBF909E02046694600F09EF9F7
:1021100004E0204601F0800101F01DF800201CBD04
:1021200070B50446002947D190F81131022B37D100
:10213000D0F83821D0F824319A4211D9D21AC0F8F7
:102140003821C078012804D1D4F82811CB18C4F85C
:1021500028312046D4F8281192B200F0B5F81FE0DB
:10216000D0F83C51B5FBF3F603FB16565EB99D4221
:1021700009D3D0F84021954205D2324600F0A4F8A8
:10218000C4F840610CE0D4F8E405C16829B194F8C2
:102190001231032B01D120468847204600F0B5F8C4
:1021A00094F81621012A10D1094920690B680022F0
:1021B000436084F8162108E0D0F8E4355B6923B168
:1021C00090F81221032A00D19847002070BD00BF6B
:1021D0008420002010B5044659BB90F81111032942
:1021E00030D1D0F89023D0F87C339A4214D9D21A47
:1021F000C0F89023C078012804D1D4F88013C818FF
:10220000C4F880039A4228BF1A462046D4F88013A7
:1022100092B200F062F815E0D0F8E4150B6923B132
:1022200090F81221032A00D19847204600F05EF86A
:1022300008E0D0F8E4359B6923B190F81221032A15
:1022400000D19847002010BD2DE9F041069F0446BB
:10225000164698460D46FFF793F920462946C4F8DE
:10226000E485C4F8E875C4F8EC6500F0B7FED4F86E
:10227000E835186880472046BDE8F041FFF7D4B93B
:10228000D0F8E43510B504461A689047D4F8E8054C
:1022900081688847002010BD08B5D0F8E4355A6839
:1022A0009047002008BD38B504460D46C4F83C21CF
:1022B000C4F838211346022280F8112100212A4651
:1022C00000F02EFF002038BD10B50C46134600214B
:1022D000224600F025FF002010BD10B50C46134625
:1022E0000021224600F0FFFE002010BD0021042343
:1022F00010B50A46044680F811310B4600F010FF75
:10230000204600F04DFE002010BD0021052310B531
:102310000A46044680F811310B4600F0E4FE2046E0
:1023200000F03EFE002010BD90F8CC350B7090F808
:10233000CD254A7090F8CE3590F8CF2503EB0222D8
:102340004A8090F8D03590F8D12503EB02228A809C
:1023500090F8D23590F8D32503EB022293B2CB80CC
:102360000121C0F8403180F81111704710B580216B
:10237000044600F0F0FE2046002100F0ECFE20466E
:10238000BDE8104000F00CBE70B54E788A88012E72
:1023900004460D46D3B211D029D3032E51D190F863
:1023A0001221022A2AD0032A49D14988A9B9A3B106
:1023B000802B12D0194600F0CEFE0EE090F81221CC
:1023C000022A1BD0032A3AD14988002939D153B1B6
:1023D000802B08D0194600F0DCFED4F8E40529462D
:1023E0008368204698472046FFF780FF29E090F851
:1023F0001251022D02D0032D21D106E00BB3802B08
:102400001FD0194600F0A7FE1BE012F0800F4FF01E
:10241000280006D002F07F0200FB024191F81E3135
:1024200003E000FB034393F87633074803B101232D
:102430000360054920460222FFF735FF01E0FFF760
:1024400095FF002070BD00BFAC15002038B590F896
:102450001231032B04460D460CD10A79012A09D802
:10246000D0F8E4359A689047E88828B92046FFF705
:102470003DFF01E0FFF77AFF002038BD70B54B78D3
:10248000052BA2B004460D4600F0B18008D8012B00
:1024900000F04381C0F00881032B40F0618114E11A
:1024A000082B00F0F38003D8062B40F0598106E09A
:1024B000092B00F0BC80552B40F052813DE148884B
:1024C000010A4B1E062B00F24B81DFE813F00700D8
:1024D00018003200490149015E007300D4F8EC3560
:1024E000A0781A680DF1060190470146E888402857
:1024F00003D094F81231012B69D1082357E0D4F8A6
:10250000E4050DF10601826AA0789047A378012BBB
:10251000014609D1207A012806D1D4F8E415CA6A07
:102520000DF106019047014602204870C4F8F015ED
:102530004DE0C1B2A078052920D8DFE801F00307FB
:102540000F13171BD4F8EC154A6802E0D4F8EC35E9
:102550009A680DF106019047014638E0D4F8EC2561
:10256000D268F6E7D4F8EC150A69F2E7D4F8EC354E
:102570005A69EEE7D4F8EC158A69EAE7D4F8E4255D
:10258000136B0DF106029847E6E7A078002840F0AB
:10259000E780D4F8E4158A6A0DF106019047744982
:1025A000837BC27B007C0B714A7188710A23ADF872
:1025B00006300CE0A078002840F0D280D4F8E42562
:1025C0000DF10601D36A9847014607204870BDF80F
:1025D0000600002800F0C880EA88002A00F0C480C5
:1025E000824228BF0246ADF806202046B5E08A8820
:1025F000002A40F0B580C988002940F0B1806E887B
:1026000090F8122106F07F03032A1E4600F0A880EE
:1026100080F81431194600F0DAFD2046FFF766FE17
:102620000EB1022000E0012084F812019CE08B78BA
:10263000504A012B137000F2938090F81221022A65
:1026400003D0032A40F08E8008E0002B61D00121E6
:10265000032380F8101180F8123114E043B90221ED
:1026600080F8121180F810311946FFF715FE50E07E
:1026700090F8101101294CD0FFF70EFE3D4801786B
:10268000204684F81011FFF7FBFD42E0CA88012ABA
:1026900066D190F81231022B04D0032B62D100F5E1
:1026A00088715AE0344958E090F81221931E012BAA
:1026B00058D83248D4F81821002101600AB1022309
:1026C000036020462D49022247E04B88012B2DD084
:1026D000022B49D18A8812F0FF0F45D10069110AF7
:1026E0004A1E4368042A0FD8DFE802F003050709F1
:1026F0000B00012006E0022004E0032002E0042099
:1027000000E0052060F306131D490B60012384F8E7
:1027100016312046FFF7EAFD26E090F81221931EBD
:10272000012B1FD84A88012A1ED10023D4F8E425A2
:10273000C4F8183193689847EBE70978C0290FD19E
:102740006A886AB9EE88802E0AD10E49324602A8FC
:1027500000F0A8FF204602A93246FFF7A4FD03E0DF
:1027600020462946FFF702FE002022B070BD00BFC0
:1027700004000020A4150020B0150020A81500209A
:10278000842000201739000830B5C0B10023C55C93
:10279000DCB20133002DFAD1631C5B0013800322ED
:1027A0000B704A700138022310F8012F3AB15C1CFB
:1027B000CA54E2B2023300248C54DBB2F4E730BDD9
:1027C000C36804494FF0FF326FF080405A6058618F
:1027D000996170470008008037B50023104C0193C1
:1027E00005460320FEF72AFFE8680269013C0192D2
:1027F00013D001990029F4DA019B43F00102019200
:102800000199074A01610369013A019302D00199D4
:10281000C907F8D40320FEF711FF00203EBD00BF1A
:10282000410D030030B5C4786CB900EB820003336E
:10283000D0F8D0509B1022469A4204D051F8220082
:1028400001322860F8E7002030BD10B50332D0F81F
:10285000D0409210002393424FEA830004D02068B6
:1028600041F823000133F6E7081810BD0122F0B546
:10287000002340249142C370827084800CD14FF4B5
:10288000A073C172082204240221C3800270447024
:1028900001724FF0A0430CE059B90C23C1720370D0
:1028A00006214FF4A0650226204B4170C5800672B8
:1028B000C27003F5006505614578C360024619469C
:1028C00000240432AC4201F1200608D201F5106761
:1028D00001F530611165576101343146F1E703F5C7
:1028E000806403F5886144610478C0F8CC1000224C
:1028F00003F5A061A24206D200EB82050132C5F8C1
:1029000090102031F6E703F580510022A24207D251
:1029100000EB82050132C5F8D01001F58051F5E7D2
:1029200003F56063C0F80C310020F0BD00000440E6
:1029300038B5037A0025012B0446C36821D1986B72
:10294000617A65F3104009B140F480109863DA6849
:102950006FF386126FF314526FF396526FF3514276
:102960006FF3D342DA602046FFF736FFE378012B9E
:1029700019D1052161F34405E06845F02005856023
:1029800011E0DA6842F04001D960FFF725FF607A74
:10299000E36800280CBF4FF434124FF474129A63AA
:1029A0001420FEF74EFEE278012A06D1E36899680A
:1029B00021F03E0040F02A029A60002038BDC36832
:1029C0009A6842F00100986000207047C3689A68D6
:1029D00022F00100986000207047000007B5002336
:1029E0000193019A42F020030193019A094B61F38C
:1029F0008A120192C268019810611169013B01912C
:102A000002D001988006F8D40320FEF717FE0020BC
:102A10000EBD00BF410D030007B5002301930199CE
:102A200041F010020192C068019B074A03610169ED
:102A3000013A019102D0019BD906F8D40320FEF798
:102A4000FDFD00200EBD00BF410D0300C26808B5AA
:102A5000D36801296FF35D736FF39E7302D143F066
:102A6000005302E009B943F080433220D360FEF7FF
:102A7000E8FD002008BDC368586900F0010181F03D
:102A800001007047C368586900F001007047C368CF
:102A90005A6998691040704703691A6861F3010226
:102AA0001A60704738B5C368044600256FF080424D
:102AB0009D615A61FFF784FEE078A8420CBF1021A7
:102AC000294641F4872343F00812E368996942F4E8
:102AD000401021EA000141EA00029A61284638BD0F
:102AE000D0F80C31016970B500261E600A6866F3E3
:102AF000CC220A60C37A012B044635461BD1032140
:102B0000FFF7CAFFC021E06880224FF4800661F31E
:102B10000F0562F31F4562F30F064FF4A073426284
:102B20008662C0F8045163F30F056FF31F45C0F8C8
:102B30000851C0F80C51E17A19BB227A012A18BF5A
:102B400001212046FFF7A8FFC021E0688023C0F2E2
:102B5000400661F30F0563F31F4563F30F064FF45F
:102B6000A07243628662C0F8045162F30F056FF3EE
:102B70001F45C0F80851C0F80C51C0F81051C0F8FA
:102B8000145110212046FFF729FF2046FFF744FF8C
:102B9000206900234FF0FF31036143618161C3610C
:102BA0006278934214D204EB830201339069016886
:102BB000C1F3076202F08001CAB2002A14BF4FF0CD
:102BC0009041002101600022FF2102618160E7E75E
:102BD00000236078834214D204EB83000133426DFA
:102BE0001168C1F3076000F08001C8B2002814BF6B
:102BF0004FF09041002111600020FF211061916091
:102C0000E7E72369196941F480721A61E0780128C5
:102C100004D1054A402161F359421A632046FFF767
:102C200041FF002070BD00BF0301010003699868E7
:102C3000C0F341014B1E022B02D8024AD05C704700
:102C400003207047973900080369816910B59C68B3
:102C50000A68C4F34100022802D06FF30A0202E0BE
:102C6000032060F30A020A60596841F480725A60D6
:102C7000002010BD30B54D780B780022012D00EBFF
:102C8000830405D105FA03F5A46965F30F0205E095
:102C9000012505FA03F3646D63F31F422368C3F350
:102CA000072505F08005EDB26DB98D6865F30A035F
:102CB000CD7865F39343CD8865F3995343F0805302
:102CC00043F40043236009780369012905D1C07AE0
:102CD00018B9D86B0243DA6302E0D9690A43DA61B2
:102CE000002030BD70B54E780B780024012E2246AE
:102CF00000EB830505D106FA03F3AD6963F30F0218
:102D000005E0012606FA03F36D6D63F31F426FF3CE
:102D1000CF342C6009780369012906D1C07A20B923
:102D2000D86B20EA0201D96303E0D96921EA0202E3
:102D3000DA61002070BD70B54E780A78012E0B461E
:102D400000EB820148D18D695C6929682A6964F3C6
:102D5000120214B966F3DC420BE09E68A419013C30
:102D6000B4FBF6F6DC7866F3DC42012C08BF64F3B2
:102D70005E722A61C278012A06D11A7800EB8204B9
:102D80001A69A46962610CE0DA78012A09D05A69EB
:102D90003AB102691C78556B012606FA04F42C43FB
:102DA0005463DA78012A07D102699268D20554BFC8
:102DB00041F0005141F080511A7800EB820241F05D
:102DC000044192691160D978012937D1D9681A78FC
:102DD0009B8AFFF727FD31E04D6D5E692A689C688C
:102DE00029692EB964F31201012464F3DC410AE07D
:102DF0003619013EB6FBF4F666F3DC41B605B60DB6
:102E0000744364F312012961C178012905D11C784A
:102E100000EB84014C6D19696161D978012906D1F3
:102E2000597911B142F0005201E042F080521B7812
:102E300000EB830042F00441426D1160002070BD40
:102E400073B54D78012D3DD183694A691E681C69AF
:102E50000094E4B242B962F306049DF802208DF8B2
:102E6000004065F3C4020EE08D68AA428ABF4D613E
:102E700062F3060465F306049DF802208DF8004015
:102E8000012464F3C4028DF80220009A1A61C2780A
:102E9000012A05D10C7800EB840294690A69626109
:102EA00046F004461E60C378002B34D14A69002ADC
:102EB00031D003690A78586B012101FA02F202430A
:102EC0005A6328E00B784E6900EB8302536D8A68E1
:102ED0001D681C690094E4B206B14A6162F30604FD
:102EE0009DF802208DF80040012464F3C4028DF89F
:102EF0000220009A1A61C378012B05D10A7800EBF1
:102F000082035A6D0B695361097800EB810045F02B
:102F10000445426D156000207CBD4B780978012B7B
:102F200000EB81000DD180690368C3F3076202F0F2
:102F30008001CAB20AB143F0804343F4001101603A
:102F400004E0436D1A6842F40011196000207047D4
:102F50004B78012B0B78C97800EB83000CBF82699A
:102F6000426D1368881E6FF35553012898BF43F0D4
:102F7000805313600020704703699A69D869104034
:102F8000000C704700EB810102694B6D9968506934
:102F90000840704703699869D969084080B2704752
:102FA00082B000230093C021012200238DF803107A
:102FB00062F3C40318218DF802308DF80010436DC0
:102FC000009A1A61C178012906D100F2CC505861EB
:102FD0001A684FF080221A6002B0704710B504469C
:102FE000FFF744FC012384F81231002384F81431E4
:102FF0006278934213D2282202FB034101F58E72BC
:10300000012081F81D0181F81C31A1F822314020F6
:103010000021D1709060D16051610133E8E7002355
:103020006078834213D2282101FB034000F55D72D2
:10303000002180F87433A0F87A3380F8751380F893
:10304000771340209060D16051610133E8E720465A
:10305000FFF7BCFC2046FFF76BFC00212046FFF782
:10306000F5FC2046FFF73CFD2046BDE81040FFF789
:10307000A6BC70B5CDB201F07F044FF0280606FB68
:10308000040415F0800F14BF04F58E7404F55D740C
:1030900001F07F01ED0921706570A260E37005B158
:1030A000E180022B01D1002323712146FFF7E2FDCD
:1030B000002070BD10B5CAB201F07F034FF02804A4
:1030C00004FB030312F0800F14BF03F58E7303F5A6
:1030D0005D7301F07F01D20919705A701946FFF72C
:1030E00001FE002010BD38B501F07F04282505FB46
:1030F000040505F55D7185F874434B610023CA60D2
:103100008B614B70C378012B05F55C7508BF0A61B4
:1031100014B9FFF795FE01E0FFF70DFE002038BD62
:1031200070B501F07F04282505FB040505F58E71B7
:103130000126CA600A61002285F81C414E7005F51F
:103140008C758A614B6114B9FFF77AFE01E0FFF7D5
:10315000F2FD002070BDCAB212F0800F10B54FF022
:10316000280306D001F07F0403FB040303F58E73EC
:1031700003E003FB010404F55D73D209012401F0AF
:103180007F0119709C705A701946FFF7C6FE002027
:1031900010BDCAB212F0800F10B54FF0280306D050
:1031A00001F07F0403FB040303F58E7303E003FBCC
:1031B000010404F55D730024D20901F07F01197048
:1031C0009C705A701946FFF7C3FE204610BD026975
:1031D000002361F30A1311680B43136070470369FE
:1031E0005A6803206FF341025A60FEF72ABA036956
:1031F0005A6842F0020058600320FEF722BA2DE917
:10320000F8434FF02808054608FB010000F58C78CC
:1032100008F104040E466269A369A068D11A05EB9F
:103220008602814238BF0846936900F10309996913
:103230004FEA990989B249452AD9A7696069874245
:1032400026D228B3A268E168C71B974228BF174659
:1032500007F1030CBBB2F2B228464FEA9C09FFF714
:10326000E1FAE368A069D91905EB86023F18E1602D
:1032700060699369A76187429969DBD32B6998F8E4
:103280000420596B012000FA02F221EA020159637D
:103290000120BDE8F88300002DE9F04F85B0044619
:1032A000FFF7E9FB08B90020F7E12046FFF7EFFB45
:1032B00007460028F7D0C0F3074A0AF00800C0B25A
:1032C000002856D02046FFF757FE26468046A346E4
:1032D0004FF00009B8F1000F4AD018F0010F3FD0AD
:1032E0005FFA89F5294620460195FFF74BFE10F05D
:1032F000010F0546019B20D0726D01259560E07895
:10330000A84207D11169DBF87C23C1F31200111A1E
:10331000CBF88C13944802681946126820469047EF
:10332000E378012B09D1B9F1000F06D194F81111FE
:10333000052902D12046FFF733FE05F00200C2B294
:1033400012B1736D02259D6005F00801C8B238B155
:10335000854A15682046AB689847716D08208860DB
:1033600009F101094FEA580804360BF1280BB1E7BF
:1033700001200AF0040A5FFA8AF3002B67D0204686
:10338000FFF708FE264681464FF00008B9F1000F0E
:103390005CD019F0010F53D023695FFA88F11869E6
:1033A0005D6B04EB810225FA01F59269ED019268EB
:1033B000EDB205431540EA071AD55A6B012505FA07
:1033C00008F022EA00025A63674AB36910689D60F8
:1033D000436820469847E178A94209D1B8F1000F27
:1033E00006D194F81121042A02D12046FFF7D8FD16
:1033F00005F00800C3B213B1B16908258D6005F06E
:103400001002D0B210B1B36910259D6005F04001E3
:10341000CAB212B1B0694025856005F00203D9B285
:1034200011B1B2690225956025F07F0010F0FF0F01
:1034300006D041462046FFF7E2FEB369802199603D
:1034400008F101084FEA590904369FE70120FDB24F
:1034500005F00201CAB212B1E36802215961C7F353
:10346000076202F08003D9B2C9B1A07A40B1D4F8A2
:103470000C31D4F80C216FF341036FF30003136098
:103480002169394A486820F001034B6011682046E1
:103490008B699847E0684FF0004242610120C7F312
:1034A000072808F00801CBB26BB32F4994F812211A
:1034B0000B6800208DF80F008DF80F2020465A6908
:1034C00090472069E36882684FF400615961A07AEF
:1034D000C0B1D00716D594F81521012A12D19DF854
:1034E0000F30032B0ED1D4F80C11086840F0010204
:1034F0000A600B6843F0030008601C490A6942F047
:1035000006030B61012005F00801CAB242B116485A
:1035100003682046D9688847E06808224261012094
:1035200005F01005EDB2002D39D0E668B36923F03F
:103530001001B161366A282206F00F00C6F343433A
:1035400002FB0045022B05F55D7511D0062B20D13D
:1035500004F2CC5120460822FFF777F9A969C6F397
:103560000A168819A86114E01000002000ED00E0A0
:1035700047F6F072324062B1C6F30A16E968324685
:103580002046FFF762F9EB68A86999198619E96086
:10359000AE61E3689A6942F010019961012008F078
:1035A0001003DAB2002A37D026697068002520F0AF
:1035B0000101716020462946FFF710FA23462A468A
:1035C00066780433B24206D25E69FF21B160186D9D
:1035D00001328160F4E70126206966F30F050B21B3
:1035E0004FF0FF3266F31F458261C5614161C0F84B
:1035F00084100161416403686FF30A13036020467D
:10360000FFF7CEFC2649E0680B684FF48052426118
:103610001A6920469047304608F020085FFA88F182
:10362000E9B12046FFF710FBE5682046ED68FFF79B
:10363000FDFA032806D100214FF40070A170A0808C
:10364000092204E001204023A070A3800522E36842
:1036500062F38D254FF40052DD6001205A61C7F3FB
:10366000074707F01001CBB24BB10D480268204666
:10367000D1698847E3684FF480105861012007F052
:103680002007FFB24FB1064A116820460B6A9847DF
:10369000E0684FF400124261012005B0BDE8F08FF0
:1036A0001000002010B50023934203D0CC5CC4541A
:1036B0000133F9E710BD0000000002408000000067
:1036C0000008024008000000000402402000000042
:1036D0000000024020000000000402400020000022
:1036E000000402400800000000000240100000003A
:1036F0000008024010000000000402400200000028
:1037000000040240010000000000024000800000B0
:103710000008024000020000FFFFFFFF0000000061
:103720000000000000400008080000000000000049
:1037300000800008100000000000000000C0000829
:103740001800000000000000000001082000000038
:103750000000000000000208280000000000000037
:10376000000004083000000000000000000006080F
:1037700038000000000000000000080840000000C1
:103780000000000000000A084800000000000000DF
:1037900000000C08500000000000000000000E08AF
:1037A00058000000000000000000020303010203B3
:1037B00003030303020203014D494F533332004414
:1037C0004950434F524546340053544D33324634EA
:1037D00078780025303878003F002564004D494F47
:1037E00053333220426F6F746C6F616465720028CE
:1037F0006329203230313420542E204B6C6F736596
:103800000020253032580020202000253038582054
:1038100000F000007E3200004D1500082915000858
:103820001314000800000000171400081715000802
:103830000515000800000000000000000000000066
:103840001D1400081D140008D11400080403090405
:103850001201000200000040C016FE031010010219
:1038600003010000F1130008FD130008D91400083B
:103870006114000829140008CD140008C9140008B8
:103880003432006D696469626F782E6F7267000967
:1038900002650002010480320904000000010100F9
:1038A00002092401000109000101090401000201CB
:1038B0000300020724010001410006240201010067
:1038C0000624020202000924030103010201000987
:1038D0002403020401010100090502024000000066
:1038E00000052501010109058102400000000005D5
:1038F00025010103091400080B14000845150008F0
:103900000F140008111400080D1400083F150008DA
:10391000286E756C6C2900D10FED54CFC5FBB8979C
:1039200052389138910E7D0FED389301910E910030
:10393000C11F020E91F7041040006E106EE76A007E
:103940000000000000000000000000000000000077
:103950000000000000040000000000000000000063
:103960000000002F55461F00D84840376AF76A000C
:10397000300000C7062E734A2C137BE97F32002AE1
:10398000280D9BFE0B21EF422A2F73B5B8DA76E69D
:1039900079BF0FEB793E0B0201020000000000002E
:1039A000101000000A0600020000004001000000A4
:1039B00014000020D521000821210008D92000088A
:1039C0007F200008AB200008632000084D2000087D
:1039D0008F2000089D20000800000000000000006B
:1039E000FFFFFFFFFFFFFFFFFFFFFFFFFFFFFFFFE7
:1039F000FFFFFFFFFFFFFFFFFFFFFFFFFFFFFFFFD7
:103A0000FFFFFFFFFFFFFFFFFFFFFFFFFFFFFFFFC6
:103A1000FFFFFFFFFFFFFFFFFFFFFFFFFFFFFFFFB6
:10400000000002207D1C0108791C0108B111010883
:10401000791C0108791C0108791C010800000000C6
:10402000000000000000000000000000B1190108BD
:10403000791C010800000000211A0108711A01080A
:10404000791C0108791C0108791C0108791C0108F8
:10405000791C0108791C0108791C0108791C0108E8
:10406000791C0108791C0108791C0108791C0108D8
:10407000791C01085540010835400108791C0108E8
:10408000791C0108791C0108791C0108791C0108B8
:10409000791C0108791C0108791C0108791C0108A8
:1040A000791C0108791C0108791C0108791C010898
:1040B000A1420108C5420108791C010851600108AC
:1040C0005D6001083960010845600108791C01083C
:1040D000791C0108791C0108795D0108791C010827
:1040E000791C0108791C0108791C0108791C010858
:1040F000791C0108791C0108791C0108791C010848
:10410000791C0108791C0108E9420108791C0108A1
:10411000E95D0108791C0108791C0108791C010876
:10412000791C0108791C010815400108791C010857
:10413000791C0108791C0108791C0108791C010807
:10414000791C0108791C0108791C0108E147010864
:10415000791C0108791C0108791C0108791C0108E7
:10416000791C0108791C0108791C0108791C0108D7
:10417000791C010809480108791C0108791C01080B
:08418000791C0108791C0108FB
:020000040801F1
:1000000070B5002002F0F8F9224B5D789878002452
:1000100015FB00F5AC4219DA661C31461E4802F0A9
:1000200067FCE0B202F0A8F9002002F0E5F9002830
:100030000ADA18484378194894FBF3F203FB124498
:10004000611C013202F054FC3446E3E70024AC4268
:100050001ADAE0B202F090F90020014602F092F9BB
:100060000C490F484B7894FBF3F203FB124101312A
:10007000013202F047FA0121002002F083F9094819
:1000800002F040FA0134E2E7002002F075F90020A6
:1000900070BD00BF8A34002018AE01082CAE0108E4
:1000A00052AE01085DAE010838B54B4B4B4D0022F6
:1000B0000220012110241A70587099709C80D880F9
:1000C0002A78422A0ED14648464C0178464A197091
:1000D000257846495D701078454D98700C789C8065
:1000E0002A78DA80434B4449002018700C78422C5F
:1000F00004D1424D2A78110658BF1A70404B41492D
:10010000002018700C78422C04D13F4D2A78150637
:1001100058BF1A703D4B3E49002018700C78422C95
:1001200004D13C4D2A78140658BF1A703A4B3B490B
:10013000002018700C78422C04D1394D2A78100612
:1001400058BF1A70374B3849002018700C78422C71
:1001500004D1364D2A78110658BF1A701D78314CDB
:1001600002F070FF85421BD0202002F05DFC217858
:100170002F480A4602F0BCFB102002F055FC217803
:100180002B480A4602F0B4FB202002F04DFC29481F
:1001900002F0AEFB102002F047FC264802F0A8FB5C
:1001A000204B187802F046FF234B244A244953F889
:1001B000040B8B4242F8040BF9D100231F4A995CCF
:1001C00020395F29114601D90020D0540133202B5A
:1001D000F4D10020C87738BD78000020C03F000867
:1001E000C13F0008C23F0008C33F0008C43F0008E9
:1001F000C53F0008D8000020D23F0008D33F0008C8
:10020000F9000020D43F0008D53F000884000020FA
:10021000D63F0008D73F000882000020D83F0008E2
:10022000D93F000883000020D03F0008D13F0008DC
:1002300064AE01088DAE0108E03F0008D90000203F
:100240000040000813B5044610B94FF0FF3006E037
:10025000002201A901F03AF8019B9C42F5D01CBD97
:1002600008B5FFF721FF4FF0FF3003F04BFF0021EF
:100270004FF0FF3003F060FF044802F0E9FE044A4B
:10028000044800231370038008BD00BF0D0501085A
:1002900085000020D600002038B50546322435B947
:1002A00003F068FFC1434FF0FF3003F045FF44F611
:1002B000206004F04DF8013CF1D1204638BD00002B
:1002C0000020F8B5014602F05DF82F4802F0F0F882
:1002D0000121002002F056F82C4802F0E9F8202015
:1002E00002F0A2FB2A4802F003FB102002F09CFB64
:1002F000274802F0FDFA6FF07845002403F03AFF3A
:1003000005F17846C14301364FF0FF3003F014FF8A
:10031000300707D10121092002F034F81D48314689
:1003200002F0F0F86F1C1C4B6A78F85C824225D012
:100330001A496A18FF2A21D90134092C0FDC202020
:1003400002F072FB3146164802F0D2FA102002F099
:100350006BFB1348314602F0CBFA3D46CEE70A2C40
:10036000FBD1202002F060FB0E4802F0C1FA102001
:1003700002F05AFB0B4802F0BBFAEEE70A4B9F4231
:10038000EBD12046F8BD00BFCBAE0108DCAE0108C2
:10039000EDAE010805AF0108ABBF010001C1FFF7D9
:1003A0000CAF010828AF0108FF3F000810B503F0AB
:1003B00019FA06F00FF84FF0006403F0DBFEC143BA
:1003C0004FF0FF3003F0B8FEA304980C6BB9022184
:1003D00006F064F8082808D04FF0FF3006F010F857
:1003E00003F014FA4FF0FF3010BD3748221804F123
:1003F000784051781378A0F57C52FF2A43EA012116
:1004000047D8A0F57F53012B01D8304A17E0304878
:100410002218012A03D82D488178437837E02D4BE4
:10042000E018012806D82948C188838843EA0122B8
:1004300091B22EE0284AA318012B05D8274A11783B
:100440000B0243F0420124E025482218012A01D87A
:10045000244AF4E7244BE018012801D8234AEEE7A8
:10046000234AA318012B01D8224AE8E72248221880
:10047000012A01D8214AE2E7214BE0181F2808D8B9
:1004800004F120011F4ACBB2D018D35C417843EA73
:100490000121204605F0E4FF082808D04FF0FF3086
:1004A00005F0AEFF03F0B2F96FF0010010BD164A7F
:1004B0000234944281D105F09BFF03F0A7F9FFF7C6
:1004C000F3FD002010BD00BFABBF0100780000208D
:1004D0003EC0FFF73CC0FFF730C0FFF783000020AD
:1004E0002EC0FFF7D80000202CC0FFF7F900002035
:1004F0002AC0FFF78400002028C0FFF782000020F8
:1005000020C0FFF7D900002000400008F7B50C46D6
:10051000054602F089FD0646284602F085FA0D2CB4
:1005200000F0AF820A2C40F09E829148914901AAC6
:100530000AF06EFC0446002800F08F828E490AF013
:1005400025FC002852D18D488D4C8E4D02F0D0F9FB
:100550008D4802F0CDF921788C4802F0C9F929784C
:100560008B488C4D02F0C4F98B498C48097802F015
:10057000BFF98B4A8B48117802F0BAF98A480178A2
:100580008A480A4602F0B4F989488A4902F0B0F96B
:100590002C78204601F0B0FE20B1287801F0ACFEA6
:1005A000024600E0844A21467A4C844802F0A0F9D1
:1005B0008348617802F09CF98248A17802F098F9AA
:1005C0008148A18802F094F9E188804802F090F90E
:1005D0007F4802F08DF97F4802F08AF97E4802F0E8
:1005E00087F97E4802F084F97D4834E220467D494F
:1005F0000AF0CCFB0546C0B97B4802F079F92C46DD
:10060000E5B2284601F078FE38B1284601F074FEC4
:1006100021460246754802F06BF90134FF2CEFD1F8
:10062000734802F065F9734815E2204672490AF0F2
:10063000ADFB10B902F07EFF0FE220466F490AF0D1
:10064000A5FB70B90124FFF7B1FE002880F21782E4
:1006500021466B48013402F04BF9062CF3D169486E
:1006600007E0204668490AF091FB38B9FFF71CFD06
:10067000664802F03DF9FFF7C3FCEEE1204664490D
:100680000AF084FB002840F0E5813A4901AA0AF00B
:10069000BFFB0446002800F0DB815E490AF076FBD0
:1006A00090B9344901AA0AF0B3FB18B1FFF7CAFDAB
:1006B000012801D95848CEE1314BC2B21A700AB1B3
:1006C0005648C8E15648C6E1204656490AF05EFB46
:1006D00090B9284901AA0AF09BFB18B1FFF7B2FDB7
:1006E000012801D95048B6E1C1B22648017009B1CC
:1006F0004E48B0E14E48AEE120464E490AF046FB76
:10070000D8B91C4901AA0AF083FB18B1FFF79AFD7A
:10071000012801D948489EE1214BC2B21A7022B18A
:10072000464802F0E5F8464895E1464802F0E0F810
:10073000454802F0DDF845488DE1204644490AF07D
:1007400025FB002840F08C800A4901AA0AF060FBD2
:1007500018B1FFF777FD012801D93E487BE1C1B20E
:100760000D48017009B13C4875E13C4873E100BF98
:10077000850000206EAF010871AF010876AF010857
:10078000D8000020F900002093AF0108B5AF0108A0
:1007900017B00108780000208200002076B0010820
:1007A00084000020C9B001088300002022B10108A4
:1007B0007EB10108D900002066AF0108BFB1010871
:1007C00003B2010855B20108A7B20108ECB2010852
:1007D00032B3010868B30108C0B3010802B40108CC
:1007E00035B401085AB4010864B401087EB40108A4
:1007F0008AB40108C1B4010823B5010854B5010841
:1008000029B50108C4BC010852B501085AB5010850
:1008100025B5010876B501087FB501089AB501082C
:10082000BAB50108DBB50108E6B5010803B6010851
:1008300037B601086CB601087FB60108A4B60108F6
:10084000D4B601081DB701084EB70108ABB70108BF
:10085000FFB7010808B8010823B801086AB8010801
:1008600020468A490AF092FA20B1204688490AF0C7
:100870008DFAB8B90020874901AA0AF0C9FA20B157
:10088000FFF7E0FC7F28014601D98348E3E0834B72
:100890000A461870824802F02BF8824802F028F8C5
:1008A0008148D8E0204681490AF070FA002833D107
:1008B000784901AA0AF0ACFA074620B1FFF7C2FC5A
:1008C000041E11DA01E04FF0FF340025284601F044
:1008D00013FD014638460AF03BFA08B92C4603E0FE
:1008E0000135EDB2FF2DF1D1FF2C04D9704801F094
:1008F000FFFF7048AFE0704DE0B2287001F0FCFCE3
:1009000020B1287801F0F8FC024600E06B4A6C4800
:10091000214601F0EDFFA0E020466A490AF036FAD0
:1009200098B95C4901AA0AF073FA18B1FFF78AFC7A
:10093000014601E04FF0FF31481EFE2801D9624810
:1009400089E05D4A614851707FE0204660490AF0C5
:100950001DFA98B94F4901AA0AF05AFA18B1FFF7DF
:1009600071FC014601E04FF0FF314A1EFE2A01D919
:10097000584870E0504B5848997066E020465749F7
:100980000AF004FAA8B9434901AA0AF041FA18B1D9
:10099000FFF758FC014601E04FF0FF314A1E4FF6C9
:1009A000FE739A4201D94E4855E0434881804D4834
:1009B0004BE020464C490AF0E9F9A8B9354901AAAB
:1009C0000AF026FA18B1FFF73DFC014601E04FF0AE
:1009D000FF314A1E4FF6FE739A4201D943483AE06E
:1009E0003548C180424830E0204642490AF0CEF9FD
:1009F00048B1204640490AF0C9F920B120463F4994
:100A00000AF0C4F9F8B9019C20460AF0CAF91F2877
:100A100002D93B481F2118E03A4B204604F120013F
:100A20001A4650F8044B884243F8044BF9D1107829
:100A300020B13548334901F05BFF02E0334801F053
:100A400057FF184807E03248214601F051FF04E003
:100A5000304800E0304801F04BFF30493048002377
:100A60000B8003700DE02D490B884E2B09D82C4AC2
:100A7000581CD45483B20B800021D15401E0294882
:100A8000F7E5304601F0D0FF0020FEBDB9B80108FF
:100A9000B2B801086EAF0108BCB80108830000209D
:100AA000F3B801082BB9010864B90108AAB9010813
:100AB000B3B90108F4B901087800002066AF010855
:100AC00022BA01084DBA010857BA01087ABA0108DA
:100AD0009DBA0108A7BA0108CABA0108EDBA01080F
:100AE000F7BA010820BB010843BB01084EBB01084F
:100AF00078BB0108A0BB01089CBB0108A5BB01088D
:100B0000B2BB0108D9000020E0BB01081BBC0108F2
:100B10004EBC01086BBC01088ABC0108D60000204D
:100B200085000020E2BC010838B5FFF769FA002013
:100B300001F022FC202001F077FFAA4801F0D8FE46
:100B4000102001F071FFA74801F0D2FE202001F033
:100B50006BFFA54801F0CCFE102001F065FFA24814
:100B600001F0C6FE202001F05FFFA049A04801F07F
:100B7000BFFE102001F058FF9C499D4801F0B8FECF
:100B8000202001F051FF984801F0B2FE102001F042
:100B90004BFF954801F0ACFE202001F045FF914845
:100BA00001F0A6FE102001F03FFF8E4801F0A0FEEC
:100BB000FFF786FB0446002842D1014601F0E2FB24
:100BC0008C4801F075FC0121204601F0DBFB8A48CE
:100BD00001F06EFC01214FF0FF3003F0ADFA202050
:100BE00001F022FF854801F083FE102001F01CFF78
:100BF000824801F07DFE202001F016FF804801F0C0
:100C000077FE102001F010FF7D4801F071FE2020DA
:100C100001F00AFF7B4801F06BFE102001F004FF99
:100C2000784801F065FE202001F0FEFE764801F0D4
:100C30005FFE102001F0F8FE734801F059FEFEE758
:100C40000020014601F09EFB704801F031FC20209D
:100C500001F0EAFE6E4801F04BFE102001F0E4FEC8
:100C60006B4801F045FE0020014601F08BFB69480E
:100C700001F01EFC0121002001F084FB664801F018
:100C800017FC202001F0D0FE644801F031FE102056
:100C900001F0CAFE614801F02BFE0024FFF786FB3D
:100CA000002818DA01304FF0200009D101F0BCFE15
:100CB0005B4801F01DFE102001F0B6FE584808E028
:100CC00001F0B2FE574801F013FE102001F0ACFE17
:100CD000544801F00DFEFFF7F3FA054688B10134E0
:100CE000052C0ED0202001F09FFE21464E4801F039
:100CF000FFFD102001F098FE21464B4801F0F8FD61
:100D0000CCE74FF0FF30012103F016FA95BB2946DE
:100D1000284601F037FB454801F0CAFB012128466F
:100D200001F030FB424801F0C3FB202001F07CFEC3
:100D3000404801F0DDFD102001F076FE3D4801F055
:100D4000D7FD202001F070FE2E4801F0D1FD1020CB
:100D500001F06AFE2B4801F0CBFD202001F064FE7B
:100D6000294801F0C5FD102001F05EFE264801F083
:100D7000BFFD35E00020014601F004FB2E4801F0E4
:100D800097FB0020012101F0FDFA2C4801F090FBB7
:100D9000202001F049FE2A4801F0AAFD102001F0B0
:100DA00043FE274801F0A4FD202001F03DFE254828
:100DB00001F09EFD102001F037FE224801F098FD61
:100DC000202001F031FE204801F092FD102001F0BA
:100DD0002BFE1D4801F08CFD0120FFF75DFAD7E7DF
:100DE000FEE700BF0E050208F7BC01080DBD0108B3
:100DF00086B401081EBD01082FBD010840BD0108D1
:100E000056BD010875BD01089EBD0108D7BD01088A
:100E1000E9BD01080BBE01081DBE01082FBE010877
:100E200055BE01086BBE010887BE0108A2BE0108BD
:100E3000B4BE0108C6BE0108F5BE010808BF01081E
:100E40001BBF010836BF010886BF010808B503F0C3
:100E500091F9C1430120BDE8084003F06DB9704726
:100E600070477047704770477047704708B501F08A
:100E7000B9F8BDE80840FFF7F5BF000007B500F07E
:100E80009FFB0190012101A800F0C6FC00F098FB37
:100E9000019B421F934238BF019003F0DBFD0748DE
:100EA00001F02AF8064801F0D3F9064803F05FFA8A
:100EB00002F00CF9FFF7CAFFE4E700BF670E010874
:100EC000690E01086B0E010807B500F079FB01906F
:100ED000012101A800F0A0FC00F072FB019B421F61
:100EE000934238BF019001F053FD034802F002F82D
:100EF000FFF7B5FFECE700BF610E010837B5002032
:100F000002F0D8FB002003F001FA002002F000FB01
:100F1000002003F0E9F8002002F0BAFE002000F003
:100F20002BFF002000F0BCFF002001F017F800208C
:100F300001F022F8002002F0E7FA002003F014FA92
:100F4000002002F0DEFA002001F0F2FA002003F0A7
:100F5000F9FC002002F082F8002002F085F8002061
:100F600001F04AFA09F0AEFEFFF77AF901F0ACFAA7
:100F70004FF4FA644FF47A7003F0EAF9013CF9D1C6
:100F8000032523460095019409490A484FF48072CD
:100F900000F006FA084900954FF480722346019448
:100FA000064800F0FDF900F0D1FA20463EBD00BF32
:100FB000B0FF01087D0E0108ABFF0108C90E010852
:100FC00008B502F0AFFAFFF74CFF0248BDE8084051
:100FD00000F02ABF6D0E0108FFF7A6BD10B5002472
:100FE00001346423B4FBF3F203FB124008B901F0AF
:100FF000CFFC094801F07EFF42F21071B4FBF1F31F
:1010000001FB1342002AEBD103F0B4F8C1430120E5
:1010100003F092F8E4E700BF610E010808B56FF035
:101020007F4001F081FA002001F080FA002001F0F9
:10103000A3F901F0DFF90020014601F0A3F9074808
:1010400001F036FA0121002001F09CF9044801F07A
:101050002FFA044801F04CFCFFF7C0FFB6FF01086F
:10106000C7FF0108D8FF010810B50368416882680E
:10107000C46888B000930369019102924169826952
:10108000C06903940493334C059106920790069926
:10109000314801F02DFC204601F02AFC2F4801F0D8
:1010A00027FC204601F024FC00992D482D4C01F02E
:1010B0001FFC01992C4801F01BFC02992B4801F000
:1010C00017FC03992A4801F013FC0499294801F000
:1010D0000FFC0599284801F00BFC0699274801F000
:1010E00007FC0799264801F003FC264B264819689F
:1010F00001F0FEFB25492648096801F0F9FB254A65
:101100002548116801F0F4FB24480168244801F0E7
:10111000EFFB2168234801F0EBFB6FF07F4001F00B
:1011200003FA002001F002FA002001F025F901F095
:1011300061F90020014601F025F91B4801F0B8F9DA
:101140000121002001F01EF90699184801F0DAF992
:10115000FFF744FFF9BC01080C0002082200020856
:10116000360002083CED00E0410002084C00020895
:1011700057000208620002086E0002081700020809
:101180007900020838ED00E08500020828ED00E053
:10119000920002082CED00E09F00020830ED00E014
:1011A000AC000208B9000208C6000208D700020815
:1011B0001EF0040F0CBFEFF30880EFF30980FFF778
:1011C00053BF704740482DE9F04FD0F800800846E3
:1011D000044614F8015B08EB05062046777807F013
:1011E0000806F7B2002FF3D12D2D03D114F8015BBF
:1011F000012704E02B2D04BF244614F8015B002BCB
:101200005BD0102B07D1302D05D12578782D4DD10D
:10121000657810230234002F0CBF6FF000404FF0B0
:101220000040B0FBF3F9002603FB190A304608EB37
:10123000050C9CF801C00CF0040B5FFA8BFBBBF1B2
:10124000000F01D0303D0BE01CF0030C1BD0BCF1B3
:10125000010F14BF4FF0570C4FF0370CCCEB0505C6
:101260009D4210DAB6F1FF3F0AD0484506D801D1B9
:10127000554503DC03FB0050012601E04FF0FF362B
:1012800014F8015BD3E7731C08D1002F14BF4FF093
:1012900000406FF000402AB9BDE8F08F07B140422E
:1012A0007AB106B1611E1160BDE8F08F582DAFD044
:1012B0003025002BAFD10823ADE7302DA5D00A2370
:1012C000A9E7BDE8F08F00BF7400002030B50546E7
:1012D0000C461346002029462246BDE83040FFF761
:1012E00071BF0000F8B51E4D1E4B04461E682868ED
:1012F0000F462968002280F84C20081D00F018FBDA
:1013000048B9194B19682868C26A012000FA02F22C
:1013100021EA02011960631C114807D137B1026844
:101320001248111DBDE8F84000F0DEBAA4190268A9
:101330000B4B5460B44207D20D4908681B68191D55
:10134000BDE8F84000F0DCBA0A4908681B68191DBE
:1013500000F0D6FA08480268944238BF0460F8BD2D
:10136000A0010020A8010020F8010020E4010020D5
:10137000AC01002000010020A4010020064A07481B
:101380001368196811B94FF0FF3203E01268D3688F
:10139000D9684A680260704700010020A40100205B
:1013A0002DE9F84F4FEA820B814658460E46924689
:1013B00098460B9F00F0BAFB0546002800F0A58078
:1013C000502000F0B3FB044670B105635A4628462E
:1013D000A52109F0B4FC236B0AF1FF3A03EB8A0064
:1013E00020F0070B002506E0284600F01FFC8CE0EB
:1013F0000135102D06D0725D611981F83420735DBE
:10140000002BF5D10A9E0025042E34BFB2464FF0C2
:10141000040A261D304684F84350C4F82CA0C4F8B2
:1014200044A0A56400F05DFA04F1180000F059FA38
:10143000CAF10500A0612461646284F84C505846EA
:101440004946424600F09EFA206007B13C6000F039
:10145000C7FA304A304811684B1C1360056815BB49
:1014600004601068012827D12C4A142707FB0520A7
:10147000013500F02BFA052DF6D1294F294D3846BC
:1014800000F024FA284600F021FA274800F01EFA5E
:10149000264800F01BFA264800F018FA2549264B8A
:1014A0000F601D6008E0254D2A682AB90168E56AC9
:1014B000CB6AAB4298BF04602148E36A0268551CBE
:1014C000204A05601168012505FA03F00143116007
:1014D000124A142000FB0320314600F005FA00F008
:1014E0008FFA164B196869B10B48E36A0268D16A32
:1014F000994207D2144A4FF080501060BFF34F8FCB
:10150000BFF36F8F2846BDE8F88F4FF0FF30BDE87E
:10151000F88F00BFC8010020A00100202401002096
:101520000C010020CC010020B00100208801002027
:10153000E401002000010020AC0100200401002093
:10154000C4010020F801002004ED00E013B5124BA7
:10155000124801930024009411494FF480722346ED
:10156000FFF71EFF012814D14FF0BF0383F311884A
:10157000BFF36F8FBFF34F8F0A490B4B4FF0FF3212
:101580000A6018600948046002B0BDE8104000F02D
:1015900091BA02B010BD00BFE0010020A117010800
:1015A000E4000208A401002004010020A80100209A
:1015B000024B1A68501C1860704700BF08010020D9
:1015C000014B1868704700BFA8010020F8B5354BE3
:1015D0001868002836D1344B1E6801361E605EB98B
:1015E000324A334D11682868324B106029601A68FE
:1015F000511C1960FFF7C2FE2F4D28680025864256
:1016000010D32A4B1A68116821B92B4B4FF0FF30C9
:10161000186007E01C68E068C46863689E421FD2D7
:1016200025490B60254A1168254AC86A1423584386
:10163000115824480368012988BF01254BB9FFF7D9
:10164000BFFC06E01F490A68551C0D60FFF7B8FC97
:1016500000251D4A116800290CBF28460120F8BD4D
:10166000271D384600F064F9A26A1AB104F1180087
:1016700000F05EF9154AE36A1068012101FA03F1EE
:10168000014311600E4A142000FB0320394600F08C
:101690002BF90A4BE06A1968CA6A904228BF0125F3
:1016A000AFE700BF08010020A801002000010020D2
:1016B000AC010020FC000020A4010020A0010020BB
:1016C0002401002020010020FC010020F80100205E
:1016D00070B500F085F9294B1A68501E18601C6817
:1016E0000CB1002445E026490B68002BF9D0254DAC
:1016F0002A680AB3EE68F468261D04F1180000F0A9
:1017000017F9304600F014F91F4AE36A1168012501
:1017100005FA03F0014311601C4A142000FB03206A
:10172000314600F0E1F81A4BE06A1968CA6A904243
:1017300024BF18480560DAE70CB1FFF71FFE164812
:101740000468054644B1FFF741FF10B1114B012178
:101750001960013CF7D12C600E4A10680028C0D0F7
:101760000E4B4FF080511960BFF34F8FBFF36F8F57
:10177000012400F045F9204670BD00BF080100209B
:10178000C8010020B0010020F80100202401002041
:10179000A0010020FC0100202001002004ED00E059
:1017A00070B5184C2368F3B1174DFFF701FF2E6891
:1017B000FFF78EFF002EF4D000F012F9EB68DD6821
:1017C000281D00F0B5F8114801684A1E026026681D
:1017D000731E236000F014F9286B00F027FA2846E6
:1017E00000F024FADDE70A480168012907D9094D0C
:1017F0004FF080522A60BFF34F8FBFF36F8FFFF718
:10180000EBFBCEE79C01002088010020C8010020EE
:101810002401002004ED00E038B504460D46FFF732
:10182000C7FE134B22681868904205EB020102D2F2
:10183000914207D201E0914206D3814294BF002237
:10184000012202E0002200E0012221601AB1081A00
:101850000021FFF747FDFFF73BFF38B9054B4FF07D
:1018600080501860BFF34F8FBFF36F8F38BD00BF3C
:10187000A801002004ED00E00F4B1A680F4B0AB1DD
:10188000012217E00E481A600168B1FA81F3DAB25A
:101890000C4B1421C2F11F0001FB003000F10801C4
:1018A000426853688B42436004BF5B684360406892
:1018B000054BC2681A60704708010020FC01002037
:1018C000F801002024010020A001002000F10803FD
:1018D0004FF0FF32002143608260C360036101600A
:1018E0007047002303617047436808619A684B6042
:1018F0008A609A689960516001684B1C0360704768
:101900000A68531C30B501D1036907E000F10803F0
:101910005C682568954201D82346F9E75A68086152
:101920004A60916059608B6001684B1C036030BD58
:101930004168826803698A6082685160596881429F
:1019400008BF5A60002202611868013818607047A9
:101950004FF0BF0383F31188BFF36F8FBFF34F8F37
:10196000FEE7000006480068006880F3088862B659
:1019700061B6BFF34F8FBFF36F8F00DF00BF000072
:1019800008ED00E04FF0807340F8043C054B40F850
:10199000202C21F0010140F8081C40F80C3C403894
:1019A000704700BF5119010800000000000000004E
:1019B000074B19680868B0E8F00F80F30988BFF397
:1019C0006F8F4FF0000080F311884EF00D0E7047BE
:1019D000A0010020AFF30080AFF30080AFF30080E0
:1019E0004FF0BF0383F31188BFF36F8FBFF34F8FA7
:1019F000024B1A68501C1860704700BF000000209E
:101A0000034A1368581E106008B980F311887047A4
:101A100000000020000000000000000000000000A6
:101A2000EFF30980BFF36F8F0D4B1A6820E9F00FB9
:101A300010602DE908404FF0BF0080F31188FFF7D8
:101A40001BFF4FF0000080F31188BDE808401968C3
:101A50000868B0E8F00F80F30988BFF36F8F704714
:101A6000A0010020AFF30080AFF30080AFF300804F
:101A700008B54FF0BF0383F31188BFF36F8FBFF337
:101A80004F8FFFF7A3FD18B1034B4FF080521A6040
:101A9000002080F3118808BD04ED00E0034B044AE8
:101AA00007201A6043F8040C704700BF14E000E000
:101AB0003F90020008B5094B1A6842F47F00186095
:101AC000196841F07F421A60FFF7E8FF044B0020DD
:101AD0001860FFF747FFFFF73BFF00BF20ED00E076
:101AE0000000002010B50F4B1A68824201D2134645
:101AF000FAE759685C18844203D14068411859607C
:101B0000184641684418944207D1074C2468A24201
:101B100003D054681268611841608342026018BFA4
:101B2000186010BD0802002004020020F8B5054628
:101B3000FFF73EFD374B186818BB374A510707D0EF
:101B4000D61D26F0070302F52050C11A1A4601E0FF
:101B50004FF420515118083921F007012F4E2D481C
:101B60003260002373600B604B608B1A82E80A00BE
:101B70002B4E2C4A336013602B4B01604FF0004119
:101B800019602948066835423BD1002D3AD005F14D
:101B900008035A071CBF23F007030833002B2ED07D
:101BA0001F4D2F68BB422CD81C4A146861689942AB
:101BB00004D3184D2868844206D122E0206800280A
:101BC000F7D022460446F1E7206815681060CA1A6B
:101BD0000835102A04D9E01842606360FFF782FFDD
:101BE00062680F49BB1A0B600E490868834242EADB
:101BF000060638BF0B6000226660226002E01D46C8
:101C000000E00025FFF764FD0DB9FFF707FA28464D
:101C1000F8BD00BF04020020440900200802002093
:101C200000020020100200201402002010B504461B
:101C3000E0B10F4A50F8043C1068184216D054F82E
:101C4000081C99B923EA000344F8043CFFF7B0FCF0
:101C5000084B54F8040C1A688118A4F108001960A4
:101C6000FFF740FFBDE81040FFF732BD10BD00BFD9
:101C70001402002000020020FEE70000684620F069
:101C800007018D4601B500230A4A0B49981888427E
:101C900004D20A49585898500433F5E7084B094ACA
:101CA000934203D2002043F8040BF8E7FFF726F92C
:101CB000FEE700BF00000020780000208009020835
:101CC00078000020884E002070470000F8B5002101
:101CD0000124214B0A4620461C7001F0F3FE2146E8
:101CE0002046002201F0EEFE22462046002101F0AF
:101CF000E9FE20462146224601F0E4FE174804781A
:101D00000023A3420CDA164A16491748D55CCF5C6B
:101D1000C65C7D403543C554C95CD1540133F0E7FE
:101D200012490A6802B19047114B188898B11149BD
:101D30000A8882B10948531E00780B800023834231
:101D400009DA0749084ACC5CD55C6C40CC540021C8
:101D5000D1540133F3E7F8BD1F0200201E0200201A
:101D6000743100206431002044310020180200202A
:101D70001C0200202002002010B500282ED1194B93
:101D80001949186010220A7003461848184900249F
:101D9000C4541848FF22CA54C254174AD4540133B9
:101DA000102BF2D115481649048001200C80024600
:101DB000214601F087FE01200246014601F082FE25
:101DC0000221012001F05CFD06220120032101F027
:101DD000D7FE0C4B01221A70204610BD4FF0FF3089
:101DE00010BD00BF180200201E0200205431002048
:101DF0007431002064310020443100202002002092
:101E00001C0200201F020020014B1878704700BF01
:101E10001E020020024B03481A88028000207047EF
:101E20001C0200202002002037B5174D2B7823B369
:101E300016490A7822B3164B002418600C7022460B
:101E40002146012001F03EFE01200146224601F01C
:101E500039FE01202146024601F034FE01200146F0
:101E6000024601F02FFE0B482B7800900A490B4ADE
:101E7000012002F03BF8204604E04FF0FF3001E083
:101E80006FF001003EBD00BF1E0200201F020020B7
:101E900018020020CD1C01085431002064310020BC
:101EA00050B90346064AFF21D15406490020C854C0
:101EB0000133102BF6D170474FF0FF30704700BF51
:101EC000743100204431002070B504460D46FFF700
:101ED0009BFF84420BD201F085FC064B1E5D1A5D10
:101EE0002E4022EA05051D5501F090FC00E0002679
:101EF000304670BD443100202DE9F8430746FFF716
:101F000083FF064620B31FB30024B4421DDA2046E7
:101F1000FF21FFF7D9FF804608B90134F5E74FEA02
:101F2000C409002548FA05F3DB070AD50A48015D14
