:020000040800F2
:10000000005000208D010008890100080000000058
:10001000890100088901000889010008000000002A
:10002000000000000000000000000000890100083E
:10003000890100080000000089010008890100080A
:100040008901000889010008890100088901000868
:100050008901000889010008890100088901000858
:100060008901000889010008890100088901000848
:100070008901000889010008890100088901000838
:100080008901000889010008890100088901000828
:100090008901000889010008890100088901000818
:1000A0008901000889010008890100088901000808
:1000B00089010008890100088901000889010008F8
:1000C00089010008890100088901000889010008E8
:1000D00089010008890100088901000889010008D8
:1000E00089010008890100088901000889010008C8
:1000F00089010008890100088901000889010008B8
:1001000089010008890100088901000889010008A7
:100110008901000889010008890100088901000897
:100120008901000889010008890100088901000887
:100130008901000889010008890100088901000877
:1001400089010008890100088901000831160008AA
:100150008901000889010008890100088901000857
:100160008901000889010008890100088901000847
:100170008901000889010008890100088901000837
:100180008901000889010008FEE70000684620F0A8
:1001900007018D4601B500230A4A0B499818884289
:1001A00004D20A49585898500433F5E7084B094AD5
:1001B000934203D2002043F8040BF8E700F00CF858
:1001C000FEE700BF0000002040000020A03900082A
:1001D00040000020F02000202DE9F743002000F02F
:1001E0005DFF002001F0D6F8012001F05FF86846BD
:1001F00001F049FE002401238DF805408DF80430FC
:100200008DF80640B1490A196058958802AE0583F9
:100210006946083446F8085D01F0E8FD182CF1D174
:100220000027AB4CE31938599A8802A9028341F898
:10023000082D0837694601F0D9FD302FF1D100258E
:10024000A44E7719A859BC8802AB44836946083587
:1002500043F8084D01F0CAFD182DF1D180249E4DC0
:10026000DFF8788208264FF020094FF40057A8F8ED
:100270001A9001206F836E8301F0AEF8A8F81890F1
:1002800001202F832E8301F0A7F8013CE7D12046FF
:100290008F4A131881589D88083030284D83F7D134
:1002A000012001F099F80027894EF019BC59828885
:1002B0000837302F2283F7D1012001F08DF8002577
:1002C00001218DF804508DF80710804B5F1902ACA6
:1002D000BE88E85844F8086D6946083501F086FD87
:1002E000182DF2D100257A48421902A9938828587E
:1002F00041F8083D0835694601F078FD302DF2D10E
:100300000027744EF41902A8A588694640F8085DD4
:10031000B859083701F06AFD182FF2D16F4F6420E9
:1003200000F0F8FF3A6902F0010501F090F9C6B259
:1003300016B93B69D9070BD53DB18020012101F0E9
:10034000FFFD8020002101F0FBFD002001F086F977
:10035000002000F02DFB002000F022F9B6B95F4923
:100360000C69E20770D45E480778422F6CD15D4A71
:100370001678002E68D001F0ADFC0120002100F0BD
:10038000B5FF594BDF78082F46D103E0102000F06D
:10039000DBFA59E06FF00700012101F0C5FD6FF0B5
:1003A0008000012101F0CCFD4FF0FF30012101F070
:1003B000D3FD4FF0FF30012101F0DAFD4FF0FF30A7
:1003C000002101F0B1FD4FF0FF30002101F0B8FD38
:1003D0004FF0FF30002101F0BFFD4FF0FF30002152
:1003E00001F0C6FD45B18020012101F0A9FD80206A
:1003F000002101F0A5FD08E001F029F928B13B48F2
:10040000D0F8E4550DB102F0E1FA394E346884F3C6
:10041000088835490A68904700F0A4FF012001468A
:1004200000F064FF00F0A8FF40F2F31398421F466B
:10043000F8D900F097FF0120002100F057FF00F0ED
:100440009BFFB842FBD9E7E700F08CFF00F094FF78
:100450003227B0FBF7F364210446B3FBF1F001FB54
:10046000103242F21073B4FBF3F1560841F28830B7
:1004700003FB11428242B4FBF7F307FB134188BF31
:10048000C6EB07060120B14294BF002101210A27D3
:1004900000F02CFFB4FBF7F607FB16440CB900F094
:1004A000ADFD002000F03EFD00F066FF44F61F6148
:1004B0008842CBD900F07EF80028C7D1002D3FF448
:1004C0005AAF064A1069C307C0D454E7D0360008B3
:1004D000E8360008B8360008000402400000024078
:1004E000D23F0008D33F000804400008B4150020A4
:1004F00000400008124B1A78032A10B50BD8114996
:100500000C6800F07F004FEAC41444EA0010086051
:100510000FD104220EE0072A0FD80B490C6800F017
:100520007F004FEAC41444EA0010086001D1082299
:1005300000E001321A70002010BD4FF0FF3010BDF6
:1005400004050020400000205000002070B5134B2F
:1005500088B016461A7804460D468DF80020997822
:10056000DA7858781B798DF802108DF803208DF811
:1005700001008DF8043000F089FD8DF80500F720AA
:100580008DF808006946204609228DF806508DF83E
:10059000076000F087FA08B070BD00BF113800088E
:1005A00010B9034B187070474FF0FF30704700BF11
:1005B00005050020014B1878704700BF0505002095
:1005C0002DE9F04198460C461546064600F052FDCE
:1005D00000F0C8FEB8F1010F04D0B8F1020F40F0EE
:1005E000A38189E0B14B14B1012C0AD104E01C7045
:1005F000AF4BB04A1C6092E01978072900F2918154
:1006000097E01978082903D030460E210122E5E051
:10061000A948AA4C0278437881782270C278007980
:10062000A34FA44D6370A170E27020713F682D68E4
:1006300000F02CFD4FEA556E6071780E0223E071D8
:10064000C7F386417044A3712172C7F3C6234118D2
:100650006372C7F3061253FA81F3C5F38640A272A0
:1006600052FA83F250FA82F1C5F3C62353FA81F2AB
:100670002073C5F3061050FA82F163730023A07350
:1006800084F80BE0C9B21A460F341846A84221D0AC
:1006900010F807E04FF0080C01335200DBB242EAD9
:1006A000DE12062B4FEA4E0ED2B25FFA8EFE0AD948
:1006B000C3F1070302FA03F2D2B25118002304F87F
:1006C000012BC9B21A460CF1FF3C1CF0FF0CE3D120
:1006D0000130DBE71BB18B1804F8012BD9B24A4279
:1006E000764902F07F00F723A21C20706370304629
:1006F000521A00F0D7F914E114B1012C53D110E0D3
:100700006A4B6B496B486E4A1C700C6004606D4B01
:100710006D496E4814706E4A1C700C600460146061
:10072000FFE062480178072907D8654908782A1848
:100730000A702846FFF7DEFEF3E008292BD1604857
:100740000278AB18037060480368B3F5806F80F0DF
:10075000E880584E5E4F5D4C366838682268072442
:100760000132C5F380176D00072A47EA4000EDB259
:1007700006D9524AD0540133B34228BF092100227E
:10078000013CEDD1524C2060504802604E4A13604B
:10079000464B1970C5E0092902D14A4B1D70C0E0D3
:1007A0000C220270BDE0434B47481F680168B94204
:1007B000FFF42AAF3D4A13780C2B03D130460E21AB
:1007C00042460BE03E4A3F4813780178584200F019
:1007D0007F02914205D030460E210322FFF7B6FE7C
:1007E0009FE0334B3B4901240C701C6844EA07002E
:1007F000830740F08C80384A944202D86FF007009B
:1008000087E000F0DFFC00F100614B1E9C426DD8D8
:1008100001F052FA00230C21594330480A589442FF
:1008200024D12F492F488C4201D10022026001219E
:10083000006801FA03F1014203D02B4D4FF000088C
:100840002EE041EA000227490A60244A0C2000FBFE
:1008500003230221586801F093FA0828EDD04FF0E5
:10086000FF3001F03FFA6FF0030052E001330C2B30
:10087000D1D1E2E76B7829781A0442EA012315F80E
:10088000011CAA780B4343EA026101F05BFA0435CC
:100890000828E4D101F008FA01F0FEF908F1040893
:1008A000B84508EB0400E5D342E000BF0405002092
:1008B000400000205000002011380008580000209F
:1008C0004C000020540000200005002008050020F6
:1008D0004400002005050020FF3F000818370008ED
:1008E000004000084800002059000020B4F1005FDB
:1008F00084D300F06FFC00F10050421E94423FF69A
:100900007DAF20460E493A4602F0CCFE10E06FF073
:10091000080043420E213046DAB2FFF717FE00F01E
:100920006DFB0020BDE8F0814FF0FF30BDE8F081A5
:100930000449087842420F21304602F07F02ECE77A
:10094000580000204C00002010B5114B88B01A78D8
:1009500099788DF800200446DA7858781B798DF85C
:1009600002108DF803208DF801008DF8043000F09E
:100970008DFBF7218DF8050001208DF806008DF81C
:10098000071020466946082200F08CF808B010BD18
:100990001138000808B52020FFF7D6FF1020FFF718
:1009A000D3FF024B0020187008BD00BF05050020D2
:1009B00010B5044600282CD1174A1849102313708B
:1009C0000B70174A174B1849186010600860174BD6
:1009D000174A184918601060086000F03FFF164B76
:1009E000164A1C70164B174914701C700A78C00FF9
:1009F000422A04D114490A78110658BF1A70134BC1
:100A000000211980124900220023C1E9002340423D
:100A100010BD4FF0FF3010BD00000020010000208D
:100A20000C05002014050020380500203C0500209E
:100A300028050020180500201C05002020050020A6
:100A40001D050020D03F0008D13F00081E050020F2
:100A50003005002010F0F00F38B504460D4604D1E3
:100A600001280CBF0C4B0D4B1C780D4B1A6864F31E
:100A7000071542B904F0F004102C0AD12846BDE84D
:100A8000384000F059BF2046294690470028F1D051
:100A900038BD4FF0FF3038BD0100002000000020BD
:100AA0000C0500202DE9F04180460E461746002433
:100AB000BC4235D23B1B022B0DD0032B19D0012B8E
:100AC00019D1325D052161F3030562F30F2501346D
:100AD0006FF317450AE03119305D4A78062363F356
:100AE000030560F30F2562F3174502346FF31F65AA
:100AF0000FE0072000E0042060F303053019335DA8
:100B00004178827863F30F2561F3174562F31F651F
:100B1000033440462946FFF79DFF0028C8DA00E06D
:100B20000020BDE8F081000030B5A1B0F0238DF8C1
:100B30000030134B7E2232258DF803201A788DF871
:100B4000045000240F258DF801408DF802408DF8E7
:100B500005208DF8065002AB0D5D5A1E35B10134EB
:100B60001A4603F8015C0133642CF5D1F72102F831
:100B7000011B6946521AFFF795FF21B030BD00BF37
:100B80001D05002000B589B0F0238DF8003000234A
:100B90008DF801308DF802307E238DF8033032233A
:100BA0008DF80430084B8DF806101B788DF807205F
:100BB000F7218DF80810092269468DF80530FFF7F6
:100BC00071FF09B000BD00BF1D050020F0B5454E06
:100BD0008BB0337804460D461746FFF7F1FC00282A
:100BE0007CDA31780D295AD001D829B169E00E2973
:100BF00074D00F2965D15AE03B4B1DB1012D03D1B3
:100C00001F706BE01D7069E01878052829D011D895
:100C1000022820D004D801283DD12046334937E0AE
:100C200003281BD0042836D100F0C6FA304902460A
:100C3000684623E0082826D006D8062819D00728B9
:100C400029D100F0C7FA16E009281FD07F2822D149
:100C5000FFF7A0FE42E02046264919E0204626493B
:100C600016E0684600F0BAFA0028204609DA23495F
:100C70000EE000F0A7FA22490246684600F0E2FFC3
:100C80002046694604E020461E4901E01E492046F0
:100C9000FFF74AFF22E020460E210D2204E0022D3C
:100CA0001CD120460E211022FFF76CFF16E0174AD8
:100CB0000DB1012D01D1556010E0526872B9204686
:100CC000F2E70E210A462046FFF75CFF0F49054B6D
:100CD0000A7800206FF307020A70187000200BB02A
:100CE000F0BD00BF1005002040050020B837000807
:100CF000D3370008BF370008C9370008D8370008C5
:100D0000DA370008DD370008EF370008200500203B
:100D1000F72910B50A465AD82E4B197801F0080366
:100D200003F0FF041BB12C4B1B7883424CD1A0F184
:100D30001103062B48D9284B187004BB25480378AB
:100D400003F00703042B03D82448C05C904221D150
:100D500001F00701052903D121480178914219D1F9
:100D60005A1C1C4B197802F0070060F30201052899
:100D700019702CD9CAB242F00800187027E0130687
:100D800011D5F72A06D101F01001CBB213B102211F
:100D9000FFF71CFF0F4B134A197800206FF3070170
:100DA0001970107010BD01F01004E4B244B9094B81
:100DB000197841F0100119700A4B21461A7000E0B1
:100DC0000121FFF703FF02E04FF0FF3010BD0020CC
:100DD00010BD00BF200500201C05002011380008B0
:100DE0001D0500201005002001F00F032DE9F0473C
:100DF0000F46C1F30728C1F307494FEA116A03F10F
:100E0000080101F00F010629064602D8002A5ED12A
:100E100080E0B8F1F00F08D003F10C0000F00F01F2
:100E200003292CD8B8F1F60F29D03C49D1E9004567
:100E300054EA050023D106F0F004302C4FF00000F6
:100E40000CD0502C13D0102C19D1354C208006F02A
:100E50000F00012404FA00F0088010E0304C2080DC
:100E600006F00F00012404FA00F0488007E02C4C43
:100E7000208006F00F00012404FA00F088800F2B78
:100E800048D8DFE803F022222222081C28284747FE
:100E9000474747474708B8F1F70F16D8304641464D
:100EA00007F00F07FFF734FF0F2F33D049463046C6
:100EB000FFF72EFF30465146FFF72AFF2AE0B8F130
:100EC000F70F02D8B8F1F60F05D11AB3304627F064
:100ED000F00190471EE01A1F12F0FF041AD03046AE
:100EE0004146FFF715FF012C0CD030464946FFF76D
:100EF0000FFF022C05D030465146FFF709FFD046C0
:100F000000E0C846B8F1F70F04D1044900220023DD
:100F1000C1E900230020BDE8F08700BF30050020B4
:100F20001E05002013B5044601A800F01DFD002891
:100F300007DB0199C1F3031010302246FFF754FF7D
:100F4000F2E72849D1E9002352EA030047D0264BB3
:100F50001888B0F57A7F42D90A8862B1002142FA36
:100F600001F313F0010003D101311029F7D101463B
:100F70001031C8B21AE04B885BB143FA02F010F0AE
:100F8000010103D10132102AF7D10A463032D0B222
:100F90000CE0888850B140FA03F111F0010203D14E
:100FA0000133102BF7D113465033D8B20F4B1A78B8
:100FB00002F00801C9B249B10D490978814205D151
:100FC0006FF307021A700B4B00221A700A490A6865
:100FD00002B19047034800220023C0E9002300200B
:100FE0001CBD00BF300500201E050020200500208C
:100FF0001C050020100500203C05002010B500F065
:10100000DFFC044600F048F8054B1A884FF6FF71E4
:101010008A4240EA040001D001321A8010BD00BFAC
:101020001E050020114BF7B51C680746E4B1C1F35B
:101030000764C1F30720C1F307420D4D8DF8064048
:1010400001F00F0100246E5C8DF804008DF805207E
:101050002546B54208DA01AA044B515D1B683846A3
:10106000984701350443F4E72046FEBD14050020EF
:10107000A8370008012803D0034B187000207047E0
:101080004FF0FF30704700BF01000020014B18787F
:10109000704700BF1D0500200020704713B50446AF
:1010A00000287AD11F20012100F00EFF3C4B009454
:1010B0009A6802F00C00082802D1012000905DE03F
:1010C000196841F001021A609C60186820F0847170
:1010D000344821F480321A605860196821F4802263
:1010E0001A60DC600194186840F4803119602C4B60
:1010F0001A6802F40030009001994A1C019200988D
:1011000018B90199B1F5A06FF1D11B6813F4003241
:1011100018BF01220092009801282FD1204B2248AD
:10112000196C41F080521A64016841F480420260F7
:1011300098689860996841F400429A6098681B4AE0
:1011400040F4A05199605A60186840F080711960AD
:101150001868134A8101FBD5154B40F205611960EF
:10116000906820F003019160936843F00200906062
:101170000B4A916801F00C03082BF9D10D480021AE
:1011800000F07AFD4FF4407000F06CFD009A012AE7
:1011900014BF4FF0FF30002001E04FF0FF301CBDC6
:1011A000003802401030002400700040085440070E
:1011B000003C024000000008014B1868704700BF67
:1011C000002004E0024B188881B28802704700BFFB
:1011D000227AFF1F4FF440307047000000230B4A73
:1011E000591089180A78D90758BF120902F00F025E
:1011F000092A94BF302137218A18C2540133182B91
:10120000EDD1002101760846704700BF107AFF1F1C
:10121000074B1A681AB9EFF31081064801604FF0C6
:10122000010080F310881A68511C19600020704773
:101230004805002044050020074A13683BB1581EAA
:10124000106038B905490A6882F3108802E04FF04F
:10125000FF307047002070474805002044050020FB
:101260000F291CD80F4BDA68D343C3F30222C2F113
:10127000040301FA03F1090100F16043CAB203F566
:101280006141012381F8002342B200F01F0051099F
:1012900003FA00F2044840F82120002070474FF084
:1012A000FF30704700ED00E000E100E0C30713B538
:1012B000044611D5684600F0E6FD402001210223D6
:1012C00000908DF80410002207488DF8053069461B
:1012D0008DF8062000F08AFD34F0030314BF6FF090
:1012E000010000201CBD00BF00080240C20707D556
:1012F000074B11F0010F4FF0400214BF1A835A83BD
:1013000030F0030314BF6FF001000020704700BFEE
:101310000008024030B5012185B00446102000F0DD
:10132000EBFD54204443611E0D4CADF804104FF604
:10133000FF730025204601A90293ADF80C50ADF8CB
:10134000065000F021FE01210A46204600F066FE0C
:101350002046012100F056FE284605B030BD00BFF2
:10136000001000400348012108B5416200F06AFE08
:10137000002008BD00100040054810B50121446A56
:1013800000F055FE00280CBF20464FF0FF3010BD86
:10139000001000401FB50446B8B90120014600F016
:1013A000B7FDA7204FF6FF73ADF8040001A9094867
:1013B0000293ADF80C40ADF8064000F0E5FD05489D
:1013C000012100F01FFE204601E04FF0FF3004B085
:1013D00010BD00BF00000140044B596A89B25A6A2F
:1013E000521A92B28242FAD900207047000001409E
:1013F00012230B80004870475038000804230B80EC
:10140000004870474C380008704770477047704775
:1014100070470020704700207047000065230B8054
:10142000004870478F38000810B50B4B8CB0987887
:101430001A888DF8060002A80C46ADF80420FFF7C4
:10144000CDFE0028ACBF02A801A80449224601F045
:101450009BF902480CB010BD80380008882000209D
:1014600070B5164B86B00A4601AC03F11006186839
:101470005968254603C50833B3422C46F7D118886E
:10148000002328800E495818017859B120395F2966
:101490008CBF002101210133202B06D00029F1D17E
:1014A00001A805E0002BFBD001E00029F8D004489A
:1014B000044901F069F9034806B070BDDD37000842
:1014C000E03F000888200020FFF7CABFFFF7C8BF31
:1014D0001146FFF7C5BF00001FB5084C0A4620683B
:1014E000616801AB03C3A068054C1860214601A8E0
:1014F00001F04AF9204604B010BD00BF833800084F
:1015000088200020022908B503D10846002100F0F8
:101510006DFA002008BD012908B503D10846002155
:1015200000F05CFA002008BD10B50221044601F06D
:10153000C1FD2046812101F0BDFD002010BD00202D
:1015400000F092B9012000F08FB90000022110B51F
:10155000402204460B4601F08CFD812140220223EB
:10156000204601F086FD0221034A0448402301F091
:10157000BAFD002010BD00BF44200020B41500209B
:10158000F7B5274B1D78002D48D101242046214670
:101590001C7000F099FC4FF4D850009003260227ED
:1015A00020488DF8056069468DF804708DF8065066
:1015B0008DF8075000F01AFC1A4808210A2200F0A2
:1015C0006BFC184809210A2200F066FC15480B2123
:1015D0000A2200F061FC0A2212480C2100F05CFC97
:1015E0004FF4806100910F488DF8047069468DF8C2
:1015F00007408DF8056000F0F9FB0A210A4609480A
:1016000000F04AFC4FF48040214600F081FC80202D
:10161000214600F065FC204600F038FBFEBD00BF0F
:101620004C0500200000024043200821FFF718BEAF
:10163000014801F031BE00BFB415002080B2FFF7B1
:10164000CBBE4FF47A73584380B2FFF7C5BE4FF05C
:10165000A0431868C0F3C04070470000022837B5A7
:10166000054642D8FFF7F3FF0446FFF768FF45BB86
:1016700014F0FF0F25D01E4C2046FFF781FF1D48B8
:101680001D491E4AC4F8E405C4F8E81520460121A6
:10169000C4F8EC2501F0EAF8204601F090F9204664
:1016A00001F000FA2046FFF7BFFF01210323204687
:1016B00084F8101184F81231FFF748FFFFF742FF5A
:1016C00011E00D4B0D4A009301210A4B084800F030
:1016D000BBFD074801F08BFD4CF25030FFF77CFE5C
:1016E000034801F07CFD002001E04FF0FF303EBDDB
:1016F000B415002018380008F438000864380008D1
:1017000070B5254CD4F8E435002B43D0FFF780FDAD
:1017100022480178002939D0D4F8DC63B608B3B286
:10172000002B33D01E4A108881B21BB2C1F5007263
:1017300093422BDA00241B4D55F82450C5F30310B7
:1017400010302946FFF76EFC90B9174B174A1988DD
:1017500089B242F8215019884A1C91B2B1F5007F34
:10176000198028BF18800E4803885A1C91B2018046
:101770000134301B03B2002BDDDC0849064800228F
:101780000A7040230221074A01F0ADFCBDE8704019
:10179000FFF752BD70BD00BFB415002058150020E2
:1017A00050050020442000205A150020580D00202C
:1017B000234BD3F8E40510B5002840D0FFF728FDEF
:1017C00020490A78002A36D11F4B188881B2002997
:1017D00031D01E4A107800282DD019888AB2102ADC
:1017E00098BF1988174B94BF89B210210120187037
:1017F00015480288531A9AB2028000220BB29A420C
:1018000013DA134B13481C88A4B250F82440124832
:1018100040F822401888013080B2B0F5007F18806F
:1018200001D3002018800132E8E705480A4A8121E7
:101830009B0001F075FCBDE81040FFF7FDBC10BD3A
:10184000B4150020540D00205E1500206215002004
:10185000601500205405002064150020002814BFE6
:101860004FF0FF30002070470D49002310B50B806A
:101870000C4C0D4923800B800C4C0D4923700B80C0
:101880000C4C0D4923801A460B800C4C0C4B01214B
:1018900010B121701A7001E022701970002010BD83
:1018A000500500205A150020520500205815002030
:1018B0005E1500204E0500206015002062150020F6
:1018C000540D002038B5184C2378054613B94FF055
:1018D000FF3038BD154801888AB2B2F5FF7F07D9BD
:1018E000FFF766FF2378002BF1D06FF0010038BDC1
:1018F000FFF78EFC0E4B0F49188882B2501C41F83E
:10190000225082B21A80198888B2B0F5007F01D3C4
:1019100000221A80054B1988481C82B21A80FFF7F2
:101920008BFC002038BD00BF621500205E15002032
:101930004E0500205405002010B504462046FFF750
:10194000C1FF831C08D1074B1A8842F20F718A42EB
:1019500007D8501C1880F1E7002802DB014B002259
:101960001A8010BD5C150020124B10B50446188873
:1019700081B2D9B1FFF74CFC0F4B10491A8890B2D5
:1019800051F8202022601C88601C81B2B1F5007FD4
:10199000198001D300221A80064C2388581E81B278
:1019A0002180FFF749FC228890B210BD4FF0FF3034
:1019B00010BD00BF5005002052050020580D00202A
:1019C00008B5054801F05EF818B9FFF799FEFFF772
:1019D000EFFE002008BD00BFB4150020024B00221E
:1019E0001A70FFF7E5BE00BF540D0020024B012224
:1019F0001A70FFF785BE00BF5815002020B103689C
:101A0000197001684A1C026070472DE9F843141EE2
:101A10008046894601DC20270FE0002219F80210D9
:101A200009B10132FAE7A242B4BFC2EB04040C468A
:101A300013F0020F0CBF20273027DB070CD42546FC
:101A4000002D05DD40463946FFF7D8FF013DF7E799
:101A500024EAE476A41B00E000263546C6EB090321
:101A6000595D21B14046FFF7C9FF0135F6E726462B
:101A7000002E05DD40463946FFF7C0FF013EF7E77F
:101A8000002CACBF2819281CBDE8F8832DE9FF47BE
:101A90000C9EDDF8348081460C4651B930228DF819
:101AA00004208DF80510324601A94346FFF7ADFF2B
:101AB00035E033B10A2A04D1002902DA4C42012769
:101AC00000E0002704AD002305F8013DAA466CB1F3
:101AD000B4FBF2F302FB1344092C02DD0E993A39F0
:101AE0006418303405F8014D1C46EFE787B14EB15C
:101AF00018F0020F06D048462D21FFF77FFF013E68
:101B0000012705E02D2005F1FF3A05F8010C00271B
:101B10004846514632464346FFF777FF381804B02F
:101B2000BDE8F087F0B589B006460D460592002461
:101B30002B7823B1252B79D168786A1C28B9002E1F
:101B40007BD030680022027077E025286DD02D28E8
:101B500002D1AA1C012300E0002317460132397884
:101B6000302902D143F00203F7E700223978A1F1CE
:101B700030005FFA80FC3D460137BCF1090F03D805
:101B80000A2505FB0202F1E7732909D1059F391DDA
:101B9000059139682A4F3046002908BF394641E08F
:101BA00064290ED18DE80C00059961230293081D6C
:101BB000096805900A2230460123FFF767FF2418C1
:101BC00039E0782906D10599081D8DE80C000590AB
:101BD000612207E058290AD10599081D8DE80C00FB
:101BE0000590412202923046096810220BE07529C7
:101BF0000BD18DE80C00059961230293081D09683B
:101C000005900A2230460023D7E7632913D10599AE
:101C1000081D0968059000208DF81C108DF81D0026
:101C200007A93046FFF7F1FEC9E715463046297887
:101C3000FFF7E4FE013401357AE7204609B0F0BD34
:101C4000103900080EB40FB505AA019052F8041B14
:101C500001A80392FFF766FF04B05DF804EB03B040
:101C60007047000040F0BF60024B40F40031D96083
:101C7000704700BF00ED00E021F0604121F07F02DD
:101C8000014B10439860704700ED00E0014B586134
:101C9000704700BF003C0140024B1A6842F40060EC
:101CA00018607047003C0240024B1A6842F48050B2
:101CB00018607047003C0240044B1A69002A04DA9D
:101CC000034800F18831586059607047003C024079
:101CD00023016745024B1A6942F0004018617047C2
:101CE000003C0240014BD860704700BF003C0240FE
:101CF0000B4BDA68D0030DD4D868C1060CD4D96870
:101D000011F0EF0F0AD1DB6813F0020F0CBF0820AF
:101D10000720704701207047052070470620704754
:101D2000003C024007B508238DF80730FFF7E0FFBD
:101D30008DF807009DF807000128F7D09DF80700EF
:101D40000EBD000070B505460E46FFF7EBFF0828F4
:101D500013D10A4C236923F440702061216941F4B6
:101D600000722261236943F0010020612E60FFF7B9
:101D7000D9FF216921F00102226170BD003C0240BF
:101D800070B5064641B1012908D0022914BF4FF4AD
:101D900040754FF4007503E00D4601E04FF4807587
:101DA000FFF7C0FF08281ED10F4C236923F44070B1
:101DB000206121690D432561226922F0F803236126
:101DC000206940F002010E432661226942F480330B
:101DD0002361FFF7A7FF216921F002022261236935
:101DE00023F0F801216170BD003C0240F0B50E689F
:101DF0000022012303FA02F303EA06059D423ED1C5
:101E000007680C79530027FA03F707F00307A74286
:101E10000DD007684FF0030C0CFA03FC27EA0C07FF
:101E20000760076804FA03FC4CEA07070760013CF7
:101E3000012C17D88768032404FA03F427EA04075F
:101E400087604C79876804FA03F43C4384604468F3
:101E500024EA05058C794560456804FA02F4A4B2C9
:101E60002C434460C568032404FA03F425EA0405FE
:101E7000C560CD79C46805FA03F32343C36001321A
:101E8000102AB6D1F0BD00214FF6FF730360017137
:101E900041718171C171704701F00703C9080831B0
:101EA00030B59B0050F821500F2404FA03F425EAC2
:101EB000040440F8214050F8214002FA03F2144390
:101EC00040F8214030BD0000044B1A6B09B11043AB
:101ED00001E022EA00001863704700BF00380240AA
:101EE000044B5A6B09B1104301E022EA0000586329
:101EF000704700BF00380240044B1A6C09B1104310
:101F000001E022EA00001864704700BF0038024078
:101F1000044B5A6C09B1104301E022EA00005864F6
:101F2000704700BF00380240044B1A6909B11043E2
:101F300001E022EA00001861704700BF003802404B
:101F4000044B5A6909B1104301E022EA00005861CC
:101F5000704700BF00380240044B1A6A09B11043B1
:101F600001E022EA00001862704700BF003802401A
:101F7000044B5A6A09B1104301E022EA000058629A
:101F8000704700BF003802401C4A038890429BB251
:101F900012D002F5806290420ED0B0F1804F0BD08B
:101FA000A2F58032904207D002F58062904203D0C1
:101FB00002F58062904203D14A8823F070031343F4
:101FC0000F4A904208D002F58062904204D023F478
:101FD00040730A899BB2134303804B680A88C3622B
:101FE000064B0285984203D003F58062904201D1EE
:101FF000897A018601238382704700BF0000014077
:1020000000100040038819B199B241F0010303E0C8
:1020100023F001010A04130C0380704783899BB2EB
:102020000AB1194301E023EA010181817047038A63
:10203000828911EA030092B203D011420CBF002042
:1020400001207047C9438AB202827047D0F8E83550
:1020500010B5044618698047032184F81211002046
:1020600010BD08B590F81231042180F8133180F8C2
:102070001211D0F8E805C2689047002008BD08B5E5
:10208000D0F8E435D96901B18847002008BD08B50A
:10209000D0F8E435196A8847002008BD08B5D0F8A3
:1020A000E435596A8847002008BD002110B5402258
:1020B00004460B4600F0DDFF80214022002320462D
:1020C00000F0D7FFD4F8E805012384F81231416805
:1020D000A0788847002010BD13B56946044600F07B
:1020E00023F99DF8001001F01F03012B0CD006D33B
:1020F000022B0ED12046694600F046F90EE020463C
:10210000694600F0BBF909E02046694600F09EF9F7
:1021100004E0204601F0800101F01DF800201CBD04
:1021200070B50446002947D190F81131022B37D100
:10213000D0F83821D0F824319A4211D9D21AC0F8F7
:102140003821C078012804D1D4F82811CB18C4F85C
:1021500028312046D4F8281192B200F0B5F81FE0DB
:10216000D0F83C51B5FBF3F603FB16565EB99D4221
:1021700009D3D0F84021954205D2324600F0A4F8A8
:10218000C4F840610CE0D4F8E405C16829B194F8C2
:102190001231032B01D120468847204600F0B5F8C4
:1021A00094F81621012A10D1094920690B680022F0
:1021B000436084F8162108E0D0F8E4355B6923B168
:1021C00090F81221032A00D19847002070BD00BF6B
:1021D0008420002010B5044659BB90F81111032942
:1021E00030D1D0F89023D0F87C339A4214D9D21A47
:1021F000C0F89023C078012804D1D4F88013C818FF
:10220000C4F880039A4228BF1A462046D4F88013A7
:1022100092B200F062F815E0D0F8E4150B6923B132
:1022200090F81221032A00D19847204600F05EF86A
:1022300008E0D0F8E4359B6923B190F81221032A15
:1022400000D19847002010BD2DE9F041069F0446BB
:10225000164698460D46FFF793F920462946C4F8DE
:10226000E485C4F8E875C4F8EC6500F0B7FED4F86E
:10227000E835186880472046BDE8F041FFF7D4B93B
:10228000D0F8E43510B504461A689047D4F8E8054C
:1022900081688847002010BD08B5D0F8E4355A6839
:1022A0009047002008BD38B504460D46C4F83C21CF
:1022B000C4F838211346022280F8112100212A4651
:1022C00000F02EFF002038BD10B50C46134600214B
:1022D000224600F025FF002010BD10B50C46134625
:1022E0000021224600F0FFFE002010BD0021042343
:1022F00010B50A46044680F811310B4600F010FF75
:10230000204600F04DFE002010BD0021052310B531
:102310000A46044680F811310B4600F0E4FE2046E0
:1023200000F03EFE002010BD90F8CC350B7090F808
:10233000CD254A7090F8CE3590F8CF2503EB0222D8
:102340004A8090F8D03590F8D12503EB02228A809C
:1023500090F8D23590F8D32503EB022293B2CB80CC
:102360000121C0F8403180F81111704710B580216B
:10237000044600F0F0FE2046002100F0ECFE20466E
:10238000BDE8104000F00CBE70B54E788A88012E72
:1023900004460D46D3B211D029D3032E51D190F863
:1023A0001221022A2AD0032A49D14988A9B9A3B106
:1023B000802B12D0194600F0CEFE0EE090F81221CC
:1023C000022A1BD0032A3AD14988002939D153B1B6
:1023D000802B08D0194600F0DCFED4F8E40529462D
:1023E0008368204698472046FFF780FF29E090F851
:1023F0001251022D02D0032D21D106E00BB3802B08
:102400001FD0194600F0A7FE1BE012F0800F4FF01E
:10241000280006D002F07F0200FB024191F81E3135
:1024200003E000FB034393F87633074803B101232D
:102430000360054920460222FFF735FF01E0FFF760
:1024400095FF002070BD00BFAC15002038B590F896
:102450001231032B04460D460CD10A79012A09D802
:10246000D0F8E4359A689047E88828B92046FFF705
:102470003DFF01E0FFF77AFF002038BD70B54B78D3
:10248000052BA2B004460D4600F0B18008D8012B00
:1024900000F04381C0F00881032B40F0618114E11A
:1024A000082B00F0F38003D8062B40F0598106E09A
:1024B000092B00F0BC80552B40F052813DE148884B
:1024C000010A4B1E062B00F24B81DFE813F00700D8
:1024D00018003200490149015E007300D4F8EC3560
:1024E000A0781A680DF1060190470146E888402857
:1024F00003D094F81231012B69D1082357E0D4F8A6
:10250000E4050DF10601826AA0789047A378012BBB
:10251000014609D1207A012806D1D4F8E415CA6A07
:102520000DF106019047014602204870C4F8F015ED
:102530004DE0C1B2A078052920D8DFE801F00307FB
:102540000F13171BD4F8EC154A6802E0D4F8EC35E9
:102550009A680DF106019047014638E0D4F8EC2561
:10256000D268F6E7D4F8EC150A69F2E7D4F8EC354E
:102570005A69EEE7D4F8EC158A69EAE7D4F8E4255D
:10258000136B0DF106029847E6E7A078002840F0AB
:10259000E780D4F8E4158A6A0DF106019047744982
:1025A000837BC27B007C0B714A7188710A23ADF872
:1025B00006300CE0A078002840F0D280D4F8E42562
:1025C0000DF10601D36A9847014607204870BDF80F
:1025D0000600002800F0C880EA88002A00F0C480C5
:1025E000824228BF0246ADF806202046B5E08A8820
:1025F000002A40F0B580C988002940F0B1806E887B
:1026000090F8122106F07F03032A1E4600F0A880EE
:1026100080F81431194600F0DAFD2046FFF766FE17
:102620000EB1022000E0012084F812019CE08B78BA
:10263000504A012B137000F2938090F81221022A65
:1026400003D0032A40F08E8008E0002B61D00121E6
:10265000032380F8101180F8123114E043B90221ED
:1026600080F8121180F810311946FFF715FE50E07E
:1026700090F8101101294CD0FFF70EFE3D4801786B
:10268000204684F81011FFF7FBFD42E0CA88012ABA
:1026900066D190F81231022B04D0032B62D100F5E1
:1026A00088715AE0344958E090F81221931E012BAA
:1026B00058D83248D4F81821002101600AB1022309
:1026C000036020462D49022247E04B88012B2DD084
:1026D000022B49D18A8812F0FF0F45D10069110AF7
:1026E0004A1E4368042A0FD8DFE802F003050709F1
:1026F0000B00012006E0022004E0032002E0042099
:1027000000E0052060F306131D490B60012384F8E7
:1027100016312046FFF7EAFD26E090F81221931EBD
:10272000012B1FD84A88012A1ED10023D4F8E425A2
:10273000C4F8183193689847EBE70978C0290FD19E
:102740006A886AB9EE88802E0AD10E49324602A8FC
:1027500000F0A8FF204602A93246FFF7A4FD03E0DF
:1027600020462946FFF702FE002022B070BD00BFC0
:1027700004000020A4150020B0150020A81500209A
:10278000842000201739000830B5C0B10023C55C93
:10279000DCB20133002DFAD1631C5B0013800322ED
:1027A0000B704A700138022310F8012F3AB15C1CFB
:1027B000CA54E2B2023300248C54DBB2F4E730BDD9
:1027C000C36804494FF0FF326FF080405A6058618F
:1027D000996170470008008037B50023104C0193C1
:1027E00005460320FEF72AFFE8680269013C0192D2
:1027F00013D001990029F4DA019B43F00102019200
:102800000199074A01610369013A019302D00199D4
:10281000C907F8D40320FEF711FF00203EBD00BF1A
:10282000410D030030B5C4786CB900EB820003336E
:10283000D0F8D0509B1022469A4204D051F8220082
:1028400001322860F8E7002030BD10B50332D0F81F
:10285000D0409210002393424FEA830004D02068B6
:1028600041F823000133F6E7081810BD0122F0B546
:10287000002340249142C370827084800CD14FF4B5
:10288000A073C172082204240221C3800270447024
:1028900001724FF0A0430CE059B90C23C1720370D0
:1028A00006214FF4A0650226204B4170C5800672B8
:1028B000C27003F5006505614578C360024619469C
:1028C00000240432AC4201F1200608D201F5106761
:1028D00001F530611165576101343146F1E703F5C7
:1028E000806403F5886144610478C0F8CC1000224C
:1028F00003F5A061A24206D200EB82050132C5F8C1
:1029000090102031F6E703F580510022A24207D251
:1029100000EB82050132C5F8D01001F58051F5E7D2
:1029200003F56063C0F80C310020F0BD00000440E6
:1029300038B5037A0025012B0446C36821D1986B72
:10294000617A65F3104009B140F480109863DA6849
:102950006FF386126FF314526FF396526FF3514276
:102960006FF3D342DA602046FFF736FFE378012B9E
:1029700019D1052161F34405E06845F02005856023
:1029800011E0DA6842F04001D960FFF725FF607A74
:10299000E36800280CBF4FF434124FF474129A63AA
:1029A0001420FEF74EFEE278012A06D1E36899680A
:1029B00021F03E0040F02A029A60002038BDC36832
:1029C0009A6842F00100986000207047C3689A68D6
:1029D00022F00100986000207047000007B5002336
:1029E0000193019A42F020030193019A094B61F38C
:1029F0008A120192C268019810611169013B01912C
:102A000002D001988006F8D40320FEF717FE0020BC
:102A10000EBD00BF410D030007B5002301930199CE
:102A200041F010020192C068019B074A03610169ED
:102A3000013A019102D0019BD906F8D40320FEF798
:102A4000FDFD00200EBD00BF410D0300C26808B5AA
:102A5000D36801296FF35D736FF39E7302D143F066
:102A6000005302E009B943F080433220D360FEF7FF
:102A7000E8FD002008BDC368586900F0010181F03D
:102A800001007047C368586900F001007047C368CF
:102A90005A6998691040704703691A6861F3010226
:102AA0001A60704738B5C368044600256FF080424D
:102AB0009D615A61FFF784FEE078A8420CBF1021A7
:102AC000294641F4872343F00812E368996942F4E8
:102AD000401021EA000141EA00029A61284638BD0F
:102AE000D0F80C31016970B500261E600A6866F3E3
:102AF000CC220A60C37A012B044635461BD1032140
:102B0000FFF7CAFFC021E06880224FF4800661F31E
:102B10000F0562F31F4562F30F064FF4A073426284
:102B20008662C0F8045163F30F056FF31F45C0F8C8
:102B30000851C0F80C51E17A19BB227A012A18BF5A
:102B400001212046FFF7A8FFC021E0688023C0F2E2
:102B5000400661F30F0563F31F4563F30F064FF45F
:102B6000A07243628662C0F8045162F30F056FF3EE
:102B70001F45C0F80851C0F80C51C0F81051C0F8FA
:102B8000145110212046FFF729FF2046FFF744FF8C
:102B9000206900234FF0FF31036143618161C3610C
:102BA0006278934214D204EB830201339069016886
:102BB000C1F3076202F08001CAB2002A14BF4FF0CD
:102BC0009041002101600022FF2102618160E7E75E
:102BD00000236078834214D204EB83000133426DFA
:102BE0001168C1F3076000F08001C8B2002814BF6B
:102BF0004FF09041002111600020FF211061916091
:102C0000E7E72369196941F480721A61E0780128C5
:102C100004D1054A402161F359421A632046FFF767
:102C200041FF002070BD00BF0301010003699868E7
:102C3000C0F341014B1E022B02D8024AD05C704700
:102C400003207047973900080369816910B59C68B3
:102C50000A68C4F34100022802D06FF30A0202E0BE
:102C6000032060F30A020A60596841F480725A60D6
:102C7000002010BD30B54D780B780022012D00EBFF
:102C8000830405D105FA03F5A46965F30F0205E095
:102C9000012505FA03F3646D63F31F422368C3F350
:102CA000072505F08005EDB26DB98D6865F30A035F
:102CB000CD7865F39343CD8865F3995343F0805302
:102CC00043F40043236009780369012905D1C07AE0
:102CD00018B9D86B0243DA6302E0D9690A43DA61B2
:102CE000002030BD70B54E780B780024012E2246AE
:102CF00000EB830505D106FA03F3AD6963F30F0218
:102D000005E0012606FA03F36D6D63F31F426FF3CE
:102D1000CF342C6009780369012906D1C07A20B923
:102D2000D86B20EA0201D96303E0D96921EA0202E3
:102D3000DA61002070BD70B54E780A78012E0B461E
:102D400000EB820148D18D695C6929682A6964F3C6
:102D5000120214B966F3DC420BE09E68A419013C30
:102D6000B4FBF6F6DC7866F3DC42012C08BF64F3B2
:102D70005E722A61C278012A06D11A7800EB8204B9
:102D80001A69A46962610CE0DA78012A09D05A69EB
:102D90003AB102691C78556B012606FA04F42C43FB
:102DA0005463DA78012A07D102699268D20554BFC8
:102DB00041F0005141F080511A7800EB820241F05D
:102DC000044192691160D978012937D1D9681A78FC
:102DD0009B8AFFF727FD31E04D6D5E692A689C688C
:102DE00029692EB964F31201012464F3DC410AE07D
:102DF0003619013EB6FBF4F666F3DC41B605B60DB6
:102E0000744364F312012961C178012905D11C784A
:102E100000EB84014C6D19696161D978012906D1F3
:102E2000597911B142F0005201E042F080521B7812
:102E300000EB830042F00441426D1160002070BD40
:102E400073B54D78012D3DD183694A691E681C69AF
:102E50000094E4B242B962F306049DF802208DF8B2
:102E6000004065F3C4020EE08D68AA428ABF4D613E
:102E700062F3060465F306049DF802208DF8004015
:102E8000012464F3C4028DF80220009A1A61C2780A
:102E9000012A05D10C7800EB840294690A69626109
:102EA00046F004461E60C378002B34D14A69002ADC
:102EB00031D003690A78586B012101FA02F202430A
:102EC0005A6328E00B784E6900EB8302536D8A68E1
:102ED0001D681C690094E4B206B14A6162F30604FD
:102EE0009DF802208DF80040012464F3C4028DF89F
:102EF0000220009A1A61C378012B05D10A7800EBF1
:102F000082035A6D0B695361097800EB810045F02B
:102F10000445426D156000207CBD4B780978012B7B
:102F200000EB81000DD180690368C3F3076202F0F2
:102F30008001CAB20AB143F0804343F4001101603A
:102F400004E0436D1A6842F40011196000207047D4
:102F50004B78012B0B78C97800EB83000CBF82699A
:102F6000426D1368881E6FF35553012898BF43F0D4
:102F7000805313600020704703699A69D869104034
:102F8000000C704700EB810102694B6D9968506934
:102F90000840704703699869D969084080B2704752
:102FA00082B000230093C021012200238DF803107A
:102FB00062F3C40318218DF802308DF80010436DC0
:102FC000009A1A61C178012906D100F2CC505861EB
:102FD0001A684FF080221A6002B0704710B504469C
:102FE000FFF744FC012384F81231002384F81431E4
:102FF0006278934213D2282202FB034101F58E72BC
:10300000012081F81D0181F81C31A1F822314020F6
:103010000021D1709060D16051610133E8E7002355
:103020006078834213D2282101FB034000F55D72D2
:10303000002180F87433A0F87A3380F8751380F893
:10304000771340209060D16051610133E8E720465A
:10305000FFF7BCFC2046FFF76BFC00212046FFF782
:10306000F5FC2046FFF73CFD2046BDE81040FFF789
:10307000A6BC70B5CDB201F07F044FF0280606FB68
:10308000040415F0800F14BF04F58E7404F55D740C
:1030900001F07F01ED0921706570A260E37005B158
:1030A000E180022B01D1002323712146FFF7E2FDCD
:1030B000002070BD10B5CAB201F07F034FF02804A4
:1030C00004FB030312F0800F14BF03F58E7303F5A6
:1030D0005D7301F07F01D20919705A701946FFF72C
:1030E00001FE002010BD38B501F07F04282505FB46
:1030F000040505F55D7185F874434B610023CA60D2
:103100008B614B70C378012B05F55C7508BF0A61B4
:1031100014B9FFF795FE01E0FFF70DFE002038BD62
:1031200070B501F07F04282505FB040505F58E71B7
:103130000126CA600A61002285F81C414E7005F51F
:103140008C758A614B6114B9FFF77AFE01E0FFF7D5
:10315000F2FD002070BDCAB212F0800F10B54FF022
:10316000280306D001F07F0403FB040303F58E73EC
:1031700003E003FB010404F55D73D209012401F0AF
:103180007F0119709C705A701946FFF7C6FE002027
:1031900010BDCAB212F0800F10B54FF0280306D050
:1031A00001F07F0403FB040303F58E7303E003FBCC
:1031B000010404F55D730024D20901F07F01197048
:1031C0009C705A701946FFF7C3FE204610BD026975
:1031D000002361F30A1311680B43136070470369FE
:1031E0005A6803206FF341025A60FEF72ABA036956
:1031F0005A6842F0020058600320FEF722BA2DE917
:10320000F8434FF02808054608FB010000F58C78CC
:1032100008F104040E466269A369A068D11A05EB9F
:103220008602814238BF0846936900F10309996913
:103230004FEA990989B249452AD9A7696069874245
:1032400026D228B3A268E168C71B974228BF174659
:1032500007F1030CBBB2F2B228464FEA9C09FFF714
:10326000E1FAE368A069D91905EB86023F18E1602D
:1032700060699369A76187429969DBD32B6998F8E4
:103280000420596B012000FA02F221EA020159637D
:103290000120BDE8F88300002DE9F04F85B0044619
:1032A000FFF7E9FB08B90020F7E12046FFF7EFFB45
:1032B00007460028F7D0C0F3074A0AF00800C0B25A
:1032C000002856D02046FFF757FE26468046A346E4
:1032D0004FF00009B8F1000F4AD018F0010F3FD0AD
:1032E0005FFA89F5294620460195FFF74BFE10F05D
:1032F000010F0546019B20D0726D01259560E07895
:10330000A84207D11169DBF87C23C1F31200111A1E
:10331000CBF88C13944802681946126820469047EF
:10332000E378012B09D1B9F1000F06D194F81111FE
:10333000052902D12046FFF733FE05F00200C2B294
:1033400012B1736D02259D6005F00801C8B238B155
:10335000854A15682046AB689847716D08208860DB
:1033600009F101094FEA580804360BF1280BB1E7BF
:1033700001200AF0040A5FFA8AF3002B67D0204686
:10338000FFF708FE264681464FF00008B9F1000F0E
:103390005CD019F0010F53D023695FFA88F11869E6
:1033A0005D6B04EB810225FA01F59269ED019268EB
:1033B000EDB205431540EA071AD55A6B012505FA07
:1033C00008F022EA00025A63674AB36910689D60F8
:1033D000436820469847E178A94209D1B8F1000F27
:1033E00006D194F81121042A02D12046FFF7D8FD16
:1033F00005F00800C3B213B1B16908258D6005F06E
:103400001002D0B210B1B36910259D6005F04001E3
:10341000CAB212B1B0694025856005F00203D9B285
:1034200011B1B2690225956025F07F0010F0FF0F01
:1034300006D041462046FFF7E2FEB369802199603D
:1034400008F101084FEA590904369FE70120FDB24F
:1034500005F00201CAB212B1E36802215961C7F353
:10346000076202F08003D9B2C9B1A07A40B1D4F8A2
:103470000C31D4F80C216FF341036FF30003136098
:103480002169394A486820F001034B6011682046E1
:103490008B699847E0684FF0004242610120C7F312
:1034A000072808F00801CBB26BB32F4994F812211A
:1034B0000B6800208DF80F008DF80F2020465A6908
:1034C00090472069E36882684FF400615961A07AEF
:1034D000C0B1D00716D594F81521012A12D19DF854
:1034E0000F30032B0ED1D4F80C11086840F0010204
:1034F0000A600B6843F0030008601C490A6942F047
:1035000006030B61012005F00801CAB242B116485A
:1035100003682046D9688847E06808224261012094
:1035200005F01005EDB2002D39D0E668B36923F03F
:103530001001B161366A282206F00F00C6F343433A
:1035400002FB0045022B05F55D7511D0062B20D13D
:1035500004F2CC5120460822FFF777F9A969C6F397
:103560000A168819A86114E01000002000ED00E0A0
:1035700047F6F072324062B1C6F30A16E968324685
:103580002046FFF762F9EB68A86999198619E96086
:10359000AE61E3689A6942F010019961012008F078
:1035A0001003DAB2002A37D026697068002520F0AF
:1035B0000101716020462946FFF710FA23462A468A
:1035C00066780433B24206D25E69FF21B160186D9D
:1035D00001328160F4E70126206966F30F050B21B3
:1035E0004FF0FF3266F31F458261C5614161C0F84B
:1035F00084100161416403686FF30A13036020467D
:10360000FFF7CEFC2649E0680B684FF48052426118
:103610001A6920469047304608F020085FFA88F182
:10362000E9B12046FFF710FBE5682046ED68FFF79B
:10363000FDFA032806D100214FF40070A170A0808C
:10364000092204E001204023A070A3800522E36842
:1036500062F38D254FF40052DD6001205A61C7F3FB
:10366000074707F01001CBB24BB10D480268204666
:10367000D1698847E3684FF480105861012007F052
:103680002007FFB24FB1064A116820460B6A9847DF
:10369000E0684FF400124261012005B0BDE8F08FF0
:1036A0001000002010B50023934203D0CC5CC4541A
:1036B0000133F9E710BD0000000002408000000067
:1036C0000008024008000000000402402000000042
:1036D0000000024020000000000402400020000022
:1036E000000402400800000000000240100000003A
:1036F0000008024010000000000402400200000028
:1037000000040240010000000000024000800000B0
:103710000008024000020000FFFFFFFF0000000061
:103720000000000000400008080000000000000049
:1037300000800008100000000000000000C0000829
:103740001800000000000000000001082000000038
:103750000000000000000208280000000000000037
:10376000000004083000000000000000000006080F
:1037700038000000000000000000080840000000C1
:103780000000000000000A084800000000000000DF
:1037900000000C08500000000000000000000E08AF
:1037A00058000000000000000000020303010203B3
:1037B00003030303020203014D494F533332004414
:1037C0004950434F524546340053544D33324634EA
:1037D00078780025303878003F002564004D494F47
:1037E00053333220426F6F746C6F616465720028CE
:1037F0006329203230313420542E204B6C6F736596
:103800000020253032580020202000253038582054
:1038100000F000007E3200004D1500082915000858
:103820001314000800000000171400081715000802
:103830000515000800000000000000000000000066
:103840001D1400081D140008D11400080403090405
:103850001201000200000040C016FE031010010219
:1038600003010000F1130008FD130008D91400083B
:103870006114000829140008CD140008C9140008B8
:103880003432006D696469626F782E6F7267000967
:1038900002650002010480320904000000010100F9
:1038A00002092401000109000101090401000201CB
:1038B0000300020724010001410006240201010067
:1038C0000624020202000924030103010201000987
:1038D0002403020401010100090502024000000066
:1038E00000052501010109058102400000000005D5
:1038F00025010103091400080B14000845150008F0
:103900000F140008111400080D1400083F150008DA
:10391000286E756C6C2900D10FED54CFC5FBB8979C
:1039200052389138910E7D0FED389301910E910030
:10393000C11F020E91F7041040006E106EE76A007E
:103940000000000000000000000000000000000077
:103950000000000000040000000000000000000063
:103960000000002F55461F00D84840376AF76A000C
:10397000300000C7062E734A2C137BE97F32002AE1
:10398000280D9BFE0B21EF422A2F73B5B8DA76E69D
:1039900079BF0FEB793E0B0201020000000000002E
:1039A000101000000A0600020000004001000000A4
:1039B00014000020D521000821210008D92000088A
:1039C0007F200008AB200008632000084D2000087D
:1039D0008F2000089D20000800000000000000006B
:1039E000FFFFFFFFFFFFFFFFFFFFFFFFFFFFFFFFE7
:1039F000FFFFFFFFFFFFFFFFFFFFFFFFFFFFFFFFD7
:103A0000FFFFFFFFFFFFFFFFFFFFFFFFFFFFFFFFC6
:103A1000FFFFFFFFFFFFFFFFFFFFFFFFFFFFFFFFB6
:1040000000000220751B0108711B0108CD11010879
:10401000711B0108711B0108711B010800000000E1
:10402000000000000000000000000000D11801089E
:10403000711B010800000000311901087519010801
:10404000711B0108711B0108711B0108711B01081C
:10405000711B0108711B0108711B0108711B01080C
:10406000711B0108711B0108711B0108711B0108FC
:10407000711B0108553F0108313F0108711B010800
:10408000711B0108711B0108711B0108711B0108DC
:10409000711B0108711B0108711B0108711B0108CC
:1040A000711B0108711B0108711B0108711B0108BC
:1040B000A1410108C9410108711B01083D610108C6
:1040C000496101082561010831610108711B01087E
:1040D000711B0108711B01087D5E0108711B01083D
:1040E000711B0108711B0108711B0108711B01087C
:1040F000711B0108711B0108711B0108711B01086C
:10410000711B0108711B0108F1410108711B0108B5
:10411000E55E0108711B0108711B0108711B010894
:10412000711B0108711B01080D3F0108711B01087B
:10413000711B0108711B0108711B0108711B01082B
:10414000711B0108711B0108711B010895460108CC
:10415000711B0108711B0108711B0108711B01080B
:10416000711B0108711B0108711B0108711B0108FB
:10417000711B0108BD460108711B0108711B010874
:08418000711B0108711B01080D
:020000040801F1
:100000002DE9F843264EDFF8A080DFF8A09000200D
:1000100002F076F97578B278002415FB02F5AC424F
:100020000BD1204FDFF888800024AC421ED1002085
:1000300002F024F90020BDE8F883671C39464046E9
:1000400002F0BAFBE0B202F019F9002002F058F910
:10005000002809DA7178B4FBF1F201FB1241013199
:100060000132484602F0A8FB3C46D8E7E0B202F075
:1000700005F90021084602F007F97178B4FBF1F2A6
:1000800001FB124101310132384602F09FF9012192
:10009000002002F0F9F8404602F098F90134C4E774
:1000A00062340020CDB0010893B00108A7B0010868
:1000B000D8B0010813B5044630B1002201A90AF0F6
:1000C00037FE019BA34201D14FF0FF3002B010BDBB
:1000D0004C4B4FF4007270B51A8001229A701022B6
:1000E0009A800222DA80484A1278422A0ED1474A80
:1000F00012781A70464A12785A70464A12789A70E4
:10010000454A12789A80454A1278DA80444B002298
:100110001A70444A1278422A04D1434A12781506CA
:1001200058BF1A70414B00221A70414A1278422A75
:1001300004D1404A1278140658BF1A703E4B002270
:100140001A703E4A1278422A04D13D4A12781006AB
:1001500058BF1A703B4B00221A703B4A1278422A51
:1001600004D13A4A1278110658BF1A70384C00234D
:100170002370384B1B78422B04D1374B1B781A065F
:1001800058BF237002F0CEFE237883421BD020207C
:1001900002F0AEFB22783148114602F00DFB102030
:1001A00002F0A6FB22782D48114602F005FB202024
:1001B00002F09EFB2A4802F0FFFA102002F098FBA2
:1001C000274802F0F9FA2078264E274C02F0A2FECA
:1001D000264A1546234603CBB342106051601C46A5
:1001E00002F10802F6D1214B2020002113F8012B47
:1001F000203A5F2A88BF03F8011C0138F6D1E8775E
:1002000070BD00BFD4000020C03F0008C13F0008FF
:10021000C23F0008C33F0008C43F0008C53F0008B4
:10022000D2000020D23F0008D33F0008DE000020AB
:10023000D43F0008D53F0008D1000020D63F000879
:10024000D73F0008DF000020D83F0008D93F000852
:10025000D0000020D03F0008D13F0008DFB00108E7
:1002600008B1010800400008E03F0008E00000205D
:1002700008B5FFF72DFF4FF0FF3003F0C3FE00215C
:100280004FF0FF3003F0D8FE044802F051FE044A5C
:1002900000231370034A138008BD00BF290501081D
:1002A000000100205001002038B50546322435B940
:1002B00003F0E0FEC1434FF0FF3003F0BDFE44F613
:1002C000206003F0C7FF013CF1D1204638BD00009B
:1002D00000212DE9F843084601F0D6FF3048314EA1
:1002E000DFF8D090304FDFF8D08002F063F80121C2
:1002F000002001F0C9FF2D4802F05CF8202002F038
:10030000F7FA2B4802F058FA102002F0F1FA2848C8
:1003100002F052FA00252C4603F0ACFEC1434FF028
:10032000FF3003F089FE230707D10121092001F0E6
:10033000ABFF2146484602F049F804F1006216F886
:10034000013B12789A4214D0A4F57C53FF2B10D9AC
:100350000135092D14DC202002F0CAFA214640465E
:1003600002F02AFA102002F0C3FA2146404602F0B9
:1003700023FA0134B4F5804FCED12846BDE8F88386
:100380000A2DF6D1202002F0B3FA384602F014FA12
:10039000102002F0ADFA384602F00EFAE9E700BF8D
:1003A000F8AF0108D7BE010855B0010809B001082F
:1003B0001AB0010832B0010839B001082DE9F04146
:1003C00003F0AEF906F072F8464D474E474FDFF89E
:1003D00054814FF0006403F04DFEC1434FF0FF30F5
:1003E00003F02AFEC4F30D0070B9022106F0A6F84E
:1003F000082809D04FF0FF3006F06EF803F0A4F99A
:100400004FF0FF30BDE8F0816B78297841EA032195
:1004100004F17843A3F57C52FF2A11D8A3F57F534A
:10042000012B05D8324B1978090241F0420107E04F
:10043000A319012B12D82E4B9A78597841EA022140
:10044000204606F0B1F808283ED04FF0FF3006F005
:1004500043F803F079F96FF00100D3E7E319012BBA
:1004600006D8234BDA88998841EA022189B2E7E766
:1004700004EB0803012B01D81E4BD4E71E4B234489
:10048000012B01D81D4BCEE71D4B2344012B01D876
:100490001C4BC8E71C4B2344012B01D81B4BC2E764
:1004A0001B4B2344012B01D81A4BBCE71A4B2344A6
:1004B0001F2BC5D8194A04F12003DBB2D1184878A4
:1004C000D15C41EA0021BBE7154B02349C4205F1A7
:1004D000020580D105F0F8FF03F036F9FFF7F8FDCB
:1004E00000208FE7D7BE01083EC0FFF73CC0FFF7F2
:1004F000D4000020D00000202EC0FFF7D200002042
:100500002CC0FFF7DE0000202AC0FFF7D10000203A
:1005100028C0FFF7DF00002020C0FFF7E000002028
:100520000040000830C0FFF7F7B50C46064602F061
:10053000EBFC0546304602F0DBF90D2C00F08F8015
:100540000A2C40F09E8201AA9E499F480AF075FB42
:10055000064600287ED09D490AF034FB002853D17E
:100560009B489C4C02F028F99B4802F025F99B4BD4
:100570009B48197802F020F99A4B9B48197802F0B1
:100580001BF99A4B9A48197802F016F9994B9A4838
:10059000197802F011F9994B99481A78114602F02E
:1005A0000BF99848984902F007F92678304601F08F
:1005B00029FE38B3207801F025FE024631469348E3
:1005C00002F0FAF86178924802F0F6F8A1789148C2
:1005D00002F0F2F8A188904802F0EEF8E1888F4826
:1005E00002F0EAF88E4802F0E7F88E4802F0E4F8EC
:1005F0008D4802F0E1F88D4802F0DEF88C4802F0F8
:10060000DBF827E08B4AD9E78B4930460AF0DAFA63
:100610000446C0B989488A4F02F0CEF8E6B23046A7
:1006200001F0F0FD38B1304601F0ECFD2146024604
:10063000384602F0C1F80134FF2CEFD1814802F0B6
:10064000BBF88148DBE7814930460AF0BBFA60B964
:1006500002F00EFF7E4A002313805B4A1370284687
:1006600002F046F9002003B0F0BD7A4930460AF0A6
:10067000A9FA044678B9784EFFF7A0FE002804F1E5
:10068000010480F20B822146304602F095F8052CD9
:10069000F2D1724807E0724930460AF093FA38B94D
:1006A000FFF716FD6F4802F087F8FFF7A9FCD1E7C6
:1006B0006D4930460AF086FA002840F0E08101AA30
:1006C00040490AF0BAFA0446002800F0D68167498A
:1006D0000AF078FA88B901AA3A490AF0AEFA08B9DC
:1006E00063488CE7FFF7E6FC0128F9D83B4B18700C
:1006F00008B1604883E7604881E7604920460AF016
:1007000061FA88B901AA2F490AF097FA08B95C483A
:1007100075E7FFF7CFFC0128F9D8324B187008B104
:1007200058486CE758486AE7584920460AF04AFAA0
:10073000D0B901AA23490AF080FA08B954485EE703
:10074000FFF7B8FC0128F9D82A4B187020B151489E
:1007500002F032F8504852E7504802F02DF8504865
:1007600002F02AF84F484AE74F4920460AF02AFA91
:1007700088B901AA13490AF060FA08B94B483EE764
:10078000FFF798FC0128F9D8184B187008B14848B1
:1007900035E7484833E7484920460AF013FA30B1B4
:1007A000464920460AF00EFA002840F09C8001AA33
:1007B000044900200AF041FA002840F083804048B4
:1007C0001DE700BF4EB101080001002051B1010832
:1007D00056B10108D400002073B10108D2000020F6
:1007E00095B10108DE000020F7B10108DF0000200C
:1007F00056B20108D1000020A9B20108D0000020A3
:1008000002B301085EB30108E00000209FB30108B5
:10081000E3B3010835B4010887B40108CCB401087A
:1008200012B5010848B50108A0B50108E2B50108F4
:1008300015B6010846B101083AB6010844B60108E8
:100840005EB601086AB60108A1B6010803B701083F
:100850005001002034B7010809B70108A4BE0108FF
:1008600032B701083AB7010805B7010856B70108C1
:100870005FB701087AB701089AB70108BBB701084A
:10088000C6B70108E3B7010817B801084CB801085A
:100890005FB8010884B80108B4B80108FDB80108C0
:1008A0002EB901088BB90108DFB90108E8B90108C0
:1008B00003BA01084ABA010899BA010892BA0108B4
:1008C0009CBA0108FFF7F6FB7F2802463FF677AF98
:1008D000734B01461870734801F06EFF724801F0C7
:1008E0006BFF72488BE6724920460AF06BF90028CC
:1008F00033D101AA6F490AF0A0F90746C8B1FFF742
:10090000D9FB041E0EDA002602E00136FF2E09D0C4
:10091000F0B201F077FC014638460AF037F90028BA
:10092000F3D13446FF2C07D9634801F045FF6348F3
:1009300065E64FF0FF34E6E7614EE0B2307001F05B
:1009400061FC40B1307801F05DFC024621465D4813
:1009500001F032FF7EE65C4AF8E75C4920460AF087
:1009600031F990B901AA53490AF067F908B9584812
:1009700045E6FFF79FFB431EFE2B0146F7D8504B81
:100980005870544801F018FF64E6534920460AF0B5
:1009900019F980B901AA47490AF04FF908B94F4837
:1009A0002DE6FFF787FB431EFE2B0146F7D8444B8D
:1009B00098704B48E6E74B4920460AF003F990B996
:1009C00001AA3C490AF039F908B9474817E6FFF788
:1009D00071FB4FF6FE73421E9A420146F5D8384B22
:1009E00098804248CEE7424920460AF0EBF890B999
:1009F00001AA30490AF021F908B93E48FFE5FFF79E
:100A000059FB4FF6FE73421E9A420146F5D82C4B15
:100A1000D8803948B6E7394920460AF0D3F848B1BA
:100A2000374920460AF0CEF820B1364920460AF070
:100A3000C9F8F8B9019C20460AF0CEF81F2802D95F
:100A40001F2131489EE7314B204604F120011A4610
:100A500050F8044B43F8044B8842F9D113782BB17A
:100A60002A492B4801F0A8FE0F48C8E5294801F0A3
:100A7000A3FEF9E72146284884E72848BFE528482F
:100A8000BDE528490A884E2A3FF6E9AD531C9BB2C2
:100A90000B8025498C540022CA54E0E5234802E625
:100AA000D0000020D3BA01080BBB010844BB0108E9
:100AB0008ABB01084EB1010893BB0108D4BB0108F1
:100AC000D400002002BC010846B101082DBC010879
:100AD00037BC01085ABC01087DBC010887BC01086D
:100AE000AABC0108CDBC0108D7BC010800BD0108A3
:100AF00023BD01082EBD010858BD010880BD0108B5
:100B00007CBD010885BD010892BD0108E000002000
:100B1000C0BD0108FBBD01082EBE01084BBE010887
:100B20006ABE01085001002000010020C2BE010879
:100B30002DE9F041FFF764FA002001F09FFB20202F
:100B400001F0D6FEAD4801F037FE102001F0D0FED6
:100B5000AA4801F031FE202001F0CAFEA84801F0A9
:100B60002BFE102001F0C4FEA54801F025FE202038
:100B700001F0BEFEA349A44801F01EFE102001F0C2
:100B8000B7FEA049A04801F017FE202001F0B0FEFA
:100B90009B4801F011FE102001F0AAFE984801F0D8
:100BA0000BFE202001F0A4FE944801F005FE102069
:100BB00001F09EFE914801F0FFFDFFF789FB04461E
:100BC000002842D1014601F05FFB904801F0F2FBA2
:100BD0000121204601F058FB8D4801F0EBFB01217B
:100BE0004FF0FF3003F028FA202001F081FE894801
:100BF00001F0E2FD102001F07BFE864801F0DCFDF3
:100C0000202001F075FE844801F0D6FD102001F08F
:100C10006FFE814801F0D0FD202001F069FE7F4881
:100C200001F0CAFD102001F063FE7C4801F0C4FD14
:100C3000202001F05DFE7A4801F0BEFD102001F099
:100C400057FE774801F0B8FDFEE70021084601F0A5
:100C50001BFB7448744FDFF80882744E01F0AAFB46
:100C6000202001F045FE724801F0A6FD102001F0A1
:100C70003FFE6F4801F0A0FD0021084601F004FB93
:100C80006C4801F097FB0121002001F0FDFA6A4851
:100C900001F090FB202001F02BFE684801F08CFD54
:100CA000102001F025FE654801F086FD0525FFF7BF
:100CB00085FB00280EDA01304FF0200021D101F031
:100CC00017FE404601F078FD102001F011FE40466D
:100CD00001F072FDFFF7FCFA0446E0B1013D1AD0C5
:100CE000C5F10504202001F003FE2146304601F045
:100CF00063FD102001F0FCFD2146304601F05CFD53
:100D0000D5E701F0F5FD384601F056FD102001F061
:100D1000EFFD3846DCE701214FF0FF3003F08CF99E
:100D200094BB2146204601F0AFFA454801F042FB52
:100D30000121204601F0A8FA424801F03BFB2020A7
:100D400001F0D6FD404801F037FD102001F0D0FD44
:100D50003D4801F031FD202001F0CAFD2F4801F08F
:100D60002BFD102001F0C4FD2C4801F025FD2020B2
:100D700001F0BEFD2A4801F01FFD102001F0B8FD72
:100D8000274801F019FDFEE70021084601F07CFA32
:100D90002E482F4E2F4D304C01F00CFB012100202E
:100DA00001F072FA2D4801F005FB202001F0A0FDB2
:100DB000304601F001FD102001F09AFD304601F0AF
:100DC000FBFC202001F094FD284601F0F5FC1020EA
:100DD00001F08EFD284601F0EFFC202001F088FD97
:100DE000204601F0E9FC102001F082FD204601F0D0
:100DF000E3FC0120FFF758FAD7E700BFFFFE010828
:100E000044AD01085AAD010866B601086BAD010892
:100E10007CAD01088DAD0108A3AD0108C2AD01088C
:100E2000EBAD010824AE0108B8AE0108D4AE01084C
:100E300036AE010858AE01086AAE01087CAE010862
:100E4000EFAE010801AF010813AF010842AF01087E
:100E500068AF010883AF0108D3AF010855AF01089F
:100E6000A2AE010808B503F005F9BDE80840C1438A
:100E7000012003F0E1B87047704770477047704732
:100E80007047704708B501F015F8BDE80840FFF756
:100E9000F5BF000073B500F019FB0F4E0F4D104C5D
:100EA0000190012101A800F011FC00F00FFB019B53
:100EB000421F9A4288BF019003F01AFD304600F0AD
:100EC00095FF284601F048F9204603F0D2F902F0D8
:100ED0006FF8FFF7C7FFE4E77F0E0108810E0108F6
:100EE000830E010813B500F0F1FA0A4C01900121BC
:100EF00001A800F0EBFB00F0E9FA019B421F9A42C7
:100F000088BF019001F0A6FC204601F065FFFFF7C5
:100F1000B2FFECE7790E010837B5002002F068FB5C
:100F2000002003F079F9002002F090FA002003F08D
:100F30005FF8002002F04CFE002000F099FE002037
:100F400000F028FF002000F083FF002000F08EFF5B
:100F5000002002F077FA002003F088F9002002F068
:100F60006EFA002001F066FA002003F039FC002040
:100F700001F0E4FF002001F0E7FF002001F0C0F9DC
:100F800009F078FDFFF774F901F032FA4FF4FA64D2
:100F90004FF47A7003F05EF9013CF9D10325234642
:100FA000019400954FF480720849094800F074F9E3
:100FB00023464FF4807207490748CDE9005400F0FA
:100FC0006BF900F049FA204603B030BDB4FF0108C8
:100FD000950E0108AFFF0108E50E010808B502F003
:100FE0003FFAFFF74AFF0248BDE8084000F096BE0E
:100FF000850E0108FFF79CBDF8B50E4F002464254F
:1010000042F210760134B4FBF5F305FB13430BB940
:1010100001F020FC384601F0DFFEB4FBF6F306FBDE
:101020001343002BEED103F025F8C143012003F058
:1010300003F8E7E7790E010808B56FF07F4001F08B
:10104000F5F9002001F0F4F9002001F017F901F0A2
:1010500055F90021084601F017F9074801F0AAF9EF
:101060000121002001F010F9044801F0A3F904481F
:1010700001F0A2FBFFF7C0FFBAFF0108CBFF010898
:10108000DCFF010800B589B0036800934368019351
:1010900083680293C36803930369049343690593C8
:1010A00083690693C3690793314C0699314801F06F
:1010B00083FB204601F080FB2F4801F07DFB20469A
:1010C00001F07AFB00992D4801F076FB01992C483C
:1010D00001F072FB02992B4801F06EFB03992A483C
:1010E00001F06AFB0499294801F066FB059928483C
:1010F00001F062FB0699274801F05EFB079926483C
:1011000001F05AFB254B2648196801F055FB254B89
:101110002548196801F050FB244B2548196801F057
:101120004BFB244B2448196801F046FB234B244811
:10113000196801F041FB6FF07F4001F077F9002062
:1011400001F076F9002001F099F801F0D7F80021BC
:10115000084601F099F81B4801F02CF90121002004
:1011600001F092F80699184801F030F9FFF744FFB2
:1011700046AD0108D7FE0108EDFE010801FF010898
:101180000CFF010817FF010822FF01082DFF0108CD
:1011900039FF0108E2FE010844FF010838ED00E0D4
:1011A00050FF010828ED00E05DFF01082CED00E094
:1011B0006AFF010830ED00E077FF01083CED00E038
:1011C00084FF010891FF0108A2FF01081EF0040F2F
:1011D0000CBFEFF30880EFF30980FFF753BF7047B0
:1011E000F8B51D4E1D4B05461C683368306800225B
:1011F00083F84C2004300F4600F029FB334640B9F9
:101200003168174EC96A32680120884022EA00021C
:1012100032606A1C07D137B1196812480431BDE841
:10122000F84000F0F1BA1A686419546007D30E4A06
:1012300010681968BDE8F840043100F0F1BA0B4AB3
:1012400010681968043100F0EBFA094B1A68A242E1
:1012500088BF1C60F8BD00BF540100205002002070
:10126000D8010020280200205C0100205801002045
:1012700008020020064A13681968064B19B94FF096
:10128000FF321A6070471268D268D2685268F8E775
:1012900058010020080200202DE9F84F96008146F1
:1012A00030460D469A4600F0C3FB0746002800F082
:1012B000A180502000F0BCFB0446002800F097807D
:1012C00007633246A521384609F058FCD4F830B0FF
:1012D0006B1E04F134020F3513F8011F02F8011BD5
:1012E00009B19D42F8D10A9D042D28BF04254FF075
:1012F0000008271DE562C4E91158384684F8438088
:10130000043E00F07EFAC5F1050504F118005E44C4
:1013100000F077FA2461A561646284F84C8052463B
:10132000494626F0070000F0BBFA0B9B206003B192
:101330001C6000F0DFFA364B364E1A68DFF8108179
:1013400001321A603268002A57D134601B68012BC1
:1013500025D13148DFF8FC90304D00F047FA304895
:1013600000F044FA2F4800F041FA2F4800F03EFA0E
:101370002E4800F03BFA484600F038FA284600F0C4
:1013800035FA2B4800F032FA2A4800F02FFA2A48A2
:1013900000F02CFA294BC3F80090294B1D60294A14
:1013A00029491368086801331360E26A012505FAC8
:1013B00002F303430B60184B142000FB0230394644
:1013C00000F022FA00F0A6FAD8F8003063B13368D2
:1013D000DA6AE36A9A4207D21C4B4FF080521A60D5
:1013E000BFF34F8FBFF36F8F2846BDE8F88F3846A5
:1013F00000F098FB4FF0FF35F6E7D8F80030002BEF
:10140000CDD13368E26ADB6A9A4228BF3460C6E70E
:10141000C40100205401002060010020F0010020E0
:1014200074010020880100209C010020B0010020F0
:10143000100200203C020020280200205801002059
:101440005C010020D4010020D801002004ED00E060
:1014500024020020DC01002013B5124B019300246C
:10146000009423464FF480720F491048FFF714FF91
:10147000012814D14FF0BF0383F31188BFF36F8F9E
:10148000BFF34F8F0A4B4FF0FF321A60094B1860C1
:10149000094B1C6002B0BDE8104000F08DBA02B0EC
:1014A00010BD00BF04020020FDFF0108191701084C
:1014B000080200202402002050020020024A136883
:1014C00001331360704700BFD0010020014B186842
:1014D000704700BF500200202DE9F84F3A4B1B68BF
:1014E000002B67D1394B1C6801341C605CB9384A49
:1014F000384B116818681060374A19601368013357
:101500001360FFF7B7FE354D354F2B68A3424FF000
:10151000000B16D93A68334BD16A14224A439A58C1
:10152000022A314A126828BF4FF0010B0AB9FFF7AF
:1015300055FD2E4A1268002A0CBF58460120BDE80E
:10154000F88FDFF88CA0DFF8A890DAF80020126896
:101550001AB94FF0FF322A60DCE7DAF80020D268CF
:10156000D66871688C4201D22960D3E706F104087D
:10157000404600F06CF9B16A19B106F1180000F0AC
:1015800066F9F06AD9F80030012202FA00F1194335
:10159000144BC9F800104FF0140C41460CFB0030FE
:1015A00000F032F93868F16AC26A914228BF4FF000
:1015B000010BCAE70C4A1368013313604FF0000BAC
:1015C000FFF70CFDB5E700BFD0010020500200205E
:1015D000580100205C0100200C02002008020020BD
:1015E0005401002060010020CC01002054020020A2
:1015F000D80100202DE9F84300F07CF92A4B1A6845
:10160000013A1A601C682CB1002400F083F92046CE
:10161000BDE8F883254B1B68002BF5D0244D254EE3
:10162000DFF8A4801FE0EB68DC6804F1040904F132
:10163000180000F00CF9484600F009F9E26A316838
:10164000012707FA02F314200B4300FB02804946EE
:10165000336000F0D9F8184BE26A1B68DB6A9A42E3
:1016600001D3164B1F602B68002BDCD10CB1FFF7A8
:1016700001FE134D2C6844B1104E0127FFF72CFFDB
:1016800000B13760013CF9D12C600C4B1B68002B7A
:10169000BAD00C4B4FF080521A60BFF34F8FBFF39C
:1016A0006F8F0124B1E700BFD0010020C4010020EA
:1016B00010020020D8010020540100205402002014
:1016C000CC01002004ED00E06001002010B5FFF720
:1016D000F5FE0F4B04681A6863182CBF0121002126
:1016E000944203600CD961B9FFF784FF38B9094B04
:1016F0004FF080521A60BFF34F8FBFF36F8F10BD52
:1017000009B99A42F0D20021981AFFF769FDEBE778
:101710005002002004ED00E008B5184E184C236874
:1017200073B9184B1B68012B07D9174B4FF0805228
:101730001A60BFF34F8FBFF36F8FFFF75BFCEDE7CE
:10174000FFF7BCFE3568FFF755FF002DE7D000F02E
:10175000D1F8F368DD68281D00F079F80B4A1368AA
:10176000013B13602368013B236000F0D3F8286B32
:1017700000F0D8F9284600F0D5F9D0E73C02002067
:10178000C80100206001002004ED00E0C401002039
:10179000114B1A68114B30B512B101221A6030BDDD
:1017A0001A600F4B1B68B3FA83F3DBB20D49C3F128
:1017B0001F03142000FB03F28C18083265686D6863
:1017C00065600A44954204BF6A68626000FB0313C7
:1017D0005B68DA68044BE1E7D00100205402002086
:1017E000D8010020600100205401002000F108030E
:1017F0004FF0FF324360C0E902230361002303601E
:10180000704700230361704743684B609A688A60A1
:101810009A685160996003680861013303607047FA
:101820000A68531C30B50AD103695A684A6091604E
:101830008B605960036808610133036030BD00F1BB
:1018400008035C6825689542EFD82346F9E7D0E99C
:10185000011203698A6051605968814208BF5A6069
:101860000022026118680138186070474FF0BF030A
:1018700083F31188BFF36F8FBFF34F8FFEE7000034
:1018800006480068006880F3088862B661B6BFF356
:101890004F8FBFF36F8F00DF00BF000008ED00E047
:1018A0004FF0807340F8043C21F00101044B40F8F4
:1018B000081C40F80C3C40F8202C4038704700BF12
:1018C0006D1801080000000000000000000000008A
:1018D000074B19680868B0E8F00F80F30988BFF378
:1018E0006F8F4FF0000080F311884EF00D0E70479F
:1018F000540100204FF0BF0383F31188BFF36F8FB3
:10190000BFF34F8F024A136801331360704700BF63
:1019100000000020034A1368013B13600BB983F3F6
:101920001188704700000020000000000000000047
:10193000EFF30980BFF36F8F0D4B1A6820E9F00FAA
:1019400010602DE908404FF0BF0080F31188FFF7C9
:101950001FFF4FF0000080F31188BDE808401968B0
:101960000868B0E8F00F80F30988BFF36F8F704705
:101970005401002008B54FF0BF0383F31188BFF373
:101980006F8FBFF34F8FFFF7A7FD18B1034B4FF0D9
:1019900080521A60002383F3118808BD04ED00E033
:1019A000034B044A1A60072243F8042C704700BF17
:1019B00014E000E03F90020008B5094B1A6842F4B9
:1019C0007F021A601A6842F07F421A60FFF7E8FF50
:1019D000044B00221A60FFF753FFFFF747FF00BFD9
:1019E00020ED00E00000002010B50F4B1A68824285
:1019F00018D35C681919884201BF41681846091953
:101A00005960446801198A4207D1084909688A4225
:101A10001FBF51681268091941609842026018BFDF
:101A2000186010BD1346E1E768020020580200204C
:101A30002DE9F041344E0446FFF740FD336833484A
:101A4000D3B9334A510718BF0732324918BF22F0C1
:101A5000070200230A604B602F4921F00701C1E90A
:101A600000338B1AC2E900132C4A316013602C4AF0
:101A700013604FF0004303600768274205D0FFF76B
:101A8000B9FDFFF7D9FA002637E0002CF7D004F1B2
:101A900008035A071CBF23F007030833002BEED0BE
:101AA0001F4A15689D429046E9D31A4A1468606837
:101AB000984201D2216819BB3168A142DFD0216868
:101AC00016681160C21A102A06F1080604D9E01837
:101AD00042606360FFF788FF104962680868AD1ACA
:101AE0001743002385426760236038BF0D60C8F844
:101AF0000050FFF77FFD002EC3D03046BDE8F081D7
:101B000022460C46D3E700BF580200205C020020AA
:101B10001D09002068020020153100206402002009
:101B20006002002010B50446E0B10F4A50F8043CB2
:101B30001268134216D050F8081C99B923EA020320
:101B400040F8043CFFF7BAFC084A54F8043C11681A
:101B5000A4F108000B441360FFF746FFBDE81040F6
:101B6000FFF748BD10BD00BF5C02002060020020EE
:101B7000FEE70000684620F007018D4601B50A4BDC
:101B80000A4A0B498B4207D30A4B0B4A0021934266
:101B900007D3FFF7C1F9FEE752F8040B43F8040B33
:101BA000F0E743F8041BF2E70000002010070208EA
:101BB000D0000020D000002000510020704700001D
:101BC000F8B500220124224B224D1C7011462046FC
:101BD00001F01EFF21460022204601F019FF224697
:101BE0000021204601F014FF2246214620461A4CCF
:101BF0001A4E01F00DFF2778194800239F4213DC8D
:101C0000184B1B6803B19847174B1B885BB1174AE9
:101C1000138843B1013B13802478104910480023F6
:101C20001D469C420DDCF8BDC15C15F803C0F25C9A
:101C300081EA0C010A43F254EA5CD2B2C254013385
:101C4000DCE7CE5CC25C7240C254CD540133E8E79D
:101C50007C0200203D310020740200201D31002054
:101C60004D31002078020020720200207002002016
:101C700070B568BB184B194E1860194B194D1A4CAA
:101C80001A4910221A700346FF2233542A54225450
:101C90000B5401301028F8D1154A1380154A1380CF
:101CA00001220021104601F0B3FE01221146104628
:101CB00001F0AEFE0221012001F07EFD062203218B
:101CC000012001F0FDFE0C4B01221A70002070BDB6
:101CD0004FF0FF30FBE700BF780200202D310020DD
:101CE000740200204D3100203D3100201D310020C4
:101CF00072020020700200207C020020014B187844
:101D0000704700BF74020020024B1A88024B00206B
:101D10001A807047720200207002002037B5174DFC
:101D20002B782BB3164B1A782AB300241C70154B52
:101D3000224618602146012001F06AFE0121224658
:101D4000084601F065FE01222146104601F060FEC2
:101D500001221146104601F05BFE0B4B00930B4A2B
:101D60002B780B49012002F05DF8204603B030BD0E
:101D70004FF0FF30FAE76FF00100F7E77402002040
:101D80007C02002078020020C11B01083D310020A8
:101D90002D31002010B550B90649074BFF240246EB
:101DA0000C541A5401301028FAD1002010BD4FF005
:101DB000FF30FBE74D3100201D31002070B5054696
:101DC0000E46FFF79BFFA8420CD901F0A9FC064B79
:101DD0005C5D595D21EA06013440595501F0B4FCBF
:101DE000204670BD0024FBE71D3100202DE9F0479F
:101DF0000646FFF783FF074620B31EB3DFF84C907B
:101E00000024FF212046FFF7D9FF804628B901347E
:101E1000A742F6DC0020BDE8F0874FEAC40A00259F
:101E200048FA05F3DB0709D519F80410294101F038
:101E3000010105EB0A00B047FFF766FF0135082DE9
:101E4000EED1E4E74FF0FF30E5E700BF4D31002071
:101E500038B9054B02461A5401301028FBD1002036
:101E600070474FF0FF3070472D31002070B5B8B982
:101E70000D4D0E4A0E4C064652F8303005F82060E3
:101E800003F0E00343F00F0302EBC00142F83030EF
:101E90008B880130234040288B80EDD1002070BD1D
:101EA0004FF0FF30FBE700BF6031002060320020C0
:101EB00000F0FFFF2DE9F74FDFF89882A14C0026D4
:101EC000474618F82630002B00F09A80F50062197A
:101ED00093780BB1013B93709B4B13F826304FEA7C
:101EE0008609A3B314F8360003F1FF3B07EB09039F
:101EF0005FFA8BFB93F801A0034660F383034FEA7C
:101F00005A1A04F83630914B0AF006020321914028
:101F100013F80B30C9B20B4219D058460192FFF7A3
:101F20004DFFA0B18A4B019A13F80B30134103F017
