:1000000000800010D1000000CD000000CD000000F5
:10001000CD000000CD000000CD0000002E7BFFEFE2
:10002000000000000000000000000000CD00000003
:10003000CD00000000000000CD000000CD00000059
:10004000CD000000CD000000CD000000CD0000007C
:10005000CD000000CD00000069250000CD000000AB
:10006000C5250000CD000000CD000000CD0000003F
:10007000CD000000CD000000CD000000CD0000004C
:10008000CD000000CD000000CD000000CD0000003C
:10009000CD000000CD000000CD000000CD0000002C
:1000A000C91D0000CD00000049190000CD0000006E
:1000B000CD000000CD000000CD000000CD0000000C
:1000C000CD000000CD000000CD000000FEE70000E4
:1000D000684620F007018D4601B500230B4A0C4904
:1000E0009818884204D20B49585898500433F5E7C1
:1000F000094B0A4A934203D2002043F8040BF8E765
:1001000002F030FF00F00EF8FEE700BF0000001024
:100110001000001070330000100100108017001054
:1001200070470000F8B5002001F06CFB002001F0E2
:1001300037FD012001F0E9FCBF4BC04C1A6822F4E6
:100140004000186019681960256825F0006626606F
:100150001F6C27F440021A64186C18640023B84915
:100160005E5CCF18740104F100557C7805F51C2005
:100170000125F20005FA04F502F1804104F00F07B1
:1001800001F5303221097C00032707FA04F4856168
:1001900052F82160023326EA040642F8216052F840
:1001A0002170062B42F82170026845EA02050560BD
:1001B000D5D10023A34DEC1867785E5D0125700151
:1001C00005FA07F500F1005107F00F0401F51C20B6
:1001D00064003909032707FA04F4F20002F18046AB
:1001E000856106F5303252F82160023326EA0406B2
:1001F00042F8216052F821700C2B42F821700268FD
:1002000045EA02050560D5D100238F4DEC186778CB
:100210005E5D0125700105FA07F500F1005107F058
:100220000F0401F51C2064003909032707FA04F4C0
:10023000F20002F18046C56106F5303252F82160C5
:10024000023326EA040642F8216052F82170062B98
:1002500042F82170026845EA02050560D5D1802484
:1002600000257748295C43194E015978012006F191
:10027000005700FA01F6023507F51C22062DD6615B
:10028000EFD101F097FC00226D4D505DAE187578EE
:100290004701012007F1005300FA05F7023203F588
:1002A0001C21062A8F61EFD101F084FC013CD7D1DB
:1002B00023466448C218195C547801204E0100FAA4
:1002C00004F106F10055023305F51C270C2BF961EA
:1002D000EFD101F06FFC00235A48C2181E5C517820
:1002E0000120750100FA01F605F10057023307F508
:1002F0001C240C2BA661EFD101F05CFC0023504DB7
:10030000585DE9184D784701012007F1005400FAC3
:1003100005F704F51C221668023326EA0704062BAB
:100320001460ECD10023474E9A5DF41866785101B1
:10033000012201F1005502FA06F105F51C27386883
:10034000023320EA01050C2B3D60ECD100233E4F27
:10035000D85DF9184F784401012004F1005600FAE5
:1003600007F406F51C221568023325EA0406062B5D
:100370001660ECD1314D642001F0ECFB6A6902F0AB
:10038000006701F023FDC4B214B96969090102D400
:10039000002001F0D5FC002000F02CFB002000F034
:1003A000F1F84CBB25484669320125D543F6D27396
:1003B0001D78422D20D143F6D3721178E1B100218E
:1003C000012044F2040701F0B1FBF97869BB1F4E2C
:1003D0004FF4804206F5804303F5082404F5804578
:1003E0007160596061606960106880F3088844F248
:1003F00004073968884718E0202000F0C7FA3CB3AA
:10040000102000F0C3FA23E001F0BEFB40F2F31627
:10041000B0423446F8D901F0B1FB0120002101F0CF
:1004200085FB01F0B1FBA042FBD901F0A7FB012045
:10043000014601F07BFBE7E70CC0024020C0092029
:10044000DA2F0000E02F0000D42F000000C0004091
:1004500001F094FB01F098FB3226B0FBF6F3642523
:100460000446B3FBF5F005FB103242F21071B4FB09
:10047000F1F5530801FB1542B4FBF6F106FB1141FF
:1004800041F28830824288BFC3EB060301209942C3
:1004900094BF002101210A2601F048FBB4FBF6F3CA
:1004A00006FB13440CB900F0AFFC002000F0F0FE96
:1004B00001F06AFB44F61F65A842CBD900F06CF846
:1004C0000028C7D1002F7FF47AAF024A5069030198
:1004D000C0D574E720C00920124B10B51A78032A42
:1004E0000BD8114900F07F000C684FEAC41444EAAD
:1004F000001008600FD104220EE0072A0FD80B4924
:1005000000F07F000C684FEAC41444EA0010086051
:1005100001D1082200E001321A70002010BD4FF016
:10052000FF3010BDD4050010140100101C01001094
:1005300070B5134B16461A7888B004460D468DF8F0
:1005400000209978DA7858781B798DF802108DF8A8
:1005500003208DF801008DF8043000F025FF8DF8A0
:100560000500F7208DF808006946204609228DF81D
:1005700006508DF8076000F0D1FA08B070BD00BFDA
:10058000C832000010B9034B187070474FF0FF30AD
:10059000704700BFD5050010014B1878704700BFA9
:1005A000D50500102DE9F04798468AB00C4615464F
:1005B000064600F071FC01F0E1FAB8F1010F04D039
:1005C000B8F1020F40F0C78182E0AF4B14B1012CAB
:1005D0000AD104E01C70AD4BAD4A1C608BE0197869
:1005E000072900F2B68190E01978082940F0D980F7
:1005F000A848A94C0278437881782270C2780079A3
:10060000A24FA34D6370A170E27020713F682D6806
:1006100000F0CAFE4FEA556E6071780E0223E07159
:10062000C7F386417044A3712172C7F3C6234118F2
:100630006372C7F30612CB18C5F38640A2729A18EC
:100640001118C5F3C623CA182073C5F30610111874
:1006500063730023A07384F80BE001F0FF011A46D6
:100660000F341846A84221D010F807E04FF0080CCC
:1006700001335200DBB242EADE12062B4FEA4E0E85
:10068000D2B25FFA8EFE0AD9C3F1070302FA03F26F
:10069000D2B25118002304F8012BC9B21A460CF14A
:1006A000FF3C1CF0FF0CE3D10130DBE71BB18B18E2
:1006B00004F8012BD9B24A42774902F07F00F723B0
:1006C000A21C207063703046521A00F027FA40E1F5
:1006D00014B1012C53D110E06B4B6C496C486F4A3C
:1006E0001C700C6004606E4B6E496F4814706F4A4A
:1006F0001C700C60046014602BE1634801780729CA
:1007000007D8664908782A180A702846FFF7E4FED9
:100710001FE108292BD161480378EA18027061486B
:100720000368B3F5806F80F01481594E5F4F5E4CC3
:1007300036683868226807240132C5F380176D00D7
:10074000072A47EA4000EDB206D9534AD054013394
:10075000B34228BF09210022013CEDD1534C206057
:10076000514802604F4A1360474B1970F1E0092964
:1007700002D14B4A1570ECE00C230370E9E0494BC1
:1007800043481A680768BA4207D23946484800F019
:10079000EBFA30460E21012213E03B490A780C2A7D
:1007A00003D130460E2142460BE03C493C4B0A78CF
:1007B0001878534203F07F01884205D030460E215D
:1007C0000322FFF7B5FEC4E03A48304A0124047022
:1007D000146844EA07039B0740F0B180B4F5804FEA
:1007E00002D26FF00701ACE000F0AEFF411E8C4278
:1007F00000F2938001F0C0F804252F4B53F8251028
:100800008C423CD22D4850F82520944226D1DFF866
:10081000B0A032238DE82800DFF8A890684605A92B
:100820000295CDF80CA0C847059B6846C3F10008A7
:10083000342305A98DE828000295CDF80CA0C847FF
:100840000599B8F1000FB4BF4FF0FF384FF0000822
:1008500048420028B8BF6FF0010801E04FF00008DF
:10086000174A32238DE82800684605A902950392AD
:10087000144B984705994842002825DA28E00135AD
:100880001E2DBAD12CE000BFD405001014010010B9
:100890001C010010C83200002401001018010010D3
:1008A00020010010D0050010CC0500101001001030
:1008B000EC2F0000D505001064300000DC30000093
:1008C000C0D40100F11FFF1FB8F1000F08D001E0F4
:1008D0006FF0020801F064F826482146424614E011
:1008E000254D264A33238DE81800029505A9039764
:1008F00004926846224B984705994D42002D09DA2B
:1009000001F04EF81F4821462A4600F02DFA6FF0FC
:10091000030116E001F044F820E0B4F1805FFFF439
:1009200060AF00F014FF00F18050421E94423FF689
:1009300058AF204610493A4602F03AFB0EE06FF0FD
:1009400008014A4230460E21D2B2FFF7F1FD00F015
:100950005BFA00200AE04FF0FF3007E00A480F2161
:1009600002783046534203F07F02EEE70AB0BDE85A
:10097000F08700BF1B30000024010010C0D401002C
:10098000F11FFF1F3D3000001801001010B5114B82
:1009900088B01A78997804468DF800205878DA786B
:1009A0001B798DF802108DF803208DF801008DF869
:1009B000043000F0F9FCF7218DF8050001208DF8D6
:1009C00006008DF8071020466946082200F0A6F8B8
:1009D00008B010BDC832000008B52020FFF7D6FFD0
:1009E0001020FFF7D3FF024B0020187008BD00BF96
:1009F000D505001038B50446002839D11E4A1F49D4
:100A0000102313700B701E4D1E4B1F4A1F49286088
:100A100018601F4D1F4B106008601860286001F0BF
:100A2000B3FAC50F204600F0E5FC1B4A00281B4B1B
:100A3000B8BF45F00205002010701978184A60F31D
:100A400007011970107043F6D0700378422B05D15E
:100A500043F6D1710878010658BF1070114B00227F
:100A600011491A8000220023C1E90023684238BDE1
:100A70004FF0FF3038BD00BF000000100100001033
:100A8000E0050010D8050010000600100406001054
:100A9000F4050010E4050010E8050010EC05001056
:100AA000E9050010EA050010F805001010F0F00F3D
:100AB00070B504460D4604D101280CBF144B154BEC
:100AC0001C78154B04F00F061A6872B904F0F00098
:100AD000102812D0202817D166F3071504F00F0054
:100AE0002946BDE8704000F035BD66F30715204685
:100AF000294690470028E9D070BD66F307152846BF
:100B0000BDE8704001F0AABA4FF0FF3070BD00BFE1
:100B10000100001000000010D80500102DE9F04180
:100B200080460E4617460024BC4235D23B1B022BA2
:100B30000DD0032B19D0012B19D1325D052161F3A2
:100B4000030562F30F2501346FF317450AE0305DAA
:100B50003119062363F303054A7860F30F2562F326
:100B6000174502346FF31F650FE0072000E00420F3
:100B700060F30305335D3019417863F30F25827804
:100B800061F3174562F31F65033440462946FFF7BA
:100B90008DFF0028C8DA00E00020BDE8F0810000E9
:100BA00030B5F023A1B08DF80030134B7E223225F2
:100BB0008DF803201A7800248DF804500F258DF845
:100BC00001408DF802408DF805208DF8065002ABEB
:100BD0000D5D5A1E35B101341A4603F8015C01332C
:100BE000642CF5D1F72102F8011B6946521AFFF770
:100BF00095FF21B030BD00BFE905001000B5F0231E
:100C000089B08DF8003000238DF801308DF8023066
:100C10007E238DF8033032238DF80430084B8DF895
:100C200006101B78F7218DF807208DF8081009228F
:100C300069468DF80530FFF771FF09B000BD00BFB0
:100C4000E90500102DE9F041042300240E4663F36A
:100C500003046FF00F0161F30F246FF317446FF378
:100C60001F64214605469046FFF720FF0E4B0746BE
:100C70007E201978322260F30F2462F3174461F367
:100C80001F6421462846FFF711FF07430D2060F33C
:100C90000F2466F3174468F31F6428462146FFF7C4
:100CA00005FF3843BDE8F081E90500102DE9F84360
:100CB00081468846174652B30D460026C8EB050309
:100CC000BB4225D22978042060F3030431B16B784C
:100CD00001F07F0262F30F241BB90DE061F30F24D2
:100CE0000AE0A97803F07F0060F3174431B101F006
:100CF0007F0262F31F6403E06FF317446FF31F6416
:100D000048462146FFF7D2FE03350643D6E716468E
:100D10003046BDE8F88308B50021052363F30301DD
:100D20006FF0080262F30F2189B2FFF7BFFE08BD22
:100D3000F8B5054602F045F90A4F064640213878D5
:100D40002A78FFF77FFF012E044605D93878691C01
:100D5000721EFFF7ABFF0443024B1878FFF7DBFF6F
:100D60002043F8BD010000100FB430B5A3B0269D9C
:100D7000284602F026F9642801D90E4813E002AC97
:100D800027AA29462046019201F07DFD204602F067
:100D900018F90023834205D0E25C02F07F01E154A0
:100DA0000133F7E72046FFF7C3FF23B0BDE830402B
:100DB00004B070477C31000010B50E4B04461A7821
:100DC00002F00801C8B248B10B490878A04205D129
:100DD0006FF307021A70094B00221A7008490A685B
:100DE0000AB12046904721460648FFF7BDFF002084
:100DF00010BD00BFEC050010E8050010DD05001077
:100E000004060010CF31000010B501F06BF9044664
:100E100000F016FB044300F081FC054B4FF6FF7118
:100E20001A8820438A4201D001321A8010BD00BFC7
:100E3000EA05001008B5034B1A680AB1904708BDCF
:100E4000104608BDE0050010114BF7B51C680746B9
:100E5000E4B1C1F307640F4DC1F30720C1F30742AA
:100E60008DF8064001F00F0100246E5C8DF804003F
:100E70008DF805202546B54208DA054B01AA515DDB
:100E80001B683846984701350443F4E72046FEBD09
:100E9000E00500106C310000012803D0034B1870EE
:100EA000002070474FF0FF30704700BF0100001076
:100EB000F0B5614E8BB0337804460D461746FFF708
:100EC00071FB002880F2B58031780D295CD001D803
:100ED00039B1A1E00E2900F0AC800F2940F09C80D0
:100EE0008EE0564B1DB1012D03D11F70A1E01D7086
:100EF0009FE0187805282BD011D8022820D004D8DC
:100F000001283DD120464E491CE003281DD004286D
:100F100036D100F005FC4B490246684625E008281A
:100F200028D006D806281BD0072829D100F00FFCAE
:100F300018E0092821D07F2822D1FFF74DFD78E065
:100F400041492046FFF72CFE73E020463F49F9E770
:100F5000684600F0FFFB0028204609DA3C49F1E72B
:100F600000F0F2FB3B490246684601F07DFC20465A
:100F70006946E7E720463849E4E720463749E1E794
:100F800020460E210D2244E0354E15B1012D16D11B
:100F900002E0FF2131704CE03078FF2801D137703A
:100FA00047E018B1012844D12E4B00E02E4B1B68BE
:100FB000002B3ED02D4A39461078984739E03278D8
:100FC000AAB920460F21FFF719FE3378002B30D144
:100FD000254A116869BB264D20462D78FFF75CFF36
:100FE0002448FFF7A5FE2846FFF756FF21E0012A17
:100FF00002D11C490868E0B920460E21102208E001
:101000001D4A0DB1012D01D1556012E0526882B91F
:101010002046FFF7F3FD0CE00E210A462046FFF7BD
:10102000EDFD1549044B0A7800206FF307020A70A2
:10103000187000200BB0F0BDDD050010DC050010BD
:1010400015320000343200001C3200002C32000047
:10105000393200003B3200003E32000050320000C6
:1010600002000010E4050010F4050010E80500106F
:101070000100001062320000EC050010F72910B5E5
:101080000A465AD82E4B197801F0080303F0FF04E2
:101090001BB12C4B1B7883424CD1A0F11103062BC2
:1010A00048D9284B187004BB2548037803F0070380
:1010B000042B03D82448C05C904221D101F00701E1
:1010C000052903D121480178914219D15A1C1C4BA2
:1010D00002F007001978052860F3020119702CD975
:1010E000CAB242F00800187027E0130611D5F72A9B
:1010F00006D101F01001CBB213B10221FFF7D8FEE7
:101100000F4B134A197800206FF307011970107004
:1011100010BD01F01004E4B244B9094B197841F054
:10112000100119700A4B21461A7000E00121FFF7E7
:10113000BFFE02E04FF0FF3010BD002010BD00BF29
:10114000EC050010E8050010C8320000E9050010A9
:10115000DD05001001F00F032DE9F0470F46C1F344
:101160000728C1F307494FEA116A03F1080101F0AA
:101170000F010629064602D8002A5ED180E0B8F1A8
:10118000F00F08D003F10C0000F00F0103292CD858
:10119000B8F1F60F29D03C49D1E9004554EA0500E1
:1011A00023D106F0F004302C4FF000000CD0502C6E
:1011B00013D0102C19D1354C208006F00F000124DB
:1011C00004FA00F0088010E0304C208006F00F0098
:1011D000012404FA00F0488007E02C4C208006F03F
:1011E0000F00012404FA00F088800F2B48D8DFE8B4
:1011F00003F022222222081C282847474747474756
:101200004708B8F1F70F16D83046414607F00F07E8
:10121000FFF734FF0F2F33D049463046FFF72EFF3C
:1012200030465146FFF72AFF2AE0B8F1F70F02D8FF
:10123000B8F1F60F05D11AB3304627F0F001904708
:101240001EE01A1F12F0FF041AD030464146FFF785
:1012500015FF012C0CD030464946FFF70FFF022C3A
:1012600005D030465146FFF709FFD04600E0C8469A
:10127000B8F1F70F04D1044900220023C1E900238B
:101280000020BDE8F08700BFF8050010EA05001057
:101290002DE9F041804688B0684600F0F7FE00284E
:1012A00007DB00994246C1F303101030FFF752FFED
:1012B000F2E73A4D02AC0FCD0FC495E803009DF85C
:1012C000083084E803004BB300242546264608A8CE
:1012D00000EBC40111F8182C12B9FDB114461546E3
:1012E00008AF07EBC40313F8187C53F8142C07F06D
:1012F0000F0001A9904710F10A0F03D13846FFF7FC
:101300005BFD08E0002806DB3846019942460136BD
:101310000135FFF71FFF0134092ED8DD2049D1E93F
:10132000002352EA030035D01E480388B3F57A7FC4
:1013300030D90A8862B1002142FA01F313F00100AA
:1013400003D101311029F7D101461031C8B21AE09A
:101350004B885BB143FA02F010F0010103D1013276
:10136000102AF7D10A463032D0B20CE0888850B14A
:1013700040FA03F111F0010203D10133102BF7D130
:1013800013465033D8B2FFF717FD0548002200235B
:10139000C0E90023002008B0BDE8F081543100000E
:1013A000F8050010EA050010014B1878704700BFDF
:1013B000E905001008B500F0B7FE0028D4BF0020F2
:1013C000012008BD012838B504460CD800F0D4FA35
:1013D000064B0748FF2200251A5520F8145000F04C
:1013E000DFFA284638BD4FF0FF3038BD0806001040
:1013F0002606001010B5044610B14FF0FF3010BDA6
:101400000D4B0E49FF221860187158719871D871F0
:101410001881D860187458749874D87498820A70B7
:10142000FFF7D0FF0120FFF7CDFF204600F074FF4B
:101430000028E2DB204610BD0C0600102406001038
:1014400008B500F099FA104A4FF6FF711388084664
:101450008B4201D0013313800C4B1989814201D09A
:10146000481C188152884FF6FF718A4202D0064804
:10147000013242809B8A8B4202D0044A591C9182DD
:1014800000F08EFA002008BD260600100C060010A1
:101490002DE9F347C1F30726054601F00F075FFA70
:1014A00086F8C1F3074AC1F30769FFF783FF0028F5
:1014B00040D0234BDC5D002C3FD022488DF80460E7
:1014C00030F815208DF805A0B2F57A7F8DF80690DA
:1014D00003D92846FFF776FF1BE01B490B7843FA38
:1014E00005F3DA0715D5072F13DD0F2F11D0012CC7
:1014F0000ED9164A515D414506D1013C8DF804A034
:101500008DF80590E4B204E0002320F8153000E0E7
:101510000124B8F1F70F98BF0C4801A998BF4655B0
:101520002246284601F014F80230022802D8084A60
:10153000105603E04FF0FF3000E02046BDE8FC8786
:101540006C3100002606001024060010080600106A
:10155000CD32000038B505460C4621462846FFF737
:1015600097FF811CF9D038BD2DE9F04180460F4628
:10157000FFF720FF002800F0C5800C2606FB08F6C8
:10158000634DAC19404600F00FFF0028C0F2A18067
:101590000206C3B252D5F72B08D9396841F00F02C1
:1015A0003A607B700023BB70FB70AFE05949C3F316
:1015B0000212895C2371617109B1002137E0564A3A
:1015C00000F00F00125CF02B627103D101226370F6
:1015D000E271F2E7F72B1DD1E279207842B1012ABE
:1015E0000ED1062262F303002070A370E1700CE0BC
:1015F000052161F3030020706370A270E27004E0C3
:10160000072161F303002070E370236800203B6032
:10161000E0710BE0002AD0D12178052060F30301AE
:1016200021706370A270E27023683B6001216379CE
:101630000020A37120810029A4D067E02279F02A3C
:1016400017D1E279511CC8B20128E07103D00228F9
:1016500003D1A37096E7637094E7E370AB5D042257
:1016600062F30303AB55A95900203960E071208172
:101670004CE0A07920B962792081511EA17101E06E
:10168000411EA1716079012802D1A370002303E0FB
:10169000A2790AB1A37000E0E370A379002B7FF474
:1016A00071AF2079AA5D00F0F001F02901D00109A5
:1016B00008E063791BB1012B03D1022102E005216F
:1016C00000E0032161F30302AA556070A859386055
:1016D0001CE00020A17971B12289B2F57A7F0AD984
:1016E0000023AB5123716371A371E37123816FF008
:1016F0000900BDE8F08100280CBF4FF0FF3000204A
:10170000BDE8F0814FF0FF30BDE8F0810120E1E756
:101710000C060010C0320000B032000000207047FC
:1017200000B58BB000F028F936230AA840F8283D10
:1017300005A96846034A904700F032F906980BB0B5
:1017400000BD00BFF11FFF1F4FF4002070474FF492
:101750008030704770B58AB0044600F00DF93A2227
:101760000AA840F8282D114B684605A9984700F0B3
:1017700017F900230AA9CD1855F8101C002204EB14
:10178000430501F00F00092894BF30263726301892
:10179000A85401320909082AF3D10433102BE9D1E6
:1017A000002084F820000AB070BD00BFF11FFF1FA9
:1017B00037B502AB03E90300114B009A02211972FD
:1017C0003C21B2FBF1F401FB14250020ECB21872AD
:1017D00083F820404FF46164B2FBF4F504FB15225A
:1017E000B2FBF1F1CCB2182183F82440B2FBF1F442
:1017F00001FB1422D1B2012283F828101A723EBDD7
:101800000040024013B5002840F08880454B20225C
:10181000C3F8A0211946D1F8A001424C4006FAD5E0
:101820000323414A4149C4F80431414BC4F8A8217B
:101830000120C4F8AC115522AA21C4F80C01C4F847
:101840008430C4F88C10C4F88C20C4F88000C4F82C
:101850008C10C4F88C20334CD4F888004101FAD5A0
:101860000323AA215522C4F88030C4F88C10C4F890
:101870008C20D4F888002B4B10F0407FF9D0AA219F
:10188000552223240120C3F8A440C3F8AC10C3F8A8
:10189000AC20C3F8A000C3F8AC10C3F8AC20214CB6
:1018A000D4F8A8305B05FAD50321AA225520C4F844
:1018B000A010C4F8AC20C4F8AC00D4F8A810194BA0
:1018C00011F4407FF9D04FF0FF34C3F8C440002436
:1018D000C3F8C8411A6822F4704040F4804119608E
:1018E000144A154B15489A6002A9D86000940194D7
:1018F00011E90300FFF75CFF114B124801221C6045
:101900005C609C60DC601C615C619C61DC61052149
:1019100002631A2000F058F8204601E04FF0FF3033
:101920001CBD00BF00C00F40000011540004400067
:10193000770005000000000000ED00E00003FA055C
:101940002C06001000400050094B70B51E680025A1
:101950000124344206D00748295801B18847044A77
:101960009460146104356400202DF2D170BD00BF75
:10197000004000502C060010074B1A681AB9EFF30C
:101980001081064801604FF0010080F310881A684A
:101990000020511C19607047500600104C060010C2
:1019A000074A13683BB1581E106038B905490A68E8
:1019B00082F3108802E04FF0FF307047002070473C
:1019C000500600104C0600100F291CD80F4BDA6887
:1019D000D343C3F30222C2F1040301FA03F100F17D
:1019E00060430901CAB203F5614181F80023012374
:1019F00042B200F01F00510903FA00F2044840F817
:101A00002120002070474FF0FF30704700ED00E0CC
:101A100000E100E0013A2DE9F0478446052A70D83C
:101A2000DFE802F00318080C0F1300231C46022203
:101A3000012513E000231C4603220EE000231C4670
:101A400001E0002301241A4607E0012300221C467E
:101A5000154603E000231C4602221D4601F00F0834
:101A60004FEA48084FF0030909FA08F905FA08F5A2
:101A700002FA08F24FEACC0606F1804000F5303653
:101A80000F0956F827A06FEA090909EA0A0A46F879
:101A900027A056F827A006EB870045EA0A0546F876
:101AA0002750056C09EA05050564056C2A430264A4
:101AB0004FEA4C1000F1005202F51C22012024B123
:101AC00000FA01F01468204304E000FA01F0146801
:101AD00024EA000010604FEA8C0202F1804000F519
:101AE000303001223BB102FA01F2836E1A43826662
:101AF0000020BDE8F08702FA01F2846E24EA0202B7
:101B0000F5E74FF0FF30BDE8F087C30710B5044696
:101B100004D5002016210522FFF77CFF34F00103D5
:101B200014BF6FF00100002010BD0000C20707D5F0
:101B3000074B11F0010F4FF4800214BF9A61DA6174
:101B400030F0010314BF6FF001000020704700BFA8
:101B500000C009201E214843074B002201381A67A4
:101B60004FF0FF31D860032099615861196001215D
:101B700059601046704700BF00400940014B0020EB
:101B80009860704700400940044B9868196811F04C
:101B9000010F18BF4FF0FF30704700BF00400940F1
:101BA00018B9034B08221A7270474FF0FF30704784
:101BB00000000B401E235843034BD968DA68521AC1
:101BC0008242FBD90020704700000B4000F010005B
:101BD000C1B211B1002000F0DDB97047F0B5164672
:101BE000474A93B05168074610686B4603C3906834
:101BF00003AC1860434B03F110021868596825467E
:101C000003C5083393422C46F7D119882980787888
:101C1000092803D1012000F0BDF96EE006286CD13F
:101C20007B881A0A032A68D1D9B2032965D8DFE86C
:101C300001F006021D470DF1FF3000230DE0324890
:101C4000092383700423C37050E0642A13460BD029
:101C50002D4AD154D2180021517010F8011F9A1C3E
:101C600093B20029F1D141E064233FE0002303F562
:101C70007F5292F8200099B258B120385F288CBF6B
:101C8000002001200133202B06D00028EFD103AB28
:101C900006E00029FBD001E00028F8D043F6E0730D
:101CA000591E002311F8010F9A1C93B2F0B1642A57
:101CB0001346D9D0144AD054D21800205070F1E7FE
:101CC00008A8FFF747FD002817DB0DF11F010023CF
:101CD00011F8010F9A1C93B240B1642A134605D043
:101CE000094AD054D21800205070F1E7064A032167
:101CF000137051700120326000E0002013B0F0BD7D
:101D0000D03200003E320000540600104378212BF0
:101D10000ED0222B10D0202B01D00020704712684B
:101D2000064B106818609088927998809A7101E04B
:101D3000024B136007200860012070470400001068
:101D4000022808B52FD8012806D1002000F023FE74
:101D500042F21070FFF72EFF01F0DEF8134801F099
:101D60000DF8134A0120134900F0FCFF124801F05E
:101D7000CBF88120114900F0DBFD1149022000F071
:101D8000D7FD202000F00DFE0E4800F0F1FD0120EF
:101D900000F000F908211820FFF716FE012000F0DE
:101DA000FAFD002008BD4FF0FF3008BDDC32000016
:101DB000B80600100D1D0000DD1B00000121000011
:101DC00011210000CD1B000000F07CBE024BD3F8B7
:101DD000F40FC0F34000704700C00050084B0004EF
:101DE000302240F4A061C3F80822C3F81012D3F8DF
:101DF000002212F01000FAD0014BC3F8080270471D
:101E000000C000502DE9F041064606F00F07FFF72D
:101E1000B3FDBA00284B42F00100C3F828021A466D
:101E2000D2F820020105FBD542053CD5C0F3870856
:101E30001FFA88F1002936D0204B1A8890B2C0F5DD
:101E4000007399422FDA0024C4EB08010AB2002A79
:101E500019481DDDD0F81852C5F30310103029467B
:101E6000FEF7F2FF90B9164B164A198889B242F86C
:101E7000215019884A1C91B2B1F5007F198028BF02
:101E800018800E4803885A1C91B201800134DBE7A8
:101E90000023F109C0F8283241EA4700FFF79EFF0E
:101EA000F220FFF79BFF04480022C0F82822BDE87B
:101EB000F041FFF775BD00BF00C00050C006001024
:101EC000C8160010C80E001070B50446FFF754FD88
:101ED000274B1878002846D1264B1A8891B2002942
:101EE00041D025480278002A3DD0198888B21028B0
:101EF00098BF1B8804F00F0194BF9BB210238A0087
:101F000042F002001D4AC2F8280218B28000C2F84E
:101F10002402C3B100231948D0F82822920712D511
:101F2000174A184D16880133B6B255F82650C0F836
:101F30001C521088013080B2B0F5007F1080EAD3C7
:101F400000201080E7E70A4A01201070094A108833
:101F5000C31A98B21080E20942EA4100FFF73EFF3F
:101F6000FA20FFF73BFFBDE87040FFF719BD00BF47
:101F7000C40E0010CA160010CE16001000C000508B
:101F8000CC160010C4060010002814BF4FF0FF301C
:101F9000002070470C4A0D49002310B513800B80B8
:101FA0000B4A0C4913800B800B4A0C4913801C46CA
:101FB0000B8001220A490B4B10B10A701C7001E022
:101FC0000C701A70002010BDC0060010C81600105A
:101FD000C2060010CA160010D2160010CC1600104F
:101FE000CE160010C40E001038B5184C05462378E4
:101FF00013B94FF0FF3038BD154801888AB2B2F5E9
:10200000FF7F08D98120FFF75FFF2378002BF0D0F6
:102010006FF0010038BDFFF7AFFC0E4B0E4918887A
:1020200082B2501C41F8225082B21A80198888B2BC
:10203000B0F5007F01D300221A80054B1988481C97
:1020400082B21A80FFF7ACFC002038BDCE1600101B
:10205000CA160010D2160010C406001010B50446AF
:102060002046FFF7C1FF811C08D1074B42F20F71D8
:102070001A888A4207D8501C1880F1E7002802DB32
:10208000014B00221A8010BDD0160010124B10B563
:102090000446188881B2D9B1FFF76EFC0F4B104986
:1020A0001A8890B251F8202022601C88601C81B2EE
:1020B000B1F5007F198001D300221A80064C2388D5
:1020C000581E81B22180FFF76BFC228890B210BDB0
:1020D0004FF0FF3010BD00BFC0060010C206001058
:1020E000C80E001008B5054B187828B10220FFF77C
:1020F00089FE8120FFF7E8FE002008BDCE16001003
:10210000024B00221A70FFF7DFBE00BFC40E0010A2
:10211000030604D5034B00221A70FFF7D5BEFFF764
:1021200071BE00BFC40E0010034B197841FA00F0D5
:1021300000F00100704700BFE81600102DE9F04FD5
:10214000012885B0009059D82F4B304C53F82060AF
:102150000122002348082E4D029001949C46984687
:102160009346002707EB0209B5FBF9F9B9FBF1F437
:1021700001FB1490DDF808A0504588BF0134E01E33
:102180004FF6FC7A50450FD8B9FBF4F38B42019817
:1021900094BFC3EB0103C1EB0303834204D283B1B9
:1021A0000193A446B84693460137102FDAD15BB1AC
:1021B00005F5E415013205F5E1551835102AD0D1A1
:1021C00002E0A446B846934683233373CCF307203A
:1021D0005FFA8CF2032308F00F0C30714CEA0B18F5
:1021E00032703373009A0B4B07205FFA88F886F839
:1021F000288043F822103072002001E04FF0FF30B9
:1022000005B0BDE8F08F00BF54330000A086010088
:10221000389C1C00E0160010012810B55AD8012483
:102220002E4A04FA00F413B113781C4302E0137829
:1022300023EA04040128147025D0294B186820F0E3
:1022400003021A60186840F002021A60186C20F04D
:1022500003021A64186C40F002021A64214A906E5C
:1022600040F0010090661A6822F00C0018601A68AD
:1022700042F0080018601A6C22F00C0018641A6C06
:1022800000201A6422E0184B1A6822F003021A6038
:102290001A6842F002021A601A6C22F003021A64F1
:1022A0001A6C42F002021A649A6E42F001029A66B7
:1022B0001A6822F00C021A601A6842F008021A60CA
:1022C0001A6C22F00C021A641A6C1A64FFF736FFBB
:1022D000002010BD4FF0FF3010BD00BFE816001009
:1022E00010C0024008C0024000C0024010B50446C1
:1022F00030B101280CD147F612210622034603E033
:1023000047F6122106220123FFF786FF002010BDA9
:102310004FF0FF3010BD00002DE9F047044678BBB8
:10232000DFF878A0DFF87890DFF87880164F174E46
:10233000174D8AF8000089F8000088F8000038700E
:1023400030702870FFF7D2FF01208AF8014089F829
:10235000014088F801407C7074706C70FFF7C6FF14
:102360000C4B03255D6004210620FFF72DFB0A4876
:10237000042145600820FFF727FB2046BDE8F087D1
:102380004FF0FF30BDE8F087DE160010D6160010C3
:10239000D41600100000014000C00940D8160010FB
:1023A000DC160010DA160010012838B504461BD8D8
:1023B000104B185CD8B1FFF7DFFA0F4B0F491A5DCD
:1023C000185D02EB8415421C4D5DD1B23F291955B1
:1023D00001D900201855074B1A5D511EC8B2185577
:1023E000FFF7DEFA284638BD4FF0FF3038BD6FF0FA
:1023F000010038BDD8160010DA16001010000010C9
:10240000012838B504460D461CD8114B185C3F28EE
:102410001BD8FFF7B1FA0F4B0F491A5D02EB84107E
:102420001A5D0D54501CC1B23F29195501D9002223
:102430001A55074B185D411CCAB21A55FFF7B0FA7E
:10244000002038BD4FF0FF3038BD6FF0010038BDBF
:10245000D8160010DC16001010000010012838B546
:1024600004461DD8114B185CE8B1FFF785FA104BF4
:10247000104A195D02EB84156818195D90F88050B8
:102480004A1CD0B23F28185501D900211955074BD5
:102490001A5D501EC1B21955FFF782FA284638BDA1
:1024A0004FF0FF3038BD6FF0010038BDDE16001070
:1024B000D4160010100000100128F8B504460E468E
:1024C000174636D81E4D2B5C98183F2834DCFFF792
:1024D00053FA1C492A5D51F824304AB9187D00F09E
:1024E0002001C8B228B116F8012B01201A7000E0B3
:1024F00000200346BB4218DA134D144A295D02EB53
:1025000084125218311AC95C82F880100C4A115D8D
:102510000131C9B211552A5D511CCAB23F2A2A5550
:1025200001D9002129550133E4E7FFF739FA0020EA
:10253000F8BD4FF0FF30F8BD6FF00100F8BD00BFEF
:10254000DE16001054330000D616001010000010E4
:1025500070B506460D461446304629462246FFF71A
:10256000ABFF831CF8D070BD10B5144CA36803F00A
:102570000E00042813D1207DC1071ED50020247829
:10258000FFF7D2FD28B900202146BDE81040FFF733
:1025900037BF20202146FEF74DFC70B9F3E7022833
:1025A0000BD107490A7842B10020FFF757FF30EA04
:1025B000200028BFFF20C3B2237010BD00000140DF
:1025C000DE16001010B5144CA36803F00E000428AA
:1025D00013D1207DC0071ED501202478FFF7A4FD6C
:1025E00028B901202146BDE81040FFF709BF20208F
:1025F0002146FEF71FFC70B9F3E702280BD107490B
:102600004A7842B10120FFF729FF30EA200028BFB5
:10261000FF20C3B2237010BD00C00940DE160010B9
:1026200020B10368197001684A1C026070472DE9E7
:10263000F843141E8046894601DC20270FE0002263
:1026400019F8021009B10132FAE7A242B4BFC2EB95
:1026500004040C4613F0020F0CBF20273027DB07C1
:102660000CD42546002D05DD40463946FFF7D8FF3E
:10267000013DF7E724EAE476A41B00E00026354696
:10268000C6EB0903595D21B14046FFF7C9FF01358B
:10269000F6E72646002E05DD40463946FFF7C0FF27
:1026A000013EF7E7002CACBF2819281CBDE8F883D1
:1026B0002DE9FF470C9E8146DDF834800C4651B968
:1026C00030228DF804208DF80510324601A94346CA
:1026D000FFF7ADFF35E033B10A2A04D1002902DA51
:1026E0004C42012700E0002704AD002305F8013D1E
:1026F000AA466CB1B4FBF2F302FB1344092C02DDD1
:102700000E993A396418303405F8014D1C46EFE74C
:1027100087B14EB118F0020F06D048462D21FFF7C1
:102720007FFF013E012705E02D2005F1FF3A05F866
:10273000010C00274846514632464346FFF777FFD3
:10274000381804B0BDE8F087F0B589B006460D46EC
:10275000059200242B7823B1252B79D168786A1C47
:1027600028B9002E7BD030680022027077E025283F
:102770006DD02D2802D1AA1C012300E000231746AA
:1027800039780132302902D143F00203F7E7002201
:1027900039783D46A1F130005FFA80FC0137BCF189
:1027A000090F03D80A2505FB0202F1E7732909D1B5
:1027B000059F3046391D059139682A4F002908BF09
:1027C000394641E064290ED18DE80C00059961235A
:1027D0000293081D096805900A2230460123FFF77D
:1027E00067FF241839E0782906D105998DE80C0097
:1027F000081D0590612207E058290AD105998DE846
:102800000C00081D059041220292304609681022F2
:102810000BE075290BD18DE80C000599612302931B
:10282000081D096805900A2230460023D7E763296E
:1028300013D10599081D0968059000208DF81C101A
:102840008DF81D0007A93046FFF7F1FEC9E71546D0
:1028500030462978FFF7E4FE013401357AE7204657
:1028600009B0F0BD643300000EB40FB505AA52F8EC
:10287000041B019001A80392FFF766FF04B05DF806
:1028800004EB03B0704707B502AB43F8040D1846DC
:10289000FFF75AFF0EBD0000044BD3F800220240A0
:1028A0008242F9D1C3F80802704700BF00C000504F
:1028B000054B000440F4A06130221020C3F8082228
:1028C000C3F81012FFF7E8BF00C0005010B50C4667
:1028D000FFF7EEFF2004054B40F480741020C3F88E
:1028E0001042BDE81040FFF7D7BF00BF00C0005046
:1028F00010B500F00F04C00940EA4404012202FAB6
:1029000004F20A4BD3F844020243C3F844224FF4C2
:102910008070C3F84842C3F84C12FFF7BDFF44F083
:1029200040000021BDE81040FFF7D0BF00C00050BC
:1029300000F00F03C00940EA430002220A4B90FB5B
:10294000F2F243F82210012101FA00F0074BD3F80C
:1029500034221043C3F83402D3F8042242F00401B5
:10296000C3F80412704700BFF416001000C00050F6
:10297000044B18600448D0F8042242F00801C0F863
:1029800004127047F016001000C0005040F08001A3
:10299000D020FFF79BBF011C18BF0121FE20FFF7CD
:1029A00095BF0146F320FFF791BF000010B500F07E
:1029B0000F04C00940EA44042046FFF779FF2104D0
:1029C000054C41F400732020C4F81032FFF764FF77
:1029D000D4F81422D0B210BD00C00050C30943F097
:1029E0004002003100F00F0042EA400018BF012110
:1029F000FFF76CBF38B500F00F03C009144640EA7A
:102A000043009A00104B42F00202C3F82822C3F898
:102A100024420D4BD3F8282292070DD58A78CD7821
:102A2000120442EA05620D782A434D78043142EAE5
:102A30000522C3F81C22ECE7FFF73AFFFA20FFF764
:102A400037FF204638BD00BF00C0005038B500F049
:102A50000F03C0099C0040EA4300164B44F00104F8
:102A6000C3F82842D3F8205215F4006FFAD06B0552
:102A70001CD5AC05A50D00242346AB420CD013F0A9
:102A8000030F04BF0B4CD4F8184211B19342B8BFE6
:102A9000CC54240A0133F0E706490022C1F8282269
:102AA000FFF706FFF220FFF703FF01E04FF0FF35CD
:102AB000284638BD00C00050011C18BF0121D82095
:102AC000FFF704BF70B52B4CD4F80052E90712D5BC
:102AD000294801230668C4F8083266B1F520FFF7DB
:102AE000E7FE26492020C4F81012FFF7D5FED4F8DF
:102AF0001422D0B2B0472A0717D51E4C0823FE2057
:102B0000C4F80832FFF7D4FE1D48C4F81002202094
:102B1000FFF7C2FED4F8141211F01A0F05D0194AAB
:102B2000136813B101F0150098476B0721D5114DBB
:102B30000424C5F808420024012000FA04F00D4DD9
:102B4000D5F83012084211D0C5F838022020FFF71E
:102B5000A3FE0D4B601053F82030D5F814222BB192
:102B600040EAC411C8B202F01F0198470134202C7A
:102B7000E2D170BD00C00050EC1600100002F5005C
:102B80000002FE00F0160010F416001008B5002335
:102B90001E4A002199500433402BF9D11C48016989
:102BA00021F440220261036943F4802101614268FB
:102BB00022F070534360416841F0A052426000F53A
:102BC0005020D0F8C4301A2243F00041C0F8C4109D
:102BD0001048C0F8F42F0146D1F8F80F0D4B00F063
:102BE0001A021A2AF8D100204FF0FF31C3F804026C
:102BF000C3F80812C3F82C02C3F83402C3F8381221
:102C0000C3F84002FFF7CDFE012008BDF416001006
:102C100000C0024000C0005070B5094C094E256844
:102C20003168402DA8BF40252A468020FFF7E2FEEC
:102C30003368216858194D1B3060256070BD00BF96
:102C40005C1700106017001000B5104BA1B05A7847
:102C50001846552A0AD1598841B90D4B1A68802A5D
:102C600004D10C4800AA026001200CE000780A4B55
:102C7000C0F3411153F8213023B10549054A0348F7
:102C8000984700E0184621B000BD00BF541700105F
:102C900064170010601700103417001038B50028B2
:102CA00053D101F00401C9B2002927D0284C0822D1
:102CB0002146FFF7CBFE2078264BC0F3411153F895
:102CC00021202549E3880A60244A254913600B60C6
:102CD0000BB1C2093BD0FFF7B7FF28B98020012113
:102CE000BDE83840FFF77ABE19481D4BC1881A6805
:102CF0001A489142D4BF016002601DE0174D2A6856
:102D0000002A1DDD144C2168FFF7A0FE0028E5DB3A
:102D1000226829681318081A23602860002816D131
:102D20000B4A0C481378C3F3411150F8212022605C
:102D3000FFF78AFF0028D1D0BDE83840FFF76CBF0D
:102D40000A46BDE83840FFF781BE8028F4D038BD80
:102D50005417001044170010601700105C17001083
:102D600064170010034B43F82010034941F820205A
:102D7000704700BF3417001044170010014B186053
:102D8000704700BF6C1700100D49F0B50968050ABF
:102D9000C6B20024087890B14F78AF420DD1B4424A
:102DA0000AD11960022D05BFC8788B780B7843EAE9
:102DB000002313600120F0BD01340918EAE7F0BDDB
:102DC0006C1700104D4B2DE9F0411B6804460D4671
:102DD00017464BB9267806F01F06012E54D007D3AC
:102DE000022E40F0848062E098470028F2D081E013
:102DF00060783B6809287AD8DFE800F005797979AE
:102E000079090D79151C00201870587046E0A078DB
:102E1000FFF7BCFD6EE06088A1882A463B46BDE80E
:102E2000F041FFF7B1BF364A0120117819702860D0
:102E3000BDE8F081A6780EB930461FE0314DFF277E
:102E40002D68B8462978C1B16A78042A06D0052AC7
:102E500006D0022A0ED195F805800BE0EF7809E044
:102E6000B04507D137B969792B79A87843EA0121B0
:102E7000FFF73EFD28782D18E4E70120FFF71CFE40
:102E800062881F490A7035E06378386823B10A2BDD
:102E900006D00B2B2BD106E003704370022204E016
:102EA0000021017016E062880ABB2A6022E0D7F890
:102EB00000806778012F0FD002D3032F17D10FE0C6
:102EC0002079FFF773FD0022C0F3400188F800105D
:102ED00088F801202E600DE0618841B9207903E077
:102EE000608820B920790121FFF778FD02E00020F9
:102EF000BDE8F0810120BDE8F08100BF6817001037
:102F0000701700106C170010014B1860704700BF5D
:102F1000681700107047000010B50E4CFFF736FE22
:102F20000D48FFF725FD00202146FFF701FD802019
:102F30002146FFF7FDFC00204021FFF7D9FC80204F
:102F40004021FFF7D5FC00200449054AFFF70AFF9E
:102F5000012010BD9D2C0000152F0000C52D000084
:102F60007117001038B50E4D0E4B0024E81A85106D
:102F7000AC4205D00B4951F8242090470134F7E7C3
:102F8000FDF7CEF80849094A541AA5100024AC42AE
:102F900005D0054B53F8240080470134F7E738BDCE
:102FA0006C3300006C3300006C3300006C330000A5
:102FB00010B50023934203D0CC5CC4540133F9E72D
:102FC00010BD034613F8012B002AFBD1181A013853
:102FD0007047000001180009001201140007000FDB
:102FE0000116011500060005001000155B42534C48
:102FF0005F53595345585D20657870656374656407
:103000002025642C20676F74202564206279746504
:103010007320287265747279290A0065726173657C
:10302000206661696C656420666F72203078253097
:1030300038783A20636F64652025640A00777269E6
:1030400074655F64617461206661696C65642066A3
:103050006F72203078253038783A20636F646520AD
:1030600025640A00FF0F0000FF1F0000FF2F000073
:10307000FF3F0000FF4F0000FF5F0000FF6F0000F8
:10308000FF7F0000FF8F0000FF9F0000FFAF0000E8
:10309000FFBF0000FFCF0000FFDF0000FFEF0000D8
:1030A000FFFF0000FF7F0100FFFF0100FF7F020024
:1030B000FFFF0200FF7F0300FFFF0300FF7F04000C
:1030C000FFFF0400FF7F0500FFFF0500FF7F0600F4
:1030D000FFFF0600FF7F0700FFFF07000000000062
:1030E0000010000000200000003000000040000040
:1030F0000050000000600000007000000080000030
:103100000090000000A0000000B0000000C000001F
:1031100000D0000000E0000000F00000000001000E
:103120000080010000000200008002000000030097
:10313000008003000000040000800400000005007F
:103140000080050000000600008006000000070067
:103150000080070020000000691500002100000029
:1031600069150000000000000000000000000203DC
:103170000301020303030303020203012845525221
:103180004F523A20737472696E6720706173736571
:103190006420746F204D494F5333325F4D49444989
:1031A0005F53656E6444656275674D6573736167EF
:1031B000652829206973206C6F6E676572207468BA
:1031C000616E20313030206368617273210A005BC8
:1031D0004D494F5333325F4D4944495F52656365F2
:1031E0006976655F48616E646C65725D2054696DD7
:1031F000656F7574206F6E20706F72742030782543
:103200003032780A00202530325800202020002556
:1032100030385820004D494F533332004D4248500A
:103220005F434F52455F4C50433137004C50433160
:103230003778780025303878003F002564004D4904
:103240004F53333220426F6F746C6F61646572004C
:10325000286329203230313420542E204B6C6F7378
:1032600065005B4D494F5333325F4D4944495F53CD
:10327000595345585F436D645F44656275675D20CF
:10328000636F6D6D616E642068616E646C65722041
:103290006E6F7420696D706C656D656E7465642009
:1032A0006279206170706C69636174696F6E0A0085
:1032B0000101020100000000000000000000000009
:1032C0000202020201010200F000007E32FEFF0055
:1032D0006D696469626F782E6F7267001201000277
:1032E00000000040C016FE03101001020301090295
:1032F00065000201008032090400000001010002A3
:10330000092401000109000101090401000201036F
:103310000002072401000141000624020101000609
:10332000240202020009240301030102010009240E
:10333000030204010101000905020240000000002F
:103340000525010101090581024000000000052555
:10335000010103000000014000C0094000C000401E
:1033600000800940286E756C6C2900000000000088
:103370001010FF0000C20100000008000000000063
:10338000000000000000000000000000000000003D
:10339000000000000000000000000000000000002D
:1033A000000000000000000000000000000000001D
:1033B000000000000000000000000000000000000D
:1040000000800010119201000D9201003580010026
:104010000D9201000D9201000D92010000000000C0
:10402000000000000000000000000000B18E010050
:104030000D92010000000000218F0100718F01002E
:104040000D920100A9D00100C1D00100DDD0010016
:104050000D920100F1DF010039DF01004DE00100A8
:1040600095DF01000D920100C5E10100D1E10100E1
:104070000D9201000D9201000D9201000D920100C0
:104080000D9201000D9201000D9201000D920100B0
:104090000D9201000D9201008DD301000D920100DF
:1040A00035D601000D920100A9BF01000D9201005B
:1040B0000D9201000D9201000D9201000D92010080
:0C40C0000D9201000D9201000D92010014
:1040D00008B5114A137813F0030005D0507818B1D1
:1040E00020288CBF0020012040B918F0BDFC60F0F2
:1040F000FF0188B227F04AFC27F04EFC07F04AF88F
:1041000020F0B4FC15F056FB20F020FC0348BDE87D
:10411000084015F08FB900BF7C410010D14000006D
:1041200038B505460C4600F087FC2146284605F0C8
:1041300031FA2146284607F02DFE284621461BF07D
:1041400069FE002038BD0000034B1B7813B100232B
:1041500006F02ABB704700BFB83D001008B500F05C
:1041600053FC00204FF4FA61024A034B28F08AFC0A
:10417000002008BDC8E00200D6E002001CF028BB09
:1041800010B50C461BF0D4FE012802D1204626F0C3
:1041900097FC002010BD000010B54FF0FF3018F064
:1041A000A3FB642018F0A8FF454B4648464900246D
:1041B00002221C7002700C70E0B20421013418F06D
:1041C0000BFC082CF8D1002008F050FC002021F056
:1041D0008DFD002021F05CFF042014F078FD3B4BA6
:1041E0001860042014F073FD394A1060042014F0A4
:1041F0006EFD38490860042014F069FD364B1860E4
:10420000042014F064FD354A1060354816F0E6FBD2
:10421000344816F091F8344816F088F8334816F010
:10422000EFFB00201CF0D8F9002000F035FB002047
:104230001BF056FD002001F0C5FD002005F07AFBC3
:10424000002005F039FC002022F030FF002005F0AE
:1042500091FD002005F0F6FE002007F049FC00204B
:1042600006F076F8002006F099FA002007F036FCF8
:10427000002006F041FB002006F0D6FC00201EF0D6
:1042800049FB002027F0AEFA002013F023FD0020A8
:1042900011F0B4FF00201CF05DFB002008F05EFD73
:1042A000002008F0E5FC002026F094FE002000F03D
:1042B00015FC20F04BFB0E48BDE8104015F0BAB8D5
:1042C000B83D0010C03D001000000010B43D0010CB
:1042D000C83D0010BC3D0010B03D0010C43D0010B2
:1042E00021410000814100007D4100005D4100004E
:1042F000D14000002DE9F047002028F095FB08F0A0
:1043000029FC17F095FC002506462C4617F090FC7A
:10431000B042FBD017F08CFC0646AD4B012118686B
:1043200014F07EFD01280746F7D1AA4815F05CFC81
:1043300027F0E2FE01F024FE28B901F099FE0030DA
:1043400018BF012000E03846C0B228F06DFB28F00D
:1043500071FB002846D101F013FE002842D101F084
:1043600087FE00283ED19C480178D1F1010738BF73
:10437000002777B308F0EEFB28F09CFC814628F07C
:10438000A5FC804628F0AEFC1FFA88F182B25FFAE5
:1043900089F007F05BFE27F0E7FA4FF0050808FB0D
:1043A00000F007F079FF28F085FC824628F08EFCAB
:1043B000814628F097FC421C1FFA89F192B25FFAFD
:1043C0008AF007F043FE27F0CFFA08FB00F007F071
:1043D00063FF384603F07EFD11F094FC7E4B012014
:1043E000187012E07C490A7852B101F0C9FD18B189
:1043F000012028F0C3FC03E001F03AFE0028F7D1C9
:10440000754B00271F7011F07DFC7149734F0868D0
:1044100014F048FC1CF0BAF905F0B8FC00F0AAFE54
:104420003A78002A40F08B800134A4B2B4F57A7F48
:10443000C0F085806A480121006814F0F1FC012871
:10444000F8D124F021FE0128074610D124F094FE73
:104450000146644815F0ACFE26F03AFC384608F0F8
:104460009BFC384604F0F6FB4FF47A7460E00228B7
:104470001ED15D4815F09CFE08F0ACFC26F028FC2F
:104480005A4808F023FD524F0121386814F0C8FC47
:104490000128F8D100200146024607F0D7FD544814
:1044A00007F0CEFE07F004FF386814F0FBFB3EE097
:1044B00003283CD124F040FE98B94E4815F078FE10
:1044C0004A4808F003FD424C0121206814F0A8FC82
:1044D0000128F8D100200146024607F0B7FD444804
:1044E00015E024F02FFED0B9434815F061FE434893
:1044F00008F0ECFC364C0121206814F091FC0128F6
:10450000F8D100200146024607F0A0FD3C4807F024
:1045100097FE07F0CDFE206814F0C4FB04E00020F5
:1045200008F0D4FC08F068FC364B01211970002417
:1045300000200FF0ABFD2A4A106814F0B3FBDFF83F
:104540009C8098F8000000283FF4E0AE24490868F9
:10455000012114F065FC0128F8D198F800301F4FB4
:10456000022B1FD0032B02D0012B24D103E019F022
:1045700073F800231EE0244D0121286814F050FC3C
:104580000128F8D1002026F031FE0028134801DB75
:10459000022200E003221C490270086814F082FB2A
:1045A000002508E026F06CFE55B1002026F090FEB4
:1045B00008B903233B700A4F386814F073FBA5E673
:1045C000284626F085FE051C18BF0125F3E700BF2D
:1045D000B03D0010CF94030000C007200000001081
:1045E000B43D0010E2E00200F9E002000FE1020039
:1045F0001AE102002EE1020041E1020067E102003F
:104600006EE10200B83D0010C43D001008B518F07E
:104610008FF9C143012018F077F9094B187870B170
:1046200006F058FE07F032F906F002FF06F088F8AF
:10463000044821F0E3FBBDE8084020F0D3BA08BDF0
:10464000B83D00104941000010B508F097FA0A4B38
:104650001A681C462AB926F0E3FC0748006838B9F6
:1046600010BD0121206814F0DBFB0128F9D1F2E72D
:10467000BDE8104014F016BBBC3D001038B501F089
:104680000F030F2B05460C4607D001F10C0202F078
:104690000F03032B01D904F099FC2146284607F0AB
:1046A00057FA214628461BF037FB284621461CF0C6
:1046B000C9F8102D05D0B5F12000414251EB0002A0
:1046C00000E0012228462146BDE838401CF010BC1D
:1046D00070B5164B187840B314F076FE00240646E9
:1046E000134901EB44025578E5B1B5421AD811F8E7
:1046F000143003F0030001280ED0022812D10D4916
:10470000751B0A780C4B05EB4215595D0B4AE0B25C
:10471000515C05F01EFB05E0E0B205F00DFB084B17
:10472000013D58550134022CDAD170BDB83D00105E
:104730007C410010026A0010036A00100A8803001E
:10474000036E0010024B1A780AB105F0F9B87047F1
:10475000B83D001010B9084627F09CB9013805F0A3
:10476000FFBC0000034B1A7812B1002205F046BFCF
:10477000704700BFB83D001010B5044617F02CFC80
:10478000084B19781A4611B90CB1012005E01378CD
:10479000022B03D114B9034B0320187017F030FC1F
:1047A000002010BD00000010034B1878821E5142FB
:1047B00051EB0200704700BF0000001010B5044626
:1047C00026F072FD00280CBF2D20552020700020FF
:1047D00026F07EFD00280CBF2D214D216170FA20AE
:1047E00026F080FD00280CBF2D225222A270FA2054
:1047F00026F082FD00280CBF2D2357230020E370F4
:10480000207110BD074B10B51A681C4642B106480E
:10481000017829B90121206814F002FB0128F9D19F
:1048200010BD00BFC43D001000000010044B18680C
:1048300020B104490A780AB914F034BA704700BFAD
:10484000C43D001000000010054B10B51A681C464E
:104850002AB10121206814F0E3FA0128F9D110BD32
:10486000BC3D0010024B186808B114F01BBA704729
:10487000BC3D001008B5044B0121186814F0D0FAB3
:104880000128F8D108BD00BFC83D0010014B1868D1
:1048900014F008BAC83D001020B9044B0449187040
:1048A000087070474FF0FF30704700BF33000010B2
:1048B000340000107FB5F0238DF8043000238DF80C
:1048C00005308DF806308DF809107E23F7218DF81C
:1048D00007308DF80A2050238DF80B10082201A90B
:1048E0008DF8083015F03EFB07B000BD2DE9F0470C
:1048F0003F4C23780C2B02D00F2B69D15FE03D4B4E
:1049000010B101280AD101E018706EE01A782F2A40
:104910006BD839488154511C197066E01F78002FFC
:1049200047D00024A5B200210A46284622F0C1FB48
:1049300001210022284622F0BCFB01340221002282
:10494000284622F0B6FB402CECD100240F27294941
:10495000087884422EDAA31C834227DA264D615D53
:1049600028190F29457890F802A01FD8234A4FF044
:10497000030909FB0129554519D800265FFA86F875
:104980004146284622F098FB19F806300136C11836
:10499000FF29B4BF0A46FF2228464146D2B222F080
:1049A00088FB032EEAD10135EDB2E4E70E2703348C
:1049B000CDE70F27124A394610787F2205E00128FB
:1049C00013D90F48194600780022FFF773FF0CE057
:1049D0000B480E210C220078FFF76CFF09490023D9
:1049E0000A786FF307020A7023700020BDE8F08791
:1049F00002000010010000100300001085E1020019
:104A00003300001034000010084B1A7802F08001C7
:104A1000C9B249B106490978814205D16FF307024D
:104A20001A70044B002018700020704734000010EA
:104A3000330000100200001038B5244B244C1B78C2
:104A400023F07F0505F0FF0215B1257885423BD1A3
:104A50002070B2B91D4B1C6804F007001D4C245C8B
:104A60008C42197801D01A701CE0421C02F0070039
:104A700060F302010528197026D1C9B241F0800205
:104A800011E00A0611D5F72906D103F04000C2B2A1
:104A900012B10220FFF72AFF0C4900220B786FF3B6
:104AA00007030B700C4B1A700EE003F04000C0B20D
:104AB00038B9064B1A7842F040021A70064B19704A
:104AC00000E00120FFF712FF012038BD3400001084
:104AD00033000010B5E1020002000010F0B50446FA
:104AE00085B0002840F0CE80684D142014F08AFC78
:104AF000202014F06FFC06F0DDF92146082228463C
:104B000029F0FCF92146012314226148AB7029F0F9
:104B1000F5F9204628F0D4F8204628F0DDF82046A4
:104B200028F0E6F8042026F025FF5A4804605A4C85
:104B300004F180010026082204F8062C04F8056C14
:104B400024F8086C04F8046C04F8036C04F8026C94
:104B500004F8016C08348C42ECD1504F07F1E005A9
:104B60000024082307F80C3C07F80B4C27F80E4CE0
:104B700007F80A4C07F8094C07F8084C07F8074CE7
:104B800007F8064C07F8054C07F8024C0E37AF4201
:104B9000E6D1434804701F2018F0ACFB404940F6B2
:104BA000FF7501EB8406B28801346FF30B02B2800B
:104BB0007768062C65F317377760F3796FF3000396
:104BC000F371EBD1002634464FF482726243354BC9
:104BD0000720995CE5B266F3000160F34401D1540B
:104BE00028460021D71821F047F80121284621F056
:104BF00067F81F21284621F0DFF82846402121F0E0
:104C0000C1F8002207EB82039D8840F6FF706FF326
:104C10000B059D805968013260F317310D0E6FF35B
:104C20000005402A5960DD71ECD10134022C86F078
:104C30000106C9D11C4B1D49002468461C700C702C
:104C400021F03EFB08208DF800408DF801009DE822
:104C50000F0021F013FC204621F062FA144B6D4640
:104C60001A78597864F3010298781A70DA7864F344
:104C7000010064F3070164F3070298705970DA7059
:104C8000204601E04FF0FF3005B0F0BD824100103A
:104C90004C3E001074740010D43D0010A23E001071
:104CA000603E0010743F00108141001080410010F0
:104CB0007C41001070B5044611F092F8114D0121AD
:104CC000286814F0ADF80128F8D120460EF034F829
:104CD000064620460EF0B2FB4FF0FF3120460FF0A3
:104CE0001BFA204611F0B4F800210A460B46204674
:104CF00010F0E8FF286813F0D5FF03F07FFF30467F
:104D000070BD00BFB43D001070B505460A4C0121CE
:104D1000206814F085F80128F8D128460EF0A8F88C
:104D20000646284611F05CF940EA0605206813F0B3
:104D3000B9FF284670BD00BFB43D0010604AF0B511
:104D4000841A0388B4F5C04F34BFA4B24FF6FF7481
:104D50000B808C8145680D6186898E824388828AAA
:104D60004B800A83C47E002381F83A4005698D6038
:104D700086684B84CE62027F81F83B20447F81F8B5
:104D80003940457E0D63467E0EB100F11E064E632E
:104D9000847E1CB1437E00F11E02D4180C64427E56
:104DA00000F11E06857EC089AD18C2B202F004046F
:104DB000E4B2731964B19C785F78755D240444EAA9
:104DC00007242C43DD78043344EA05644C6000E09A
:104DD0004C6012F0010404D05D7813F8024B44EAF1
:104DE0000524CC8202F00204E4B22CB15D7813F801
:104DF000024B44EA052401E04FF6FF744C8302F0B5
:104E00000804E4B224B15D7813F8024B44EA0524A7
:104E10008C8302F01004E4B22CB15D7813F8024BDD
:104E200044EA052400E07F24CC8302F02004E4B2AD
:104E300024B15D7813F8024B44EA05240C8402F097
:104E40004004E4B224B15D7813F8024B44EA05242F
:104E500002F08002D2B28C8462B19A785C7812043B
:104E600042EA04221C782243DC78043342EA0462DA
:104E70008A6200E08A62C0F3002222B113F8012B9B
:104E800081F8382003E081F8382081F83920020ABF
:104E900012F0020018BF13F8010B81F83C0012F069
:104EA000040018BF13F8010B12F0080281F83D004E
:104EB00016BF1B7881F83E2081F83E300020F0BDFF
:104EC00098C0072073B50025144B0E2202FB053055
:104ED000017B21B90135102DF6D100207CBDA1F157
:104EE0001003032B02D801F0030006E0A1F1200219
:104EF000032AEFD801F00304201D094E002406EB1D
:104F0000C0067F21335DA2B20091E8B200210134D6
:104F100006F00EF9082CF4D1DCE700BF943E001037
:104F20003E00001010B50446006C10B129F043F8A3
:104F30000130236B6168C01809B91F3000E02330CD
:104F4000E28A02B10230618B4FF6FF73B4F91C2084
:104F5000994218BF023002B10230B4F91E10B4F900
:104F600020307F2918BF023003B10230A28C02B179
:104F70000230A16A01B1043094F8383003B1013035
:104F800094F83C2002B1013094F83D1001B1013099
:104F900094F83E3003B1013010BD70B5038804466B
:104FA0000B8000690D464860A18AA9816288268B22
:104FB0006A80AE8294F83A30EB76A0682861E16AA4
:104FC000A96094F83B202A7794F839606E77206CBA
:104FD00010B128F0F0FF0130236B626BC61802B1EC
:104FE000DAB26A76A87622B105F11E00616B28F06C
:104FF00062FFAA7E32B1697E05F11E004018216C65
:1050000028F059FF00206B7EAA7EE881606805F1D8
:105010001E01D2188B1810B906F11F020FE0A87BF1
:1050200040F00400A8736068885461680A0A5A70E6
:10503000E08806F123029870E179D9700433E08AA0
:1050400050B1A97B023241F00100A873E18A1970C6
:10505000E08A010A59700233608B4FF6FF71884273
:105060000AD0A87B023240F00201A973608B18704D
:10507000618B080A58700233B4F91C1051B1A87B37
:10508000023240F00801A973A08B1870A18B080AA6
:1050900058700233B4F91E107F290AD0A87B02325F
:1050A00040F01001A973E08B1870E18B080A58706A
:1050B0000233B4F9201051B1A87B023240F0200134
:1050C000A973208C1870218C080A58700233A18CA7
:1050D00051B1A87B023240F04001A973A08C187036
:1050E000A18C080A58700233A16A79B1A87B0432F6
:1050F00040F08001A973A06A1870A16A080A58706C
:10510000618D997094F82B00D870043394F838109E
:1051100041B1E87B013240F00101E97394F83800B5
:1051200003F8010B94F83C1041B1E87B013240F0E8
:105130000201E97394F83C0003F8010B94F83D1068
:1051400041B1E87B013240F00401E97394F83D007D
:1051500003F8010B94F83E1039B1E87B013240F0BE
:105160000801E97394F83E0018700020E8822A765E
:1051700070BD0000214B70B51A88501C81B2B1F58A
:105180007A7F01D219800BE000221A8013F0A8FE6A
:105190001B481C494FF6FF7303800B8013F0B0FED1
:1051A000194B1A88501C81B2B1F5967F198023D310
:1051B000164A0020188002F14004A2F1080313F8F7
:1051C000011B11F07F0509D00A3D21F07F06002D5B
:1051D000ACBF354346F0000503F8015C13F8015CF1
:1051E0008D4218BF01209342E9D103F10802A24287
:1051F000E3D108B1FFF766FE002070BD3A00001051
:10520000920100102A0300108000001046000010D8
:10521000084B00201880084B08491880084B08806C
:1052200008491880084B0880012119700749087047
:10523000704700BF220200101E020010240200105E
:105240008A4100103C000010180200108E0000106F
:10525000F0B5124B12481D8800220678114B1146FA
:10526000A94216D2D87E5C7960B1B0EB060CDCF1B5
:10527000000757EB0C0767F345145C71824238BF97
:10528000024602E044F020045C71187E01311B18D4
:10529000E6E7054900200A70F0BD00BF1E020010BD
:1052A0001802001098C007208E00001010B5064BA1
:1052B000064C1A882188064814F07AFF0548218890
:1052C000BDE8104014F0C4BF2402001022020010F8
:1052D000E4E3020098C007202DE9F0413D4BA2B065
:1052E000198819B93C4814F063FF6EE03B4814F08C
:1052F0005FFF3B483B4C018800266418354A138801
:105300009E4262D2A578627802A8032D0BD8DFE80E
:1053100005F002040608344906E0344904E0344943
:1053200002E0344900E0344919F080F82778A07889
:10533000033F0025012804F103081BD003282FD1C7
:1053400018E0202D30D008EB0500A378417818F83C
:105350000520032B42EA01200FD105F003010229A9
:1053600014BF20233A23009002A82449024619F0D2
:105370005DF80235BD42E4DB20E02023F3E7A178AD
:10538000022919D115F0010F0CBF20233A2318F878
:10539000052002A800921949024619F047F8013584
:1053A000BD420BDA202DEAD1202F07DD02A81449D7
:1053B000024619F03BF801E02023E8E702A814F0C8
:1053C000F7FE23780136E41898E7002022B0BDE804
:1053D000F08100BF3C0000100BE402001CE402005E
:1053E0002402001098C007202EE4020039E40200D5
:1053F00045E4020051E402005EE4020064E40200BD
:105400006BE40200014B1888704700BF1E020010B9
:10541000014B1888704700BF3C000010014B1888F2
:10542000704700BF220200104FF4C04070470000D8
:10543000F8B5104E1C463588EF1845F6FD739F42AF
:1054400015DC0D4B04F1030E1F8801371F800B4F35
:105450007B1907F805E0033558709970D81C114680
:105460002246641928F027FD34800020F8BD6FF033
:105470000100F8BD220200103C00001098C0072077
:105480000D4B70B51D880D4C63190D4D00242D88F2
:10549000AC420DD25E78864206D198780870D91C4D
:1054A00011601A78D01E70BD1E7801349B19EFE789
:1054B0004FF0FF3070BD00BF2402001098C00720DD
:1054C0003C00001073B50C4615461E460DF1030155
:1054D000002301AA8DF803300193FFF7D1FF0028C4
:1054E00040F3BC809DF80310032900F2B780DFE889
:1054F00001F0020E1E5E25B1421E544394FBF5F4EA
:1055000002E08442A8BF441E0199085DB4E0431044
:1055100025B1591E4C4394FBF5F402E09C42A8BF10
:105520005C1E019B6400181940781B5DA2E00128F5
:1055300001D1019B95E0023816B300258542019BFD
:1055400080F28F805A78D978914206DBA24204DC3F
:10555000A14202DB1D7898784DE08A4203DDA1422A
:1055600001DCA242F6DA991C02350191E6E71178D6
:1055700095788D4208DAA94214DC931C0236019317
:105580008642019AF3DB6EE0A142F4DCA542F2DB35
:105590005378D278641AD01A6043691A90FBF1F2FA
:1055A000981869E0A542E8DCA142E6DBF0E70228B2
:1055B00001DC019B59E0043866B3002502E00433A6
:1055C000043501938542019B4FDADE789A78997908
:1055D00042EA0622DE7941EA0621914213DBA24229
:1055E000EDDCA142EBDB18785D7840EA05255879BF
:1055F0001B7943EA0020A41A401B60438A1A90FBDF
:10560000F2F3E81838E0A142D9DCA242EAE704321A
:10561000043601928642019A2ADA55781178137974
:1056200041EA0521557943EA05238B4212DBA14269
:10563000EDDCA342EBDB9078D578641A40EA0525CF
:10564000D0799279591A42EA0020421B624392FBB8
:10565000F1F3D6E7A342DADCA142EBE74FF0FF30EB
:105660000AE0187808E0507806E058781B7801E0E6
:10567000D078937843EA00207CBDF0B5032810D899
:10568000DFE800F00204080C002405E052080024C2
:10569000012609E052080124002605E092080124B1
:1056A000F6E70024264622460D46002090420EDAF8
:1056B00004B102352F780EB9013504E095F801C028
:1056C000023547EA0C279F4216D00130EEE7002052
:1056D000904210DA04B102310D780EB9013103E0C5
:1056E0004F78023145EA07259D4202D920B10138A1
:1056F000F0BD0130ECE7501EF0BD0000014B187802
:10570000704700BF180200100D4B30B51C880D4BC0
:105710000022A24211D259880905B0EB115F08D1CD
:10572000D97E31B15D7905F02005EDB20DB10846A5
:1057300030BD197E01325B18EBE7002030BD00BFA1
:105740001E02001098C00720038803F47041B1F5D1
:10575000E04F20D00FD8B1F5804F1CD005D8B1F55F
:10576000805F18D0B1F5405F14E0B1F5A04F12D0C2
:10577000B1F5C04F0EE0B1F5204F0CD005D8B1F512
:10578000004F08D0B1F5104F04E0B1F5304F02D012
:10579000B1F5504F0DD1007C00F00F030B2B08D852
:1057A000012202FA03F240F6FE31114009B1002055
:1057B00070470120704730B54FF6FF7441F2110574
:1057C00084818560448300250124002364F3071548
:1057D0000180418001F47041036105747F25B1F5BA
:1057E000E04F8382C382436003838383C583038442
:1057F000C36283848362036380F83A3080F83B306D
:1058000080F8383080F8393080F83C3080F83D300E
:1058100080F83E30436303641CD00CD8B1F5804F50
:1058200013D0B1F5C04F10D0B1F5405F29D1037D41
:1058300064F3010317E0B1F5104F11D0B1F5504FEB
:1058400013D0B1F5004F1CD10AE0027C63F30712BC
:10585000027416E0037D64F3030364F3061302E0AD
:10586000037D64F3030303750BE0017C642263F39F
:1058700007110174C8231421038580F82A2080F8B9
:105880002B10002030BD00000A4B10B51A88904242
:105890000DD2094B00221C7E013282421C4401D8E9
:1058A0002346F8E71846FFF749FA002010BD4FF0ED
:1058B000FF3010BD1E02001098C007202DE9F041F6
:1058C0008046FFF72FFBFF28054624D8164B1E887D
:1058D0008019B0F5C04F22D814490C88B44206D2C2
:1058E000134A2F19D0191119321B28F0EDFA104B59
:1058F00040461F193946FFF750FB387E0D4B0A49C9
:1059000036181A880E800949501C641918800C80BA
:105910000020BDE8F0814FF0FF30BDE8F0816FF06E
:105920000100BDE8F08100BF220200102402001037
:1059300098C007201E0200102DE9F0472F4B304C75
:105940001A88A2B00546002393424FD220882988A6
:10595000884247D1286C20B128F02DFB00F10108C6
:1059600000E080462846FFF7DDFAFF2841D8227E76
:10597000861A06D423490B889919B1F5C04F38DC33
:105980005EB307192048B8F17F0F04EB0209C7EB9B
:10599000000A02D91D4814F00BFC296C39B10DF135
:1059A0000408404628F0FFFAC5F8408001E08DF871
:1059B000041052464946384628F086FA21462846C1
:1059C000FFF7EBFA0F4BB6B21A88B1181980104BDB
:1059D000188836181E8000200DE028462146FFF763
:1059E000DCFAF8E7207E01332418ADE74FF0FF30F2
:1059F00001E06FF0010022B0BDE8F0871E02001048
:105A000098C00720220200109820082072E40200AB
:105A100024020010F8B515681646144C15B1ABB247
:105A2000E4182D0C124A1788BD421BD223888342EA
:105A300014D120460135FFF781F9BD42207E05D201
:105A40000A49431AE418B4F5803F02D300203060BD
:105A5000F8BD44EA054434600020F8BD227E0135DB
:105A6000A418E1E74FF0FF30F8BD00BF98C0072051
:105A70001E020010F8B515681646164C15B1ABB2EB
:105A8000E4182D0C144A1788BD4220D2637903F024
:105A90002002D3B2BBB16288824214D120460135C4
:105AA000FFF74CF9BD42207E05D20A49421AA418DC
:105AB000B4F5803F02D300203060F8BD44EA0544CD
:105AC00034600020F8BD237E0135E418DCE74FF098
:105AD000FF30F8BD98C007201E020010F0B51D6809
:105AE000114C15B1AEB2A4192D0C104E3688B5422A
:105AF00017D2278801350780A08AB5420880217F08
:105B00001170207E05D2084A811A6418B4F5803FCE
:105B100002D300201860F0BD44EA05441C60002058
:105B2000F0BD4FF0FF30F0BD98C007201E020010FE
:105B3000838945F6FE7293420FD80949028BCB1830
:105B40009A82417C01F00802D1B211B190F83B0079
:105B500018775A796FF382025A710020704700BF9C
:105B600098C00720838945F6FE7293420BD8074AF6
:105B700001F00101D3185A7961F3C7125A71437CBD
:105B800061F3C71343740020704700BF98C007201B
:105B9000838945F6FE72934205D80448C3185A79A2
:105BA00061F386125A710020704700BF98C0072029
:105BB000838945F6FE72934204D8034AD318597775
:105BC00080F839100020704798C007202DE9F3476E
:105BD0008846144699460DF10301002301AA8DF869
:105BE00003300193FFF74CFC00284CDD9DF80310B7
:105BF000032903D8DFE801F011060A0E00252F461D
:105C00002E460DE046100025012709E0461001252B
:105C1000002705E086100125F6E7002506462F46F9
:105C200098F839A05444B44203DBB9F1000F07D10E
:105C300004E0002C07DAB9F1000F03D0741E02E073
:105C4000002400E04C46E6B240463146FFF7B0FF84
:105C500067B115B1A200901C00E06000C3B20198CA
:105C6000C1184A78C35C43EA022105E015B160001F
:105C7000421CD6B2019B995DBAEB0400A8F818103B
:105C800018BF012001E04FF0FF30BDE8FC870000A5
:105C900030B5037993B01B07044651D040682A49B8
:105CA000014071B10025C0F30D1001A96A460095AD
:105CB000FFF7B0FEA84201DA284642E0BDF81C30EA
:105CC00000E0238B227902F00F00421E072A35D80C
:105CD000DFE802F0040B11181D242930E088B3EB33
:105CE000900F14BF002001202BE0E188B3EB910F4F
:105CF00024D1022025E0E288B3EB920F0CBF0020F4
:105D000001201EE0E088B3EB900FF2D116E0E188AD
:105D1000B3EB910FACBF0020012012E0E288B3EB9F
:105D2000920F0BDAE5E7E088B3EB900FCCBF0020D1
:105D3000012006E0E188B3EB910FDADD002000E0FE
:105D4000012013B030BD00BFF0FF030010B50023E9
:105D50000749002201EBC300002484540132082AC1
:105D6000FAD10133082BF3D1FFF7ACF8204610BD70
:105D70003E0000100A4B0B490B4A187000204FF6EA
:105D8000FF73086013800949094A0B8010700949A4
:105D9000094A087010700949094A0B80138070473E
:105DA0002002001084000010900000101202001069
:105DB0008A00001028030010210200108C0000103F
:105DC0001602001030B504469DB0002840F0C48093
:105DD000FFF71EFA624D634B634A64484FF6FF714A
:105DE0001C80048011802980FFF7B0FF2046FFF758
:105DF000C1FF012404F5405399B20BA8FFF7DBFC67
:105E00009DF83C10022262F3030104F1230344F4E1
:105E100080409025ADF842008DF83C10D8B28DF846
:105E2000005000A905AD8DF8010018918DF86700AC
:105E30004F4928461792013428F0B5F80BA81B9556
:105E4000FFF73CFD412CD5D1012404F5E04291B28D
:105E50000BA8FFF7B0FC9DF83C00042161F30300A0
:105E6000B02504F10F0244F4C04302218DF83C0038
:105E70008DF8005000A805ADADF842301890D3B2AF
:105E8000179128463B498DF801308DF86730013471
:105E900028F089F80BA81B95FFF710FD412CD4D1F1
:105EA000002001211FF0E8FE49F2010421460BA861
:105EB000FFF781FC9DF83C3004F10F01CDB20422C4
:105EC00062F30303B1208DF801508DF8675005ADE2
:105ED00002228DF83C308DF8000000AB26492846A0
:105EE00018931792013428F05EF80BA81B95A4B202
:105EF000FFF7E4FC49F241008442D7D148F20104A3
:105F000021460BA8FFF757FC9DF83C10042363F3D0
:105F1000030104F10F05E8B28DF83C1005AD00A9AE
:105F2000B22202238DF8010018918DF86700134901
:105F300028468DF800201793013428F034F80BA878
:105F40001B95A4B2FFF7BAFC48F207029442D7D1DE
:105F5000FFF77EF9002001E04FF0FF301DB030BDAB
:105F60002A03001092000010920100102602001077
:105F70009FE40200A8E40200B1E40200BBE40200D6
:105F8000014B1878704700BF2002001073B51D4BFD
:105F90000D461A680646017842B911B91A4928F027
:105FA00002F82846194927F0FEFF29E0C1B9184C2C
:105FB0002378012B0BD9174A1178072907D1164BE3
:105FC000164C1A881649238818F030FA08E00D4854
:105FD0001449C478427883780094304618F026FA41
:105FE0001149124A0B8812884FF6FF74284610494F
:105FF000A24208BF0022A34208BF7F2318F016FA6E
:1060000000207CBD84000010C4E40200D9E402003A
:1060100020020010210200108C0000101602001057
:10602000EEE40200FFE402001202001090000010F3
:106030001AE50200084B0949094A18804FF4004349
:10604000002013800880074A074913800B80074B04
:1060500001211970704700BF2603001014020010C0
:10606000880000107E0000101A0200101C020010B0
:10607000014B1888704700BF2603001000F47040E1
:10608000B0F5E04F35D014D8B0F5405F29D006D830
:10609000B0F5805F3BD0B0F5005F1ED11FE0B0F5DA
:1060A000A04F22D0B0F5C04F21D0B0F5804F14D111
:1060B00019E0B0F5204F22D006D8B0F5004F1AD025
:1060C000B0F5104F09D118E0B0F5404F1BD0B0F536
:1060D000504F1AD0B0F5304F13D00E4870470E48CD
:1060E00070470E4870470E4870470E4870470E487C
:1060F00070470E4870470E4870470E4870470E486C
:1061000070470E4870470E4870470E4870470E485B
:10611000704700BF2BE502003BE5020044E50200AA
:1061200030E502004BE5020059E5020064E502009B
:1061300068E502006CE5020073E5020076E5020006
:1061400079E502007CE5020034E502002DE9F0412A
:106150007C4BD4B01C88002C00F0EF800388A34255
:1061600000F0EB80027C02F00F020A2A00F0E580CA
:10617000754D2E88B3420BD0744F754AD6F1010687
:1061800089B238BF00262B8039801180012301E0BD
:1061900000231E466D4D018BB5F900006C4F814206
:1061A000B8BF2980B7F900206A4DB8BF0123B5F9FF
:1061B00000009142684AC4BF3980012317788142A8
:1061C000B4BF0020012087421CBF1070012329802A
:1061D000002B00F0B2800025204603A902AA0295F8
:1061E000FFF718FCA8420EDA5C480178032940F258
:1061F000A4802046FFF742FF22050146120D5848B1
:1062000013F0D6FF99E006B10F95534C4F4B26780B
:106210004F4916B11F880E8801E00F881E880F9D18
:10622000002D41D048481099B0F800800024AC42BD
:106230002CD208198278437843EA0220404523D1C2
:1062400046490A78032A10D94046FFF717FF01464E
:106250003F483E4BB0F900004FEA0852B3F9003016
:10626000120D00903F4813F0A3FF10990A19D77040
:10627000109B3F0A1819077110990A195671109B43
:10628000360A1C19A67158E00734D0E7F72D07D954
:1062900032490B78032B50D9334813F089FF4CE077
:1062A00014A82A4627F007FE14AA16245455264C93
:1062B00053192188DF70080A5E713F0A360A987008
:1062C00059701F719E719DF81C1010920A2207359B
:1062D00062F3030103A80F958DF81C10FFF72CFB48
:1062E000002815DA174C01302488204605D1FFF725
:1062F000C5FE220501461D4804E0FFF7BFFE01462A
:106300001B482205120D13F053FF6FF0020015E039
:10631000124B1878032810D924882046FFF7AEFEC8
:1063200001460B48094BB0F900002205B3F90030D3
:10633000120D00900F4813F03BFF002054B0BDE851
:10634000F08100BF26030010140200108800001026
:106350001A0200107E0000101C020010C03D001048
:1063600083E50200BBE50200FAE502004CE602000C
:106370009FE60200DEE6020073B51C4B0D461C884A
:106380000646017844B911B9194927F00CFE284690
:10639000184927F008FE26E0A1B92046FFF76EFE57
:1063A0001549024615480978B0F9000000290CBFCC
:1063B0003C213E2123058DE803001B0D304610498A
:1063C00018F034F80C480F4A01780F4B00290CBF25
:1063D0003C203E20B2F90020B3F900300B49009078
:1063E000284618F023F800207CBD00BF14020010DE
:1063F00019E702002EE702001C0200107E000010C8
:1064000043E70200880000101A02001055E702005E
:1064100030B5A04BA9B019780446002900F0DC8003
:106420009D4A1368002B00F0D780002506A903AA17
:106430000395FFF71FFBA8423DDA984B1878032815
:1064400008D92046FFF71AFE22050146120D94488E
:1064500013F0AEFE00210491204617A904AAFFF70D
:10646000D9FA8E4B0028187814DB032808D9204667
:10647000FFF704FE22050146120D8A4813F098FE2C
:106480000134A4B22105E7D1874813F091FE4FF003
:10649000FF30FCE0032808D92046FFF7EFFD250573
:1064A00001462A0D814813F083FE06A82146FFF716
:1064B00082F901252AE09DF8280000F00F010A2941
:1064C00015D1129921B1139A1378142B00F08480FE
:1064D00072480178032940F281802046FFF7CEFD03
:1064E00022050146120D724813F062FE76E06B4AF7
:1064F0001378032B0AD92046FFF7C0FD014620057B
:10650000020D00926B480B4613F052FE614A11785F
:10651000012903D0684B1878072830D05E480168FD
:1065200001F00F03A3F10802062A5AD8DFE802F0AF
:1065300004040404171717009DF82820073B63F391
:106540000302554B8DF8282005A913915A789978A4
:10655000022012908DF814208DF8151029E09DF876
:106560002810D81F60F303014B488DF8281041789C
:10657000012305AA129313928DF8141039E09DF8A7
:106580002810092262F3030104238DF828101293C6
:1065900041494A4B05A84A78139018888DF8142071
:1065A000C1B2020A01238DF815108DF816208DF85E
:1065B00017308DF853101CE0384B1A78032A08D98D
:1065C0002046FFF75BFD01463D482205120D13F002
:1065D000EFFD0020FFF7CEFB002058E06FF0010038
:1065E00055E02E48017803292CD9364813F0E0FDF8
:1065F00028E035484FF6FF720188914245D08BB2B2
:106600003248ADF834300188914214BF89B27F21FD
:10661000ADF83610CDB19DF8290040F0200106A854
:106620008DF82910FFF74AF90028C5DA2046FFF750
:1066300025FD2305014626481A0D13F0B9FD00205B
:10664000FFF798FB6FF0020021E006A8FFF774F94E
:1066500000280FDA01304FEA0455204604D1FFF735
:106660000DFD01461B4803E0FFF708FD01461A48EF
:106670002A0DE2E7094A1378032BAAD92046FFF72F
:10668000FDFC220501461548A0E70023B8E729B024
:1066900030BD00BF2002001084000010C03D00107B
:1066A00068E702009AE70200D7E70200FEE702006F
:1066B0002BE802007AE80200210200108C00001092
:1066C0001DE90200B9E8020090000010120200105B
:1066D000E1E802004BE902009DE90200DBE902006B
:1066E00010B53B49044627F01BFC00284BD0204640
:1066F000384927F015FC002848D02046364927F0B5
:106700000FFC002845D02046344927F009FC00281A
:1067100042D02046324927F003FC00283FD02046D3
