:020000040800F2
:10000000005000208D010008890100080000000058
:10001000890100088901000889010008000000002A
:10002000000000000000000000000000890100083E
:10003000890100080000000089010008890100080A
:100040008901000889010008890100088901000868
:100050008901000889010008890100088901000858
:100060008901000889010008890100088901000848
:100070008901000889010008890100088901000838
:100080008901000889010008890100088901000828
:100090008901000889010008890100088901000818
:1000A0008901000889010008890100088901000808
:1000B00089010008890100088901000889010008F8
:1000C00089010008890100088901000889010008E8
:1000D00089010008890100088901000889010008D8
:1000E00089010008890100088901000889010008C8
:1000F00089010008890100088901000889010008B8
:1001000089010008890100088901000889010008A7
:100110008901000889010008890100088901000897
:100120008901000889010008890100088901000887
:100130008901000889010008890100088901000877
:10014000890100088901000889010008A11600083A
:100150008901000889010008890100088901000857
:100160008901000889010008890100088901000847
:100170008901000889010008890100088901000837
:100180008901000889010008FEE70000684620F0A8
:1001900007018D4601B500230A4A0B499818884289
:1001A00004D20A49585898500433F5E7084B094AD5
:1001B000934203D2002043F8040BF8E700F00CF858
:1001C000FEE700BF0000002040000020183A0008B1
:1001D00040000020F02000202DE9F743002000F02F
:1001E00067FF002001F00EF9012001F0A3F8684636
:1001F00001F081FE002401238DF805408DF80430C4
:100200008DF80640B5490A196058958802AE0583F5
:100210006946083446F8085D01F020FE182CF1D13B
:100220000027AF4CE31938599A8802A9028341F894
:10023000082D0837694601F011FE302FF1D1002654
:10024000A84DAF197059BC8802AB44836946083683
:1002500043F8084D01F002FE182EF1D1A24D0826F8
:10026000284669460096802401F0F8FD2E839F4DB4
:10027000DFF87C8208264FF020094FF40057A8F8D9
:100280001A9001206F836E8301F0DEF8A8F81890B1
:1002900001202F832E8301F0D7F8013CE7D12046BF
:1002A0008F4A131881589D88083030284D83F7D124
:1002B000012001F0C9F80027894EF019BC59828845
:1002C0000837302F2283F7D1012001F0BDF8002537
:1002D00001218DF804508DF80710804B5F1902AC96
:1002E000BE88E85844F8086D6946083501F0B6FD47
:1002F000182DF2D100257A48421902A9938828586E
:1003000041F8083D0835694601F0A8FD302DF2D1CD
:100310000027744EF41902A8A588694640F8085DC4
:10032000B859083701F09AFD182FF2D1704F6420A8
:1003300001F028F83A6902F0010501F0C0F9C6B2EF
:1003400016B93B69D9070BD53DB18020012101F0D9
:100350002FFE8020002101F02BFE002001F0B6F9D5
:10036000002000F02FFB002000F024F9B6B960490E
:100370000C69E20770D45F480778422F6CD15E4A5F
:100380001678002E68D001F0DDFC0120002100F07D
:10039000E5FF5A4BDF78082F46D103E0102000F02C
:1003A000DDFA59E06FF00700012101F0F5FD6FF073
:1003B0008000012101F0FCFD4FF0FF30012101F030
:1003C00003FE4FF0FF30012101F00AFE4FF0FF3035
:1003D000002101F0E1FD4FF0FF30002101F0E8FDC8
:1003E0004FF0FF30002101F0EFFD4FF0FF30002112
:1003F00001F0F6FD45B18020012101F0D9FD8020FA
:10040000002101F0D5FD08E001F059F928B13C4880
:10041000D0F8E4550DB102F011FB3A4E346884F384
:10042000088836490A68904700F0D4FF0120014649
:1004300000F094FF00F0D8FF40F2F31398421F46FB
:10044000F8D900F0C7FF0120002100F087FF00F07D
:10045000CBFFB842FBD9E7E700F0BCFF00F0C4FFD8
:100460003227B0FBF7F364210446B3FBF1F001FB44
:10047000103242F21073B4FBF3F1560841F28830A7
:1004800003FB11428242B4FBF7F307FB134188BF21
:10049000C6EB07060120B14294BF002101210A27C3
:1004A00000F05CFFB4FBF7F607FB16440CB900F054
:1004B000AFFD002000F040FD00F096FF44F61F6104
:1004C0008842CBD900F080F80028C7D1002D3FF436
:1004D0005AAF074A1069C307C0D454E74037000831
:1004E0005837000828370008001002400004024076
:1004F00000000240D23F0008D33F0008044000083B
:10050000B415002000400008124B1A78032A10B5D9
:100510000BD811490C6800F07F004FEAC41444EA7C
:10052000001008600FD104220EE0072A0FD80B49F3
:100530000C6800F07F004FEAC41444EA0010086021
:1005400001D1082200E001321A70002010BD4FF0E6
:10055000FF3010BD040500204000002050000020A6
:1005600070B5134B88B016461A7804460D468DF8C0
:1005700000209978DA7858781B798DF802108DF878
:1005800003208DF801008DF8043000F089FD8DF80E
:100590000500F7208DF808006946204609228DF8ED
:1005A00006508DF8076000F087FA08B070BD00BFF4
:1005B0008838000810B9034B187070474FF0FF30AF
:1005C000704700BF05050020014B1878704700BF39
:1005D000050500202DE9F04198460C4615460646D3
:1005E00000F052FD00F0F6FEB8F1010F04D0B8F1B2
:1005F000020F40F0A38189E0B14B14B1012C0AD164
:1006000004E01C70AF4BB04A1C6092E019780729D7
:1006100000F2918197E01978082903D030460E2125
:100620000122E5E0A948AA4C02784378817822703B
:10063000C2780079A34FA44D6370A170E27020715D
:100640003F682D6800F02CFD4FEA556E6071780E02
:100650000223E071C7F386417044A3712172C7F38E
:10066000C62341186372C7F3061253FA81F3C5F328
:100670008640A27252FA83F250FA82F1C5F3C62381
:1006800053FA81F22073C5F3061050FA82F16373B6
:100690000023A07384F80BE0C9B21A460F34184641
:1006A000A84221D010F807E04FF0080C01335200A7
:1006B000DBB242EADE12062B4FEA4E0ED2B25FFAEE
:1006C0008EFE0AD9C3F1070302FA03F2D2B251181F
:1006D000002304F8012BC9B21A460CF1FF3C1CF0B0
:1006E000FF0CE3D10130DBE71BB18B1804F8012BC1
:1006F000D9B24A42764902F07F00F723A21C20704B
:1007000063703046521A00F0D7F914E114B1012C8D
:1007100053D110E06A4B6B496B486E4A1C700C60F9
:1007200004606D4B6D496E4814706E4A1C700C600D
:1007300004601460FFE062480178072907D8654922
:1007400008782A180A702846FFF7DEFEF3E0082929
:100750002BD160480278AB18037060480368B3F58A
:10076000806F80F0E880584E5E4F5D4C3668386888
:10077000226807240132C5F380176D00072A47EA73
:100780004000EDB206D9524AD0540133B34228BFDB
:1007900009210022013CEDD1524C206050480260FA
:1007A0004E4A1360464B1970C5E0092902D14A4BE5
:1007B0001D70C0E00C220270BDE0434B47481F682B
:1007C0000168B942FFF42AAF3D4A13780C2B03D1DC
:1007D00030460E2142460BE03E4A3F4813780178EE
:1007E000584200F07F02914205D030460E2103228C
:1007F000FFF7B6FE9FE0334B3B4901240C701C68A9
:1008000044EA0700830740F08C80384A944202D8BB
:100810006FF0070087E000F0DFFC00F100614B1E85
:100820009C426DD801F080FA00230C2159433048D6
:100830000A58944224D12F492F488C4201D10022DA
:1008400002600121006801FA03F1014203D02B4D3F
:100850004FF000082EE041EA000227490A60244ACE
:100860000C2000FB03230221586801F0C1FA08287C
:10087000EDD04FF0FF3001F06DFA6FF0030052E061
:1008800001330C2BD1D1E2E76B7829781A0442EAC4
:10089000012315F8011CAA780B4343EA026101F019
:1008A00089FA04350828E4D101F036FA01F02CFA6F
:1008B00008F10408B84508EB0400E5D342E000BFA6
:1008C0000405002040000020500000208838000867
:1008D000580000204C00002054000020000500209B
:1008E000080500204400002005050020FF3F000807
:1008F0008837000800400008480000205900002008
:10090000B4F1005F84D300F06FFC00F10050421E90
:1009100094423FF67DAF20460E493A4602F0FAFE79
:1009200010E06FF0080043420E213046DAB2FFF7C4
:1009300017FE00F06DFB0020BDE8F0814FF0FF30A6
:10094000BDE8F0810449087842420F21304602F0A8
:100950007F02ECE7580000204C00002010B5114B3E
:1009600088B01A7899788DF800200446DA7858789B
:100970001B798DF802108DF803208DF801008DF899
:10098000043000F08DFBF7218DF8050001208DF873
:1009900006008DF8071020466946082200F08CF802
:1009A00008B010BD8838000808B52020FFF7D6FF32
:1009B0001020FFF7D3FF024B0020187008BD00BFC6
:1009C0000505002010B5044600282CD1174A184907
:1009D000102313700B70174A174B184918601060DA
:1009E0000860174B174A184918601060086000F03B
:1009F0006DFF164B164A1C70164B174914701C706D
:100A00000A78C00F422A04D114490A78110658BF47
:100A10001A70134B00211980124900220023C1E9EA
:100A20000023404210BD4FF0FF3010BD00000020F9
:100A3000010000200C0500201405002038050020CE
:100A40003C05002028050020180500201C0500207A
:100A5000200500201D050020D03F0008D13F0008E0
:100A60001E0500203005002010F0F00F38B50446B8
:100A70000D4604D101280CBF0C4B0D4B1C780D4BBF
:100A80001A6864F3071542B904F0F004102C0AD177
:100A90002846BDE8384000F087BF204629469047E9
:100AA0000028F1D038BD4FF0FF3038BD01000020E4
:100AB000000000200C0500202DE9F04180460E4684
:100AC00017460024BC4235D23B1B022B0DD0032B12
:100AD00019D0012B19D1325D052161F3030562F3B1
:100AE0000F2501346FF317450AE03119305D4A785C
:100AF000062363F3030560F30F2562F31745023401
:100B00006FF31F650FE0072000E0042060F303058A
:100B10003019335D4178827863F30F2561F317450F
:100B200062F31F65033440462946FFF79DFF002806
:100B3000C8DA00E00020BDE8F081000030B5A1B0C7
:100B4000F0238DF80030134B7E2232258DF80320E0
:100B50001A788DF8045000240F258DF801408DF887
:100B600002408DF805208DF8065002AB0D5D5A1E2F
:100B700035B101341A4603F8015C0133642CF5D118
:100B8000F72102F8011B6946521AFFF795FF21B0C1
:100B900030BD00BF1D05002000B589B0F0238DF8E1
:100BA000003000238DF801308DF802307E238DF85F
:100BB000033032238DF80430084B8DF806101B7873
:100BC0008DF80720F7218DF80810092269468DF865
:100BD0000530FFF771FF09B000BD00BF1D05002003
:100BE000F0B5454E8BB0337804460D461746FFF7F7
:100BF000F1FC00287CDA31780D295AD001D829B1CE
:100C000069E00E2974D00F2965D15AE03B4B1DB124
:100C1000012D03D11F706BE01D7069E01878052865
:100C200029D011D8022820D004D801283DD120464F
:100C3000334937E003281BD0042836D100F0C6FA28
:100C400030490246684623E0082826D006D8062800
:100C500019D0072829D100F0C7FA16E009281FD0BB
:100C60007F2822D1FFF7A0FE42E02046264919E066
:100C70002046264916E0684600F0BAFA00282046C9
:100C800009DA23490EE000F0A7FA22490246684635
:100C900001F010F82046694604E020461E4901E0B4
:100CA0001E492046FFF74AFF22E020460E210D2272
:100CB00004E0022D1CD120460E211022FFF76CFF0C
:100CC00016E0174A0DB1012D01D1556010E05268B0
:100CD00072B92046F2E70E210A462046FFF75CFF74
:100CE0000F49054B0A7800206FF307020A7018704D
:100CF00000200BB0F0BD00BF100500204005002013
:100D0000283800084A3800082F3800084038000802
:100D10004F38000851380008543800086638000879
:100D200020050020F72910B50A465AD82E4B19780D
:100D300001F0080303F0FF041BB12C4B1B78834226
:100D40004CD1A0F11103062B48D9284B187004BBD5
:100D50002548037803F00703042B03D82448C05C1C
:100D6000904221D101F00701052903D121480178E2
:100D7000914219D15A1C1C4B197802F0070060F3FC
:100D80000201052819702CD9CAB242F00800187067
:100D900027E0130611D5F72A06D101F01001CBB2D6
:100DA00013B10221FFF71CFF0F4B134A19780020E3
:100DB0006FF307011970107010BD01F01004E4B258
:100DC00044B9094B197841F0100119700A4B2146BA
:100DD0001A7000E00121FFF703FF02E04FF0FF303F
:100DE00010BD002010BD00BF200500201C05002004
:100DF000883800081D0500201005002001F00F03B1
:100E00002DE9F0470F46C1F30728C1F307494FEA20
:100E1000116A03F1080101F00F010629064602D804
:100E2000002A5ED180E0B8F1F00F08D003F10C0089
:100E300000F00F0103292CD8B8F1F60F29D03C4956
:100E4000D1E9004554EA050023D106F0F004302C26
:100E50004FF000000CD0502C13D0102C19D1354C71
:100E6000208006F00F00012404FA00F0088010E052
:100E7000304C208006F00F00012404FA00F0488076
:100E800007E02C4C208006F00F00012404FA00F04B
:100E900088800F2B48D8DFE803F022222222081C8A
:100EA00028284747474747474708B8F1F70F16D85C
:100EB0003046414607F00F07FFF734FF0F2F33D0BE
:100EC00049463046FFF72EFF30465146FFF72AFFCE
:100ED0002AE0B8F1F70F02D8B8F1F60F05D11AB32E
:100EE000304627F0F00190471EE01A1F12F0FF0471
:100EF0001AD030464146FFF715FF012C0CD0304682
:100F00004946FFF70FFF022C05D030465146FFF748
:100F100009FFD04600E0C846B8F1F70F04D10449F4
:100F200000220023C1E900230020BDE8F08700BFB4
:100F3000300500201E05002013B5044601A800F06E
:100F40004BFD002807DB0199C1F303101030224646
:100F5000FFF754FFF2E72849D1E9002352EA0300E2
:100F600047D0264B1888B0F57A7F42D90A8862B1FB
:100F7000002142FA01F313F0010003D101311029DD
:100F8000F7D101461031C8B21AE04B885BB143FA81
:100F900002F010F0010103D10132102AF7D10A4604
:100FA0003032D0B20CE0888850B140FA03F111F031
:100FB000010203D10133102BF7D113465033D8B2BD
:100FC0000F4B1A7802F00801C9B249B10D490978EE
:100FD000814205D16FF307021A700B4B00221A7081
:100FE0000A490A6802B19047034800220023C0E979
:100FF000002300201CBD00BF300500201E0500207E
:10100000200500201C050020100500203C050020C4
:1010100010B500F00DFD044600F048F8054B1A88A5
:101020004FF6FF718A4240EA040001D001321A8073
:1010300010BD00BF1E050020114BF7B51C68074608
:10104000E4B1C1F30764C1F30720C1F307420D4DBA
:101050008DF8064001F00F0100246E5C8DF804004D
:101060008DF805202546B54208DA01AA044B515DEA
:101070001B683846984701350443F4E72046FEBD17
:101080001405002018380008012803D0034B1870FD
:10109000002070474FF0FF30704700BF0100002074
:1010A000014B1878704700BF1D05002000207047D5
:1010B00013B5044600287AD11F20012100F03CFF1F
:1010C0003C4B00949A6802F00C00082802D10120E1
:1010D00000905DE0196841F001021A609C60186898
:1010E00020F08471344821F480321A605860196805
:1010F00021F480221A60DC600194186840F4803189
:1011000019602C4B1A6802F40030009001994A1CB7
:101110000192009818B90199B1F5A06FF1D11B683F
:1011200013F4003218BF01220092009801282FD139
:10113000204B2248196C41F080521A64016841F436
:101140008042026098689860996841F400429A6011
:1011500098681B4A40F4A05199605A60186840F0A2
:10116000807119601868134A8101FBD5154B40F254
:1011700005611960906820F003019160936843F065
:10118000020090600B4A916801F00C03082BF9D122
:101190000D48002100F0A8FD4FF4407000F09AFDCA
:1011A000009A012A14BF4FF0FF30002001E04FF0F9
:1011B000FF301CBD00380240103000240070004099
:1011C00008544007003C024000000008014B18682A
:1011D000704700BF002004E0024B188881B28802EB
:1011E000704700BF227AFF1F4FF440307047000065
:1011F00000230B4A591089180A78D90758BF1209D9
:1012000002F00F02092A94BF302137218A18C254F4
:101210000133182BEDD1002101760846704700BF3D
:10122000107AFF1F074B1A681AB9EFF310810648AE
:1012300001604FF0010080F310881A68511C19609A
:10124000002070474805002044050020074A136825
:101250003BB1581E106038B905490A6882F31088FE
:1012600002E04FF0FF307047002070474805002033
:10127000440500200F291CD80F4BDA68D343C3F371
:101280000222C2F1040301FA03F1090100F16043F3
:10129000CAB203F56141012381F8002342B200F094
:1012A0001F00510903FA00F2044840F821200020F1
:1012B00070474FF0FF30704700ED00E000E100E0C4
:1012C00073B5054668460E46144600F014FE022328
:1012D0008DF805300096062C29D8DFE804F02604A6
:1012E000090F13181D0003208DF80400002302E0ED
:1012F00000238DF804308DF8073012E000228DF8BD
:101300000420F8E700218DF804100123F3E7012001
:101310008DF80400002302E001238DF804308DF8DD
:1013200006302846694600F099FD002001E06FF084
:1013300001007CBDC30710B5044605D506484FF42F
:1013400080510522FFF7BCFF34F00F0314BF6FF08C
:101350000100002010BD00BF000C0240C20707D5ED
:10136000074B11F0010F4FF4805214BF1A835A83B8
:1013700030F00F0314BF6FF001000020704700BF72
:10138000000C024030B5012185B00446102000F069
:10139000EBFD54204443611E0D4CADF804104FF694
:1013A000FF730025204601A90293ADF80C50ADF85B
:1013B000065000F021FE01210A46204600F066FE9C
:1013C0002046012100F056FE284605B030BD00BF82
:1013D000001000400348012108B5416200F06AFE98
:1013E000002008BD00100040054810B50121446AE6
:1013F00000F055FE00280CBF20464FF0FF3010BD16
:10140000001000401FB50446B8B90120014600F0A5
:10141000B7FDA7204FF6FF73ADF8040001A90948F6
:101420000293ADF80C40ADF8064000F0E5FD05482C
:10143000012100F01FFE204601E04FF0FF3004B014
:1014400010BD00BF00000140044B596A89B25A6ABE
:10145000521A92B28242FAD900207047000001402D
:1014600012230B8000487047C838000804230B8003
:1014700000487047C438000870477047704770478D
:1014800070470020704700207047000065230B80E4
:10149000004870470739000810B50B4B8CB098789E
:1014A0001A888DF8060002A80C46ADF80420FFF754
:1014B0009FFE0028ACBF02A801A80449224601F003
:1014C0009BF902480CB010BDF838000888200020B5
:1014D00070B5164B86B00A4601AC03F110061868C9
:1014E0005968254603C50833B3422C46F7D11888FE
:1014F000002328800E495818017859B120395F29F6
:101500008CBF002101210133202B06D00029F1D10D
:1015100001A805E0002BFBD001E00029F8D0044829
:10152000044901F069F9034806B070BD5438000859
:10153000E03F000888200020FFF7CABFFFF7C8BFC0
:101540001146FFF7C5BF00001FB5084C0A462068CA
:10155000616801AB03C3A068054C1860214601A86F
:1015600001F04AF9204604B010BD00BFFB38000866
:1015700088200020022908B503D10846002100F088
:101580006DFA002008BD012908B503D108460021E5
:1015900000F05CFA002008BD10B50221044601F0FD
:1015A000C1FD2046812101F0BDFD002010BD0020BD
:1015B00000F092B9012000F08FB90000022110B5AF
:1015C000402204460B4601F08CFD8121402202237B
:1015D000204601F086FD0221034A0448402301F021
:1015E000BAFD002010BD00BF44200020B41500202B
:1015F000F7B5274B1D78002D48D101242046214600
:101600001C7000F099FC4FF4D8500090032602277C
:1016100020488DF8056069468DF804708DF80650F5
:101620008DF8075000F01AFC1A4808210A2200F031
:101630006BFC184809210A2200F066FC15480B21B2
:101640000A2200F061FC0A2212480C2100F05CFC26
:101650004FF4806100910F488DF8047069468DF851
:1016600007408DF8056000F0F9FB0A210A46094899
:1016700000F04AFC4FF48040214600F081FC8020BD
:10168000214600F065FC204600F038FBFEBD00BF9F
:101690004C0500200000024043200821FFF7EABD6E
:1016A000014801F031BE00BFB415002080B2FFF741
:1016B000CBBE4FF47A73584380B2FFF7C5BE4FF0EC
:1016C000A0431868C0F3C04070470000022837B537
:1016D000054642D8FFF7F3FF0446FFF768FF45BB16
:1016E00014F0FF0F25D01E4C2046FFF781FF1D4848
:1016F0001D491E4AC4F8E405C4F8E8152046012136
:10170000C4F8EC2501F0EAF8204601F090F92046F3
:1017100001F000FA2046FFF7BFFF01210323204616
:1017200084F8101184F81231FFF748FFFFF742FFE9
:1017300011E00D4B0D4A009301210A4B084800F0BF
:10174000BBFD074801F08BFD4CF25030FFF77CFEEB
:10175000034801F07CFD002001E04FF0FF303EBD6A
:10176000B4150020903800086C390008DC380008F7
:1017700070B5254CD4F8E435002B43D0FFF752FD6B
:1017800022480178002939D0D4F8DC63B608B3B216
:10179000002B33D01E4A108881B21BB2C1F50072F3
:1017A00093422BDA00241B4D55F82450C5F3031047
:1017B00010302946FFF740FC90B9174B174A19889B
:1017C00089B242F8215019884A1C91B2B1F5007FC4
:1017D000198028BF18800E4803885A1C91B20180D6
:1017E0000134301B03B2002BDDDC0849064800221F
:1017F0000A7040230221074A01F0ADFCBDE87040A9
:10180000FFF724BD70BD00BFB4150020581500209F
:1018100050050020442000205A150020580D0020BB
:10182000234BD3F8E40510B5002840D0FFF7FAFCAD
:1018300020490A78002A36D11F4B188881B2002926
:1018400031D01E4A107800282DD019888AB2102A6B
:1018500098BF1988174B94BF89B2102101201870C6
:1018600015480288531A9AB2028000220BB29A429B
:1018700013DA134B13481C88A4B250F824401248C2
:1018800040F822401888013080B2B0F5007F1880FF
:1018900001D3002018800132E8E705480A4A812177
:1018A0009B0001F075FCBDE81040FFF7CFBC10BDF8
:1018B000B4150020540D00205E1500206215002094
:1018C000601500205405002064150020002814BF76
:1018D0004FF0FF30002070470D49002310B50B80FA
:1018E0000C4C0D4923800B800C4C0D4923700B8050
:1018F0000C4C0D4923801A460B800C4C0C4B0121DB
:1019000010B121701A7001E022701970002010BD12
:10191000500500205A1500205205002058150020BF
:101920005E1500204E050020601500206215002085
:10193000540D002038B5184C2378054613B94FF0E4
:10194000FF3038BD154801888AB2B2F5FF7F07D94C
:10195000FFF766FF2378002BF1D06FF0010038BD50
:10196000FFF760FC0E4B0F49188882B2501C41F8FB
:10197000225082B21A80198888B2B0F5007F01D354
:1019800000221A80054B1988481C82B21A80FFF782
:101990005DFC002038BD00BF621500205E150020F0
:1019A0004E0500205405002010B504462046FFF7E0
:1019B000C1FF831C08D1074B1A8842F20F718A427B
:1019C00007D8501C1880F1E7002802DB014B0022E9
:1019D0001A8010BD5C150020124B10B50446188803
:1019E00081B2D9B1FFF71EFC0F4B10491A8890B293
:1019F00051F8202022601C88601C81B2B1F5007F64
:101A0000198001D300221A80064C2388581E81B207
:101A10002180FFF71BFC228890B210BD4FF0FF30F1
:101A200010BD00BF5005002052050020580D0020B9
:101A300008B5054801F05EF818B9FFF799FEFFF701
:101A4000EFFE002008BD00BFB4150020024B0022AD
:101A50001A70FFF7E5BE00BF540D0020024B0122B3
:101A60001A70FFF785BE00BF5815002020B103682B
:101A7000197001684A1C026070472DE9F843141E72
:101A80008046894601DC20270FE0002219F8021069
:101A900009B10132FAE7A242B4BFC2EB04040C461A
:101AA00013F0020F0CBF20273027DB070CD425468C
:101AB000002D05DD40463946FFF7D8FF013DF7E729
:101AC00024EAE476A41B00E000263546C6EB0903B1
:101AD000595D21B14046FFF7C9FF0135F6E72646BB
:101AE000002E05DD40463946FFF7C0FF013EF7E70F
:101AF000002CACBF2819281CBDE8F8832DE9FF474E
:101B00000C9EDDF8348081460C4651B930228DF8A8
:101B100004208DF80510324601A94346FFF7ADFFBA
:101B200035E033B10A2A04D1002902DA4C420127F8
:101B300000E0002704AD002305F8013DAA466CB182
:101B4000B4FBF2F302FB1344092C02DD0E993A397F
:101B50006418303405F8014D1C46EFE787B14EB1EB
:101B600018F0020F06D048462D21FFF77FFF013EF7
:101B7000012705E02D2005F1FF3A05F8010C0027AB
:101B80004846514632464346FFF777FF381804B0BF
:101B9000BDE8F087F0B589B006460D4605920024F1
:101BA0002B7823B1252B79D168786A1C28B9002EAF
:101BB0007BD030680022027077E025286DD02D2878
:101BC00002D1AA1C012300E0002317460132397814
:101BD000302902D143F00203F7E700223978A1F15E
:101BE00030005FFA80FC3D460137BCF1090F03D895
:101BF0000A2505FB0202F1E7732909D1059F391D6A
:101C0000059139682A4F3046002908BF394641E01E
:101C100064290ED18DE80C00059961230293081DFB
:101C2000096805900A2230460123FFF767FF241850
:101C300039E0782906D10599081D8DE80C0005903A
:101C4000612207E058290AD10599081D8DE80C008A
:101C50000590412202923046096810220BE0752956
:101C60000BD18DE80C00059961230293081D0968CA
:101C700005900A2230460023D7E7632913D105993E
:101C8000081D0968059000208DF81C108DF81D00B6
:101C900007A93046FFF7F1FEC9E715463046297817
:101CA000FFF7E4FE013401357AE7204609B0F0BDC4
:101CB000883900080EB40FB505AA019052F8041B2C
:101CC00001A80392FFF766FF04B05DF804EB03B0D0
:101CD0007047000040F0BF60024B40F40031D96013
:101CE000704700BF00ED00E021F0604121F07F026D
:101CF000014B10439860704700ED00E0014B5861C4
:101D0000704700BF003C0140024B1A6842F400607B
:101D100018607047003C0240024B1A6842F4805041
:101D200018607047003C0240044B1A69002A04DA2C
:101D3000034800F18831586059607047003C024008
:101D400023016745024B1A6942F000401861704751
:101D5000003C0240014BD860704700BF003C02408D
:101D60000B4BDA68D0030DD4D868C1060CD4D968FF
:101D700011F0EF0F0AD1DB6813F0020F0CBF08203F
:101D800007207047012070470520704706207047E4
:101D9000003C024007B508238DF80730FFF7E0FF4D
:101DA0008DF807009DF807000128F7D09DF807007F
:101DB0000EBD000070B505460E46FFF7EBFF082884
:101DC00013D10A4C236923F440702061216941F446
:101DD00000722261236943F0010020612E60FFF749
:101DE000D9FF216921F00102226170BD003C02404F
:101DF00070B5064641B1012908D0022914BF4FF43D
:101E000040754FF4007503E00D4601E04FF4807516
:101E1000FFF7C0FF08281ED10F4C236923F4407040
:101E2000206121690D432561226922F0F8032361B5
:101E3000206940F002010E432661226942F480339A
:101E40002361FFF7A7FF216921F0020222612369C4
:101E500023F0F801216170BD003C0240F0B50E682E
:101E60000022012303FA02F303EA06059D423ED154
:101E700007680C79530027FA03F707F00307A74216
:101E80000DD007684FF0030C0CFA03FC27EA0C078F
:101E90000760076804FA03FC4CEA07070760013C87
:101EA000012C17D88768032404FA03F427EA0407EF
:101EB00087604C79876804FA03F43C438460446883
:101EC00024EA05058C794560456804FA02F4A4B259
:101ED0002C434460C568032404FA03F425EA04058E
:101EE000C560CD79C46805FA03F32343C3600132AA
:101EF000102AB6D1F0BD00214FF6FF7303600171C7
:101F000041718171C171704701F00703C90808313F
:101F100030B59B0050F821500F2404FA03F425EA51
:101F2000040440F8214050F8214002FA03F214431F
:101F300040F8214030BD0000044B1A6B09B110433A
:101F400001E022EA00001863704700BF0038024039
:101F5000044B5A6B09B1104301E022EA00005863B8
:101F6000704700BF00380240044B1A6C09B110439F
:101F700001E022EA00001864704700BF0038024008
:101F8000044B5A6C09B1104301E022EA0000586486
:101F9000704700BF00380240044B1A6909B1104372
:101FA00001E022EA00001861704700BF00380240DB
:101FB000044B5A6909B1104301E022EA000058615C
:101FC000704700BF00380240044B1A6A09B1104341
:101FD00001E022EA00001862704700BF00380240AA
:101FE000044B5A6A09B1104301E022EA000058622A
:101FF000704700BF003802401C4A038890429BB2E1
:1020000012D002F5806290420ED0B0F1804F0BD01A
:10201000A2F58032904207D002F58062904203D050
:1020200002F58062904203D14A8823F07003134383
:102030000F4A904208D002F58062904204D023F407
:1020400040730A899BB2134303804B680A88C362BA
:10205000064B0285984203D003F58062904201D17D
:10206000897A018601238382704700BF0000014006
:1020700000100040038819B199B241F0010303E058
:1020800023F001010A04130C0380704783899BB27B
:102090000AB1194301E023EA010181817047038AF3
:1020A000828911EA030092B203D011420CBF0020D2
:1020B00001207047C9438AB202827047D0F8E835E0
:1020C00010B5044618698047032184F812110020D6
:1020D00010BD08B590F81231042180F8133180F852
:1020E0001211D0F8E805C2689047002008BD08B575
:1020F000D0F8E435D96901B18847002008BD08B59A
:10210000D0F8E435196A8847002008BD08B5D0F832
:10211000E435596A8847002008BD002110B54022E7
:1021200004460B4600F0DDFF8021402200232046BC
:1021300000F0D7FFD4F8E805012384F81231416894
:10214000A0788847002010BD13B56946044600F00A
:1021500023F99DF8001001F01F03012B0CD006D3CA
:10216000022B0ED12046694600F046F90EE02046CB
:10217000694600F0BBF909E02046694600F09EF987
:1021800004E0204601F0800101F01DF800201CBD94
:1021900070B50446002947D190F81131022B37D190
:1021A000D0F83821D0F824319A4211D9D21AC0F887
:1021B0003821C078012804D1D4F82811CB18C4F8EC
:1021C00028312046D4F8281192B200F0B5F81FE06B
:1021D000D0F83C51B5FBF3F603FB16565EB99D42B1
:1021E00009D3D0F84021954205D2324600F0A4F838
:1021F000C4F840610CE0D4F8E405C16829B194F852
:102200001231032B01D120468847204600F0B5F853
:1022100094F81621012A10D1094920690B6800227F
:10222000436084F8162108E0D0F8E4355B6923B1F7
:1022300090F81221032A00D19847002070BD00BFFA
:102240008420002010B5044659BB90F811110329D1
:1022500030D1D0F89023D0F87C339A4214D9D21AD6
:10226000C0F89023C078012804D1D4F88013C8188E
:10227000C4F880039A4228BF1A462046D4F8801337
:1022800092B200F062F815E0D0F8E4150B6923B1C2
:1022900090F81221032A00D19847204600F05EF8FA
:1022A00008E0D0F8E4359B6923B190F81221032AA5
:1022B00000D19847002010BD2DE9F041069F04464B
:1022C000164698460D46FFF793F920462946C4F86E
:1022D000E485C4F8E875C4F8EC6500F0B7FED4F8FE
:1022E000E835186880472046BDE8F041FFF7D4B9CB
:1022F000D0F8E43510B504461A689047D4F8E805DC
:1023000081688847002010BD08B5D0F8E4355A68C8
:102310009047002008BD38B504460D46C4F83C215E
:10232000C4F838211346022280F8112100212A46E0
:1023300000F02EFF002038BD10B50C4613460021DA
:10234000224600F025FF002010BD10B50C461346B4
:102350000021224600F0FFFE002010BD00210423D2
:1023600010B50A46044680F811310B4600F010FF04
:10237000204600F04DFE002010BD0021052310B5C1
:102380000A46044680F811310B4600F0E4FE204670
:1023900000F03EFE002010BD90F8CC350B7090F898
:1023A000CD254A7090F8CE3590F8CF2503EB022268
:1023B0004A8090F8D03590F8D12503EB02228A802C
:1023C00090F8D23590F8D32503EB022293B2CB805C
:1023D0000121C0F8403180F81111704710B58021FB
:1023E000044600F0F0FE2046002100F0ECFE2046FE
:1023F000BDE8104000F00CBE70B54E788A88012E02
:1024000004460D46D3B211D029D3032E51D190F8F2
:102410001221022A2AD0032A49D14988A9B9A3B195
:10242000802B12D0194600F0CEFE0EE090F812215B
:10243000022A1BD0032A3AD14988002939D153B145
:10244000802B08D0194600F0DCFED4F8E4052946BC
:102450008368204698472046FFF780FF29E090F8E0
:102460001251022D02D0032D21D106E00BB3802B97
:102470001FD0194600F0A7FE1BE012F0800F4FF0AE
:10248000280006D002F07F0200FB024191F81E31C5
:1024900003E000FB034393F87633074803B10123BD
:1024A0000360054920460222FFF735FF01E0FFF7F0
:1024B00095FF002070BD00BFAC15002038B590F826
:1024C0001231032B04460D460CD10A79012A09D892
:1024D000D0F8E4359A689047E88828B92046FFF795
:1024E0003DFF01E0FFF77AFF002038BD70B54B7863
:1024F000052BA2B004460D4600F0B18008D8012B90
:1025000000F04381C0F00881032B40F0618114E1A9
:10251000082B00F0F38003D8062B40F0598106E029
:10252000092B00F0BC80552B40F052813DE14888DA
:10253000010A4B1E062B00F24B81DFE813F0070067
:1025400018003200490149015E007300D4F8EC35EF
:10255000A0781A680DF1060190470146E8884028E6
:1025600003D094F81231012B69D1082357E0D4F835
:10257000E4050DF10601826AA0789047A378012B4B
:10258000014609D1207A012806D1D4F8E415CA6A97
:102590000DF106019047014602204870C4F8F0157D
:1025A0004DE0C1B2A078052920D8DFE801F003078B
:1025B0000F13171BD4F8EC154A6802E0D4F8EC3579
:1025C0009A680DF106019047014638E0D4F8EC25F1
:1025D000D268F6E7D4F8EC150A69F2E7D4F8EC35DE
:1025E0005A69EEE7D4F8EC158A69EAE7D4F8E425ED
:1025F000136B0DF106029847E6E7A078002840F03B
:10260000E780D4F8E4158A6A0DF106019047744911
:10261000837BC27B007C0B714A7188710A23ADF801
:1026200006300CE0A078002840F0D280D4F8E425F1
:102630000DF10601D36A9847014607204870BDF89E
:102640000600002800F0C880EA88002A00F0C48054
:10265000824228BF0246ADF806202046B5E08A88AF
:10266000002A40F0B580C988002940F0B1806E880A
:1026700090F8122106F07F03032A1E4600F0A8807E
:1026800080F81431194600F0DAFD2046FFF766FEA7
:102690000EB1022000E0012084F812019CE08B784A
:1026A000504A012B137000F2938090F81221022AF5
:1026B00003D0032A40F08E8008E0002B61D0012176
:1026C000032380F8101180F8123114E043B902217D
:1026D00080F8121180F810311946FFF715FE50E00E
:1026E00090F8101101294CD0FFF70EFE3D480178FB
:1026F000204684F81011FFF7FBFD42E0CA88012A4A
:1027000066D190F81231022B04D0032B62D100F570
:1027100088715AE0344958E090F81221931E012B39
:1027200058D83248D4F81821002101600AB1022398
:10273000036020462D49022247E04B88012B2DD013
:10274000022B49D18A8812F0FF0F45D10069110A86
:102750004A1E4368042A0FD8DFE802F00305070980
:102760000B00012006E0022004E0032002E0042028
:1027700000E0052060F306131D490B60012384F877
:1027800016312046FFF7EAFD26E090F81221931E4D
:10279000012B1FD84A88012A1ED10023D4F8E42532
:1027A000C4F8183193689847EBE70978C0290FD12E
:1027B0006A886AB9EE88802E0AD10E49324602A88C
:1027C00000F0A8FF204602A93246FFF7A4FD03E06F
:1027D00020462946FFF702FE002022B070BD00BF50
:1027E00004000020A4150020B0150020A81500202A
:1027F000842000208F39000830B5C0B10023C55CAB
:10280000DCB20133002DFAD1631C5B00138003227C
:102810000B704A700138022310F8012F3AB15C1C8A
:10282000CA54E2B2023300248C54DBB2F4E730BD68
:10283000C36804494FF0FF326FF080405A6058611E
:10284000996170470008008037B50023104C019350
:1028500005460320FEF72AFFE8680269013C019261
:1028600013D001990029F4DA019B43F0010201928F
:102870000199074A01610369013A019302D0019964
:10288000C907F8D40320FEF711FF00203EBD00BFAA
:10289000410D030030B5C4786CB900EB82000333FE
:1028A000D0F8D0509B1022469A4204D051F8220012
:1028B00001322860F8E7002030BD10B50332D0F8AF
:1028C000D0409210002393424FEA830004D0206846
:1028D00041F823000133F6E7081810BD0122F0B5D6
:1028E000002340249142C370827084800CD14FF445
:1028F000A073C172082204240221C38002704470B4
:1029000001724FF0A0430CE059B90C23C17203705F
:1029100006214FF4A0650226204B4170C580067247
:10292000C27003F5006505614578C360024619462B
:1029300000240432AC4201F1200608D201F51067F0
:1029400001F530611165576101343146F1E703F556
:10295000806403F5886144610478C0F8CC100022DB
:1029600003F5A061A24206D200EB82050132C5F850
:1029700090102031F6E703F580510022A24207D2E1
:1029800000EB82050132C5F8D01001F58051F5E762
:1029900003F56063C0F80C310020F0BD0000044076
:1029A00038B5037A0025012B0446C36821D1986B02
:1029B000617A65F3104009B140F480109863DA68D9
:1029C0006FF386126FF314526FF396526FF3514206
:1029D0006FF3D342DA602046FFF736FFE378012B2E
:1029E00019D1052161F34405E06845F020058560B3
:1029F00011E0DA6842F04001D960FFF725FF607A04
:102A0000E36800280CBF4FF434124FF474129A6339
:102A10001420FEF74EFEE278012A06D1E368996899
:102A200021F03E0040F02A029A60002038BDC368C1
:102A30009A6842F00100986000207047C3689A6865
:102A400022F00100986000207047000007B50023C5
:102A50000193019A42F020030193019A094B61F31B
:102A60008A120192C268019810611169013B0191BB
:102A700002D001988006F8D40320FEF717FE00204C
:102A80000EBD00BF410D030007B50023019301995E
:102A900041F010020192C068019B074A036101697D
:102AA000013A019102D0019BD906F8D40320FEF728
:102AB000FDFD00200EBD00BF410D0300C26808B53A
:102AC000D36801296FF35D736FF39E7302D143F0F6
:102AD000005302E009B943F080433220D360FEF78F
:102AE000E8FD002008BDC368586900F0010181F0CD
:102AF00001007047C368586900F001007047C3685F
:102B00005A6998691040704703691A6861F30102B5
:102B10001A60704738B5C368044600256FF08042DC
:102B20009D615A61FFF784FEE078A8420CBF102136
:102B3000294641F4872343F00812E368996942F477
:102B4000401021EA000141EA00029A61284638BD9E
:102B5000D0F80C31016970B500261E600A6866F372
:102B6000CC220A60C37A012B044635461BD10321CF
:102B7000FFF7CAFFC021E06880224FF4800661F3AE
:102B80000F0562F31F4562F30F064FF4A073426214
:102B90008662C0F8045163F30F056FF31F45C0F858
:102BA0000851C0F80C51E17A19BB227A012A18BFEA
:102BB00001212046FFF7A8FFC021E0688023C0F272
:102BC000400661F30F0563F31F4563F30F064FF4EF
:102BD000A07243628662C0F8045162F30F056FF37E
:102BE0001F45C0F80851C0F80C51C0F81051C0F88A
:102BF000145110212046FFF729FF2046FFF744FF1C
:102C0000206900234FF0FF31036143618161C3619B
:102C10006278934214D204EB830201339069016815
:102C2000C1F3076202F08001CAB2002A14BF4FF05C
:102C30009041002101600022FF2102618160E7E7ED
:102C400000236078834214D204EB83000133426D89
:102C50001168C1F3076000F08001C8B2002814BFFA
:102C60004FF09041002111600020FF211061916020
:102C7000E7E72369196941F480721A61E078012855
:102C800004D1054A402161F359421A632046FFF7F7
:102C900041FF002070BD00BF030101000369986877
:102CA000C0F341014B1E022B02D8024AD05C704790
:102CB000032070470F3A00080369816910B59C68CA
:102CC0000A68C4F34100022802D06FF30A0202E04E
:102CD000032060F30A020A60596841F480725A6066
:102CE000002010BD30B54D780B780022012D00EB8F
:102CF000830405D105FA03F5A46965F30F0205E025
:102D0000012505FA03F3646D63F31F422368C3F3DF
:102D1000072505F08005EDB26DB98D6865F30A03EE
:102D2000CD7865F39343CD8865F3995343F0805391
:102D300043F40043236009780369012905D1C07A6F
:102D400018B9D86B0243DA6302E0D9690A43DA6141
:102D5000002030BD70B54E780B780024012E22463D
:102D600000EB830505D106FA03F3AD6963F30F02A7
:102D700005E0012606FA03F36D6D63F31F426FF35E
:102D8000CF342C6009780369012906D1C07A20B9B3
:102D9000D86B20EA0201D96303E0D96921EA020273
:102DA000DA61002070BD70B54E780A78012E0B46AE
:102DB00000EB820148D18D695C6929682A6964F356
:102DC000120214B966F3DC420BE09E68A419013CC0
:102DD000B4FBF6F6DC7866F3DC42012C08BF64F342
:102DE0005E722A61C278012A06D11A7800EB820449
:102DF0001A69A46962610CE0DA78012A09D05A697B
:102E00003AB102691C78556B012606FA04F42C438A
:102E10005463DA78012A07D102699268D20554BF57
:102E200041F0005141F080511A7800EB820241F0EC
:102E3000044192691160D978012937D1D9681A788B
:102E40009B8AFFF727FD31E04D6D5E692A689C681B
:102E500029692EB964F31201012464F3DC410AE00C
:102E60003619013EB6FBF4F666F3DC41B605B60D45
:102E7000744364F312012961C178012905D11C78DA
:102E800000EB84014C6D19696161D978012906D183
:102E9000597911B142F0005201E042F080521B78A2
:102EA00000EB830042F00441426D1160002070BDD0
:102EB00073B54D78012D3DD183694A691E681C693F
:102EC0000094E4B242B962F306049DF802208DF842
:102ED000004065F3C4020EE08D68AA428ABF4D61CE
:102EE00062F3060465F306049DF802208DF80040A5
:102EF000012464F3C4028DF80220009A1A61C2789A
:102F0000012A05D10C7800EB840294690A69626198
:102F100046F004461E60C378002B34D14A69002A6B
:102F200031D003690A78586B012101FA02F2024399
:102F30005A6328E00B784E6900EB8302536D8A6870
:102F40001D681C690094E4B206B14A6162F306048C
:102F50009DF802208DF80040012464F3C4028DF82E
:102F60000220009A1A61C378012B05D10A7800EB80
:102F700082035A6D0B695361097800EB810045F0BB
:102F80000445426D156000207CBD4B780978012B0B
:102F900000EB81000DD180690368C3F3076202F082
:102FA0008001CAB20AB143F0804343F400110160CA
:102FB00004E0436D1A6842F4001119600020704764
:102FC0004B78012B0B78C97800EB83000CBF82692A
:102FD000426D1368881E6FF35553012898BF43F064
:102FE000805313600020704703699A69D8691040C4
:102FF000000C704700EB810102694B6D99685069C4
:103000000840704703699869D969084080B27047E1
:1030100082B000230093C021012200238DF8031009
:1030200062F3C40318218DF802308DF80010436D4F
:10303000009A1A61C178012906D100F2CC5058617A
:103040001A684FF080221A6002B0704710B504462B
:10305000FFF744FC012384F81231002384F8143173
:103060006278934213D2282202FB034101F58E724B
:10307000012081F81D0181F81C31A1F82231402086
:103080000021D1709060D16051610133E8E70023E5
:103090006078834213D2282101FB034000F55D7262
:1030A000002180F87433A0F87A3380F8751380F823
:1030B000771340209060D16051610133E8E72046EA
:1030C000FFF7BCFC2046FFF76BFC00212046FFF712
:1030D000F5FC2046FFF73CFD2046BDE81040FFF719
:1030E000A6BC70B5CDB201F07F044FF0280606FBF8
:1030F000040415F0800F14BF04F58E7404F55D749C
:1031000001F07F01ED0921706570A260E37005B1E7
:10311000E180022B01D1002323712146FFF7E2FD5C
:10312000002070BD10B5CAB201F07F034FF0280433
:1031300004FB030312F0800F14BF03F58E7303F535
:103140005D7301F07F01D20919705A701946FFF7BB
:1031500001FE002010BD38B501F07F04282505FBD5
:10316000040505F55D7185F874434B610023CA6061
:103170008B614B70C378012B05F55C7508BF0A6144
:1031800014B9FFF795FE01E0FFF70DFE002038BDF2
:1031900070B501F07F04282505FB040505F58E7147
:1031A0000126CA600A61002285F81C414E7005F5AF
:1031B0008C758A614B6114B9FFF77AFE01E0FFF765
:1031C000F2FD002070BDCAB212F0800F10B54FF0B2
:1031D000280306D001F07F0403FB040303F58E737C
:1031E00003E003FB010404F55D73D209012401F03F
:1031F0007F0119709C705A701946FFF7C6FE0020B7
:1032000010BDCAB212F0800F10B54FF0280306D0DF
:1032100001F07F0403FB040303F58E7303E003FB5B
:10322000010404F55D730024D20901F07F011970D7
:103230009C705A701946FFF7C3FE204610BD026904
:10324000002361F30A1311680B431360704703698D
:103250005A6803206FF341025A60FEF72ABA0369E5
:103260005A6842F0020058600320FEF722BA2DE9A6
:10327000F8434FF02808054608FB010000F58C785C
:1032800008F104040E466269A369A068D11A05EB2F
:103290008602814238BF0846936900F103099969A3
:1032A0004FEA990989B249452AD9A76960698742D5
:1032B00026D228B3A268E168C71B974228BF1746E9
:1032C00007F1030CBBB2F2B228464FEA9C09FFF7A4
:1032D000E1FAE368A069D91905EB86023F18E160BD
:1032E00060699369A76187429969DBD32B6998F874
:1032F0000420596B012000FA02F221EA020159630D
:103300000120BDE8F88300002DE9F04F85B00446A8
:10331000FFF7E9FB08B90020F7E12046FFF7EFFBD4
:1033200007460028F7D0C0F3074A0AF00800C0B2E9
:10333000002856D02046FFF757FE26468046A34673
:103340004FF00009B8F1000F4AD018F0010F3FD03C
:103350005FFA89F5294620460195FFF74BFE10F0EC
:10336000010F0546019B20D0726D01259560E07824
:10337000A84207D11169DBF87C23C1F31200111AAE
:10338000CBF88C139448026819461268204690477F
:10339000E378012B09D1B9F1000F06D194F811118E
:1033A000052902D12046FFF733FE05F00200C2B224
:1033B00012B1736D02259D6005F00801C8B238B1E5
:1033C000854A15682046AB689847716D082088606B
:1033D00009F101094FEA580804360BF1280BB1E74F
:1033E00001200AF0040A5FFA8AF3002B67D0204616
:1033F000FFF708FE264681464FF00008B9F1000F9E
:103400005CD019F0010F53D023695FFA88F1186975
:103410005D6B04EB810225FA01F59269ED0192687A
:10342000EDB205431540EA071AD55A6B012505FA96
:1034300008F022EA00025A63674AB36910689D6087
:10344000436820469847E178A94209D1B8F1000FB6
:1034500006D194F81121042A02D12046FFF7D8FDA5
:1034600005F00800C3B213B1B16908258D6005F0FD
:103470001002D0B210B1B36910259D6005F0400173
:10348000CAB212B1B0694025856005F00203D9B215
:1034900011B1B2690225956025F07F0010F0FF0F91
:1034A00006D041462046FFF7E2FEB36980219960CD
:1034B00008F101084FEA590904369FE70120FDB2DF
:1034C00005F00201CAB212B1E36802215961C7F3E3
:1034D000076202F08003D9B2C9B1A07A40B1D4F832
:1034E0000C31D4F80C216FF341036FF30003136028
:1034F0002169394A486820F001034B601168204671
:103500008B699847E0684FF0004242610120C7F3A1
:10351000072808F00801CBB26BB32F4994F81221A9
:103520000B6800208DF80F008DF80F2020465A6997
:1035300090472069E36882684FF400615961A07A7E
:10354000C0B1D00716D594F81521012A12D19DF8E3
:103550000F30032B0ED1D4F80C11086840F0010293
:103560000A600B6843F0030008601C490A6942F0D6
:1035700006030B61012005F00801CAB242B11648EA
:1035800003682046D9688847E06808224261012024
:1035900005F01005EDB2002D39D0E668B36923F0CF
:1035A0001001B161366A282206F00F00C6F34343CA
:1035B00002FB0045022B05F55D7511D0062B20D1CD
:1035C00004F2CC5120460822FFF777F9A969C6F327
:1035D0000A168819A86114E01000002000ED00E030
:1035E00047F6F072324062B1C6F30A16E968324615
:1035F0002046FFF762F9EB68A86999198619E96016
:10360000AE61E3689A6942F010019961012008F007
:103610001003DAB2002A37D026697068002520F03E
:103620000101716020462946FFF710FA23462A4619
:1036300066780433B24206D25E69FF21B160186D2C
:1036400001328160F4E70126206966F30F050B2142
:103650004FF0FF3266F31F458261C5614161C0F8DA
:1036600084100161416403686FF30A13036020460C
:10367000FFF7CEFC2649E0680B684FF480524261A8
:103680001A6920469047304608F020085FFA88F112
:10369000E9B12046FFF710FBE5682046ED68FFF72B
:1036A000FDFA032806D100214FF40070A170A0801C
:1036B000092204E001204023A070A3800522E368D2
:1036C00062F38D254FF40052DD6001205A61C7F38B
:1036D000074707F01001CBB24BB10D4802682046F6
:1036E000D1698847E3684FF480105861012007F0E2
:1036F0002007FFB24FB1064A116820460B6A98476F
:10370000E0684FF400124261012005B0BDE8F08F7F
:103710001000002010B50023934203D0CC5CC454A9
:103720000133F9E710BD00000000024080000000F6
:10373000000402400080000000040240200000005D
:1037400000000240200000000004024000200000B1
:1037500000040240080000000004024004000000D1
:10376000000C0240000800000004024000100000AD
:10377000000C024000040000000002400080000035
:103780000004024000010000FFFFFFFF00000000F6
:1037900000000000004000080800000000000000D9
:1037A00000800008100000000000000000C00008B9
:1037B00018000000000000000000010820000000C8
:1037C00000000000000002082800000000000000C7
:1037D000000004083000000000000000000006089F
:1037E0003800000000000000000008084000000051
:1037F0000000000000000A0848000000000000006F
:1038000000000C08500000000000000000000E083E
:103810005800000000000000000002030301020342
:1038200003030303020203014D494F533332005394
:10383000544D33324634444953434F564552590050
:1038400053544D3332463478780025303878003F71
:10385000002564004D494F53333220426F6F746C22
:103860006F6164657200286329203230313420543E
:103870002E204B6C6F7365002025303258002020BD
:103880002000253038582000F000007E3200000073
:10389000BD150008991500088314000800000000F9
:1038A000871400088715000875150008000000003F
:1038B00000000000000000008D1400088D140008B6
:1038C0004115000804030904120100020000004031
:1038D000C016FE031010010203010000611400086D
:1038E0006D14000849150008D11400089914000847
:1038F0003D150008391500083432006D69646962AD
:103900006F782E6F72670009026500020104803231
:10391000090400000001010002092401000109005E
:103920000101090401000201030002072401000152
:1039300041000624020101000624020202000924BB
:103940000301030102010009240302040101010033
:1039500009050202400000000005250101010905DA
:1039600081024000000000052501010379140008D0
:103970007B140008B51500087F14000881140008A6
:103980007D140008AF150008286E756C6C2900D1F5
:103990000FED54CFC5FBB89752389138910E7D0F7B
:1039A000ED389301910E9100C11F020E91F70410A2
:1039B00040006E106EE76A0000000000000000008A
:1039C00000000000000000000000000000040000F3
:1039D00000000000000000000000002F55461F00FE
:1039E000D84840376AF76A00300000C7062E734A8D
:1039F0002C137BE97F32002A280D9BFE0B21EF421E
:103A00002A2F73B5B8DA76E679BF0FEB793E0B0251
:103A10000102000000000000101000000A06000271
:103A200000000040010000001400002045220008B2
:103A30009121000849210008EF2000081B210008FF
:103A4000D3200008BD200008FF2000080D21000839
:103A50000000000000000000FFFFFFFFFFFFFFFF6E
:103A6000FFFFFFFFFFFFFFFFFFFFFFFFFFFFFFFF66
:103A7000FFFFFFFFFFFFFFFFFFFFFFFFFFFFFFFF56
:103A8000FFFFFFFFFFFFFFFFFFFFFFFFFFFFFFFF46
:103A9000FFFFFFFFFFFFFFFFFFFFFFFFFFFFFFFF36
:10400000000002209D1C0108991C0108D91101081B
:10401000991C0108991C0108991C01080000000066
:10402000000000000000000000000000D11901089D
:10403000991C010800000000411A0108911A0108AA
:10404000991C0108991C0108991C0108991C010878
:10405000991C0108991C0108991C0108991C010868
:10406000991C0108991C0108991C0108991C010858
:10407000991C0108E5400108C5400108991C010888
:10408000991C0108991C0108991C0108991C010838
:10409000991C0108991C0108991C0108991C010828
:1040A000991C0108991C0108991C0108991C010818
:1040B000694501088D450108991C0108555A0108F8
:1040C000615A01083D5A0108495A0108991C010822
:1040D000991C01089D5701086D560108DD5601081D
:1040E000991C0108991C0108991C0108991C0108D8
:1040F000991C0108991C0108991C0108991C0108C8
:10410000991C0108991C0108B1450108991C010876
:10411000991C0108ED570108991C0108991C010818
:10412000991C0108991C0108A5400108991C010867
:10413000991C0108991C0108991C0108991C010887
:10414000991C0108991C0108991C01089D48010847
:10415000991C0108991C0108991C01084D57010878
:10416000991C0108991C0108991C0108991C010857
:10417000991C0108C5480108991C0108991C0108EF
:08418000991C0108991C0108BB
:020000040801F1
:1000000070B5002002F022FA224B5D789878002427
:1000100015FB00F5AC4219DA661C31461E4802F0A9
:1000200091FCE0B202F0C0F9002002F00FFA0028C3
:100030000ADA18484378194894FBF3F203FB124498
:10004000611C013202F07EFC3446E3E70024AC423E
:100050001ADAE0B202F0A8F90020014602F0AAF98B
:100060000C490F484B7894FBF3F203FB124101312A
:10007000013202F071FA0121002002F09BF90948D7
:1000800002F06AFA0134E2E7002002F08DF9002064
:1000900070BD00BF1233002034B5010848B5010817
:1000A0006EB5010879B5010838B54B4B4B4D0022B0
:1000B0000220012110241A70587099709C80D880F9
:1000C0002A78422A0ED14648464C0178464A197091
:1000D000257846495D701078454D98700C789C8065
:1000E0002A78DA80434B4449002018700C78422C5F
:1000F00004D1424D2A78110658BF1A70404B41492D
:10010000002018700C78422C04D13F4D2A78150637
:1001100058BF1A703D4B3E49002018700C78422C95
:1001200004D13C4D2A78140658BF1A703A4B3B490B
:10013000002018700C78422C04D1394D2A78100612
:1001400058BF1A70374B3849002018700C78422C71
:1001500004D1364D2A78110658BF1A701D78314CDB
:1001600002F09CFF85421BD0202002F087FC217802
:100170002F480A4602F0E6FB102002F07FFC2178AF
:100180002B480A4602F0DEFB202002F077FC2948CB
:1001900002F0D8FB102002F071FC264802F0D2FBDE
:1001A000204B187802F072FF234B244A244953F85D
:1001B000040B8B4242F8040BF9D100231F4A995CCF
:1001C00020395F29114601D90020D0540133202B5A
:1001D000F4D10020C87738BD70000020C03F00086F
:1001E000C13F0008C23F0008C33F0008C43F0008E9
:1001F000C53F0008D0000020D23F0008D33F0008D0
:10020000F1000020D43F0008D53F00087C0000200A
:10021000D63F0008D73F00087A000020D83F0008EA
:10022000D93F00087B000020D03F0008D13F0008E4
:1002300080B50108A9B50108E03F0008D100002001
:100240000040000813B5044610B94FF0FF3006E037
:10025000002201A901F04EF8019B9C42F5D01CBD83
:1002600008B5FFF721FF4FF0FF3003F093FF0021A7
:100270004FF0FF3003F0BAFF044802F015FF044AC4
:10028000044800231370038008BD00BF0D0501085A
:100290007D000020CE00002038B50546322435B957
:1002A00003F0D6FFC1434FF0FF3003F09FFF44F649
:1002B000206004F0B1F9013CF1D1204638BD0000C6
:1002C0000020F8B5014602F075F82F4802F01AF93F
:1002D0000121002002F06EF82C4802F013F92020D2
:1002E00002F0CCFB2A4802F02DFB102002F0C6FBE6
:1002F000274802F027FB6FF07845002403F0A8FFA1
:1003000005F17846C14301364FF0FF3003F06EFF30
:10031000300707D10121092002F04CF81D48314671
:1003200002F01AF96F1C1C4B6A78F85C824225D0E7
:100330001A496A18FF2A21D90134092C0FDC202020
:1003400002F09CFB3146164802F0FCFA102002F045
:1003500095FB1348314602F0F5FA3D46CEE70A2CEC
:10036000FBD1202002F08AFB0E4802F0EBFA1020AD
:1003700002F084FB0B4802F0E5FAEEE70A4B9F42DD
:10038000EBD12046F8BD00BFE7B50108F8B501087C
:1003900009B6010821B60108C7C6010001C1FFF76F
:1003A00028B6010844B60108FF3F000810B503F065
:1003B00043FA05F011FD4FF0006403F049FFC1431B
:1003C0004FF0FF3003F012FFA304980C6BB9022129
:1003D00005F066FD082808D04FF0FF3005F012FD4B
:1003E00003F03EFA4FF0FF3010BD3748221804F1F9
:1003F000784051781378A0F57C52FF2A43EA012116
:1004000047D8A0F57F53012B01D8304A17E0304878
:100410002218012A03D82D488178437837E02D4BE4
:10042000E018012806D82948C188838843EA0122B8
:1004300091B22EE0284AA318012B05D8274A11783B
:100440000B0243F0420124E025482218012A01D87A
:10045000244AF4E7244BE018012801D8234AEEE7A8
:10046000234AA318012B01D8224AE8E72248221880
:10047000012A01D8214AE2E7214BE0181F2808D8B9
:1004800004F120011F4ACBB2D018D35C417843EA73
:100490000121204605F0E6FC082808D04FF0FF3087
:1004A00005F0B0FC03F0DCF96FF0010010BD164A56
:1004B0000234944281D105F09DFC03F0D1F9FFF79D
:1004C000F3FD002010BD00BFC7C601007000002072
:1004D0003EC0FFF73CC0FFF730C0FFF77B000020B5
:1004E0002EC0FFF7D00000202CC0FFF7F100002045
:1004F0002AC0FFF77C00002028C0FFF77A00002008
:1005000020C0FFF7D100002000400008F7B50C46DE
:10051000054602F0B5FD0646284602F0AFFA0D2C5E
:1005200000F0BB820A2C40F0AA82964896490AF055
:100530006FFD002800F39D829248944901AA0AF0B9
:10054000F5FF0446002800F0948291490AF0ACFFC0
:10055000002855D18F48904C904D02F0F3F9904807
:1005600002F0F0F921788F4802F0ECF929788E48F2
:100570008E4D02F0E7F98E498E48097802F0E2F9D3
:100580008D4A8E48117802F0DDF98D4801788D484A
:100590000A4602F0D7F98C488C4902F0D3F92C783E
:1005A000204601F0C1FE20B1287801F0BDFE0246D0
:1005B00000E0874A21467D4C864802F0C3F9864810
:1005C000617802F0BFF98548A17802F0BBF9844850
:1005D000A18802F0B7F9E188824802F0B3F98248B5
:1005E00002F0B0F968480AF00BFD804802F0AAF961
:1005F0007F4802F0A7F97F4802F0A4F97E4836E26E
:1006000020467E490AF050FF0546C0B97C4802F0FA
:1006100099F92C46E5B2284601F086FE38B1284605
:1006200001F082FE21460246764802F08BF9013441
:10063000FF2CEFD1744802F085F9744817E2204688
:1006400073490AF031FF10B902F09EFF11E2204613
:1006500070490AF029FF70B90124FFF7A7FE0028AE
:1006600080F2198221466C48013402F06BF9062CA5
:10067000F3D16A4807E0204669490AF015FF38B906
:10068000FFF712FD674802F05DF9FFF7B9FCF0E1F2
:10069000204665490AF008FF002840F0E7813B4901
:1006A00001AA0AF043FF0446002800F0DD815F49FB
:1006B0000AF0FAFE90B9354901AA0AF037FF18B1DD
:1006C000FFF7C0FD012801D95948D0E1324BC2B231
:1006D0001A700AB15748CAE15748C8E1204657493D
:1006E0000AF0E2FE90B9294901AA0AF01FFF18B1E9
:1006F000FFF7A8FD012801D95148B8E1C1B2274848
:10070000017009B14F48B2E14F48B0E120464F496E
:100710000AF0CAFED8B91D4901AA0AF007FF18B1AC
:10072000FFF790FD012801D94948A0E1224BC2B250
:100730001A7022B1474802F005F9474897E1474847
:1007400002F000F9464802F0FDF846488FE12046E5
:1007500045490AF0A9FE002840F08E800B4901AA05
:100760000AF0E4FE18B1FFF76DFD012801D93F48FA
:100770007DE1C1B20E48017009B13D4877E13D48C5
:1007800075E100BF7D000020452901088AB60108F7
:100790008DB6010892B60108D0000020F1000020BB
:1007A000AFB60108D1B6010833B7010870000020C8
:1007B0007A00002092B701087C000020E5B701080C
:1007C0007B0000203EB801089AB80108D100002043
:1007D00082B60108DBB801081FB9010871B9010828
:1007E000C3B9010808BA01084EBA010884BA010861
:1007F000DCBA01081EBB010851BB010876BB010829
:1008000080BB01089ABB0108A6BB0108DDBB01083B
:100810003FBC010870BC010845BC0108E0C30108E9
:100820006EBC010876BC010841BC010892BC0108FD
:100830009BBC0108B6BC0108D6BC0108F7BC010886
:1008400002BD01081FBD010853BD010888BD010894
:100850009BBD0108C0BD0108F0BD010839BE0108FB
:100860006ABE0108C7BE01081BBF010824BF0108FA
:100870003FBF010886BF010820468A490AF014FEDE
:1008800020B1204688490AF00FFEB8B900208749F8
:1008900001AA0AF04BFE20B1FFF7D4FC7F280146E5
:1008A00001D98348E3E0834B0A461870824802F07E
:1008B00049F8824802F046F88148D8E0204681494C
:1008C0000AF0F2FD002833D1784901AA0AF02EFE81
:1008D000074620B1FFF7B6FC041E11DA01E04FF025
:1008E000FF340025284601F01FFD014638460AF076
:1008F000BDFD08B92C4603E00135EDB2FF2DF1D165
:10090000FF2C04D9704802F01DF87048AFE0704D1C
:10091000E0B2287001F008FD20B1287801F004FD54
:10092000024600E06B4A6C48214602F00BF8A0E05A
:1009300020466A490AF0B8FD98B95C4901AA0AF054
:10094000F5FD18B1FFF77EFC014601E04FF0FF31E5
:10095000481EFE2801D9624889E05D4A614851700D
:100960007FE0204660490AF09FFD98B94F4901AAEF
:100970000AF0DCFD18B1FFF765FC014601E04FF01D
:10098000FF314A1EFE2A01D9584870E0504B5848A2
:10099000997066E0204657490AF086FDA8B9434998
:1009A00001AA0AF0C3FD18B1FFF74CFC014601E0B3
:1009B0004FF0FF314A1E4FF6FE739A4201D94E485E
:1009C00055E0434881804D484BE020464C490AF0B1
:1009D0006BFDA8B9354901AA0AF0A8FD18B1FFF7C7
:1009E00031FC014601E04FF0FF314A1E4FF6FE7325
:1009F0009A4201D943483AE03548C180424830E044
:100A0000204642490AF050FD48B1204640490AF0CC
:100A10004BFD20B120463F490AF046FDF8B9019C44
:100A200020460AF04CFD1F2802D93B481F2118E040
:100A30003A4B204604F120011A4650F8044B8842F4
:100A400043F8044BF9D1107820B13548334901F00F
:100A500079FF02E0334801F075FF184807E032489B
:100A6000214601F06FFF04E0304800E0304801F01B
:100A700069FF3049304800230B8003700DE02D4999
:100A80000B884E2B09D82C4A581CD45483B20B80A7
:100A90000021D15401E02948F5E5304601F0EEFF90
:100AA0000020FEBDD5BF0108CEBF01088AB60108EF
:100AB000D8BF01087B0000200FC0010847C0010813
:100AC00080C00108C6C00108CFC0010810C10108DC
:100AD0007000002082B601083EC1010869C101080A
:100AE00073C1010896C10108B9C10108C3C1010859
:100AF000E6C1010809C2010813C201083CC201088D
:100B00005FC201086AC2010894C20108BCC20108A0
:100B1000B8C20108C1C20108CEC20108D10000203C
:100B2000FCC2010837C301086AC3010887C3010872
:100B3000A6C30108CE0000207D000020FEC30108EE
:100B400038B5FFF75DFA002001F02EFC202001F0FF
:100B500095FFAA4801F0F6FE102001F08FFFA7488C
:100B600001F0F0FE202001F089FFA54801F0EAFE27
:100B7000102001F083FFA24801F0E4FE202001F0E4
:100B80007DFFA049A04801F0DDFE102001F076FFB6
:100B90009C499D4801F0D6FE202001F06FFF984847
:100BA00001F0D0FE102001F069FF954801F0CAFE67
:100BB000202001F063FF914801F0C4FE102001F0F5
:100BC0005DFF8E4801F0BEFEFFF77AFB0446002869
:100BD00042D1014601F0EEFB8C4801F093FC01216B
:100BE000204601F0E7FB8A4801F08CFC01214FF020
:100BF000FF3003F0FBFA202001F040FF854801F0B0
:100C0000A1FE102001F03AFF824801F09BFE202057
:100C100001F034FF804801F095FE102001F02EFF16
:100C20007D4801F08FFE202001F028FF7B4801F075
:100C300089FE102001F022FF784801F083FE202079
:100C400001F01CFF764801F07DFE102001F016FF38
:100C5000734801F077FEFEE70020014601F0AAFB91
:100C6000704801F04FFC202001F008FF6E4801F0B1
:100C700069FE102001F002FF6B4801F063FE0020C6
:100C8000014601F097FB694801F03CFC012100207E
:100C900001F090FB664801F035FC202001F0EEFEEB
:100CA000644801F04FFE102001F0E8FE614801F0B9
:100CB00049FE0024FFF77AFB002818DA01304FF0D4
:100CC000200009D101F0DAFE5B4801F03BFE102064
:100CD00001F0D4FE584808E001F0D0FE574801F07A
:100CE00031FE102001F0CAFE544801F02BFEFFF740
:100CF000E7FA054688B10134052C0ED0202001F01A
:100D0000BDFE21464E4801F01DFE102001F0B6FE4A
:100D100021464B4801F016FECCE74FF0FF30012191
:100D200003F064FA95BB2946284601F043FB454889
:100D300001F0E8FB0121284601F03CFB424801F0AC
:100D4000E1FB202001F09AFE404801F0FBFD10205D
:100D500001F094FE3D4801F0F5FD202001F08EFEEB
:100D60002E4801F0EFFD102001F088FE2B4801F025
:100D7000E9FD202001F082FE294801F0E3FD10206A
:100D800001F07CFE264801F0DDFD35E00020014643
:100D900001F010FB2E4801F0B5FB0020012101F00D
:100DA00009FB2C4801F0AEFB202001F067FE2A4829
:100DB00001F0C8FD102001F061FE274801F0C2FDDE
:100DC000202001F05BFE254801F0BCFD102001F061
:100DD00055FE224801F0B6FD202001F04FFE2048CC
:100DE00001F0B0FD102001F049FE1D4801F0AAFD00
:100DF0000120FFF751FAD7E7FEE700BF8A0C02088F
:100E000013C4010829C40108FE1302083AC40108EA
:100E10004BC401085CC4010872C4010891C40108F4
:100E2000BAC40108F3C4010805C5010827C50108B3
:100E300039C501084BC5010871C5010887C50108FE
:100E4000A3C50108BEC50108D0C50108E2C5010857
:100E500011C6010824C6010837C6010852C6010898
:100E6000A2C6010808B503F0F3F9C1430120BDE8AB
:100E7000084003F0BBB97047704770477047704730
:100E80007047704708B501F0BDF8BDE80840FFF7AE
:100E9000F5BF000007B500F0A7FB0190012101A8F4
:100EA00000F0CEFC00F0A0FB019B421F934238BF34
:100EB000019003F0E7FD074801F02EF8064801F025
:100EC000D7F9064803F0B7FB02F02CF9FFF7CAFF89
:100ED000E4E700BF7F0E0108810E0108830E0108C0
:100EE00007B500F081FB0190012101A800F0A8FCEA
:100EF00000F07AFB019B421F934238BF019001F042
:100F000071FD034802F020F8FFF7B5FFECE700BFE2
:100F1000790E010837B5002002F0F6FB002003F03F
:100F200059FB002002F01EFB002003F025F90020F1
:100F300002F0F8FE002000F02FFF002000F0C0FFBC
:100F4000002001F01BF8002001F026F8002002F03C
:100F500005FB002003F06CFB002002F0FCFA0020EF
:100F600001F010FB002003F017FD002002F0A2F8B2
:100F7000002002F0A5F8002001F068FA012001F03D
:100F800013FA002009F000FD002001F00DFA0AF02C
:100F900035FAFFF765F901F0C1FA4FF4FA644FF43E
:100FA0007A7003F039FB013CF9D103252346009503
:100FB0000194094909484FF4807200F005FA084984
:100FC00000954FF4807223460194064800F0FCF926
:100FD00000F0D0FA20463EBDCC060208950E01086E
:100FE000C7060208E10E010808B502F0C5FAFFF7CE
:100FF00044FF0248BDE8084000F026BF850E010806
:10100000FFF79EBD10B5002401346423B4FBF3F256
:1010100003FB124008B901F0E5FC094801F094FF18
:1010200042F21071B4FBF1F301FB1342002AEBD141
:1010300003F00EF9C143012003F0D8F8E4E700BF44
:10104000790E010808B56FF07F4001F097FA002093
:1010500001F096FA002001F0A7F901F0F5F900205F
:10106000014601F0A7F9074801F04CFA01210020E0
:1010700001F0A0F9044801F045FA044801F062FCCF
:10108000FFF7C0FFD2060208E3060208F4060208D2
:1010900010B5036841688268C46888B0009303692A
:1010A0000191029241698269C06903940493334CAF
:1010B0000591069207900699314801F043FC2046BD
:1010C00001F040FC2F4801F03DFC204601F03AFCC5
:1010D00000992D482D4C01F035FC01992C4801F068
:1010E00031FC02992B4801F02DFC03992A4801F0AC
:1010F00029FC0499294801F025FC0599284801F0AC
:1011000021FC0699274801F01DFC0799264801F0AB
:1011100019FC264B2648196801F014FC254926487D
:10112000096801F00FFC254A2548116801F00AFC06
:1011300024480168244801F005FC2168234801F097
:1011400001FC6FF07F4001F019FA002001F018FA5D
:10115000002001F029F901F077F90020014601F0A3
:1011600029F91B4801F0CEF90121002001F022F9F4
:101170000699184801F0F0F9FFF744FF15C401087B
:10118000280702083E070208520702083CED00E06B
:101190005D07020868070208730702087E07020855
:1011A0008A070208330702089507020838ED00E0B5
:1011B000A107020828ED00E0AE0702082CED00E0D0
:1011C000BB07020830ED00E0C8070208D507020897
:1011D000E2070208F30702081EF0040F0CBFEFF34A
:1011E0000880EFF30980FFF753BF704740482DE9AF
:1011F000F04FD0F800800846044614F8015B08EB75
:1012000005062046777807F00806F7B2002FF3D1DD
:101210002D2D03D114F8015B012704E02B2D04BF11
:10122000244614F8015B002B5BD0102B07D1302D26
:1012300005D12578782D4DD1657810230234002F03
:101240000CBF6FF000404FF00040B0FBF3F90026F8
:1012500003FB190A304608EB050C9CF801C00CF0A2
:10126000040B5FFA8BFBBBF1000F01D0303D0BE0AC
:101270001CF0030C1BD0BCF1010F14BF4FF0570C36
:101280004FF0370CCCEB05059D4210DAB6F1FF3F6D
:101290000AD0484506D801D1554503DC03FB005070
:1012A000012601E04FF0FF3614F8015BD3E7731C11
:1012B00008D1002F14BF4FF000406FF000402AB952
:1012C000BDE8F08F07B140427AB106B1611E1160EE
:1012D000BDE8F08F582DAFD03025002BAFD10823BB
:1012E000ADE7302DA5D00A23A9E7BDE8F08F00BFF8
:1012F0006800002030B505460C46134600202946FC
:101300002246BDE83040FFF771BF0000F8B51E4D22
:101310001E4B04461E6828680F462968002280F884
:101320004C20081D00F018FB48B9194B19682868B3
:10133000C26A012000FA02F221EA02011960631C6C
:10134000114807D137B102681248111DBDE8F840B5
:1013500000F0DEBAA41902680B4B5460B44207D205
:101360000D4908681B68191DBDE8F84000F0DCBA9B
:101370000A4908681B68191D00F0D6FA0848026877
:10138000944238BF0460F8BD98010020A0010020FD
:10139000F0010020DC010020A4010020F800002062
:1013A0009C010020064A07481368196811B94FF0DC
:1013B000FF3203E01268D368D9684A680260704758
:1013C000F80000209C0100202DE9F84F4FEA820B25
:1013D000814658460E46924698460B9F00F0B6FB53
:1013E0000546002800F0A580502000F0AFFB044621
:1013F00070B105635A462846A5210AF02EF8236BE2
:101400000AF1FF3A03EB8A0020F0070B002506E003
:10141000284600F01BFC8CE00135102D06D0725DD3
:10142000611981F83420735D002BF5D10A9E0025E7
:10143000042E34BFB2464FF0040A261D304684F80D
:101440004350C4F82CA0C4F844A0A56400F05DFA91
:1014500004F1180000F059FACAF10500A0612461F6
:10146000646284F84C5058464946424600F09EFA61
:10147000206007B13C6000F0C3FA304A3048116880
:101480004B1C1360056815BB04601068012827D148
:101490002C4A142707FB0520013500F02BFA052DF7
:1014A000F6D1294F294D384600F024FA284600F09D
:1014B00021FA274800F01EFA264800F01BFA2648B9
:1014C00000F018FA2549264B0F601D6008E0254DF5
:1014D0002A682AB90168E56ACB6AAB4298BF046002
:1014E0002148E36A0268551C204A056011680125FD
:1014F00005FA03F001431160124A142000FB032097
:10150000314600F005FA00F08BFA164B196869B104
:101510000B48E36A0268D16A994207D2144A4FF035
:1015200080501060BFF34F8FBFF36F8F2846BDE828
:10153000F88F4FF0FF30BDE8F88F00BFC0010020EA
:10154000980100201C01002004010020C40100209B
:10155000A801002080010020DC010020F80000200C
:10156000A4010020FC000020BC010020F0010020AC
:1015700004ED00E013B5124B1248019300240094CF
:1015800011494FF480722346FFF71EFF012814D142
:101590004FF0BF0383F31188BFF36F8FBFF34F8FFB
:1015A0000A490B4B4FF0FF320A601860094804608B
:1015B00002B0BDE8104000F08DBA02B010BD00BF0F
:1015C000D8010020C9170108000802089C0100206A
:1015D000FC000020A0010020024B1A68501C18607B
:1015E000704700BF00010020014B1868704700BF22
:1015F000A0010020F8B5354B1868002836D1344BCF
:101600001E6801361E605EB9324A334D1168286883
:10161000324B106029601A68511C1960FFF7C2FE36
:101620002F4D28680025864210D32A4B1A6811686E
:1016300021B92B4B4FF0FF30186007E01C68E068C1
:10164000C46863689E421FD225490B60254A116811
:10165000254AC86A142358431158244803680129AD
:1016600088BF01254BB9FFF7BFFC06E01F490A6898
:10167000551C0D60FFF7B8FC00251D4A11680029B4
:101680000CBF28460120F8BD271D384600F064F93C
:10169000A26A1AB104F1180000F05EF9154AE36A73
:1016A0001068012101FA03F1014311600E4A142070
:1016B00000FB0320394600F02BF90A4BE06A196859
:1016C000CA6A904228BF0125AFE700BF0001002091
:1016D000A0010020F8000020A4010020F400002058
:1016E0009C010020980100201C010020180100200E
:1016F000F4010020F001002070B500F081F9294BC1
:101700001A68501E18601C680CB1002445E0264978
:101710000B68002BF9D0254D2A680AB3EE68F468EF
:10172000261D04F1180000F017F9304600F014F9F6
:101730001F4AE36A1168012505FA03F001431160AD
:101740001C4A142000FB0320314600F0E1F81A4B3C
:10175000E06A1968CA6A904224BF18480560DAE74F
:101760000CB1FFF71FFE16480468054644B1FFF7A9
:1017700041FF10B1114B01211960013CF7D12C60E0
:101780000E4A10680028C0D00E4B4FF080511960EF
:10179000BFF34F8FBFF36F8F012400F041F9204654
:1017A00070BD00BF00010020C0010020A801002082
:1017B000F00100201C01002098010020F40100200D
:1017C0001801002004ED00E070B5184C2368F3B157
:1017D000174DFFF701FF2E68FFF78EFF002EF4D0A4
:1017E00000F00EF9EB68DD68281D00F0B5F811482F
:1017F00001684A1E02602668731E236000F010F91B
:10180000286B00F023FA284600F020FADDE70A48AA
:101810000168012907D9094D4FF080522A60BFF3B2
:101820004F8FBFF36F8FFFF7EBFBCEE794010020E4
:1018300080010020C00100201C01002004ED00E018
:1018400038B504460D46FFF7C7FE134B22681868EB
:10185000904205EB020102D2914207D201E091428F
:1018600006D3814294BF0022012202E0002200E060
:10187000012221601AB1081A0021FFF747FDFFF786
:101880003BFF38B9054B4FF080501860BFF34F8FC6
:10189000BFF36F8F38BD00BFA001002004ED00E052
:1018A0000F4B1A680F4B0AB1012217E00E481A605D
:1018B0000168B1FA81F3DAB20C4B1421C2F11F00B6
:1018C00001FB003000F10801426853688B4243601D
:1018D00004BF5B6843604068054BC2681A6070478C
:1018E00000010020F4010020F00100201C01002074
:1018F0009801002000F108034FF0FF3200214360FF
:101900008260C36003610160704700230361704718
:10191000436808619A684B608A609A689960516070
:1019200001684B1C036070470A68531C30B501D135
:10193000036907E000F108035C682568954201D857
:101940002346F9E75A6808614A60916059608B60E4
:1019500001684B1C036030BD4168826803698A607E
:10196000826851605968814208BF5A600022026152
:1019700018680138186070474FF0BF0383F311886F
:10198000BFF36F8FBFF34F8FFEE70000064800687C
:10199000006880F3088862B661B6BFF34F8FBFF36B
:1019A0006F8F00DF00BF000008ED00E04FF0807394
:1019B00040F8043C054B40F8202C21F0010140F890
:1019C000081C40F80C3C4038704700BF79190108EA
:1019D000074B19680868B0E8F00F80F30988BFF377
:1019E0006F8F4FF0000080F311884EF00D0E70479E
:1019F00098010020AFF30080AFF30080AFF30080C8
:101A00004FF0BF0383F31188BFF36F8FBFF34F8F86
:101A1000024B1A68501C1860704700BF000000207D
:101A2000034A1368581E106008B980F31188704784
:101A30000000002000000000000000000000000086
:101A4000EFF30980BFF36F8F0D4B1A6820E9F00F99
:101A500010602DE908404FF0BF0080F31188FFF7B8
:101A60001FFF4FF0000080F31188BDE8084019689F
:101A70000868B0E8F00F80F30988BFF36F8F7047F4
:101A800098010020AFF30080AFF30080AFF3008037
:101A900008B54FF0BF0383F31188BFF36F8FBFF317
:101AA0004F8FFFF7A7FD18B1034B4FF080521A601C
:101AB000002080F3118808BD04ED00E0034B044AC8
:101AC00007201A6043F8040C704700BF14E000E0E0
:101AD0003F90020008B5094B1A6842F47F00186075
:101AE000196841F07F421A60FFF7E8FF044B0020BD
:101AF0001860FFF74BFFFFF73FFF00BF20ED00E04E
:101B00000000002010B50F4B1A68824201D2134624
:101B1000FAE759685C18844203D14068411859605B
:101B2000184641684418944207D1074C2468A242E1
:101B300003D054681268611841608342026018BF84
:101B4000186010BD00020020FC010020F8B5054619
:101B5000FFF742FD374B186818BB374A510707D0CB
:101B6000D61D26F0070302F52050C11A1A4601E0DF
:101B70004FF420515118083921F007012F4E2D48FC
:101B80003260002373600B604B608B1A82E80A009E
:101B90002B4E2C4A336013602B4B01604FF00041F9
:101BA00019602948066835423BD1002D3AD005F12D
:101BB00008035A071CBF23F007030833002B2ED05D
:101BC0001F4D2F68BB422CD81C4A1468616899428B
:101BD00004D3184D2868844206D122E020680028EA
:101BE000F7D022460446F1E7206815681060CA1A4B
:101BF0000835102A04D9E01842606360FFF782FFBD
:101C000062680F49BB1A0B600E490868834242EABA
:101C1000060638BF0B6000226660226002E01D46A7
:101C200000E00025FFF768FD0DB9FFF70BFA284625
:101C3000F8BD00BFFC010020C90700200002002001
:101C4000F8010020080200200C02002010B5044614
:101C5000E0B10F4A50F8043C1068184216D054F80E
:101C6000081C99B923EA000344F8043CFFF7B4FCCC
:101C7000084B54F8040C1A688118A4F10800196084
:101C8000FFF740FFBDE81040FFF736BD10BD00BFB5
:101C90000C020020F8010020FEE70000684620F05A
:101CA00007018D4601B500230A4A0B49981888425E
:101CB00004D20A49585898500433F5E7084B094AAA
:101CC000934203D2002043F8040BF8E7FFF722F910
:101CD000FEE700BF00000020700000204818020846
:101CE000700000207841002070470000F8B5002106
:101CF0000124214B0A4620461C7001F029FF214691
:101D00002046002201F024FF22462046002101F057
:101D10001FFF20462146224601F01AFF174804788B
:101D20000023A3420CDA164A16491748D55CCF5C4B
:101D3000C65C7D403543C554C95CD1540133F0E7DE
:101D400012490A6802B19047114B188898B111499D
:101D50000A8882B10948531E00780B800023834211
:101D600009DA0749084ACC5CD55C6C40CC540021A8
:101D7000D1540133F3E7F8BD17020020160200200A
:101D8000F92F0020E92F0020C92F00201002002089
:101D9000140200201802002010B500282ED1194B83
:101DA0001949186010220A7003461848184900247F
:101DB000C4541848FF22CA54C254174AD454013399
:101DC000102BF2D115481649048001200C800246E0
:101DD000214601F0BDFE01200246014601F0B8FE99
:101DE0000221012001F076FD06220120032101F0ED
:101DF00011FF0C4B01221A70204610BD4FF0FF302E
:101E000010BD00BF1002002016020020D92F0020B4
:101E1000F92F0020E92F0020C92F002018020020F0
:101E20001402002017020020014B1878704700BFF1
:101E300016020020024B03481A88028000207047D7
:101E4000140200201802002037B5174D2B7823B359
:101E500016490A7822B3164B002418600C702246EB
:101E60002146012001F074FE01200146224601F0C6
:101E70006FFE01202146024601F06AFE0120014664
:101E8000024601F065FE0B482B7800900A490B4A88
:101E9000012002F073F8204604E04FF0FF3001E02B
:101EA0006FF001003EBD00BF1602002017020020A7
